{"abi":[{"anonymous":false,"inputs":[{"indexed":true,"internalType":"address","name":"_from","type":"address"},{"indexed":false,"internalType":"uint256","name":"amount","type":"uint256"},{"indexed":true,"internalType":"address","name":"_to","type":"address"},{"indexed":false,"internalType":"uint256","name":"date","type":"uint256"},{"indexed":false,"internalType":"uint256","name":"time","type":"uint256"},{"indexed":false,"internalType":"string","name":"purpose","type":"string"}],"name":"transactionData","type":"event"},{"inputs":[{"internalType":"address","name":"","type":"address"},{"internalType":"address","name":"","type":"address"}],"name":"ReceivedFrom","outputs":[{"internalType":"uint256","name":"","type":"uint256"}],"stateMutability":"view","type":"function"},{"inputs":[],"name":"addFund","outputs":[],"stateMutability":"payable","type":"function"},{"inputs":[{"internalType":"uint256","name":"index","type":"uint256"}],"name":"approveRequest","outputs":[],"stateMutability":"payable","type":"function"},{"inputs":[{"internalType":"address","name":"","type":"address"}],"name":"balance","outputs":[{"internalType":"uint256","name":"","type":"uint256"}],"stateMutability":"view","type":"function"},{"inputs":[{"internalType":"address","name":"","type":"address"},{"internalType":"address","name":"","type":"address"}],"name":"borrowed","outputs":[{"internalType":"uint256","name":"","type":"uint256"}],"stateMutability":"view","type":"function"},{"inputs":[{"internalType":"address","name":"_to","type":"address"}],"name":"clearedMyDebt","outputs":[],"stateMutability":"nonpayable","type":"function"},{"inputs":[{"internalType":"string","name":"description","type":"string"},{"internalType":"uint256","name":"value","type":"uint256"},{"internalType":"address","name":"_to","type":"address"}],"name":"createRequest","outputs":[],"stateMutability":"nonpayable","type":"function"},{"inputs":[{"internalType":"address","name":"","type":"address"},{"internalType":"address","name":"","type":"address"}],"name":"given","outputs":[{"internalType":"uint256","name":"","type":"uint256"}],"stateMutability":"view","type":"function"},{"inputs":[{"internalType":"uint256","name":"amount","type":"uint256"},{"internalType":"address payable","name":"_to","type":"address"}],"name":"lend","outputs":[],"stateMutability":"payable","type":"function"},{"inputs":[{"internalType":"address","name":"","type":"address"},{"internalType":"uint256","name":"","type":"uint256"}],"name":"loanGivenArr","outputs":[{"internalType":"address","name":"","type":"address"}],"stateMutability":"view","type":"function"},{"inputs":[{"internalType":"address","name":"","type":"address"},{"internalType":"uint256","name":"","type":"uint256"}],"name":"loanTakenArr","outputs":[{"internalType":"address","name":"","type":"address"}],"stateMutability":"view","type":"function"},{"inputs":[{"internalType":"address","name":"find","type":"address"}],"name":"numberOfPeopleIPaid","outputs":[{"internalType":"uint256","name":"","type":"uint256"}],"stateMutability":"view","type":"function"},{"inputs":[{"internalType":"address","name":"find","type":"address"}],"name":"numberOfPeopleWhoHaveGivenLoanToMe","outputs":[{"internalType":"uint256","name":"","type":"uint256"}],"stateMutability":"view","type":"function"},{"inputs":[{"internalType":"address","name":"find","type":"address"}],"name":"numberOfPeopleWhoPaidMe","outputs":[{"internalType":"uint256","name":"","type":"uint256"}],"stateMutability":"view","type":"function"},{"inputs":[{"internalType":"address","name":"find","type":"address"}],"name":"numberOfPeopleWhomIHaveGivenLoan","outputs":[{"internalType":"uint256","name":"","type":"uint256"}],"stateMutability":"view","type":"function"},{"inputs":[{"internalType":"address","name":"find","type":"address"}],"name":"numberOfRequets","outputs":[{"internalType":"uint256","name":"","type":"uint256"}],"stateMutability":"view","type":"function"},{"inputs":[{"internalType":"address","name":"","type":"address"},{"internalType":"uint256","name":"","type":"uint256"}],"name":"paidArr","outputs":[{"internalType":"address","name":"","type":"address"}],"stateMutability":"view","type":"function"},{"inputs":[{"internalType":"address","name":"","type":"address"},{"internalType":"address","name":"","type":"address"}],"name":"paidTo","outputs":[{"internalType":"uint256","name":"","type":"uint256"}],"stateMutability":"view","type":"function"},{"inputs":[{"internalType":"address payable","name":"_to","type":"address"},{"internalType":"uint256","name":"amount","type":"uint256"},{"internalType":"uint256","name":"date","type":"uint256"},{"internalType":"uint256","name":"time","type":"uint256"},{"internalType":"string","name":"purpose","type":"string"}],"name":"pay","outputs":[],"stateMutability":"payable","type":"function"},{"inputs":[{"internalType":"address","name":"","type":"address"},{"internalType":"address","name":"","type":"address"}],"name":"rate","outputs":[{"internalType":"uint8","name":"","type":"uint8"}],"stateMutability":"view","type":"function"},{"inputs":[{"internalType":"address","name":"","type":"address"},{"internalType":"uint256","name":"","type":"uint256"}],"name":"receivedArr","outputs":[{"internalType":"address","name":"","type":"address"}],"stateMutability":"view","type":"function"},{"inputs":[{"internalType":"uint256","name":"index","type":"uint256"}],"name":"rejectRequest","outputs":[],"stateMutability":"nonpayable","type":"function"},{"inputs":[{"internalType":"address","name":"","type":"address"},{"internalType":"uint256","name":"","type":"uint256"}],"name":"requests","outputs":[{"internalType":"string","name":"description","type":"string"},{"internalType":"uint256","name":"value","type":"uint256"},{"internalType":"bool","name":"complete","type":"bool"},{"internalType":"address","name":"from","type":"address"}],"stateMutability":"view","type":"function"},{"inputs":[{"internalType":"address","name":"_for","type":"address"},{"internalType":"uint8","name":"rates","type":"uint8"}],"name":"setRate","outputs":[],"stateMutability":"nonpayable","type":"function"},{"inputs":[{"internalType":"uint256","name":"amount","type":"uint256"},{"internalType":"address payable","name":"_to","type":"address"}],"name":"takeBack","outputs":[],"stateMutability":"payable","type":"function"},{"inputs":[{"internalType":"address","name":"","type":"address"}],"name":"totalBalanceIHaveAdded","outputs":[{"internalType":"uint256","name":"","type":"uint256"}],"stateMutability":"view","type":"function"},{"inputs":[{"internalType":"address","name":"","type":"address"},{"internalType":"address","name":"","type":"address"}],"name":"used","outputs":[{"internalType":"uint256","name":"","type":"uint256"}],"stateMutability":"view","type":"function"},{"inputs":[{"internalType":"uint256","name":"amount","type":"uint256"}],"name":"withdraw","outputs":[],"stateMutability":"payable","type":"function"}],"devdoc":{"kind":"dev","methods":{},"version":1},"evm":{"assembly":"    /* \"DePay.sol\":125:6580  contract DePay {... */\n  mstore(0x40, 0x80)\n  callvalue\n  dup1\n  iszero\n  tag_1\n  jumpi\n  0x00\n  dup1\n  revert\ntag_1:\n  pop\n  dataSize(sub_0)\n  dup1\n  dataOffset(sub_0)\n  0x00\n  codecopy\n  0x00\n  return\nstop\n\nsub_0: assembly {\n        /* \"DePay.sol\":125:6580  contract DePay {... */\n      mstore(0x40, 0x80)\n      jumpi(tag_1, lt(calldatasize, 0x04))\n      shr(0xe0, calldataload(0x00))\n      dup1\n      0x9e6b84c4\n      gt\n      tag_30\n      jumpi\n      dup1\n      0xd14d7ae8\n      gt\n      tag_31\n      jumpi\n      dup1\n      0xd7b6e15e\n      gt\n      tag_32\n      jumpi\n      dup1\n      0xd7b6e15e\n      eq\n      tag_26\n      jumpi\n      dup1\n      0xd7d1bbdb\n      eq\n      tag_27\n      jumpi\n      dup1\n      0xe3d670d7\n      eq\n      tag_28\n      jumpi\n      dup1\n      0xf0610297\n      eq\n      tag_29\n      jumpi\n      jump(tag_1)\n    tag_32:\n      dup1\n      0xd14d7ae8\n      eq\n      tag_23\n      jumpi\n      dup1\n      0xd2713bcf\n      eq\n      tag_24\n      jumpi\n      dup1\n      0xd522ac8f\n      eq\n      tag_25\n      jumpi\n      jump(tag_1)\n    tag_31:\n      dup1\n      0xad1ac14c\n      gt\n      tag_33\n      jumpi\n      dup1\n      0xad1ac14c\n      eq\n      tag_19\n      jumpi\n      dup1\n      0xb0a02abe\n      eq\n      tag_20\n      jumpi\n      dup1\n      0xb1884744\n      eq\n      tag_21\n      jumpi\n      dup1\n      0xb331ea63\n      eq\n      tag_22\n      jumpi\n      jump(tag_1)\n    tag_33:\n      dup1\n      0x9e6b84c4\n      eq\n      tag_16\n      jumpi\n      dup1\n      0x9ecebe2a\n      eq\n      tag_17\n      jumpi\n      dup1\n      0xa2f09dfa\n      eq\n      tag_18\n      jumpi\n      jump(tag_1)\n    tag_30:\n      dup1\n      0x50e30042\n      gt\n      tag_34\n      jumpi\n      dup1\n      0x88811f8d\n      gt\n      tag_35\n      jumpi\n      dup1\n      0x88811f8d\n      eq\n      tag_12\n      jumpi\n      dup1\n      0x8a9cfd55\n      eq\n      tag_13\n      jumpi\n      dup1\n      0x8ead837b\n      eq\n      tag_14\n      jumpi\n      dup1\n      0x95f4513a\n      eq\n      tag_15\n      jumpi\n      jump(tag_1)\n    tag_35:\n      dup1\n      0x50e30042\n      eq\n      tag_9\n      jumpi\n      dup1\n      0x5195afa5\n      eq\n      tag_10\n      jumpi\n      dup1\n      0x71929c51\n      eq\n      tag_11\n      jumpi\n      jump(tag_1)\n    tag_34:\n      dup1\n      0x31287c31\n      gt\n      tag_36\n      jumpi\n      dup1\n      0x31287c31\n      eq\n      tag_5\n      jumpi\n      dup1\n      0x334e3de2\n      eq\n      tag_6\n      jumpi\n      dup1\n      0x43999ac2\n      eq\n      tag_7\n      jumpi\n      dup1\n      0x4fd49044\n      eq\n      tag_8\n      jumpi\n      jump(tag_1)\n    tag_36:\n      dup1\n      0x092a0a8a\n      eq\n      tag_2\n      jumpi\n      dup1\n      0x2d7788db\n      eq\n      tag_3\n      jumpi\n      dup1\n      0x2e1a7d4d\n      eq\n      tag_4\n      jumpi\n    tag_1:\n      0x00\n      dup1\n      revert\n        /* \"DePay.sol\":876:925  mapping(address => address[]) public loanGivenArr */\n    tag_2:\n      callvalue\n      dup1\n      iszero\n      tag_37\n      jumpi\n      0x00\n      dup1\n      revert\n    tag_37:\n      pop\n      tag_38\n      0x04\n      dup1\n      calldatasize\n      sub\n      dup2\n      add\n      swap1\n      tag_39\n      swap2\n      swap1\n      tag_40\n      jump\t// in\n    tag_39:\n      tag_41\n      jump\t// in\n    tag_38:\n      mload(0x40)\n      tag_42\n      swap2\n      swap1\n      tag_43\n      jump\t// in\n    tag_42:\n      mload(0x40)\n      dup1\n      swap2\n      sub\n      swap1\n      return\n        /* \"DePay.sol\":5329:5593  function rejectRequest(uint256 index) public {... */\n    tag_3:\n      callvalue\n      dup1\n      iszero\n      tag_44\n      jumpi\n      0x00\n      dup1\n      revert\n    tag_44:\n      pop\n      tag_45\n      0x04\n      dup1\n      calldatasize\n      sub\n      dup2\n      add\n      swap1\n      tag_46\n      swap2\n      swap1\n      tag_47\n      jump\t// in\n    tag_46:\n      tag_48\n      jump\t// in\n    tag_45:\n      stop\n        /* \"DePay.sol\":2221:2503  function withdraw(uint256 amount) public payable {... */\n    tag_4:\n      tag_49\n      0x04\n      dup1\n      calldatasize\n      sub\n      dup2\n      add\n      swap1\n      tag_50\n      swap2\n      swap1\n      tag_47\n      jump\t// in\n    tag_50:\n      tag_51\n      jump\t// in\n    tag_49:\n      stop\n        /* \"DePay.sol\":931:980  mapping(address => address[]) public loanTakenArr */\n    tag_5:\n      callvalue\n      dup1\n      iszero\n      tag_52\n      jumpi\n      0x00\n      dup1\n      revert\n    tag_52:\n      pop\n      tag_53\n      0x04\n      dup1\n      calldatasize\n      sub\n      dup2\n      add\n      swap1\n      tag_54\n      swap2\n      swap1\n      tag_40\n      jump\t// in\n    tag_54:\n      tag_55\n      jump\t// in\n    tag_53:\n      mload(0x40)\n      tag_56\n      swap2\n      swap1\n      tag_43\n      jump\t// in\n    tag_56:\n      mload(0x40)\n      dup1\n      swap2\n      sub\n      swap1\n      return\n        /* \"DePay.sol\":6318:6487  function numberOfPeopleWhoHaveGivenLoanToMe(address find)... */\n    tag_6:\n      callvalue\n      dup1\n      iszero\n      tag_57\n      jumpi\n      0x00\n      dup1\n      revert\n    tag_57:\n      pop\n      tag_58\n      0x04\n      dup1\n      calldatasize\n      sub\n      dup2\n      add\n      swap1\n      tag_59\n      swap2\n      swap1\n      tag_60\n      jump\t// in\n    tag_59:\n      tag_61\n      jump\t// in\n    tag_58:\n      mload(0x40)\n      tag_62\n      swap2\n      swap1\n      tag_63\n      jump\t// in\n    tag_62:\n      mload(0x40)\n      dup1\n      swap2\n      sub\n      swap1\n      return\n        /* \"DePay.sol\":6493:6578  function clearedMyDebt(address _to) public {... */\n    tag_7:\n      callvalue\n      dup1\n      iszero\n      tag_64\n      jumpi\n      0x00\n      dup1\n      revert\n    tag_64:\n      pop\n      tag_65\n      0x04\n      dup1\n      calldatasize\n      sub\n      dup2\n      add\n      swap1\n      tag_66\n      swap2\n      swap1\n      tag_60\n      jump\t// in\n    tag_66:\n      tag_67\n      jump\t// in\n    tag_65:\n      stop\n        /* \"DePay.sol\":772:816  mapping(address => address[]) public paidArr */\n    tag_8:\n      callvalue\n      dup1\n      iszero\n      tag_68\n      jumpi\n      0x00\n      dup1\n      revert\n    tag_68:\n      pop\n      tag_69\n      0x04\n      dup1\n      calldatasize\n      sub\n      dup2\n      add\n      swap1\n      tag_70\n      swap2\n      swap1\n      tag_40\n      jump\t// in\n    tag_70:\n      tag_71\n      jump\t// in\n    tag_69:\n      mload(0x40)\n      tag_72\n      swap2\n      swap1\n      tag_43\n      jump\t// in\n    tag_72:\n      mload(0x40)\n      dup1\n      swap2\n      sub\n      swap1\n      return\n        /* \"DePay.sol\":709:766  mapping(address => mapping(address => uint8)) public rate */\n    tag_9:\n      callvalue\n      dup1\n      iszero\n      tag_73\n      jumpi\n      0x00\n      dup1\n      revert\n    tag_73:\n      pop\n      tag_74\n      0x04\n      dup1\n      calldatasize\n      sub\n      dup2\n      add\n      swap1\n      tag_75\n      swap2\n      swap1\n      tag_76\n      jump\t// in\n    tag_75:\n      tag_77\n      jump\t// in\n    tag_74:\n      mload(0x40)\n      tag_78\n      swap2\n      swap1\n      tag_79\n      jump\t// in\n    tag_78:\n      mload(0x40)\n      dup1\n      swap2\n      sub\n      swap1\n      return\n        /* \"DePay.sol\":435:494  mapping(address => mapping(address => uint256)) public used */\n    tag_10:\n      callvalue\n      dup1\n      iszero\n      tag_80\n      jumpi\n      0x00\n      dup1\n      revert\n    tag_80:\n      pop\n      tag_81\n      0x04\n      dup1\n      calldatasize\n      sub\n      dup2\n      add\n      swap1\n      tag_82\n      swap2\n      swap1\n      tag_76\n      jump\t// in\n    tag_82:\n      tag_83\n      jump\t// in\n    tag_81:\n      mload(0x40)\n      tag_84\n      swap2\n      swap1\n      tag_63\n      jump\t// in\n    tag_84:\n      mload(0x40)\n      dup1\n      swap2\n      sub\n      swap1\n      return\n        /* \"DePay.sol\":986:1043  mapping(address => uint256) public totalBalanceIHaveAdded */\n    tag_11:\n      callvalue\n      dup1\n      iszero\n      tag_85\n      jumpi\n      0x00\n      dup1\n      revert\n    tag_85:\n      pop\n      tag_86\n      0x04\n      dup1\n      calldatasize\n      sub\n      dup2\n      add\n      swap1\n      tag_87\n      swap2\n      swap1\n      tag_60\n      jump\t// in\n    tag_87:\n      tag_88\n      jump\t// in\n    tag_86:\n      mload(0x40)\n      tag_89\n      swap2\n      swap1\n      tag_63\n      jump\t// in\n    tag_89:\n      mload(0x40)\n      dup1\n      swap2\n      sub\n      swap1\n      return\n        /* \"DePay.sol\":569:630  mapping(address => mapping(address => uint256)) public paidTo */\n    tag_12:\n      callvalue\n      dup1\n      iszero\n      tag_90\n      jumpi\n      0x00\n      dup1\n      revert\n    tag_90:\n      pop\n      tag_91\n      0x04\n      dup1\n      calldatasize\n      sub\n      dup2\n      add\n      swap1\n      tag_92\n      swap2\n      swap1\n      tag_76\n      jump\t// in\n    tag_92:\n      tag_93\n      jump\t// in\n    tag_91:\n      mload(0x40)\n      tag_94\n      swap2\n      swap1\n      tag_63\n      jump\t// in\n    tag_94:\n      mload(0x40)\n      dup1\n      swap2\n      sub\n      swap1\n      return\n        /* \"DePay.sol\":3543:3922  function createRequest(... */\n    tag_13:\n      callvalue\n      dup1\n      iszero\n      tag_95\n      jumpi\n      0x00\n      dup1\n      revert\n    tag_95:\n      pop\n      tag_96\n      0x04\n      dup1\n      calldatasize\n      sub\n      dup2\n      add\n      swap1\n      tag_97\n      swap2\n      swap1\n      tag_98\n      jump\t// in\n    tag_97:\n      tag_99\n      jump\t// in\n    tag_96:\n      stop\n        /* \"DePay.sol\":5759:5877  function numberOfRequets(address find) external view returns (uint256) {... */\n    tag_14:\n      callvalue\n      dup1\n      iszero\n      tag_100\n      jumpi\n      0x00\n      dup1\n      revert\n    tag_100:\n      pop\n      tag_101\n      0x04\n      dup1\n      calldatasize\n      sub\n      dup2\n      add\n      swap1\n      tag_102\n      swap2\n      swap1\n      tag_60\n      jump\t// in\n    tag_102:\n      tag_103\n      jump\t// in\n    tag_101:\n      mload(0x40)\n      tag_104\n      swap2\n      swap1\n      tag_63\n      jump\t// in\n    tag_104:\n      mload(0x40)\n      dup1\n      swap2\n      sub\n      swap1\n      return\n        /* \"DePay.sol\":3134:3537  function takeBack(uint256 amount, address payable _to) public payable {... */\n    tag_15:\n      tag_105\n      0x04\n      dup1\n      calldatasize\n      sub\n      dup2\n      add\n      swap1\n      tag_106\n      swap2\n      swap1\n      tag_107\n      jump\t// in\n    tag_106:\n      tag_108\n      jump\t// in\n    tag_105:\n      stop\n        /* \"DePay.sol\":5599:5753  function setRate(address _for,uint8 rates)public{... */\n    tag_16:\n      callvalue\n      dup1\n      iszero\n      tag_109\n      jumpi\n      0x00\n      dup1\n      revert\n    tag_109:\n      pop\n      tag_110\n      0x04\n      dup1\n      calldatasize\n      sub\n      dup2\n      add\n      swap1\n      tag_111\n      swap2\n      swap1\n      tag_112\n      jump\t// in\n    tag_111:\n      tag_113\n      jump\t// in\n    tag_110:\n      stop\n        /* \"DePay.sol\":270:315  mapping(address => Request[]) public requests */\n    tag_17:\n      callvalue\n      dup1\n      iszero\n      tag_114\n      jumpi\n      0x00\n      dup1\n      revert\n    tag_114:\n      pop\n      tag_115\n      0x04\n      dup1\n      calldatasize\n      sub\n      dup2\n      add\n      swap1\n      tag_116\n      swap2\n      swap1\n      tag_40\n      jump\t// in\n    tag_116:\n      tag_117\n      jump\t// in\n    tag_115:\n      mload(0x40)\n      tag_118\n      swap5\n      swap4\n      swap3\n      swap2\n      swap1\n      tag_119\n      jump\t// in\n    tag_118:\n      mload(0x40)\n      dup1\n      swap2\n      sub\n      swap1\n      return\n        /* \"DePay.sol\":1235:1448  function addFund() public payable {... */\n    tag_18:\n      tag_120\n      tag_121\n      jump\t// in\n    tag_120:\n      stop\n        /* \"DePay.sol\":6010:6139  function numberOfPeopleWhoPaidMe(address find) external view returns (uint256) {... */\n    tag_19:\n      callvalue\n      dup1\n      iszero\n      tag_122\n      jumpi\n      0x00\n      dup1\n      revert\n    tag_122:\n      pop\n      tag_123\n      0x04\n      dup1\n      calldatasize\n      sub\n      dup2\n      add\n      swap1\n      tag_124\n      swap2\n      swap1\n      tag_60\n      jump\t// in\n    tag_124:\n      tag_125\n      jump\t// in\n    tag_123:\n      mload(0x40)\n      tag_126\n      swap2\n      swap1\n      tag_63\n      jump\t// in\n    tag_126:\n      mload(0x40)\n      dup1\n      swap2\n      sub\n      swap1\n      return\n        /* \"DePay.sol\":500:563  mapping(address => mapping(address => uint256)) public borrowed */\n    tag_20:\n      callvalue\n      dup1\n      iszero\n      tag_127\n      jumpi\n      0x00\n      dup1\n      revert\n    tag_127:\n      pop\n      tag_128\n      0x04\n      dup1\n      calldatasize\n      sub\n      dup2\n      add\n      swap1\n      tag_129\n      swap2\n      swap1\n      tag_76\n      jump\t// in\n    tag_129:\n      tag_130\n      jump\t// in\n    tag_128:\n      mload(0x40)\n      tag_131\n      swap2\n      swap1\n      tag_63\n      jump\t// in\n    tag_131:\n      mload(0x40)\n      dup1\n      swap2\n      sub\n      swap1\n      return\n        /* \"DePay.sol\":2509:3128  function lend(uint256 amount, address payable _to) public payable {... */\n    tag_21:\n      tag_132\n      0x04\n      dup1\n      calldatasize\n      sub\n      dup2\n      add\n      swap1\n      tag_133\n      swap2\n      swap1\n      tag_107\n      jump\t// in\n    tag_133:\n      tag_134\n      jump\t// in\n    tag_132:\n      stop\n        /* \"DePay.sol\":369:429  mapping(address => mapping(address => uint256)) public given */\n    tag_22:\n      callvalue\n      dup1\n      iszero\n      tag_135\n      jumpi\n      0x00\n      dup1\n      revert\n    tag_135:\n      pop\n      tag_136\n      0x04\n      dup1\n      calldatasize\n      sub\n      dup2\n      add\n      swap1\n      tag_137\n      swap2\n      swap1\n      tag_76\n      jump\t// in\n    tag_137:\n      tag_138\n      jump\t// in\n    tag_136:\n      mload(0x40)\n      tag_139\n      swap2\n      swap1\n      tag_63\n      jump\t// in\n    tag_139:\n      mload(0x40)\n      dup1\n      swap2\n      sub\n      swap1\n      return\n        /* \"DePay.sol\":1454:2215  function pay(... */\n    tag_23:\n      tag_140\n      0x04\n      dup1\n      calldatasize\n      sub\n      dup2\n      add\n      swap1\n      tag_141\n      swap2\n      swap1\n      tag_142\n      jump\t// in\n    tag_141:\n      tag_143\n      jump\t// in\n    tag_140:\n      stop\n        /* \"DePay.sol\":636:703  mapping(address => mapping(address => uint256)) public ReceivedFrom */\n    tag_24:\n      callvalue\n      dup1\n      iszero\n      tag_144\n      jumpi\n      0x00\n      dup1\n      revert\n    tag_144:\n      pop\n      tag_145\n      0x04\n      dup1\n      calldatasize\n      sub\n      dup2\n      add\n      swap1\n      tag_146\n      swap2\n      swap1\n      tag_76\n      jump\t// in\n    tag_146:\n      tag_147\n      jump\t// in\n    tag_145:\n      mload(0x40)\n      tag_148\n      swap2\n      swap1\n      tag_63\n      jump\t// in\n    tag_148:\n      mload(0x40)\n      dup1\n      swap2\n      sub\n      swap1\n      return\n        /* \"DePay.sol\":5883:6004  function numberOfPeopleIPaid(address find) external view returns (uint256) {... */\n    tag_25:\n      callvalue\n      dup1\n      iszero\n      tag_149\n      jumpi\n      0x00\n      dup1\n      revert\n    tag_149:\n      pop\n      tag_150\n      0x04\n      dup1\n      calldatasize\n      sub\n      dup2\n      add\n      swap1\n      tag_151\n      swap2\n      swap1\n      tag_60\n      jump\t// in\n    tag_151:\n      tag_152\n      jump\t// in\n    tag_150:\n      mload(0x40)\n      tag_153\n      swap2\n      swap1\n      tag_63\n      jump\t// in\n    tag_153:\n      mload(0x40)\n      dup1\n      swap2\n      sub\n      swap1\n      return\n        /* \"DePay.sol\":822:870  mapping(address => address[]) public receivedArr */\n    tag_26:\n      callvalue\n      dup1\n      iszero\n      tag_154\n      jumpi\n      0x00\n      dup1\n      revert\n    tag_154:\n      pop\n      tag_155\n      0x04\n      dup1\n      calldatasize\n      sub\n      dup2\n      add\n      swap1\n      tag_156\n      swap2\n      swap1\n      tag_40\n      jump\t// in\n    tag_156:\n      tag_157\n      jump\t// in\n    tag_155:\n      mload(0x40)\n      tag_158\n      swap2\n      swap1\n      tag_43\n      jump\t// in\n    tag_158:\n      mload(0x40)\n      dup1\n      swap2\n      sub\n      swap1\n      return\n        /* \"DePay.sol\":3928:5323  function approveRequest(uint256 index) public payable {... */\n    tag_27:\n      tag_159\n      0x04\n      dup1\n      calldatasize\n      sub\n      dup2\n      add\n      swap1\n      tag_160\n      swap2\n      swap1\n      tag_47\n      jump\t// in\n    tag_160:\n      tag_161\n      jump\t// in\n    tag_159:\n      stop\n        /* \"DePay.sol\":321:363  mapping(address => uint256) public balance */\n    tag_28:\n      callvalue\n      dup1\n      iszero\n      tag_162\n      jumpi\n      0x00\n      dup1\n      revert\n    tag_162:\n      pop\n      tag_163\n      0x04\n      dup1\n      calldatasize\n      sub\n      dup2\n      add\n      swap1\n      tag_164\n      swap2\n      swap1\n      tag_60\n      jump\t// in\n    tag_164:\n      tag_165\n      jump\t// in\n    tag_163:\n      mload(0x40)\n      tag_166\n      swap2\n      swap1\n      tag_63\n      jump\t// in\n    tag_166:\n      mload(0x40)\n      dup1\n      swap2\n      sub\n      swap1\n      return\n        /* \"DePay.sol\":6145:6312  function numberOfPeopleWhomIHaveGivenLoan(address find)... */\n    tag_29:\n      callvalue\n      dup1\n      iszero\n      tag_167\n      jumpi\n      0x00\n      dup1\n      revert\n    tag_167:\n      pop\n      tag_168\n      0x04\n      dup1\n      calldatasize\n      sub\n      dup2\n      add\n      swap1\n      tag_169\n      swap2\n      swap1\n      tag_60\n      jump\t// in\n    tag_169:\n      tag_170\n      jump\t// in\n    tag_168:\n      mload(0x40)\n      tag_171\n      swap2\n      swap1\n      tag_63\n      jump\t// in\n    tag_171:\n      mload(0x40)\n      dup1\n      swap2\n      sub\n      swap1\n      return\n        /* \"DePay.sol\":876:925  mapping(address => address[]) public loanGivenArr */\n    tag_41:\n      mstore(0x20, 0x0a)\n      dup2\n      0x00\n      mstore\n      keccak256(0x00, 0x40)\n      dup2\n      dup2\n      sload\n      dup2\n      lt\n      tag_172\n      jumpi\n      0x00\n      dup1\n      revert\n    tag_172:\n      swap1\n      0x00\n      mstore\n      keccak256(0x00, 0x20)\n      add\n      0x00\n      swap2\n      pop\n      swap2\n      pop\n      swap1\n      sload\n      swap1\n      0x0100\n      exp\n      swap1\n      div\n      0xffffffffffffffffffffffffffffffffffffffff\n      and\n      dup2\n      jump\t// out\n        /* \"DePay.sol\":5329:5593  function rejectRequest(uint256 index) public {... */\n    tag_48:\n        /* \"DePay.sol\":5384:5407  Request storage request */\n      0x00\n        /* \"DePay.sol\":5410:5418  requests */\n      dup1\n        /* \"DePay.sol\":5410:5430  requests[msg.sender] */\n      0x00\n        /* \"DePay.sol\":5419:5429  msg.sender */\n      caller\n        /* \"DePay.sol\":5410:5430  requests[msg.sender] */\n      0xffffffffffffffffffffffffffffffffffffffff\n      and\n      0xffffffffffffffffffffffffffffffffffffffff\n      and\n      dup2\n      mstore\n      0x20\n      add\n      swap1\n      dup2\n      mstore\n      0x20\n      add\n      0x00\n      keccak256\n        /* \"DePay.sol\":5431:5436  index */\n      dup3\n        /* \"DePay.sol\":5410:5437  requests[msg.sender][index] */\n      dup2\n      sload\n      dup2\n      lt\n      tag_175\n      jumpi\n      tag_176\n      tag_177\n      jump\t// in\n    tag_176:\n    tag_175:\n      swap1\n      0x00\n      mstore\n      keccak256(0x00, 0x20)\n      swap1\n      0x03\n      mul\n      add\n        /* \"DePay.sol\":5384:5437  Request storage request = requests[msg.sender][index] */\n      swap1\n      pop\n        /* \"DePay.sol\":5488:5493  false */\n      0x00\n        /* \"DePay.sol\":5468:5493  request.complete == false */\n      iszero\n      iszero\n        /* \"DePay.sol\":5468:5475  request */\n      dup2\n        /* \"DePay.sol\":5468:5484  request.complete */\n      0x02\n      add\n      0x00\n      swap1\n      sload\n      swap1\n      0x0100\n      exp\n      swap1\n      div\n      0xff\n      and\n        /* \"DePay.sol\":5468:5493  request.complete == false */\n      iszero\n      iszero\n      eq\n        /* \"DePay.sol\":5447:5553  require(... */\n      tag_179\n      jumpi\n      mload(0x40)\n      0x08c379a000000000000000000000000000000000000000000000000000000000\n      dup2\n      mstore\n      0x04\n      add\n      tag_180\n      swap1\n      tag_181\n      jump\t// in\n    tag_180:\n      mload(0x40)\n      dup1\n      swap2\n      sub\n      swap1\n      revert\n    tag_179:\n        /* \"DePay.sol\":5582:5586  true */\n      0x01\n        /* \"DePay.sol\":5563:5570  request */\n      dup2\n        /* \"DePay.sol\":5563:5579  request.complete */\n      0x02\n      add\n      0x00\n        /* \"DePay.sol\":5563:5586  request.complete = true */\n      0x0100\n      exp\n      dup2\n      sload\n      dup2\n      0xff\n      mul\n      not\n      and\n      swap1\n      dup4\n      iszero\n      iszero\n      mul\n      or\n      swap1\n      sstore\n      pop\n        /* \"DePay.sol\":5374:5593  {... */\n      pop\n        /* \"DePay.sol\":5329:5593  function rejectRequest(uint256 index) public {... */\n      pop\n      jump\t// out\n        /* \"DePay.sol\":2221:2503  function withdraw(uint256 amount) public payable {... */\n    tag_51:\n        /* \"DePay.sol\":2297:2304  balance */\n      0x01\n        /* \"DePay.sol\":2297:2316  balance[msg.sender] */\n      0x00\n        /* \"DePay.sol\":2305:2315  msg.sender */\n      caller\n        /* \"DePay.sol\":2297:2316  balance[msg.sender] */\n      0xffffffffffffffffffffffffffffffffffffffff\n      and\n      0xffffffffffffffffffffffffffffffffffffffff\n      and\n      dup2\n      mstore\n      0x20\n      add\n      swap1\n      dup2\n      mstore\n      0x20\n      add\n      0x00\n      keccak256\n      sload\n        /* \"DePay.sol\":2288:2294  amount */\n      dup2\n        /* \"DePay.sol\":2288:2316  amount < balance[msg.sender] */\n      lt\n        /* \"DePay.sol\":2280:2339  require(amount < balance[msg.sender], \"Insufficient funds\") */\n      tag_183\n      jumpi\n      mload(0x40)\n      0x08c379a000000000000000000000000000000000000000000000000000000000\n      dup2\n      mstore\n      0x04\n      add\n      tag_184\n      swap1\n      tag_185\n      jump\t// in\n    tag_184:\n      mload(0x40)\n      dup1\n      swap2\n      sub\n      swap1\n      revert\n    tag_183:\n        /* \"DePay.sol\":2366:2367  0 */\n      0x00\n        /* \"DePay.sol\":2357:2363  amount */\n      dup2\n        /* \"DePay.sol\":2357:2367  amount > 0 */\n      gt\n        /* \"DePay.sol\":2349:2409  require(amount > 0, \"transaction with 0 eth is not allowed\") */\n      tag_186\n      jumpi\n      mload(0x40)\n      0x08c379a000000000000000000000000000000000000000000000000000000000\n      dup2\n      mstore\n      0x04\n      add\n      tag_187\n      swap1\n      tag_188\n      jump\t// in\n    tag_187:\n      mload(0x40)\n      dup1\n      swap2\n      sub\n      swap1\n      revert\n    tag_186:\n        /* \"DePay.sol\":2428:2438  msg.sender */\n      caller\n        /* \"DePay.sol\":2419:2449  (payable(msg.sender)).transfer */\n      0xffffffffffffffffffffffffffffffffffffffff\n      and\n        /* \"DePay.sol\":2419:2457  (payable(msg.sender)).transfer(amount) */\n      0x08fc\n        /* \"DePay.sol\":2450:2456  amount */\n      dup3\n        /* \"DePay.sol\":2419:2457  (payable(msg.sender)).transfer(amount) */\n      swap1\n      dup2\n      iszero\n      mul\n      swap1\n      mload(0x40)\n      0x00\n      mload(0x40)\n      dup1\n      dup4\n      sub\n      dup2\n      dup6\n      dup9\n      dup9\n      call\n      swap4\n      pop\n      pop\n      pop\n      pop\n      iszero\n      dup1\n      iszero\n      tag_190\n      jumpi\n      returndatasize\n      0x00\n      dup1\n      returndatacopy\n      revert(0x00, returndatasize)\n    tag_190:\n      pop\n        /* \"DePay.sol\":2490:2496  amount */\n      dup1\n        /* \"DePay.sol\":2467:2474  balance */\n      0x01\n        /* \"DePay.sol\":2467:2486  balance[msg.sender] */\n      0x00\n        /* \"DePay.sol\":2475:2485  msg.sender */\n      caller\n        /* \"DePay.sol\":2467:2486  balance[msg.sender] */\n      0xffffffffffffffffffffffffffffffffffffffff\n      and\n      0xffffffffffffffffffffffffffffffffffffffff\n      and\n      dup2\n      mstore\n      0x20\n      add\n      swap1\n      dup2\n      mstore\n      0x20\n      add\n      0x00\n      keccak256\n      0x00\n        /* \"DePay.sol\":2467:2496  balance[msg.sender] -= amount */\n      dup3\n      dup3\n      sload\n      tag_191\n      swap2\n      swap1\n      tag_192\n      jump\t// in\n    tag_191:\n      swap3\n      pop\n      pop\n      dup2\n      swap1\n      sstore\n      pop\n        /* \"DePay.sol\":2221:2503  function withdraw(uint256 amount) public payable {... */\n      pop\n      jump\t// out\n        /* \"DePay.sol\":931:980  mapping(address => address[]) public loanTakenArr */\n    tag_55:\n      mstore(0x20, 0x0b)\n      dup2\n      0x00\n      mstore\n      keccak256(0x00, 0x40)\n      dup2\n      dup2\n      sload\n      dup2\n      lt\n      tag_193\n      jumpi\n      0x00\n      dup1\n      revert\n    tag_193:\n      swap1\n      0x00\n      mstore\n      keccak256(0x00, 0x20)\n      add\n      0x00\n      swap2\n      pop\n      swap2\n      pop\n      swap1\n      sload\n      swap1\n      0x0100\n      exp\n      swap1\n      div\n      0xffffffffffffffffffffffffffffffffffffffff\n      and\n      dup2\n      jump\t// out\n        /* \"DePay.sol\":6318:6487  function numberOfPeopleWhoHaveGivenLoanToMe(address find)... */\n    tag_61:\n        /* \"DePay.sol\":6423:6430  uint256 */\n      0x00\n        /* \"DePay.sol\":6454:6466  loanTakenArr */\n      0x0b\n        /* \"DePay.sol\":6454:6472  loanTakenArr[find] */\n      0x00\n        /* \"DePay.sol\":6467:6471  find */\n      dup4\n        /* \"DePay.sol\":6454:6472  loanTakenArr[find] */\n      0xffffffffffffffffffffffffffffffffffffffff\n      and\n      0xffffffffffffffffffffffffffffffffffffffff\n      and\n      dup2\n      mstore\n      0x20\n      add\n      swap1\n      dup2\n      mstore\n      0x20\n      add\n      0x00\n      keccak256\n        /* \"DePay.sol\":6454:6479  loanTakenArr[find].length */\n      dup1\n      sload\n      swap1\n      pop\n        /* \"DePay.sol\":6446:6480  return (loanTakenArr[find].length) */\n      swap1\n      pop\n        /* \"DePay.sol\":6318:6487  function numberOfPeopleWhoHaveGivenLoanToMe(address find)... */\n      swap2\n      swap1\n      pop\n      jump\t// out\n        /* \"DePay.sol\":6493:6578  function clearedMyDebt(address _to) public {... */\n    tag_67:\n        /* \"DePay.sol\":6570:6571  0 */\n      0x00\n        /* \"DePay.sol\":6546:6550  used */\n      0x03\n        /* \"DePay.sol\":6546:6562  used[msg.sender] */\n      0x00\n        /* \"DePay.sol\":6551:6561  msg.sender */\n      caller\n        /* \"DePay.sol\":6546:6562  used[msg.sender] */\n      0xffffffffffffffffffffffffffffffffffffffff\n      and\n      0xffffffffffffffffffffffffffffffffffffffff\n      and\n      dup2\n      mstore\n      0x20\n      add\n      swap1\n      dup2\n      mstore\n      0x20\n      add\n      0x00\n      keccak256\n        /* \"DePay.sol\":6546:6567  used[msg.sender][_to] */\n      0x00\n        /* \"DePay.sol\":6563:6566  _to */\n      dup4\n        /* \"DePay.sol\":6546:6567  used[msg.sender][_to] */\n      0xffffffffffffffffffffffffffffffffffffffff\n      and\n      0xffffffffffffffffffffffffffffffffffffffff\n      and\n      dup2\n      mstore\n      0x20\n      add\n      swap1\n      dup2\n      mstore\n      0x20\n      add\n      0x00\n      keccak256\n        /* \"DePay.sol\":6546:6571  used[msg.sender][_to] = 0 */\n      dup2\n      swap1\n      sstore\n      pop\n        /* \"DePay.sol\":6493:6578  function clearedMyDebt(address _to) public {... */\n      pop\n      jump\t// out\n        /* \"DePay.sol\":772:816  mapping(address => address[]) public paidArr */\n    tag_71:\n      mstore(0x20, 0x08)\n      dup2\n      0x00\n      mstore\n      keccak256(0x00, 0x40)\n      dup2\n      dup2\n      sload\n      dup2\n      lt\n      tag_197\n      jumpi\n      0x00\n      dup1\n      revert\n    tag_197:\n      swap1\n      0x00\n      mstore\n      keccak256(0x00, 0x20)\n      add\n      0x00\n      swap2\n      pop\n      swap2\n      pop\n      swap1\n      sload\n      swap1\n      0x0100\n      exp\n      swap1\n      div\n      0xffffffffffffffffffffffffffffffffffffffff\n      and\n      dup2\n      jump\t// out\n        /* \"DePay.sol\":709:766  mapping(address => mapping(address => uint8)) public rate */\n    tag_77:\n      mstore(0x20, 0x07)\n      dup2\n      0x00\n      mstore\n      mstore(0x20, keccak256(0x00, 0x40))\n      dup1\n      0x00\n      mstore\n      keccak256(0x00, 0x40)\n      0x00\n      swap2\n      pop\n      swap2\n      pop\n      swap1\n      sload\n      swap1\n      0x0100\n      exp\n      swap1\n      div\n      0xff\n      and\n      dup2\n      jump\t// out\n        /* \"DePay.sol\":435:494  mapping(address => mapping(address => uint256)) public used */\n    tag_83:\n      mstore(0x20, 0x03)\n      dup2\n      0x00\n      mstore\n      mstore(0x20, keccak256(0x00, 0x40))\n      dup1\n      0x00\n      mstore\n      keccak256(0x00, 0x40)\n      0x00\n      swap2\n      pop\n      swap2\n      pop\n      pop\n      sload\n      dup2\n      jump\t// out\n        /* \"DePay.sol\":986:1043  mapping(address => uint256) public totalBalanceIHaveAdded */\n    tag_88:\n      mstore(0x20, 0x0c)\n      dup1\n      0x00\n      mstore\n      keccak256(0x00, 0x40)\n      0x00\n      swap2\n      pop\n      swap1\n      pop\n      sload\n      dup2\n      jump\t// out\n        /* \"DePay.sol\":569:630  mapping(address => mapping(address => uint256)) public paidTo */\n    tag_93:\n      mstore(0x20, 0x05)\n      dup2\n      0x00\n      mstore\n      mstore(0x20, keccak256(0x00, 0x40))\n      dup1\n      0x00\n      mstore\n      keccak256(0x00, 0x40)\n      0x00\n      swap2\n      pop\n      swap2\n      pop\n      pop\n      sload\n      dup2\n      jump\t// out\n        /* \"DePay.sol\":3543:3922  function createRequest(... */\n    tag_99:\n        /* \"DePay.sol\":3681:3691  msg.sender */\n      caller\n        /* \"DePay.sol\":3676:3691  _to!=msg.sender */\n      0xffffffffffffffffffffffffffffffffffffffff\n      and\n        /* \"DePay.sol\":3676:3679  _to */\n      dup2\n        /* \"DePay.sol\":3676:3691  _to!=msg.sender */\n      0xffffffffffffffffffffffffffffffffffffffff\n      and\n      sub\n        /* \"DePay.sol\":3668:3701  require(_to!=msg.sender,\"Frauds\") */\n      tag_200\n      jumpi\n      mload(0x40)\n      0x08c379a000000000000000000000000000000000000000000000000000000000\n      dup2\n      mstore\n      0x04\n      add\n      tag_201\n      swap1\n      tag_202\n      jump\t// in\n    tag_201:\n      mload(0x40)\n      dup1\n      swap2\n      sub\n      swap1\n      revert\n    tag_200:\n        /* \"DePay.sol\":3711:3737  Request storage newRequest */\n      0x00\n        /* \"DePay.sol\":3740:3748  requests */\n      dup1\n        /* \"DePay.sol\":3740:3753  requests[_to] */\n      0x00\n        /* \"DePay.sol\":3749:3752  _to */\n      dup4\n        /* \"DePay.sol\":3740:3753  requests[_to] */\n      0xffffffffffffffffffffffffffffffffffffffff\n      and\n      0xffffffffffffffffffffffffffffffffffffffff\n      and\n      dup2\n      mstore\n      0x20\n      add\n      swap1\n      dup2\n      mstore\n      0x20\n      add\n      0x00\n      keccak256\n        /* \"DePay.sol\":3740:3760  requests[_to].push() */\n      0x01\n      dup2\n      0x01\n      dup2\n      sload\n      add\n      dup1\n      dup3\n      sstore\n      dup1\n      swap2\n      pop\n      pop\n      sub\n      swap1\n      0x00\n      mstore\n      keccak256(0x00, 0x20)\n      swap1\n      0x03\n      mul\n      add\n        /* \"DePay.sol\":3711:3760  Request storage newRequest = requests[_to].push() */\n      swap1\n      pop\n        /* \"DePay.sol\":3795:3806  description */\n      dup4\n        /* \"DePay.sol\":3770:3780  newRequest */\n      dup2\n        /* \"DePay.sol\":3770:3792  newRequest.description */\n      0x00\n      add\n        /* \"DePay.sol\":3770:3806  newRequest.description = description */\n      swap1\n      dup2\n      tag_204\n      swap2\n      swap1\n      tag_205\n      jump\t// in\n    tag_204:\n      pop\n        /* \"DePay.sol\":3835:3840  value */\n      dup3\n        /* \"DePay.sol\":3816:3826  newRequest */\n      dup2\n        /* \"DePay.sol\":3816:3832  newRequest.value */\n      0x01\n      add\n        /* \"DePay.sol\":3816:3840  newRequest.value = value */\n      dup2\n      swap1\n      sstore\n      pop\n        /* \"DePay.sol\":3872:3877  false */\n      0x00\n        /* \"DePay.sol\":3850:3860  newRequest */\n      dup2\n        /* \"DePay.sol\":3850:3869  newRequest.complete */\n      0x02\n      add\n      0x00\n        /* \"DePay.sol\":3850:3877  newRequest.complete = false */\n      0x0100\n      exp\n      dup2\n      sload\n      dup2\n      0xff\n      mul\n      not\n      and\n      swap1\n      dup4\n      iszero\n      iszero\n      mul\n      or\n      swap1\n      sstore\n      pop\n        /* \"DePay.sol\":3905:3915  msg.sender */\n      caller\n        /* \"DePay.sol\":3887:3897  newRequest */\n      dup2\n        /* \"DePay.sol\":3887:3902  newRequest.from */\n      0x02\n      add\n      0x01\n        /* \"DePay.sol\":3887:3915  newRequest.from = msg.sender */\n      0x0100\n      exp\n      dup2\n      sload\n      dup2\n      0xffffffffffffffffffffffffffffffffffffffff\n      mul\n      not\n      and\n      swap1\n      dup4\n      0xffffffffffffffffffffffffffffffffffffffff\n      and\n      mul\n      or\n      swap1\n      sstore\n      pop\n        /* \"DePay.sol\":3658:3922  {... */\n      pop\n        /* \"DePay.sol\":3543:3922  function createRequest(... */\n      pop\n      pop\n      pop\n      jump\t// out\n        /* \"DePay.sol\":5759:5877  function numberOfRequets(address find) external view returns (uint256) {... */\n    tag_103:\n        /* \"DePay.sol\":5821:5828  uint256 */\n      0x00\n        /* \"DePay.sol\":5848:5856  requests */\n      dup1\n        /* \"DePay.sol\":5848:5862  requests[find] */\n      0x00\n        /* \"DePay.sol\":5857:5861  find */\n      dup4\n        /* \"DePay.sol\":5848:5862  requests[find] */\n      0xffffffffffffffffffffffffffffffffffffffff\n      and\n      0xffffffffffffffffffffffffffffffffffffffff\n      and\n      dup2\n      mstore\n      0x20\n      add\n      swap1\n      dup2\n      mstore\n      0x20\n      add\n      0x00\n      keccak256\n        /* \"DePay.sol\":5848:5869  requests[find].length */\n      dup1\n      sload\n      swap1\n      pop\n        /* \"DePay.sol\":5840:5870  return (requests[find].length) */\n      swap1\n      pop\n        /* \"DePay.sol\":5759:5877  function numberOfRequets(address find) external view returns (uint256) {... */\n      swap2\n      swap1\n      pop\n      jump\t// out\n        /* \"DePay.sol\":3134:3537  function takeBack(uint256 amount, address payable _to) public payable {... */\n    tag_108:\n        /* \"DePay.sol\":3285:3291  amount */\n      dup2\n        /* \"DePay.sol\":3260:3264  used */\n      0x03\n        /* \"DePay.sol\":3260:3276  used[msg.sender] */\n      0x00\n        /* \"DePay.sol\":3265:3275  msg.sender */\n      caller\n        /* \"DePay.sol\":3260:3276  used[msg.sender] */\n      0xffffffffffffffffffffffffffffffffffffffff\n      and\n      0xffffffffffffffffffffffffffffffffffffffff\n      and\n      dup2\n      mstore\n      0x20\n      add\n      swap1\n      dup2\n      mstore\n      0x20\n      add\n      0x00\n      keccak256\n        /* \"DePay.sol\":3260:3281  used[msg.sender][_to] */\n      0x00\n        /* \"DePay.sol\":3277:3280  _to */\n      dup4\n        /* \"DePay.sol\":3260:3281  used[msg.sender][_to] */\n      0xffffffffffffffffffffffffffffffffffffffff\n      and\n      0xffffffffffffffffffffffffffffffffffffffff\n      and\n      dup2\n      mstore\n      0x20\n      add\n      swap1\n      dup2\n      mstore\n      0x20\n      add\n      0x00\n      keccak256\n      sload\n        /* \"DePay.sol\":3235:3240  given */\n      0x02\n        /* \"DePay.sol\":3235:3252  given[msg.sender] */\n      0x00\n        /* \"DePay.sol\":3241:3251  msg.sender */\n      caller\n        /* \"DePay.sol\":3235:3252  given[msg.sender] */\n      0xffffffffffffffffffffffffffffffffffffffff\n      and\n      0xffffffffffffffffffffffffffffffffffffffff\n      and\n      dup2\n      mstore\n      0x20\n      add\n      swap1\n      dup2\n      mstore\n      0x20\n      add\n      0x00\n      keccak256\n        /* \"DePay.sol\":3235:3257  given[msg.sender][_to] */\n      0x00\n        /* \"DePay.sol\":3253:3256  _to */\n      dup5\n        /* \"DePay.sol\":3235:3257  given[msg.sender][_to] */\n      0xffffffffffffffffffffffffffffffffffffffff\n      and\n      0xffffffffffffffffffffffffffffffffffffffff\n      and\n      dup2\n      mstore\n      0x20\n      add\n      swap1\n      dup2\n      mstore\n      0x20\n      add\n      0x00\n      keccak256\n      sload\n        /* \"DePay.sol\":3235:3281  given[msg.sender][_to] - used[msg.sender][_to] */\n      tag_208\n      swap2\n      swap1\n      tag_192\n      jump\t// in\n    tag_208:\n        /* \"DePay.sol\":3235:3291  given[msg.sender][_to] - used[msg.sender][_to] >= amount */\n      lt\n      iszero\n        /* \"DePay.sol\":3214:3356  require(... */\n      tag_209\n      jumpi\n      mload(0x40)\n      0x08c379a000000000000000000000000000000000000000000000000000000000\n      dup2\n      mstore\n      0x04\n      add\n      tag_210\n      swap1\n      tag_211\n      jump\t// in\n    tag_210:\n      mload(0x40)\n      dup1\n      swap2\n      sub\n      swap1\n      revert\n    tag_209:\n        /* \"DePay.sol\":3389:3395  amount */\n      dup2\n        /* \"DePay.sol\":3366:3373  balance */\n      0x01\n        /* \"DePay.sol\":3366:3385  balance[msg.sender] */\n      0x00\n        /* \"DePay.sol\":3374:3384  msg.sender */\n      caller\n        /* \"DePay.sol\":3366:3385  balance[msg.sender] */\n      0xffffffffffffffffffffffffffffffffffffffff\n      and\n      0xffffffffffffffffffffffffffffffffffffffff\n      and\n      dup2\n      mstore\n      0x20\n      add\n      swap1\n      dup2\n      mstore\n      0x20\n      add\n      0x00\n      keccak256\n      0x00\n        /* \"DePay.sol\":3366:3395  balance[msg.sender] += amount */\n      dup3\n      dup3\n      sload\n      tag_212\n      swap2\n      swap1\n      tag_213\n      jump\t// in\n    tag_212:\n      swap3\n      pop\n      pop\n      dup2\n      swap1\n      sstore\n      pop\n        /* \"DePay.sol\":3431:3437  amount */\n      dup2\n        /* \"DePay.sol\":3405:3410  given */\n      0x02\n        /* \"DePay.sol\":3405:3422  given[msg.sender] */\n      0x00\n        /* \"DePay.sol\":3411:3421  msg.sender */\n      caller\n        /* \"DePay.sol\":3405:3422  given[msg.sender] */\n      0xffffffffffffffffffffffffffffffffffffffff\n      and\n      0xffffffffffffffffffffffffffffffffffffffff\n      and\n      dup2\n      mstore\n      0x20\n      add\n      swap1\n      dup2\n      mstore\n      0x20\n      add\n      0x00\n      keccak256\n        /* \"DePay.sol\":3405:3427  given[msg.sender][_to] */\n      0x00\n        /* \"DePay.sol\":3423:3426  _to */\n      dup4\n        /* \"DePay.sol\":3405:3427  given[msg.sender][_to] */\n      0xffffffffffffffffffffffffffffffffffffffff\n      and\n      0xffffffffffffffffffffffffffffffffffffffff\n      and\n      dup2\n      mstore\n      0x20\n      add\n      swap1\n      dup2\n      mstore\n      0x20\n      add\n      0x00\n      keccak256\n      0x00\n        /* \"DePay.sol\":3405:3437  given[msg.sender][_to] -= amount */\n      dup3\n      dup3\n      sload\n      tag_214\n      swap2\n      swap1\n      tag_192\n      jump\t// in\n    tag_214:\n      swap3\n      pop\n      pop\n      dup2\n      swap1\n      sstore\n      pop\n        /* \"DePay.sol\":3476:3482  amount */\n      dup2\n        /* \"DePay.sol\":3447:3455  borrowed */\n      0x04\n        /* \"DePay.sol\":3447:3460  borrowed[_to] */\n      0x00\n        /* \"DePay.sol\":3456:3459  _to */\n      dup4\n        /* \"DePay.sol\":3447:3460  borrowed[_to] */\n      0xffffffffffffffffffffffffffffffffffffffff\n      and\n      0xffffffffffffffffffffffffffffffffffffffff\n      and\n      dup2\n      mstore\n      0x20\n      add\n      swap1\n      dup2\n      mstore\n      0x20\n      add\n      0x00\n      keccak256\n        /* \"DePay.sol\":3447:3472  borrowed[_to][msg.sender] */\n      0x00\n        /* \"DePay.sol\":3461:3471  msg.sender */\n      caller\n        /* \"DePay.sol\":3447:3472  borrowed[_to][msg.sender] */\n      0xffffffffffffffffffffffffffffffffffffffff\n      and\n      0xffffffffffffffffffffffffffffffffffffffff\n      and\n      dup2\n      mstore\n      0x20\n      add\n      swap1\n      dup2\n      mstore\n      0x20\n      add\n      0x00\n      keccak256\n      0x00\n        /* \"DePay.sol\":3447:3482  borrowed[_to][msg.sender] -= amount */\n      dup3\n      dup3\n      sload\n      tag_215\n      swap2\n      swap1\n      tag_192\n      jump\t// in\n    tag_215:\n      swap3\n      pop\n      pop\n      dup2\n      swap1\n      sstore\n      pop\n        /* \"DePay.sol\":3501:3511  msg.sender */\n      caller\n        /* \"DePay.sol\":3492:3522  (payable(msg.sender)).transfer */\n      0xffffffffffffffffffffffffffffffffffffffff\n      and\n        /* \"DePay.sol\":3492:3530  (payable(msg.sender)).transfer(amount) */\n      0x08fc\n        /* \"DePay.sol\":3523:3529  amount */\n      dup4\n        /* \"DePay.sol\":3492:3530  (payable(msg.sender)).transfer(amount) */\n      swap1\n      dup2\n      iszero\n      mul\n      swap1\n      mload(0x40)\n      0x00\n      mload(0x40)\n      dup1\n      dup4\n      sub\n      dup2\n      dup6\n      dup9\n      dup9\n      call\n      swap4\n      pop\n      pop\n      pop\n      pop\n      iszero\n      dup1\n      iszero\n      tag_217\n      jumpi\n      returndatasize\n      0x00\n      dup1\n      returndatacopy\n      revert(0x00, returndatasize)\n    tag_217:\n      pop\n        /* \"DePay.sol\":3134:3537  function takeBack(uint256 amount, address payable _to) public payable {... */\n      pop\n      pop\n      jump\t// out\n        /* \"DePay.sol\":5599:5753  function setRate(address _for,uint8 rates)public{... */\n    tag_113:\n        /* \"DePay.sol\":5691:5692  0 */\n      0x00\n        /* \"DePay.sol\":5664:5672  borrowed */\n      0x04\n        /* \"DePay.sol\":5664:5678  borrowed[_for] */\n      0x00\n        /* \"DePay.sol\":5673:5677  _for */\n      dup5\n        /* \"DePay.sol\":5664:5678  borrowed[_for] */\n      0xffffffffffffffffffffffffffffffffffffffff\n      and\n      0xffffffffffffffffffffffffffffffffffffffff\n      and\n      dup2\n      mstore\n      0x20\n      add\n      swap1\n      dup2\n      mstore\n      0x20\n      add\n      0x00\n      keccak256\n        /* \"DePay.sol\":5664:5690  borrowed[_for][msg.sender] */\n      0x00\n        /* \"DePay.sol\":5679:5689  msg.sender */\n      caller\n        /* \"DePay.sol\":5664:5690  borrowed[_for][msg.sender] */\n      0xffffffffffffffffffffffffffffffffffffffff\n      and\n      0xffffffffffffffffffffffffffffffffffffffff\n      and\n      dup2\n      mstore\n      0x20\n      add\n      swap1\n      dup2\n      mstore\n      0x20\n      add\n      0x00\n      keccak256\n      sload\n        /* \"DePay.sol\":5664:5692  borrowed[_for][msg.sender]>0 */\n      gt\n        /* \"DePay.sol\":5656:5709  require(borrowed[_for][msg.sender]>0,\"No loan given\") */\n      tag_219\n      jumpi\n      mload(0x40)\n      0x08c379a000000000000000000000000000000000000000000000000000000000\n      dup2\n      mstore\n      0x04\n      add\n      tag_220\n      swap1\n      tag_221\n      jump\t// in\n    tag_220:\n      mload(0x40)\n      dup1\n      swap2\n      sub\n      swap1\n      revert\n    tag_219:\n        /* \"DePay.sol\":5741:5746  rates */\n      dup1\n        /* \"DePay.sol\":5718:5722  rate */\n      0x07\n        /* \"DePay.sol\":5718:5728  rate[_for] */\n      0x00\n        /* \"DePay.sol\":5723:5727  _for */\n      dup5\n        /* \"DePay.sol\":5718:5728  rate[_for] */\n      0xffffffffffffffffffffffffffffffffffffffff\n      and\n      0xffffffffffffffffffffffffffffffffffffffff\n      and\n      dup2\n      mstore\n      0x20\n      add\n      swap1\n      dup2\n      mstore\n      0x20\n      add\n      0x00\n      keccak256\n        /* \"DePay.sol\":5718:5740  rate[_for][msg.sender] */\n      0x00\n        /* \"DePay.sol\":5729:5739  msg.sender */\n      caller\n        /* \"DePay.sol\":5718:5740  rate[_for][msg.sender] */\n      0xffffffffffffffffffffffffffffffffffffffff\n      and\n      0xffffffffffffffffffffffffffffffffffffffff\n      and\n      dup2\n      mstore\n      0x20\n      add\n      swap1\n      dup2\n      mstore\n      0x20\n      add\n      0x00\n      keccak256\n      0x00\n        /* \"DePay.sol\":5718:5746  rate[_for][msg.sender]=rates */\n      0x0100\n      exp\n      dup2\n      sload\n      dup2\n      0xff\n      mul\n      not\n      and\n      swap1\n      dup4\n      0xff\n      and\n      mul\n      or\n      swap1\n      sstore\n      pop\n        /* \"DePay.sol\":5599:5753  function setRate(address _for,uint8 rates)public{... */\n      pop\n      pop\n      jump\t// out\n        /* \"DePay.sol\":270:315  mapping(address => Request[]) public requests */\n    tag_117:\n      mstore(0x20, 0x00)\n      dup2\n      0x00\n      mstore\n      keccak256(0x00, 0x40)\n      dup2\n      dup2\n      sload\n      dup2\n      lt\n      tag_222\n      jumpi\n      0x00\n      dup1\n      revert\n    tag_222:\n      swap1\n      0x00\n      mstore\n      keccak256(0x00, 0x20)\n      swap1\n      0x03\n      mul\n      add\n      0x00\n      swap2\n      pop\n      swap2\n      pop\n      pop\n      dup1\n      0x00\n      add\n      dup1\n      sload\n      tag_224\n      swap1\n      tag_225\n      jump\t// in\n    tag_224:\n      dup1\n      0x1f\n      add\n      0x20\n      dup1\n      swap2\n      div\n      mul\n      0x20\n      add\n      mload(0x40)\n      swap1\n      dup2\n      add\n      0x40\n      mstore\n      dup1\n      swap3\n      swap2\n      swap1\n      dup2\n      dup2\n      mstore\n      0x20\n      add\n      dup3\n      dup1\n      sload\n      tag_226\n      swap1\n      tag_225\n      jump\t// in\n    tag_226:\n      dup1\n      iszero\n      tag_227\n      jumpi\n      dup1\n      0x1f\n      lt\n      tag_228\n      jumpi\n      0x0100\n      dup1\n      dup4\n      sload\n      div\n      mul\n      dup4\n      mstore\n      swap2\n      0x20\n      add\n      swap2\n      jump(tag_227)\n    tag_228:\n      dup3\n      add\n      swap2\n      swap1\n      0x00\n      mstore\n      keccak256(0x00, 0x20)\n      swap1\n    tag_229:\n      dup2\n      sload\n      dup2\n      mstore\n      swap1\n      0x01\n      add\n      swap1\n      0x20\n      add\n      dup1\n      dup4\n      gt\n      tag_229\n      jumpi\n      dup3\n      swap1\n      sub\n      0x1f\n      and\n      dup3\n      add\n      swap2\n    tag_227:\n      pop\n      pop\n      pop\n      pop\n      pop\n      swap1\n      dup1\n      0x01\n      add\n      sload\n      swap1\n      dup1\n      0x02\n      add\n      0x00\n      swap1\n      sload\n      swap1\n      0x0100\n      exp\n      swap1\n      div\n      0xff\n      and\n      swap1\n      dup1\n      0x02\n      add\n      0x01\n      swap1\n      sload\n      swap1\n      0x0100\n      exp\n      swap1\n      div\n      0xffffffffffffffffffffffffffffffffffffffff\n      and\n      swap1\n      pop\n      dup5\n      jump\t// out\n        /* \"DePay.sol\":1235:1448  function addFund() public payable {... */\n    tag_121:\n        /* \"DePay.sol\":1299:1300  0 */\n      0x00\n        /* \"DePay.sol\":1287:1296  msg.value */\n      callvalue\n        /* \"DePay.sol\":1287:1300  msg.value > 0 */\n      gt\n        /* \"DePay.sol\":1279:1342  require(msg.value > 0, \"transaction with 0 eth is not allowed\") */\n      tag_231\n      jumpi\n      mload(0x40)\n      0x08c379a000000000000000000000000000000000000000000000000000000000\n      dup2\n      mstore\n      0x04\n      add\n      tag_232\n      swap1\n      tag_188\n      jump\t// in\n    tag_232:\n      mload(0x40)\n      dup1\n      swap2\n      sub\n      swap1\n      revert\n    tag_231:\n        /* \"DePay.sol\":1375:1384  msg.value */\n      callvalue\n        /* \"DePay.sol\":1352:1359  balance */\n      0x01\n        /* \"DePay.sol\":1352:1371  balance[msg.sender] */\n      0x00\n        /* \"DePay.sol\":1360:1370  msg.sender */\n      caller\n        /* \"DePay.sol\":1352:1371  balance[msg.sender] */\n      0xffffffffffffffffffffffffffffffffffffffff\n      and\n      0xffffffffffffffffffffffffffffffffffffffff\n      and\n      dup2\n      mstore\n      0x20\n      add\n      swap1\n      dup2\n      mstore\n      0x20\n      add\n      0x00\n      keccak256\n      0x00\n        /* \"DePay.sol\":1352:1384  balance[msg.sender] += msg.value */\n      dup3\n      dup3\n      sload\n      tag_233\n      swap2\n      swap1\n      tag_213\n      jump\t// in\n    tag_233:\n      swap3\n      pop\n      pop\n      dup2\n      swap1\n      sstore\n      pop\n        /* \"DePay.sol\":1432:1441  msg.value */\n      callvalue\n        /* \"DePay.sol\":1394:1416  totalBalanceIHaveAdded */\n      0x0c\n        /* \"DePay.sol\":1394:1428  totalBalanceIHaveAdded[msg.sender] */\n      0x00\n        /* \"DePay.sol\":1417:1427  msg.sender */\n      caller\n        /* \"DePay.sol\":1394:1428  totalBalanceIHaveAdded[msg.sender] */\n      0xffffffffffffffffffffffffffffffffffffffff\n      and\n      0xffffffffffffffffffffffffffffffffffffffff\n      and\n      dup2\n      mstore\n      0x20\n      add\n      swap1\n      dup2\n      mstore\n      0x20\n      add\n      0x00\n      keccak256\n      0x00\n        /* \"DePay.sol\":1394:1441  totalBalanceIHaveAdded[msg.sender] += msg.value */\n      dup3\n      dup3\n      sload\n      tag_234\n      swap2\n      swap1\n      tag_213\n      jump\t// in\n    tag_234:\n      swap3\n      pop\n      pop\n      dup2\n      swap1\n      sstore\n      pop\n        /* \"DePay.sol\":1235:1448  function addFund() public payable {... */\n      jump\t// out\n        /* \"DePay.sol\":6010:6139  function numberOfPeopleWhoPaidMe(address find) external view returns (uint256) {... */\n    tag_125:\n        /* \"DePay.sol\":6080:6087  uint256 */\n      0x00\n        /* \"DePay.sol\":6107:6118  receivedArr */\n      0x09\n        /* \"DePay.sol\":6107:6124  receivedArr[find] */\n      0x00\n        /* \"DePay.sol\":6119:6123  find */\n      dup4\n        /* \"DePay.sol\":6107:6124  receivedArr[find] */\n      0xffffffffffffffffffffffffffffffffffffffff\n      and\n      0xffffffffffffffffffffffffffffffffffffffff\n      and\n      dup2\n      mstore\n      0x20\n      add\n      swap1\n      dup2\n      mstore\n      0x20\n      add\n      0x00\n      keccak256\n        /* \"DePay.sol\":6107:6131  receivedArr[find].length */\n      dup1\n      sload\n      swap1\n      pop\n        /* \"DePay.sol\":6099:6132  return (receivedArr[find].length) */\n      swap1\n      pop\n        /* \"DePay.sol\":6010:6139  function numberOfPeopleWhoPaidMe(address find) external view returns (uint256) {... */\n      swap2\n      swap1\n      pop\n      jump\t// out\n        /* \"DePay.sol\":500:563  mapping(address => mapping(address => uint256)) public borrowed */\n    tag_130:\n      mstore(0x20, 0x04)\n      dup2\n      0x00\n      mstore\n      mstore(0x20, keccak256(0x00, 0x40))\n      dup1\n      0x00\n      mstore\n      keccak256(0x00, 0x40)\n      0x00\n      swap2\n      pop\n      swap2\n      pop\n      pop\n      sload\n      dup2\n      jump\t// out\n        /* \"DePay.sol\":2509:3128  function lend(uint256 amount, address payable _to) public payable {... */\n    tag_134:\n        /* \"DePay.sol\":2603:2610  balance */\n      0x01\n        /* \"DePay.sol\":2603:2622  balance[msg.sender] */\n      0x00\n        /* \"DePay.sol\":2611:2621  msg.sender */\n      caller\n        /* \"DePay.sol\":2603:2622  balance[msg.sender] */\n      0xffffffffffffffffffffffffffffffffffffffff\n      and\n      0xffffffffffffffffffffffffffffffffffffffff\n      and\n      dup2\n      mstore\n      0x20\n      add\n      swap1\n      dup2\n      mstore\n      0x20\n      add\n      0x00\n      keccak256\n      sload\n        /* \"DePay.sol\":2593:2599  amount */\n      dup3\n        /* \"DePay.sol\":2593:2622  amount <= balance[msg.sender] */\n      gt\n      iszero\n        /* \"DePay.sol\":2585:2645  require(amount <= balance[msg.sender], \"Insufficient funds\") */\n      tag_237\n      jumpi\n      mload(0x40)\n      0x08c379a000000000000000000000000000000000000000000000000000000000\n      dup2\n      mstore\n      0x04\n      add\n      tag_238\n      swap1\n      tag_185\n      jump\t// in\n    tag_238:\n      mload(0x40)\n      dup1\n      swap2\n      sub\n      swap1\n      revert\n    tag_237:\n        /* \"DePay.sol\":2672:2673  0 */\n      0x00\n        /* \"DePay.sol\":2663:2669  amount */\n      dup3\n        /* \"DePay.sol\":2663:2673  amount > 0 */\n      gt\n        /* \"DePay.sol\":2655:2715  require(amount > 0, \"transaction with 0 eth is not allowed\") */\n      tag_239\n      jumpi\n      mload(0x40)\n      0x08c379a000000000000000000000000000000000000000000000000000000000\n      dup2\n      mstore\n      0x04\n      add\n      tag_240\n      swap1\n      tag_188\n      jump\t// in\n    tag_240:\n      mload(0x40)\n      dup1\n      swap2\n      sub\n      swap1\n      revert\n    tag_239:\n        /* \"DePay.sol\":2740:2750  msg.sender */\n      caller\n        /* \"DePay.sol\":2733:2750  _to != msg.sender */\n      0xffffffffffffffffffffffffffffffffffffffff\n      and\n        /* \"DePay.sol\":2733:2736  _to */\n      dup2\n        /* \"DePay.sol\":2733:2750  _to != msg.sender */\n      0xffffffffffffffffffffffffffffffffffffffff\n      and\n      sub\n        /* \"DePay.sol\":2725:2788  require(_to != msg.sender, \"You cannot lend money to yourself\") */\n      tag_241\n      jumpi\n      mload(0x40)\n      0x08c379a000000000000000000000000000000000000000000000000000000000\n      dup2\n      mstore\n      0x04\n      add\n      tag_242\n      swap1\n      tag_243\n      jump\t// in\n    tag_242:\n      mload(0x40)\n      dup1\n      swap2\n      sub\n      swap1\n      revert\n    tag_241:\n        /* \"DePay.sol\":2828:2829  0 */\n      0x00\n        /* \"DePay.sol\":2801:2809  borrowed */\n      0x04\n        /* \"DePay.sol\":2801:2814  borrowed[_to] */\n      0x00\n        /* \"DePay.sol\":2810:2813  _to */\n      dup4\n        /* \"DePay.sol\":2801:2814  borrowed[_to] */\n      0xffffffffffffffffffffffffffffffffffffffff\n      and\n      0xffffffffffffffffffffffffffffffffffffffff\n      and\n      dup2\n      mstore\n      0x20\n      add\n      swap1\n      dup2\n      mstore\n      0x20\n      add\n      0x00\n      keccak256\n        /* \"DePay.sol\":2801:2826  borrowed[_to][msg.sender] */\n      0x00\n        /* \"DePay.sol\":2815:2825  msg.sender */\n      caller\n        /* \"DePay.sol\":2801:2826  borrowed[_to][msg.sender] */\n      0xffffffffffffffffffffffffffffffffffffffff\n      and\n      0xffffffffffffffffffffffffffffffffffffffff\n      and\n      dup2\n      mstore\n      0x20\n      add\n      swap1\n      dup2\n      mstore\n      0x20\n      add\n      0x00\n      keccak256\n      sload\n        /* \"DePay.sol\":2801:2829  borrowed[_to][msg.sender]==0 */\n      sub\n        /* \"DePay.sol\":2798:2894  if(borrowed[_to][msg.sender]==0)... */\n      tag_244\n      jumpi\n        /* \"DePay.sol\":2849:2861  loanGivenArr */\n      0x0a\n        /* \"DePay.sol\":2849:2873  loanGivenArr[msg.sender] */\n      0x00\n        /* \"DePay.sol\":2862:2872  msg.sender */\n      caller\n        /* \"DePay.sol\":2849:2873  loanGivenArr[msg.sender] */\n      0xffffffffffffffffffffffffffffffffffffffff\n      and\n      0xffffffffffffffffffffffffffffffffffffffff\n      and\n      dup2\n      mstore\n      0x20\n      add\n      swap1\n      dup2\n      mstore\n      0x20\n      add\n      0x00\n      keccak256\n        /* \"DePay.sol\":2879:2882  _to */\n      dup2\n        /* \"DePay.sol\":2849:2883  loanGivenArr[msg.sender].push(_to) */\n      swap1\n      dup1\n      0x01\n      dup2\n      sload\n      add\n      dup1\n      dup3\n      sstore\n      dup1\n      swap2\n      pop\n      pop\n      0x01\n      swap1\n      sub\n      swap1\n      0x00\n      mstore\n      keccak256(0x00, 0x20)\n      add\n      0x00\n      swap1\n      swap2\n      swap1\n      swap2\n      swap1\n      swap2\n      0x0100\n      exp\n      dup2\n      sload\n      dup2\n      0xffffffffffffffffffffffffffffffffffffffff\n      mul\n      not\n      and\n      swap1\n      dup4\n      0xffffffffffffffffffffffffffffffffffffffff\n      and\n      mul\n      or\n      swap1\n      sstore\n      pop\n        /* \"DePay.sol\":2798:2894  if(borrowed[_to][msg.sender]==0)... */\n    tag_244:\n        /* \"DePay.sol\":2930:2931  0 */\n      0x00\n        /* \"DePay.sol\":2906:2911  given */\n      0x02\n        /* \"DePay.sol\":2906:2923  given[msg.sender] */\n      0x00\n        /* \"DePay.sol\":2912:2922  msg.sender */\n      caller\n        /* \"DePay.sol\":2906:2923  given[msg.sender] */\n      0xffffffffffffffffffffffffffffffffffffffff\n      and\n      0xffffffffffffffffffffffffffffffffffffffff\n      and\n      dup2\n      mstore\n      0x20\n      add\n      swap1\n      dup2\n      mstore\n      0x20\n      add\n      0x00\n      keccak256\n        /* \"DePay.sol\":2906:2928  given[msg.sender][_to] */\n      0x00\n        /* \"DePay.sol\":2924:2927  _to */\n      dup4\n        /* \"DePay.sol\":2906:2928  given[msg.sender][_to] */\n      0xffffffffffffffffffffffffffffffffffffffff\n      and\n      0xffffffffffffffffffffffffffffffffffffffff\n      and\n      dup2\n      mstore\n      0x20\n      add\n      swap1\n      dup2\n      mstore\n      0x20\n      add\n      0x00\n      keccak256\n      sload\n        /* \"DePay.sol\":2906:2931  given[msg.sender][_to]==0 */\n      sub\n        /* \"DePay.sol\":2903:2996  if(given[msg.sender][_to]==0)... */\n      tag_246\n      jumpi\n        /* \"DePay.sol\":2951:2963  loanTakenArr */\n      0x0b\n        /* \"DePay.sol\":2951:2968  loanTakenArr[_to] */\n      0x00\n        /* \"DePay.sol\":2964:2967  _to */\n      dup3\n        /* \"DePay.sol\":2951:2968  loanTakenArr[_to] */\n      0xffffffffffffffffffffffffffffffffffffffff\n      and\n      0xffffffffffffffffffffffffffffffffffffffff\n      and\n      dup2\n      mstore\n      0x20\n      add\n      swap1\n      dup2\n      mstore\n      0x20\n      add\n      0x00\n      keccak256\n        /* \"DePay.sol\":2974:2984  msg.sender */\n      caller\n        /* \"DePay.sol\":2951:2985  loanTakenArr[_to].push(msg.sender) */\n      swap1\n      dup1\n      0x01\n      dup2\n      sload\n      add\n      dup1\n      dup3\n      sstore\n      dup1\n      swap2\n      pop\n      pop\n      0x01\n      swap1\n      sub\n      swap1\n      0x00\n      mstore\n      keccak256(0x00, 0x20)\n      add\n      0x00\n      swap1\n      swap2\n      swap1\n      swap2\n      swap1\n      swap2\n      0x0100\n      exp\n      dup2\n      sload\n      dup2\n      0xffffffffffffffffffffffffffffffffffffffff\n      mul\n      not\n      and\n      swap1\n      dup4\n      0xffffffffffffffffffffffffffffffffffffffff\n      and\n      mul\n      or\n      swap1\n      sstore\n      pop\n        /* \"DePay.sol\":2903:2996  if(given[msg.sender][_to]==0)... */\n    tag_246:\n        /* \"DePay.sol\":3028:3034  amount */\n      dup2\n        /* \"DePay.sol\":3005:3012  balance */\n      0x01\n        /* \"DePay.sol\":3005:3024  balance[msg.sender] */\n      0x00\n        /* \"DePay.sol\":3013:3023  msg.sender */\n      caller\n        /* \"DePay.sol\":3005:3024  balance[msg.sender] */\n      0xffffffffffffffffffffffffffffffffffffffff\n      and\n      0xffffffffffffffffffffffffffffffffffffffff\n      and\n      dup2\n      mstore\n      0x20\n      add\n      swap1\n      dup2\n      mstore\n      0x20\n      add\n      0x00\n      keccak256\n      0x00\n        /* \"DePay.sol\":3005:3034  balance[msg.sender] -= amount */\n      dup3\n      dup3\n      sload\n      tag_248\n      swap2\n      swap1\n      tag_192\n      jump\t// in\n    tag_248:\n      swap3\n      pop\n      pop\n      dup2\n      swap1\n      sstore\n      pop\n        /* \"DePay.sol\":3070:3076  amount */\n      dup2\n        /* \"DePay.sol\":3044:3049  given */\n      0x02\n        /* \"DePay.sol\":3044:3061  given[msg.sender] */\n      0x00\n        /* \"DePay.sol\":3050:3060  msg.sender */\n      caller\n        /* \"DePay.sol\":3044:3061  given[msg.sender] */\n      0xffffffffffffffffffffffffffffffffffffffff\n      and\n      0xffffffffffffffffffffffffffffffffffffffff\n      and\n      dup2\n      mstore\n      0x20\n      add\n      swap1\n      dup2\n      mstore\n      0x20\n      add\n      0x00\n      keccak256\n        /* \"DePay.sol\":3044:3066  given[msg.sender][_to] */\n      0x00\n        /* \"DePay.sol\":3062:3065  _to */\n      dup4\n        /* \"DePay.sol\":3044:3066  given[msg.sender][_to] */\n      0xffffffffffffffffffffffffffffffffffffffff\n      and\n      0xffffffffffffffffffffffffffffffffffffffff\n      and\n      dup2\n      mstore\n      0x20\n      add\n      swap1\n      dup2\n      mstore\n      0x20\n      add\n      0x00\n      keccak256\n      0x00\n        /* \"DePay.sol\":3044:3076  given[msg.sender][_to] += amount */\n      dup3\n      dup3\n      sload\n      tag_249\n      swap2\n      swap1\n      tag_213\n      jump\t// in\n    tag_249:\n      swap3\n      pop\n      pop\n      dup2\n      swap1\n      sstore\n      pop\n        /* \"DePay.sol\":3115:3121  amount */\n      dup2\n        /* \"DePay.sol\":3086:3094  borrowed */\n      0x04\n        /* \"DePay.sol\":3086:3099  borrowed[_to] */\n      0x00\n        /* \"DePay.sol\":3095:3098  _to */\n      dup4\n        /* \"DePay.sol\":3086:3099  borrowed[_to] */\n      0xffffffffffffffffffffffffffffffffffffffff\n      and\n      0xffffffffffffffffffffffffffffffffffffffff\n      and\n      dup2\n      mstore\n      0x20\n      add\n      swap1\n      dup2\n      mstore\n      0x20\n      add\n      0x00\n      keccak256\n        /* \"DePay.sol\":3086:3111  borrowed[_to][msg.sender] */\n      0x00\n        /* \"DePay.sol\":3100:3110  msg.sender */\n      caller\n        /* \"DePay.sol\":3086:3111  borrowed[_to][msg.sender] */\n      0xffffffffffffffffffffffffffffffffffffffff\n      and\n      0xffffffffffffffffffffffffffffffffffffffff\n      and\n      dup2\n      mstore\n      0x20\n      add\n      swap1\n      dup2\n      mstore\n      0x20\n      add\n      0x00\n      keccak256\n      0x00\n        /* \"DePay.sol\":3086:3121  borrowed[_to][msg.sender] += amount */\n      dup3\n      dup3\n      sload\n      tag_250\n      swap2\n      swap1\n      tag_213\n      jump\t// in\n    tag_250:\n      swap3\n      pop\n      pop\n      dup2\n      swap1\n      sstore\n      pop\n        /* \"DePay.sol\":2509:3128  function lend(uint256 amount, address payable _to) public payable {... */\n      pop\n      pop\n      jump\t// out\n        /* \"DePay.sol\":369:429  mapping(address => mapping(address => uint256)) public given */\n    tag_138:\n      mstore(0x20, 0x02)\n      dup2\n      0x00\n      mstore\n      mstore(0x20, keccak256(0x00, 0x40))\n      dup1\n      0x00\n      mstore\n      keccak256(0x00, 0x40)\n      0x00\n      swap2\n      pop\n      swap2\n      pop\n      pop\n      sload\n      dup2\n      jump\t// out\n        /* \"DePay.sol\":1454:2215  function pay(... */\n    tag_143:\n        /* \"DePay.sol\":1643:1650  balance */\n      0x01\n        /* \"DePay.sol\":1643:1662  balance[msg.sender] */\n      0x00\n        /* \"DePay.sol\":1651:1661  msg.sender */\n      caller\n        /* \"DePay.sol\":1643:1662  balance[msg.sender] */\n      0xffffffffffffffffffffffffffffffffffffffff\n      and\n      0xffffffffffffffffffffffffffffffffffffffff\n      and\n      dup2\n      mstore\n      0x20\n      add\n      swap1\n      dup2\n      mstore\n      0x20\n      add\n      0x00\n      keccak256\n      sload\n        /* \"DePay.sol\":1634:1640  amount */\n      dup5\n        /* \"DePay.sol\":1634:1662  amount < balance[msg.sender] */\n      lt\n        /* \"DePay.sol\":1626:1685  require(amount < balance[msg.sender], \"Insufficient funds\") */\n      tag_252\n      jumpi\n      mload(0x40)\n      0x08c379a000000000000000000000000000000000000000000000000000000000\n      dup2\n      mstore\n      0x04\n      add\n      tag_253\n      swap1\n      tag_185\n      jump\t// in\n    tag_253:\n      mload(0x40)\n      dup1\n      swap2\n      sub\n      swap1\n      revert\n    tag_252:\n        /* \"DePay.sol\":1712:1713  0 */\n      0x00\n        /* \"DePay.sol\":1703:1709  amount */\n      dup5\n        /* \"DePay.sol\":1703:1713  amount > 0 */\n      gt\n        /* \"DePay.sol\":1695:1755  require(amount > 0, \"transaction with 0 eth is not allowed\") */\n      tag_254\n      jumpi\n      mload(0x40)\n      0x08c379a000000000000000000000000000000000000000000000000000000000\n      dup2\n      mstore\n      0x04\n      add\n      tag_255\n      swap1\n      tag_188\n      jump\t// in\n    tag_255:\n      mload(0x40)\n      dup1\n      swap2\n      sub\n      swap1\n      revert\n    tag_254:\n        /* \"DePay.sol\":1780:1790  msg.sender */\n      caller\n        /* \"DePay.sol\":1773:1790  _to != msg.sender */\n      0xffffffffffffffffffffffffffffffffffffffff\n      and\n        /* \"DePay.sol\":1773:1776  _to */\n      dup6\n        /* \"DePay.sol\":1773:1790  _to != msg.sender */\n      0xffffffffffffffffffffffffffffffffffffffff\n      and\n      sub\n        /* \"DePay.sol\":1765:1827  require(_to != msg.sender, \"You cannot pay money to yourself\") */\n      tag_256\n      jumpi\n      mload(0x40)\n      0x08c379a000000000000000000000000000000000000000000000000000000000\n      dup2\n      mstore\n      0x04\n      add\n      tag_257\n      swap1\n      tag_258\n      jump\t// in\n    tag_257:\n      mload(0x40)\n      dup1\n      swap2\n      sub\n      swap1\n      revert\n    tag_256:\n        /* \"DePay.sol\":1837:1840  _to */\n      dup5\n        /* \"DePay.sol\":1837:1849  _to.transfer */\n      0xffffffffffffffffffffffffffffffffffffffff\n      and\n        /* \"DePay.sol\":1837:1857  _to.transfer(amount) */\n      0x08fc\n        /* \"DePay.sol\":1850:1856  amount */\n      dup6\n        /* \"DePay.sol\":1837:1857  _to.transfer(amount) */\n      swap1\n      dup2\n      iszero\n      mul\n      swap1\n      mload(0x40)\n      0x00\n      mload(0x40)\n      dup1\n      dup4\n      sub\n      dup2\n      dup6\n      dup9\n      dup9\n      call\n      swap4\n      pop\n      pop\n      pop\n      pop\n      iszero\n      dup1\n      iszero\n      tag_260\n      jumpi\n      returndatasize\n      0x00\n      dup1\n      returndatacopy\n      revert(0x00, returndatasize)\n    tag_260:\n      pop\n        /* \"DePay.sol\":1890:1896  amount */\n      dup4\n        /* \"DePay.sol\":1867:1874  balance */\n      0x01\n        /* \"DePay.sol\":1867:1886  balance[msg.sender] */\n      0x00\n        /* \"DePay.sol\":1875:1885  msg.sender */\n      caller\n        /* \"DePay.sol\":1867:1886  balance[msg.sender] */\n      0xffffffffffffffffffffffffffffffffffffffff\n      and\n      0xffffffffffffffffffffffffffffffffffffffff\n      and\n      dup2\n      mstore\n      0x20\n      add\n      swap1\n      dup2\n      mstore\n      0x20\n      add\n      0x00\n      keccak256\n      0x00\n        /* \"DePay.sol\":1867:1896  balance[msg.sender] -= amount */\n      dup3\n      dup3\n      sload\n      tag_261\n      swap2\n      swap1\n      tag_192\n      jump\t// in\n    tag_261:\n      swap3\n      pop\n      pop\n      dup2\n      swap1\n      sstore\n      pop\n        /* \"DePay.sol\":1937:1938  0 */\n      0x00\n        /* \"DePay.sol\":1910:1916  paidTo */\n      0x05\n        /* \"DePay.sol\":1910:1928  paidTo[msg.sender] */\n      0x00\n        /* \"DePay.sol\":1917:1927  msg.sender */\n      caller\n        /* \"DePay.sol\":1910:1928  paidTo[msg.sender] */\n      0xffffffffffffffffffffffffffffffffffffffff\n      and\n      0xffffffffffffffffffffffffffffffffffffffff\n      and\n      dup2\n      mstore\n      0x20\n      add\n      swap1\n      dup2\n      mstore\n      0x20\n      add\n      0x00\n      keccak256\n        /* \"DePay.sol\":1910:1933  paidTo[msg.sender][_to] */\n      0x00\n        /* \"DePay.sol\":1929:1932  _to */\n      dup8\n        /* \"DePay.sol\":1910:1933  paidTo[msg.sender][_to] */\n      0xffffffffffffffffffffffffffffffffffffffff\n      and\n      0xffffffffffffffffffffffffffffffffffffffff\n      and\n      dup2\n      mstore\n      0x20\n      add\n      swap1\n      dup2\n      mstore\n      0x20\n      add\n      0x00\n      keccak256\n      sload\n        /* \"DePay.sol\":1910:1938  paidTo[msg.sender][_to] == 0 */\n      sub\n        /* \"DePay.sol\":1906:2041  if (paidTo[msg.sender][_to] == 0) {... */\n      tag_262\n      jumpi\n        /* \"DePay.sol\":1954:1961  paidArr */\n      0x08\n        /* \"DePay.sol\":1954:1973  paidArr[msg.sender] */\n      0x00\n        /* \"DePay.sol\":1962:1972  msg.sender */\n      caller\n        /* \"DePay.sol\":1954:1973  paidArr[msg.sender] */\n      0xffffffffffffffffffffffffffffffffffffffff\n      and\n      0xffffffffffffffffffffffffffffffffffffffff\n      and\n      dup2\n      mstore\n      0x20\n      add\n      swap1\n      dup2\n      mstore\n      0x20\n      add\n      0x00\n      keccak256\n        /* \"DePay.sol\":1979:1982  _to */\n      dup6\n        /* \"DePay.sol\":1954:1983  paidArr[msg.sender].push(_to) */\n      swap1\n      dup1\n      0x01\n      dup2\n      sload\n      add\n      dup1\n      dup3\n      sstore\n      dup1\n      swap2\n      pop\n      pop\n      0x01\n      swap1\n      sub\n      swap1\n      0x00\n      mstore\n      keccak256(0x00, 0x20)\n      add\n      0x00\n      swap1\n      swap2\n      swap1\n      swap2\n      swap1\n      swap2\n      0x0100\n      exp\n      dup2\n      sload\n      dup2\n      0xffffffffffffffffffffffffffffffffffffffff\n      mul\n      not\n      and\n      swap1\n      dup4\n      0xffffffffffffffffffffffffffffffffffffffff\n      and\n      mul\n      or\n      swap1\n      sstore\n      pop\n        /* \"DePay.sol\":1997:2008  receivedArr */\n      0x09\n        /* \"DePay.sol\":1997:2013  receivedArr[_to] */\n      0x00\n        /* \"DePay.sol\":2009:2012  _to */\n      dup7\n        /* \"DePay.sol\":1997:2013  receivedArr[_to] */\n      0xffffffffffffffffffffffffffffffffffffffff\n      and\n      0xffffffffffffffffffffffffffffffffffffffff\n      and\n      dup2\n      mstore\n      0x20\n      add\n      swap1\n      dup2\n      mstore\n      0x20\n      add\n      0x00\n      keccak256\n        /* \"DePay.sol\":2019:2029  msg.sender */\n      caller\n        /* \"DePay.sol\":1997:2030  receivedArr[_to].push(msg.sender) */\n      swap1\n      dup1\n      0x01\n      dup2\n      sload\n      add\n      dup1\n      dup3\n      sstore\n      dup1\n      swap2\n      pop\n      pop\n      0x01\n      swap1\n      sub\n      swap1\n      0x00\n      mstore\n      keccak256(0x00, 0x20)\n      add\n      0x00\n      swap1\n      swap2\n      swap1\n      swap2\n      swap1\n      swap2\n      0x0100\n      exp\n      dup2\n      sload\n      dup2\n      0xffffffffffffffffffffffffffffffffffffffff\n      mul\n      not\n      and\n      swap1\n      dup4\n      0xffffffffffffffffffffffffffffffffffffffff\n      and\n      mul\n      or\n      swap1\n      sstore\n      pop\n        /* \"DePay.sol\":1906:2041  if (paidTo[msg.sender][_to] == 0) {... */\n    tag_262:\n        /* \"DePay.sol\":2077:2083  amount */\n      dup4\n        /* \"DePay.sol\":2050:2056  paidTo */\n      0x05\n        /* \"DePay.sol\":2050:2068  paidTo[msg.sender] */\n      0x00\n        /* \"DePay.sol\":2057:2067  msg.sender */\n      caller\n        /* \"DePay.sol\":2050:2068  paidTo[msg.sender] */\n      0xffffffffffffffffffffffffffffffffffffffff\n      and\n      0xffffffffffffffffffffffffffffffffffffffff\n      and\n      dup2\n      mstore\n      0x20\n      add\n      swap1\n      dup2\n      mstore\n      0x20\n      add\n      0x00\n      keccak256\n        /* \"DePay.sol\":2050:2073  paidTo[msg.sender][_to] */\n      0x00\n        /* \"DePay.sol\":2069:2072  _to */\n      dup8\n        /* \"DePay.sol\":2050:2073  paidTo[msg.sender][_to] */\n      0xffffffffffffffffffffffffffffffffffffffff\n      and\n      0xffffffffffffffffffffffffffffffffffffffff\n      and\n      dup2\n      mstore\n      0x20\n      add\n      swap1\n      dup2\n      mstore\n      0x20\n      add\n      0x00\n      keccak256\n      0x00\n        /* \"DePay.sol\":2050:2083  paidTo[msg.sender][_to] += amount */\n      dup3\n      dup3\n      sload\n      tag_265\n      swap2\n      swap1\n      tag_213\n      jump\t// in\n    tag_265:\n      swap3\n      pop\n      pop\n      dup2\n      swap1\n      sstore\n      pop\n        /* \"DePay.sol\":2126:2132  amount */\n      dup4\n        /* \"DePay.sol\":2093:2105  ReceivedFrom */\n      0x06\n        /* \"DePay.sol\":2093:2110  ReceivedFrom[_to] */\n      0x00\n        /* \"DePay.sol\":2106:2109  _to */\n      dup8\n        /* \"DePay.sol\":2093:2110  ReceivedFrom[_to] */\n      0xffffffffffffffffffffffffffffffffffffffff\n      and\n      0xffffffffffffffffffffffffffffffffffffffff\n      and\n      dup2\n      mstore\n      0x20\n      add\n      swap1\n      dup2\n      mstore\n      0x20\n      add\n      0x00\n      keccak256\n        /* \"DePay.sol\":2093:2122  ReceivedFrom[_to][msg.sender] */\n      0x00\n        /* \"DePay.sol\":2111:2121  msg.sender */\n      caller\n        /* \"DePay.sol\":2093:2122  ReceivedFrom[_to][msg.sender] */\n      0xffffffffffffffffffffffffffffffffffffffff\n      and\n      0xffffffffffffffffffffffffffffffffffffffff\n      and\n      dup2\n      mstore\n      0x20\n      add\n      swap1\n      dup2\n      mstore\n      0x20\n      add\n      0x00\n      keccak256\n      0x00\n        /* \"DePay.sol\":2093:2132  ReceivedFrom[_to][msg.sender] += amount */\n      dup3\n      dup3\n      sload\n      tag_266\n      swap2\n      swap1\n      tag_213\n      jump\t// in\n    tag_266:\n      swap3\n      pop\n      pop\n      dup2\n      swap1\n      sstore\n      pop\n        /* \"DePay.sol\":2183:2186  _to */\n      dup5\n        /* \"DePay.sol\":2147:2208  transactionData(msg.sender, amount, _to, date, time, purpose) */\n      0xffffffffffffffffffffffffffffffffffffffff\n      and\n        /* \"DePay.sol\":2163:2173  msg.sender */\n      caller\n        /* \"DePay.sol\":2147:2208  transactionData(msg.sender, amount, _to, date, time, purpose) */\n      0xffffffffffffffffffffffffffffffffffffffff\n      and\n      0xa32c156f4b3b8a11a69a7ce04d9290f328629e9ba578b036df29793cceed6ec9\n        /* \"DePay.sol\":2175:2181  amount */\n      dup7\n        /* \"DePay.sol\":2188:2192  date */\n      dup7\n        /* \"DePay.sol\":2194:2198  time */\n      dup7\n        /* \"DePay.sol\":2200:2207  purpose */\n      dup7\n        /* \"DePay.sol\":2147:2208  transactionData(msg.sender, amount, _to, date, time, purpose) */\n      mload(0x40)\n      tag_267\n      swap5\n      swap4\n      swap3\n      swap2\n      swap1\n      tag_268\n      jump\t// in\n    tag_267:\n      mload(0x40)\n      dup1\n      swap2\n      sub\n      swap1\n      log3\n        /* \"DePay.sol\":1454:2215  function pay(... */\n      pop\n      pop\n      pop\n      pop\n      pop\n      jump\t// out\n        /* \"DePay.sol\":636:703  mapping(address => mapping(address => uint256)) public ReceivedFrom */\n    tag_147:\n      mstore(0x20, 0x06)\n      dup2\n      0x00\n      mstore\n      mstore(0x20, keccak256(0x00, 0x40))\n      dup1\n      0x00\n      mstore\n      keccak256(0x00, 0x40)\n      0x00\n      swap2\n      pop\n      swap2\n      pop\n      pop\n      sload\n      dup2\n      jump\t// out\n        /* \"DePay.sol\":5883:6004  function numberOfPeopleIPaid(address find) external view returns (uint256) {... */\n    tag_152:\n        /* \"DePay.sol\":5949:5956  uint256 */\n      0x00\n        /* \"DePay.sol\":5976:5983  paidArr */\n      0x08\n        /* \"DePay.sol\":5976:5989  paidArr[find] */\n      0x00\n        /* \"DePay.sol\":5984:5988  find */\n      dup4\n        /* \"DePay.sol\":5976:5989  paidArr[find] */\n      0xffffffffffffffffffffffffffffffffffffffff\n      and\n      0xffffffffffffffffffffffffffffffffffffffff\n      and\n      dup2\n      mstore\n      0x20\n      add\n      swap1\n      dup2\n      mstore\n      0x20\n      add\n      0x00\n      keccak256\n        /* \"DePay.sol\":5976:5996  paidArr[find].length */\n      dup1\n      sload\n      swap1\n      pop\n        /* \"DePay.sol\":5968:5997  return (paidArr[find].length) */\n      swap1\n      pop\n        /* \"DePay.sol\":5883:6004  function numberOfPeopleIPaid(address find) external view returns (uint256) {... */\n      swap2\n      swap1\n      pop\n      jump\t// out\n        /* \"DePay.sol\":822:870  mapping(address => address[]) public receivedArr */\n    tag_157:\n      mstore(0x20, 0x09)\n      dup2\n      0x00\n      mstore\n      keccak256(0x00, 0x40)\n      dup2\n      dup2\n      sload\n      dup2\n      lt\n      tag_270\n      jumpi\n      0x00\n      dup1\n      revert\n    tag_270:\n      swap1\n      0x00\n      mstore\n      keccak256(0x00, 0x20)\n      add\n      0x00\n      swap2\n      pop\n      swap2\n      pop\n      swap1\n      sload\n      swap1\n      0x0100\n      exp\n      swap1\n      div\n      0xffffffffffffffffffffffffffffffffffffffff\n      and\n      dup2\n      jump\t// out\n        /* \"DePay.sol\":3928:5323  function approveRequest(uint256 index) public payable {... */\n    tag_161:\n        /* \"DePay.sol\":3992:4015  Request storage request */\n      0x00\n        /* \"DePay.sol\":4018:4026  requests */\n      dup1\n        /* \"DePay.sol\":4018:4038  requests[msg.sender] */\n      0x00\n        /* \"DePay.sol\":4027:4037  msg.sender */\n      caller\n        /* \"DePay.sol\":4018:4038  requests[msg.sender] */\n      0xffffffffffffffffffffffffffffffffffffffff\n      and\n      0xffffffffffffffffffffffffffffffffffffffff\n      and\n      dup2\n      mstore\n      0x20\n      add\n      swap1\n      dup2\n      mstore\n      0x20\n      add\n      0x00\n      keccak256\n        /* \"DePay.sol\":4039:4044  index */\n      dup3\n        /* \"DePay.sol\":4018:4045  requests[msg.sender][index] */\n      dup2\n      sload\n      dup2\n      lt\n      tag_273\n      jumpi\n      tag_274\n      tag_177\n      jump\t// in\n    tag_274:\n    tag_273:\n      swap1\n      0x00\n      mstore\n      keccak256(0x00, 0x20)\n      swap1\n      0x03\n      mul\n      add\n        /* \"DePay.sol\":3992:4045  Request storage request = requests[msg.sender][index] */\n      swap1\n      pop\n        /* \"DePay.sol\":4096:4101  false */\n      0x00\n        /* \"DePay.sol\":4076:4101  request.complete == false */\n      iszero\n      iszero\n        /* \"DePay.sol\":4076:4083  request */\n      dup2\n        /* \"DePay.sol\":4076:4092  request.complete */\n      0x02\n      add\n      0x00\n      swap1\n      sload\n      swap1\n      0x0100\n      exp\n      swap1\n      div\n      0xff\n      and\n        /* \"DePay.sol\":4076:4101  request.complete == false */\n      iszero\n      iszero\n      eq\n        /* \"DePay.sol\":4055:4161  require(... */\n      tag_276\n      jumpi\n      mload(0x40)\n      0x08c379a000000000000000000000000000000000000000000000000000000000\n      dup2\n      mstore\n      0x04\n      add\n      tag_277\n      swap1\n      tag_181\n      jump\t// in\n    tag_277:\n      mload(0x40)\n      dup1\n      swap2\n      sub\n      swap1\n      revert\n    tag_276:\n        /* \"DePay.sol\":4273:4280  balance */\n      0x01\n        /* \"DePay.sol\":4273:4292  balance[msg.sender] */\n      0x00\n        /* \"DePay.sol\":4281:4291  msg.sender */\n      caller\n        /* \"DePay.sol\":4273:4292  balance[msg.sender] */\n      0xffffffffffffffffffffffffffffffffffffffff\n      and\n      0xffffffffffffffffffffffffffffffffffffffff\n      and\n      dup2\n      mstore\n      0x20\n      add\n      swap1\n      dup2\n      mstore\n      0x20\n      add\n      0x00\n      keccak256\n      sload\n        /* \"DePay.sol\":4240:4244  used */\n      0x03\n        /* \"DePay.sol\":4240:4256  used[msg.sender] */\n      0x00\n        /* \"DePay.sol\":4245:4255  msg.sender */\n      caller\n        /* \"DePay.sol\":4240:4256  used[msg.sender] */\n      0xffffffffffffffffffffffffffffffffffffffff\n      and\n      0xffffffffffffffffffffffffffffffffffffffff\n      and\n      dup2\n      mstore\n      0x20\n      add\n      swap1\n      dup2\n      mstore\n      0x20\n      add\n      0x00\n      keccak256\n        /* \"DePay.sol\":4240:4270  used[msg.sender][request.from] */\n      0x00\n        /* \"DePay.sol\":4257:4264  request */\n      dup4\n        /* \"DePay.sol\":4257:4269  request.from */\n      0x02\n      add\n      0x01\n      swap1\n      sload\n      swap1\n      0x0100\n      exp\n      swap1\n      div\n      0xffffffffffffffffffffffffffffffffffffffff\n      and\n        /* \"DePay.sol\":4240:4270  used[msg.sender][request.from] */\n      0xffffffffffffffffffffffffffffffffffffffff\n      and\n      0xffffffffffffffffffffffffffffffffffffffff\n      and\n      dup2\n      mstore\n      0x20\n      add\n      swap1\n      dup2\n      mstore\n      0x20\n      add\n      0x00\n      keccak256\n      sload\n        /* \"DePay.sol\":4206:4211  given */\n      0x02\n        /* \"DePay.sol\":4206:4223  given[msg.sender] */\n      0x00\n        /* \"DePay.sol\":4212:4222  msg.sender */\n      caller\n        /* \"DePay.sol\":4206:4223  given[msg.sender] */\n      0xffffffffffffffffffffffffffffffffffffffff\n      and\n      0xffffffffffffffffffffffffffffffffffffffff\n      and\n      dup2\n      mstore\n      0x20\n      add\n      swap1\n      dup2\n      mstore\n      0x20\n      add\n      0x00\n      keccak256\n        /* \"DePay.sol\":4206:4237  given[msg.sender][request.from] */\n      0x00\n        /* \"DePay.sol\":4224:4231  request */\n      dup5\n        /* \"DePay.sol\":4224:4236  request.from */\n      0x02\n      add\n      0x01\n      swap1\n      sload\n      swap1\n      0x0100\n      exp\n      swap1\n      div\n      0xffffffffffffffffffffffffffffffffffffffff\n      and\n        /* \"DePay.sol\":4206:4237  given[msg.sender][request.from] */\n      0xffffffffffffffffffffffffffffffffffffffff\n      and\n      0xffffffffffffffffffffffffffffffffffffffff\n      and\n      dup2\n      mstore\n      0x20\n      add\n      swap1\n      dup2\n      mstore\n      0x20\n      add\n      0x00\n      keccak256\n      sload\n        /* \"DePay.sol\":4206:4270  given[msg.sender][request.from] - used[msg.sender][request.from] */\n      tag_278\n      swap2\n      swap1\n      tag_192\n      jump\t// in\n    tag_278:\n        /* \"DePay.sol\":4191:4198  request */\n      dup3\n        /* \"DePay.sol\":4191:4204  request.value */\n      0x01\n      add\n      sload\n        /* \"DePay.sol\":4191:4271  request.value-(given[msg.sender][request.from] - used[msg.sender][request.from]) */\n      tag_279\n      swap2\n      swap1\n      tag_192\n      jump\t// in\n    tag_279:\n        /* \"DePay.sol\":4191:4292  request.value-(given[msg.sender][request.from] - used[msg.sender][request.from])<=balance[msg.sender] */\n      gt\n      iszero\n        /* \"DePay.sol\":4171:4334  require(... */\n      tag_280\n      jumpi\n      mload(0x40)\n      0x08c379a000000000000000000000000000000000000000000000000000000000\n      dup2\n      mstore\n      0x04\n      add\n      tag_281\n      swap1\n      tag_282\n      jump\t// in\n    tag_281:\n      mload(0x40)\n      dup1\n      swap2\n      sub\n      swap1\n      revert\n    tag_280:\n        /* \"DePay.sol\":4428:4435  request */\n      dup1\n        /* \"DePay.sol\":4428:4441  request.value */\n      0x01\n      add\n      sload\n        /* \"DePay.sol\":4395:4399  used */\n      0x03\n        /* \"DePay.sol\":4395:4411  used[msg.sender] */\n      0x00\n        /* \"DePay.sol\":4400:4410  msg.sender */\n      caller\n        /* \"DePay.sol\":4395:4411  used[msg.sender] */\n      0xffffffffffffffffffffffffffffffffffffffff\n      and\n      0xffffffffffffffffffffffffffffffffffffffff\n      and\n      dup2\n      mstore\n      0x20\n      add\n      swap1\n      dup2\n      mstore\n      0x20\n      add\n      0x00\n      keccak256\n        /* \"DePay.sol\":4395:4425  used[msg.sender][request.from] */\n      0x00\n        /* \"DePay.sol\":4412:4419  request */\n      dup4\n        /* \"DePay.sol\":4412:4424  request.from */\n      0x02\n      add\n      0x01\n      swap1\n      sload\n      swap1\n      0x0100\n      exp\n      swap1\n      div\n      0xffffffffffffffffffffffffffffffffffffffff\n      and\n        /* \"DePay.sol\":4395:4425  used[msg.sender][request.from] */\n      0xffffffffffffffffffffffffffffffffffffffff\n      and\n      0xffffffffffffffffffffffffffffffffffffffff\n      and\n      dup2\n      mstore\n      0x20\n      add\n      swap1\n      dup2\n      mstore\n      0x20\n      add\n      0x00\n      keccak256\n      sload\n        /* \"DePay.sol\":4361:4366  given */\n      0x02\n        /* \"DePay.sol\":4361:4378  given[msg.sender] */\n      0x00\n        /* \"DePay.sol\":4367:4377  msg.sender */\n      caller\n        /* \"DePay.sol\":4361:4378  given[msg.sender] */\n      0xffffffffffffffffffffffffffffffffffffffff\n      and\n      0xffffffffffffffffffffffffffffffffffffffff\n      and\n      dup2\n      mstore\n      0x20\n      add\n      swap1\n      dup2\n      mstore\n      0x20\n      add\n      0x00\n      keccak256\n        /* \"DePay.sol\":4361:4392  given[msg.sender][request.from] */\n      0x00\n        /* \"DePay.sol\":4379:4386  request */\n      dup5\n        /* \"DePay.sol\":4379:4391  request.from */\n      0x02\n      add\n      0x01\n      swap1\n      sload\n      swap1\n      0x0100\n      exp\n      swap1\n      div\n      0xffffffffffffffffffffffffffffffffffffffff\n      and\n        /* \"DePay.sol\":4361:4392  given[msg.sender][request.from] */\n      0xffffffffffffffffffffffffffffffffffffffff\n      and\n      0xffffffffffffffffffffffffffffffffffffffff\n      and\n      dup2\n      mstore\n      0x20\n      add\n      swap1\n      dup2\n      mstore\n      0x20\n      add\n      0x00\n      keccak256\n      sload\n        /* \"DePay.sol\":4361:4425  given[msg.sender][request.from] - used[msg.sender][request.from] */\n      tag_283\n      swap2\n      swap1\n      tag_192\n      jump\t// in\n    tag_283:\n        /* \"DePay.sol\":4361:4441  given[msg.sender][request.from] - used[msg.sender][request.from] >=request.value */\n      lt\n        /* \"DePay.sol\":4344:5317  if (... */\n      tag_284\n      jumpi\n        /* \"DePay.sol\":4475:4482  request */\n      dup1\n        /* \"DePay.sol\":4475:4487  request.from */\n      0x02\n      add\n      0x01\n      swap1\n      sload\n      swap1\n      0x0100\n      exp\n      swap1\n      div\n      0xffffffffffffffffffffffffffffffffffffffff\n      and\n        /* \"DePay.sol\":4466:4498  (payable(request.from)).transfer */\n      0xffffffffffffffffffffffffffffffffffffffff\n      and\n        /* \"DePay.sol\":4466:4515  (payable(request.from)).transfer((request.value)) */\n      0x08fc\n        /* \"DePay.sol\":4500:4507  request */\n      dup3\n        /* \"DePay.sol\":4500:4513  request.value */\n      0x01\n      add\n      sload\n        /* \"DePay.sol\":4466:4515  (payable(request.from)).transfer((request.value)) */\n      swap1\n      dup2\n      iszero\n      mul\n      swap1\n      mload(0x40)\n      0x00\n      mload(0x40)\n      dup1\n      dup4\n      sub\n      dup2\n      dup6\n      dup9\n      dup9\n      call\n      swap4\n      pop\n      pop\n      pop\n      pop\n      iszero\n      dup1\n      iszero\n      tag_286\n      jumpi\n      returndatasize\n      0x00\n      dup1\n      returndatacopy\n      revert(0x00, returndatasize)\n    tag_286:\n      pop\n        /* \"DePay.sol\":4548:4552  true */\n      0x01\n        /* \"DePay.sol\":4529:4536  request */\n      dup2\n        /* \"DePay.sol\":4529:4545  request.complete */\n      0x02\n      add\n      0x00\n        /* \"DePay.sol\":4529:4552  request.complete = true */\n      0x0100\n      exp\n      dup2\n      sload\n      dup2\n      0xff\n      mul\n      not\n      and\n      swap1\n      dup4\n      iszero\n      iszero\n      mul\n      or\n      swap1\n      sstore\n      pop\n        /* \"DePay.sol\":4600:4607  request */\n      dup1\n        /* \"DePay.sol\":4600:4613  request.value */\n      0x01\n      add\n      sload\n        /* \"DePay.sol\":4566:4570  used */\n      0x03\n        /* \"DePay.sol\":4566:4582  used[msg.sender] */\n      0x00\n        /* \"DePay.sol\":4571:4581  msg.sender */\n      caller\n        /* \"DePay.sol\":4566:4582  used[msg.sender] */\n      0xffffffffffffffffffffffffffffffffffffffff\n      and\n      0xffffffffffffffffffffffffffffffffffffffff\n      and\n      dup2\n      mstore\n      0x20\n      add\n      swap1\n      dup2\n      mstore\n      0x20\n      add\n      0x00\n      keccak256\n        /* \"DePay.sol\":4566:4596  used[msg.sender][request.from] */\n      0x00\n        /* \"DePay.sol\":4583:4590  request */\n      dup4\n        /* \"DePay.sol\":4583:4595  request.from */\n      0x02\n      add\n      0x01\n      swap1\n      sload\n      swap1\n      0x0100\n      exp\n      swap1\n      div\n      0xffffffffffffffffffffffffffffffffffffffff\n      and\n        /* \"DePay.sol\":4566:4596  used[msg.sender][request.from] */\n      0xffffffffffffffffffffffffffffffffffffffff\n      and\n      0xffffffffffffffffffffffffffffffffffffffff\n      and\n      dup2\n      mstore\n      0x20\n      add\n      swap1\n      dup2\n      mstore\n      0x20\n      add\n      0x00\n      keccak256\n      0x00\n        /* \"DePay.sol\":4566:4613  used[msg.sender][request.from] += request.value */\n      dup3\n      dup3\n      sload\n      tag_287\n      swap2\n      swap1\n      tag_213\n      jump\t// in\n    tag_287:\n      swap3\n      pop\n      pop\n      dup2\n      swap1\n      sstore\n      pop\n        /* \"DePay.sol\":4344:5317  if (... */\n      jump(tag_288)\n    tag_284:\n        /* \"DePay.sol\":4693:4694  0 */\n      0x00\n        /* \"DePay.sol\":4657:4665  borrowed */\n      0x04\n        /* \"DePay.sol\":4657:4679  borrowed[request.from] */\n      0x00\n        /* \"DePay.sol\":4666:4673  request */\n      dup4\n        /* \"DePay.sol\":4666:4678  request.from */\n      0x02\n      add\n      0x01\n      swap1\n      sload\n      swap1\n      0x0100\n      exp\n      swap1\n      div\n      0xffffffffffffffffffffffffffffffffffffffff\n      and\n        /* \"DePay.sol\":4657:4679  borrowed[request.from] */\n      0xffffffffffffffffffffffffffffffffffffffff\n      and\n      0xffffffffffffffffffffffffffffffffffffffff\n      and\n      dup2\n      mstore\n      0x20\n      add\n      swap1\n      dup2\n      mstore\n      0x20\n      add\n      0x00\n      keccak256\n        /* \"DePay.sol\":4657:4691  borrowed[request.from][msg.sender] */\n      0x00\n        /* \"DePay.sol\":4680:4690  msg.sender */\n      caller\n        /* \"DePay.sol\":4657:4691  borrowed[request.from][msg.sender] */\n      0xffffffffffffffffffffffffffffffffffffffff\n      and\n      0xffffffffffffffffffffffffffffffffffffffff\n      and\n      dup2\n      mstore\n      0x20\n      add\n      swap1\n      dup2\n      mstore\n      0x20\n      add\n      0x00\n      keccak256\n      sload\n        /* \"DePay.sol\":4657:4694  borrowed[request.from][msg.sender]==0 */\n      sub\n        /* \"DePay.sol\":4654:4768  if(borrowed[request.from][msg.sender]==0)... */\n      tag_289\n      jumpi\n        /* \"DePay.sol\":4714:4726  loanGivenArr */\n      0x0a\n        /* \"DePay.sol\":4714:4738  loanGivenArr[msg.sender] */\n      0x00\n        /* \"DePay.sol\":4727:4737  msg.sender */\n      caller\n        /* \"DePay.sol\":4714:4738  loanGivenArr[msg.sender] */\n      0xffffffffffffffffffffffffffffffffffffffff\n      and\n      0xffffffffffffffffffffffffffffffffffffffff\n      and\n      dup2\n      mstore\n      0x20\n      add\n      swap1\n      dup2\n      mstore\n      0x20\n      add\n      0x00\n      keccak256\n        /* \"DePay.sol\":4744:4751  request */\n      dup2\n        /* \"DePay.sol\":4744:4756  request.from */\n      0x02\n      add\n      0x01\n      swap1\n      sload\n      swap1\n      0x0100\n      exp\n      swap1\n      div\n      0xffffffffffffffffffffffffffffffffffffffff\n      and\n        /* \"DePay.sol\":4714:4757  loanGivenArr[msg.sender].push(request.from) */\n      swap1\n      dup1\n      0x01\n      dup2\n      sload\n      add\n      dup1\n      dup3\n      sstore\n      dup1\n      swap2\n      pop\n      pop\n      0x01\n      swap1\n      sub\n      swap1\n      0x00\n      mstore\n      keccak256(0x00, 0x20)\n      add\n      0x00\n      swap1\n      swap2\n      swap1\n      swap2\n      swap1\n      swap2\n      0x0100\n      exp\n      dup2\n      sload\n      dup2\n      0xffffffffffffffffffffffffffffffffffffffff\n      mul\n      not\n      and\n      swap1\n      dup4\n      0xffffffffffffffffffffffffffffffffffffffff\n      and\n      mul\n      or\n      swap1\n      sstore\n      pop\n        /* \"DePay.sol\":4654:4768  if(borrowed[request.from][msg.sender]==0)... */\n    tag_289:\n        /* \"DePay.sol\":4813:4814  0 */\n      0x00\n        /* \"DePay.sol\":4780:4785  given */\n      0x02\n        /* \"DePay.sol\":4780:4797  given[msg.sender] */\n      0x00\n        /* \"DePay.sol\":4786:4796  msg.sender */\n      caller\n        /* \"DePay.sol\":4780:4797  given[msg.sender] */\n      0xffffffffffffffffffffffffffffffffffffffff\n      and\n      0xffffffffffffffffffffffffffffffffffffffff\n      and\n      dup2\n      mstore\n      0x20\n      add\n      swap1\n      dup2\n      mstore\n      0x20\n      add\n      0x00\n      keccak256\n        /* \"DePay.sol\":4780:4811  given[msg.sender][request.from] */\n      0x00\n        /* \"DePay.sol\":4798:4805  request */\n      dup4\n        /* \"DePay.sol\":4798:4810  request.from */\n      0x02\n      add\n      0x01\n      swap1\n      sload\n      swap1\n      0x0100\n      exp\n      swap1\n      div\n      0xffffffffffffffffffffffffffffffffffffffff\n      and\n        /* \"DePay.sol\":4780:4811  given[msg.sender][request.from] */\n      0xffffffffffffffffffffffffffffffffffffffff\n      and\n      0xffffffffffffffffffffffffffffffffffffffff\n      and\n      dup2\n      mstore\n      0x20\n      add\n      swap1\n      dup2\n      mstore\n      0x20\n      add\n      0x00\n      keccak256\n      sload\n        /* \"DePay.sol\":4780:4814  given[msg.sender][request.from]==0 */\n      sub\n        /* \"DePay.sol\":4777:4888  if(given[msg.sender][request.from]==0)... */\n      tag_291\n      jumpi\n        /* \"DePay.sol\":4834:4846  loanTakenArr */\n      0x0b\n        /* \"DePay.sol\":4834:4860  loanTakenArr[request.from] */\n      0x00\n        /* \"DePay.sol\":4847:4854  request */\n      dup3\n        /* \"DePay.sol\":4847:4859  request.from */\n      0x02\n      add\n      0x01\n      swap1\n      sload\n      swap1\n      0x0100\n      exp\n      swap1\n      div\n      0xffffffffffffffffffffffffffffffffffffffff\n      and\n        /* \"DePay.sol\":4834:4860  loanTakenArr[request.from] */\n      0xffffffffffffffffffffffffffffffffffffffff\n      and\n      0xffffffffffffffffffffffffffffffffffffffff\n      and\n      dup2\n      mstore\n      0x20\n      add\n      swap1\n      dup2\n      mstore\n      0x20\n      add\n      0x00\n      keccak256\n        /* \"DePay.sol\":4866:4876  msg.sender */\n      caller\n        /* \"DePay.sol\":4834:4877  loanTakenArr[request.from].push(msg.sender) */\n      swap1\n      dup1\n      0x01\n      dup2\n      sload\n      add\n      dup1\n      dup3\n      sstore\n      dup1\n      swap2\n      pop\n      pop\n      0x01\n      swap1\n      sub\n      swap1\n      0x00\n      mstore\n      keccak256(0x00, 0x20)\n      add\n      0x00\n      swap1\n      swap2\n      swap1\n      swap2\n      swap1\n      swap2\n      0x0100\n      exp\n      dup2\n      sload\n      dup2\n      0xffffffffffffffffffffffffffffffffffffffff\n      mul\n      not\n      and\n      swap1\n      dup4\n      0xffffffffffffffffffffffffffffffffffffffff\n      and\n      mul\n      or\n      swap1\n      sstore\n      pop\n        /* \"DePay.sol\":4777:4888  if(given[msg.sender][request.from]==0)... */\n    tag_291:\n        /* \"DePay.sol\":4911:4918  request */\n      dup1\n        /* \"DePay.sol\":4911:4923  request.from */\n      0x02\n      add\n      0x01\n      swap1\n      sload\n      swap1\n      0x0100\n      exp\n      swap1\n      div\n      0xffffffffffffffffffffffffffffffffffffffff\n      and\n        /* \"DePay.sol\":4902:4934  (payable(request.from)).transfer */\n      0xffffffffffffffffffffffffffffffffffffffff\n      and\n        /* \"DePay.sol\":4902:4951  (payable(request.from)).transfer((request.value)) */\n      0x08fc\n        /* \"DePay.sol\":4936:4943  request */\n      dup3\n        /* \"DePay.sol\":4936:4949  request.value */\n      0x01\n      add\n      sload\n        /* \"DePay.sol\":4902:4951  (payable(request.from)).transfer((request.value)) */\n      swap1\n      dup2\n      iszero\n      mul\n      swap1\n      mload(0x40)\n      0x00\n      mload(0x40)\n      dup1\n      dup4\n      sub\n      dup2\n      dup6\n      dup9\n      dup9\n      call\n      swap4\n      pop\n      pop\n      pop\n      pop\n      iszero\n      dup1\n      iszero\n      tag_294\n      jumpi\n      returndatasize\n      0x00\n      dup1\n      returndatacopy\n      revert(0x00, returndatasize)\n    tag_294:\n      pop\n        /* \"DePay.sol\":4984:4988  true */\n      0x01\n        /* \"DePay.sol\":4965:4972  request */\n      dup2\n        /* \"DePay.sol\":4965:4981  request.complete */\n      0x02\n      add\n      0x00\n        /* \"DePay.sol\":4965:4988  request.complete = true */\n      0x0100\n      exp\n      dup2\n      sload\n      dup2\n      0xff\n      mul\n      not\n      and\n      swap1\n      dup4\n      iszero\n      iszero\n      mul\n      or\n      swap1\n      sstore\n      pop\n        /* \"DePay.sol\":5087:5091  used */\n      0x03\n        /* \"DePay.sol\":5087:5103  used[msg.sender] */\n      0x00\n        /* \"DePay.sol\":5092:5102  msg.sender */\n      caller\n        /* \"DePay.sol\":5087:5103  used[msg.sender] */\n      0xffffffffffffffffffffffffffffffffffffffff\n      and\n      0xffffffffffffffffffffffffffffffffffffffff\n      and\n      dup2\n      mstore\n      0x20\n      add\n      swap1\n      dup2\n      mstore\n      0x20\n      add\n      0x00\n      keccak256\n        /* \"DePay.sol\":5087:5117  used[msg.sender][request.from] */\n      0x00\n        /* \"DePay.sol\":5104:5111  request */\n      dup3\n        /* \"DePay.sol\":5104:5116  request.from */\n      0x02\n      add\n      0x01\n      swap1\n      sload\n      swap1\n      0x0100\n      exp\n      swap1\n      div\n      0xffffffffffffffffffffffffffffffffffffffff\n      and\n        /* \"DePay.sol\":5087:5117  used[msg.sender][request.from] */\n      0xffffffffffffffffffffffffffffffffffffffff\n      and\n      0xffffffffffffffffffffffffffffffffffffffff\n      and\n      dup2\n      mstore\n      0x20\n      add\n      swap1\n      dup2\n      mstore\n      0x20\n      add\n      0x00\n      keccak256\n      sload\n        /* \"DePay.sol\":5053:5058  given */\n      0x02\n        /* \"DePay.sol\":5053:5070  given[msg.sender] */\n      0x00\n        /* \"DePay.sol\":5059:5069  msg.sender */\n      caller\n        /* \"DePay.sol\":5053:5070  given[msg.sender] */\n      0xffffffffffffffffffffffffffffffffffffffff\n      and\n      0xffffffffffffffffffffffffffffffffffffffff\n      and\n      dup2\n      mstore\n      0x20\n      add\n      swap1\n      dup2\n      mstore\n      0x20\n      add\n      0x00\n      keccak256\n        /* \"DePay.sol\":5053:5084  given[msg.sender][request.from] */\n      0x00\n        /* \"DePay.sol\":5071:5078  request */\n      dup4\n        /* \"DePay.sol\":5071:5083  request.from */\n      0x02\n      add\n      0x01\n      swap1\n      sload\n      swap1\n      0x0100\n      exp\n      swap1\n      div\n      0xffffffffffffffffffffffffffffffffffffffff\n      and\n        /* \"DePay.sol\":5053:5084  given[msg.sender][request.from] */\n      0xffffffffffffffffffffffffffffffffffffffff\n      and\n      0xffffffffffffffffffffffffffffffffffffffff\n      and\n      dup2\n      mstore\n      0x20\n      add\n      swap1\n      dup2\n      mstore\n      0x20\n      add\n      0x00\n      keccak256\n      sload\n        /* \"DePay.sol\":5053:5117  given[msg.sender][request.from] - used[msg.sender][request.from] */\n      tag_295\n      swap2\n      swap1\n      tag_192\n      jump\t// in\n    tag_295:\n        /* \"DePay.sol\":5038:5045  request */\n      dup2\n        /* \"DePay.sol\":5038:5051  request.value */\n      0x01\n      add\n      sload\n        /* \"DePay.sol\":5038:5118  request.value-(given[msg.sender][request.from] - used[msg.sender][request.from]) */\n      tag_296\n      swap2\n      swap1\n      tag_192\n      jump\t// in\n    tag_296:\n        /* \"DePay.sol\":5002:5010  borrowed */\n      0x04\n        /* \"DePay.sol\":5002:5024  borrowed[request.from] */\n      0x00\n        /* \"DePay.sol\":5011:5018  request */\n      dup4\n        /* \"DePay.sol\":5011:5023  request.from */\n      0x02\n      add\n      0x01\n      swap1\n      sload\n      swap1\n      0x0100\n      exp\n      swap1\n      div\n      0xffffffffffffffffffffffffffffffffffffffff\n      and\n        /* \"DePay.sol\":5002:5024  borrowed[request.from] */\n      0xffffffffffffffffffffffffffffffffffffffff\n      and\n      0xffffffffffffffffffffffffffffffffffffffff\n      and\n      dup2\n      mstore\n      0x20\n      add\n      swap1\n      dup2\n      mstore\n      0x20\n      add\n      0x00\n      keccak256\n        /* \"DePay.sol\":5002:5036  borrowed[request.from][msg.sender] */\n      0x00\n        /* \"DePay.sol\":5025:5035  msg.sender */\n      caller\n        /* \"DePay.sol\":5002:5036  borrowed[request.from][msg.sender] */\n      0xffffffffffffffffffffffffffffffffffffffff\n      and\n      0xffffffffffffffffffffffffffffffffffffffff\n      and\n      dup2\n      mstore\n      0x20\n      add\n      swap1\n      dup2\n      mstore\n      0x20\n      add\n      0x00\n      keccak256\n      0x00\n        /* \"DePay.sol\":5002:5118  borrowed[request.from][msg.sender]+=request.value-(given[msg.sender][request.from] - used[msg.sender][request.from]) */\n      dup3\n      dup3\n      sload\n      tag_297\n      swap2\n      swap1\n      tag_213\n      jump\t// in\n    tag_297:\n      swap3\n      pop\n      pop\n      dup2\n      swap1\n      sstore\n      pop\n        /* \"DePay.sol\":5214:5218  used */\n      0x03\n        /* \"DePay.sol\":5214:5230  used[msg.sender] */\n      0x00\n        /* \"DePay.sol\":5219:5229  msg.sender */\n      caller\n        /* \"DePay.sol\":5214:5230  used[msg.sender] */\n      0xffffffffffffffffffffffffffffffffffffffff\n      and\n      0xffffffffffffffffffffffffffffffffffffffff\n      and\n      dup2\n      mstore\n      0x20\n      add\n      swap1\n      dup2\n      mstore\n      0x20\n      add\n      0x00\n      keccak256\n        /* \"DePay.sol\":5214:5244  used[msg.sender][request.from] */\n      0x00\n        /* \"DePay.sol\":5231:5238  request */\n      dup3\n        /* \"DePay.sol\":5231:5243  request.from */\n      0x02\n      add\n      0x01\n      swap1\n      sload\n      swap1\n      0x0100\n      exp\n      swap1\n      div\n      0xffffffffffffffffffffffffffffffffffffffff\n      and\n        /* \"DePay.sol\":5214:5244  used[msg.sender][request.from] */\n      0xffffffffffffffffffffffffffffffffffffffff\n      and\n      0xffffffffffffffffffffffffffffffffffffffff\n      and\n      dup2\n      mstore\n      0x20\n      add\n      swap1\n      dup2\n      mstore\n      0x20\n      add\n      0x00\n      keccak256\n      sload\n        /* \"DePay.sol\":5180:5185  given */\n      0x02\n        /* \"DePay.sol\":5180:5197  given[msg.sender] */\n      0x00\n        /* \"DePay.sol\":5186:5196  msg.sender */\n      caller\n        /* \"DePay.sol\":5180:5197  given[msg.sender] */\n      0xffffffffffffffffffffffffffffffffffffffff\n      and\n      0xffffffffffffffffffffffffffffffffffffffff\n      and\n      dup2\n      mstore\n      0x20\n      add\n      swap1\n      dup2\n      mstore\n      0x20\n      add\n      0x00\n      keccak256\n        /* \"DePay.sol\":5180:5211  given[msg.sender][request.from] */\n      0x00\n        /* \"DePay.sol\":5198:5205  request */\n      dup4\n        /* \"DePay.sol\":5198:5210  request.from */\n      0x02\n      add\n      0x01\n      swap1\n      sload\n      swap1\n      0x0100\n      exp\n      swap1\n      div\n      0xffffffffffffffffffffffffffffffffffffffff\n      and\n        /* \"DePay.sol\":5180:5211  given[msg.sender][request.from] */\n      0xffffffffffffffffffffffffffffffffffffffff\n      and\n      0xffffffffffffffffffffffffffffffffffffffff\n      and\n      dup2\n      mstore\n      0x20\n      add\n      swap1\n      dup2\n      mstore\n      0x20\n      add\n      0x00\n      keccak256\n      sload\n        /* \"DePay.sol\":5180:5244  given[msg.sender][request.from] - used[msg.sender][request.from] */\n      tag_298\n      swap2\n      swap1\n      tag_192\n      jump\t// in\n    tag_298:\n        /* \"DePay.sol\":5165:5172  request */\n      dup2\n        /* \"DePay.sol\":5165:5178  request.value */\n      0x01\n      add\n      sload\n        /* \"DePay.sol\":5165:5245  request.value-(given[msg.sender][request.from] - used[msg.sender][request.from]) */\n      tag_299\n      swap2\n      swap1\n      tag_192\n      jump\t// in\n    tag_299:\n        /* \"DePay.sol\":5132:5137  given */\n      0x02\n        /* \"DePay.sol\":5132:5149  given[msg.sender] */\n      0x00\n        /* \"DePay.sol\":5138:5148  msg.sender */\n      caller\n        /* \"DePay.sol\":5132:5149  given[msg.sender] */\n      0xffffffffffffffffffffffffffffffffffffffff\n      and\n      0xffffffffffffffffffffffffffffffffffffffff\n      and\n      dup2\n      mstore\n      0x20\n      add\n      swap1\n      dup2\n      mstore\n      0x20\n      add\n      0x00\n      keccak256\n        /* \"DePay.sol\":5132:5163  given[msg.sender][request.from] */\n      0x00\n        /* \"DePay.sol\":5150:5157  request */\n      dup4\n        /* \"DePay.sol\":5150:5162  request.from */\n      0x02\n      add\n      0x01\n      swap1\n      sload\n      swap1\n      0x0100\n      exp\n      swap1\n      div\n      0xffffffffffffffffffffffffffffffffffffffff\n      and\n        /* \"DePay.sol\":5132:5163  given[msg.sender][request.from] */\n      0xffffffffffffffffffffffffffffffffffffffff\n      and\n      0xffffffffffffffffffffffffffffffffffffffff\n      and\n      dup2\n      mstore\n      0x20\n      add\n      swap1\n      dup2\n      mstore\n      0x20\n      add\n      0x00\n      keccak256\n      0x00\n        /* \"DePay.sol\":5132:5245  given[msg.sender][request.from]+=request.value-(given[msg.sender][request.from] - used[msg.sender][request.from]) */\n      dup3\n      dup3\n      sload\n      tag_300\n      swap2\n      swap1\n      tag_213\n      jump\t// in\n    tag_300:\n      swap3\n      pop\n      pop\n      dup2\n      swap1\n      sstore\n      pop\n        /* \"DePay.sol\":5293:5300  request */\n      dup1\n        /* \"DePay.sol\":5293:5306  request.value */\n      0x01\n      add\n      sload\n        /* \"DePay.sol\":5259:5263  used */\n      0x03\n        /* \"DePay.sol\":5259:5275  used[msg.sender] */\n      0x00\n        /* \"DePay.sol\":5264:5274  msg.sender */\n      caller\n        /* \"DePay.sol\":5259:5275  used[msg.sender] */\n      0xffffffffffffffffffffffffffffffffffffffff\n      and\n      0xffffffffffffffffffffffffffffffffffffffff\n      and\n      dup2\n      mstore\n      0x20\n      add\n      swap1\n      dup2\n      mstore\n      0x20\n      add\n      0x00\n      keccak256\n        /* \"DePay.sol\":5259:5289  used[msg.sender][request.from] */\n      0x00\n        /* \"DePay.sol\":5276:5283  request */\n      dup4\n        /* \"DePay.sol\":5276:5288  request.from */\n      0x02\n      add\n      0x01\n      swap1\n      sload\n      swap1\n      0x0100\n      exp\n      swap1\n      div\n      0xffffffffffffffffffffffffffffffffffffffff\n      and\n        /* \"DePay.sol\":5259:5289  used[msg.sender][request.from] */\n      0xffffffffffffffffffffffffffffffffffffffff\n      and\n      0xffffffffffffffffffffffffffffffffffffffff\n      and\n      dup2\n      mstore\n      0x20\n      add\n      swap1\n      dup2\n      mstore\n      0x20\n      add\n      0x00\n      keccak256\n      0x00\n        /* \"DePay.sol\":5259:5306  used[msg.sender][request.from] += request.value */\n      dup3\n      dup3\n      sload\n      tag_301\n      swap2\n      swap1\n      tag_213\n      jump\t// in\n    tag_301:\n      swap3\n      pop\n      pop\n      dup2\n      swap1\n      sstore\n      pop\n        /* \"DePay.sol\":4344:5317  if (... */\n    tag_288:\n        /* \"DePay.sol\":3982:5323  {... */\n      pop\n        /* \"DePay.sol\":3928:5323  function approveRequest(uint256 index) public payable {... */\n      pop\n      jump\t// out\n        /* \"DePay.sol\":321:363  mapping(address => uint256) public balance */\n    tag_165:\n      mstore(0x20, 0x01)\n      dup1\n      0x00\n      mstore\n      keccak256(0x00, 0x40)\n      0x00\n      swap2\n      pop\n      swap1\n      pop\n      sload\n      dup2\n      jump\t// out\n        /* \"DePay.sol\":6145:6312  function numberOfPeopleWhomIHaveGivenLoan(address find)... */\n    tag_170:\n        /* \"DePay.sol\":6248:6255  uint256 */\n      0x00\n        /* \"DePay.sol\":6279:6291  loanGivenArr */\n      0x0a\n        /* \"DePay.sol\":6279:6297  loanGivenArr[find] */\n      0x00\n        /* \"DePay.sol\":6292:6296  find */\n      dup4\n        /* \"DePay.sol\":6279:6297  loanGivenArr[find] */\n      0xffffffffffffffffffffffffffffffffffffffff\n      and\n      0xffffffffffffffffffffffffffffffffffffffff\n      and\n      dup2\n      mstore\n      0x20\n      add\n      swap1\n      dup2\n      mstore\n      0x20\n      add\n      0x00\n      keccak256\n        /* \"DePay.sol\":6279:6304  loanGivenArr[find].length */\n      dup1\n      sload\n      swap1\n      pop\n        /* \"DePay.sol\":6271:6305  return (loanGivenArr[find].length) */\n      swap1\n      pop\n        /* \"DePay.sol\":6145:6312  function numberOfPeopleWhomIHaveGivenLoan(address find)... */\n      swap2\n      swap1\n      pop\n      jump\t// out\n        /* \"#utility.yul\":7:82   */\n    tag_303:\n        /* \"#utility.yul\":40:46   */\n      0x00\n        /* \"#utility.yul\":73:75   */\n      0x40\n        /* \"#utility.yul\":67:76   */\n      mload\n        /* \"#utility.yul\":57:76   */\n      swap1\n      pop\n        /* \"#utility.yul\":7:82   */\n      swap1\n      jump\t// out\n        /* \"#utility.yul\":88:205   */\n    tag_304:\n        /* \"#utility.yul\":197:198   */\n      0x00\n        /* \"#utility.yul\":194:195   */\n      dup1\n        /* \"#utility.yul\":187:199   */\n      revert\n        /* \"#utility.yul\":211:328   */\n    tag_305:\n        /* \"#utility.yul\":320:321   */\n      0x00\n        /* \"#utility.yul\":317:318   */\n      dup1\n        /* \"#utility.yul\":310:322   */\n      revert\n        /* \"#utility.yul\":334:460   */\n    tag_306:\n        /* \"#utility.yul\":371:378   */\n      0x00\n        /* \"#utility.yul\":411:453   */\n      0xffffffffffffffffffffffffffffffffffffffff\n        /* \"#utility.yul\":404:409   */\n      dup3\n        /* \"#utility.yul\":400:454   */\n      and\n        /* \"#utility.yul\":389:454   */\n      swap1\n      pop\n        /* \"#utility.yul\":334:460   */\n      swap2\n      swap1\n      pop\n      jump\t// out\n        /* \"#utility.yul\":466:562   */\n    tag_307:\n        /* \"#utility.yul\":503:510   */\n      0x00\n        /* \"#utility.yul\":532:556   */\n      tag_379\n        /* \"#utility.yul\":550:555   */\n      dup3\n        /* \"#utility.yul\":532:556   */\n      tag_306\n      jump\t// in\n    tag_379:\n        /* \"#utility.yul\":521:556   */\n      swap1\n      pop\n        /* \"#utility.yul\":466:562   */\n      swap2\n      swap1\n      pop\n      jump\t// out\n        /* \"#utility.yul\":568:690   */\n    tag_308:\n        /* \"#utility.yul\":641:665   */\n      tag_381\n        /* \"#utility.yul\":659:664   */\n      dup2\n        /* \"#utility.yul\":641:665   */\n      tag_307\n      jump\t// in\n    tag_381:\n        /* \"#utility.yul\":634:639   */\n      dup2\n        /* \"#utility.yul\":631:666   */\n      eq\n        /* \"#utility.yul\":621:684   */\n      tag_382\n      jumpi\n        /* \"#utility.yul\":680:681   */\n      0x00\n        /* \"#utility.yul\":677:678   */\n      dup1\n        /* \"#utility.yul\":670:682   */\n      revert\n        /* \"#utility.yul\":621:684   */\n    tag_382:\n        /* \"#utility.yul\":568:690   */\n      pop\n      jump\t// out\n        /* \"#utility.yul\":696:835   */\n    tag_309:\n        /* \"#utility.yul\":742:747   */\n      0x00\n        /* \"#utility.yul\":780:786   */\n      dup2\n        /* \"#utility.yul\":767:787   */\n      calldataload\n        /* \"#utility.yul\":758:787   */\n      swap1\n      pop\n        /* \"#utility.yul\":796:829   */\n      tag_384\n        /* \"#utility.yul\":823:828   */\n      dup2\n        /* \"#utility.yul\":796:829   */\n      tag_308\n      jump\t// in\n    tag_384:\n        /* \"#utility.yul\":696:835   */\n      swap3\n      swap2\n      pop\n      pop\n      jump\t// out\n        /* \"#utility.yul\":841:918   */\n    tag_310:\n        /* \"#utility.yul\":878:885   */\n      0x00\n        /* \"#utility.yul\":907:912   */\n      dup2\n        /* \"#utility.yul\":896:912   */\n      swap1\n      pop\n        /* \"#utility.yul\":841:918   */\n      swap2\n      swap1\n      pop\n      jump\t// out\n        /* \"#utility.yul\":924:1046   */\n    tag_311:\n        /* \"#utility.yul\":997:1021   */\n      tag_387\n        /* \"#utility.yul\":1015:1020   */\n      dup2\n        /* \"#utility.yul\":997:1021   */\n      tag_310\n      jump\t// in\n    tag_387:\n        /* \"#utility.yul\":990:995   */\n      dup2\n        /* \"#utility.yul\":987:1022   */\n      eq\n        /* \"#utility.yul\":977:1040   */\n      tag_388\n      jumpi\n        /* \"#utility.yul\":1036:1037   */\n      0x00\n        /* \"#utility.yul\":1033:1034   */\n      dup1\n        /* \"#utility.yul\":1026:1038   */\n      revert\n        /* \"#utility.yul\":977:1040   */\n    tag_388:\n        /* \"#utility.yul\":924:1046   */\n      pop\n      jump\t// out\n        /* \"#utility.yul\":1052:1191   */\n    tag_312:\n        /* \"#utility.yul\":1098:1103   */\n      0x00\n        /* \"#utility.yul\":1136:1142   */\n      dup2\n        /* \"#utility.yul\":1123:1143   */\n      calldataload\n        /* \"#utility.yul\":1114:1143   */\n      swap1\n      pop\n        /* \"#utility.yul\":1152:1185   */\n      tag_390\n        /* \"#utility.yul\":1179:1184   */\n      dup2\n        /* \"#utility.yul\":1152:1185   */\n      tag_311\n      jump\t// in\n    tag_390:\n        /* \"#utility.yul\":1052:1191   */\n      swap3\n      swap2\n      pop\n      pop\n      jump\t// out\n        /* \"#utility.yul\":1197:1671   */\n    tag_40:\n        /* \"#utility.yul\":1265:1271   */\n      0x00\n        /* \"#utility.yul\":1273:1279   */\n      dup1\n        /* \"#utility.yul\":1322:1324   */\n      0x40\n        /* \"#utility.yul\":1310:1319   */\n      dup4\n        /* \"#utility.yul\":1301:1308   */\n      dup6\n        /* \"#utility.yul\":1297:1320   */\n      sub\n        /* \"#utility.yul\":1293:1325   */\n      slt\n        /* \"#utility.yul\":1290:1409   */\n      iszero\n      tag_392\n      jumpi\n        /* \"#utility.yul\":1328:1407   */\n      tag_393\n      tag_304\n      jump\t// in\n    tag_393:\n        /* \"#utility.yul\":1290:1409   */\n    tag_392:\n        /* \"#utility.yul\":1448:1449   */\n      0x00\n        /* \"#utility.yul\":1473:1526   */\n      tag_394\n        /* \"#utility.yul\":1518:1525   */\n      dup6\n        /* \"#utility.yul\":1509:1515   */\n      dup3\n        /* \"#utility.yul\":1498:1507   */\n      dup7\n        /* \"#utility.yul\":1494:1516   */\n      add\n        /* \"#utility.yul\":1473:1526   */\n      tag_309\n      jump\t// in\n    tag_394:\n        /* \"#utility.yul\":1463:1526   */\n      swap3\n      pop\n        /* \"#utility.yul\":1419:1536   */\n      pop\n        /* \"#utility.yul\":1575:1577   */\n      0x20\n        /* \"#utility.yul\":1601:1654   */\n      tag_395\n        /* \"#utility.yul\":1646:1653   */\n      dup6\n        /* \"#utility.yul\":1637:1643   */\n      dup3\n        /* \"#utility.yul\":1626:1635   */\n      dup7\n        /* \"#utility.yul\":1622:1644   */\n      add\n        /* \"#utility.yul\":1601:1654   */\n      tag_312\n      jump\t// in\n    tag_395:\n        /* \"#utility.yul\":1591:1654   */\n      swap2\n      pop\n        /* \"#utility.yul\":1546:1664   */\n      pop\n        /* \"#utility.yul\":1197:1671   */\n      swap3\n      pop\n      swap3\n      swap1\n      pop\n      jump\t// out\n        /* \"#utility.yul\":1677:1795   */\n    tag_313:\n        /* \"#utility.yul\":1764:1788   */\n      tag_397\n        /* \"#utility.yul\":1782:1787   */\n      dup2\n        /* \"#utility.yul\":1764:1788   */\n      tag_307\n      jump\t// in\n    tag_397:\n        /* \"#utility.yul\":1759:1762   */\n      dup3\n        /* \"#utility.yul\":1752:1789   */\n      mstore\n        /* \"#utility.yul\":1677:1795   */\n      pop\n      pop\n      jump\t// out\n        /* \"#utility.yul\":1801:2023   */\n    tag_43:\n        /* \"#utility.yul\":1894:1898   */\n      0x00\n        /* \"#utility.yul\":1932:1934   */\n      0x20\n        /* \"#utility.yul\":1921:1930   */\n      dup3\n        /* \"#utility.yul\":1917:1935   */\n      add\n        /* \"#utility.yul\":1909:1935   */\n      swap1\n      pop\n        /* \"#utility.yul\":1945:2016   */\n      tag_399\n        /* \"#utility.yul\":2013:2014   */\n      0x00\n        /* \"#utility.yul\":2002:2011   */\n      dup4\n        /* \"#utility.yul\":1998:2015   */\n      add\n        /* \"#utility.yul\":1989:1995   */\n      dup5\n        /* \"#utility.yul\":1945:2016   */\n      tag_313\n      jump\t// in\n    tag_399:\n        /* \"#utility.yul\":1801:2023   */\n      swap3\n      swap2\n      pop\n      pop\n      jump\t// out\n        /* \"#utility.yul\":2029:2358   */\n    tag_47:\n        /* \"#utility.yul\":2088:2094   */\n      0x00\n        /* \"#utility.yul\":2137:2139   */\n      0x20\n        /* \"#utility.yul\":2125:2134   */\n      dup3\n        /* \"#utility.yul\":2116:2123   */\n      dup5\n        /* \"#utility.yul\":2112:2135   */\n      sub\n        /* \"#utility.yul\":2108:2140   */\n      slt\n        /* \"#utility.yul\":2105:2224   */\n      iszero\n      tag_401\n      jumpi\n        /* \"#utility.yul\":2143:2222   */\n      tag_402\n      tag_304\n      jump\t// in\n    tag_402:\n        /* \"#utility.yul\":2105:2224   */\n    tag_401:\n        /* \"#utility.yul\":2263:2264   */\n      0x00\n        /* \"#utility.yul\":2288:2341   */\n      tag_403\n        /* \"#utility.yul\":2333:2340   */\n      dup5\n        /* \"#utility.yul\":2324:2330   */\n      dup3\n        /* \"#utility.yul\":2313:2322   */\n      dup6\n        /* \"#utility.yul\":2309:2331   */\n      add\n        /* \"#utility.yul\":2288:2341   */\n      tag_312\n      jump\t// in\n    tag_403:\n        /* \"#utility.yul\":2278:2341   */\n      swap2\n      pop\n        /* \"#utility.yul\":2234:2351   */\n      pop\n        /* \"#utility.yul\":2029:2358   */\n      swap3\n      swap2\n      pop\n      pop\n      jump\t// out\n        /* \"#utility.yul\":2364:2693   */\n    tag_60:\n        /* \"#utility.yul\":2423:2429   */\n      0x00\n        /* \"#utility.yul\":2472:2474   */\n      0x20\n        /* \"#utility.yul\":2460:2469   */\n      dup3\n        /* \"#utility.yul\":2451:2458   */\n      dup5\n        /* \"#utility.yul\":2447:2470   */\n      sub\n        /* \"#utility.yul\":2443:2475   */\n      slt\n        /* \"#utility.yul\":2440:2559   */\n      iszero\n      tag_405\n      jumpi\n        /* \"#utility.yul\":2478:2557   */\n      tag_406\n      tag_304\n      jump\t// in\n    tag_406:\n        /* \"#utility.yul\":2440:2559   */\n    tag_405:\n        /* \"#utility.yul\":2598:2599   */\n      0x00\n        /* \"#utility.yul\":2623:2676   */\n      tag_407\n        /* \"#utility.yul\":2668:2675   */\n      dup5\n        /* \"#utility.yul\":2659:2665   */\n      dup3\n        /* \"#utility.yul\":2648:2657   */\n      dup6\n        /* \"#utility.yul\":2644:2666   */\n      add\n        /* \"#utility.yul\":2623:2676   */\n      tag_309\n      jump\t// in\n    tag_407:\n        /* \"#utility.yul\":2613:2676   */\n      swap2\n      pop\n        /* \"#utility.yul\":2569:2686   */\n      pop\n        /* \"#utility.yul\":2364:2693   */\n      swap3\n      swap2\n      pop\n      pop\n      jump\t// out\n        /* \"#utility.yul\":2699:2817   */\n    tag_314:\n        /* \"#utility.yul\":2786:2810   */\n      tag_409\n        /* \"#utility.yul\":2804:2809   */\n      dup2\n        /* \"#utility.yul\":2786:2810   */\n      tag_310\n      jump\t// in\n    tag_409:\n        /* \"#utility.yul\":2781:2784   */\n      dup3\n        /* \"#utility.yul\":2774:2811   */\n      mstore\n        /* \"#utility.yul\":2699:2817   */\n      pop\n      pop\n      jump\t// out\n        /* \"#utility.yul\":2823:3045   */\n    tag_63:\n        /* \"#utility.yul\":2916:2920   */\n      0x00\n        /* \"#utility.yul\":2954:2956   */\n      0x20\n        /* \"#utility.yul\":2943:2952   */\n      dup3\n        /* \"#utility.yul\":2939:2957   */\n      add\n        /* \"#utility.yul\":2931:2957   */\n      swap1\n      pop\n        /* \"#utility.yul\":2967:3038   */\n      tag_411\n        /* \"#utility.yul\":3035:3036   */\n      0x00\n        /* \"#utility.yul\":3024:3033   */\n      dup4\n        /* \"#utility.yul\":3020:3037   */\n      add\n        /* \"#utility.yul\":3011:3017   */\n      dup5\n        /* \"#utility.yul\":2967:3038   */\n      tag_314\n      jump\t// in\n    tag_411:\n        /* \"#utility.yul\":2823:3045   */\n      swap3\n      swap2\n      pop\n      pop\n      jump\t// out\n        /* \"#utility.yul\":3051:3525   */\n    tag_76:\n        /* \"#utility.yul\":3119:3125   */\n      0x00\n        /* \"#utility.yul\":3127:3133   */\n      dup1\n        /* \"#utility.yul\":3176:3178   */\n      0x40\n        /* \"#utility.yul\":3164:3173   */\n      dup4\n        /* \"#utility.yul\":3155:3162   */\n      dup6\n        /* \"#utility.yul\":3151:3174   */\n      sub\n        /* \"#utility.yul\":3147:3179   */\n      slt\n        /* \"#utility.yul\":3144:3263   */\n      iszero\n      tag_413\n      jumpi\n        /* \"#utility.yul\":3182:3261   */\n      tag_414\n      tag_304\n      jump\t// in\n    tag_414:\n        /* \"#utility.yul\":3144:3263   */\n    tag_413:\n        /* \"#utility.yul\":3302:3303   */\n      0x00\n        /* \"#utility.yul\":3327:3380   */\n      tag_415\n        /* \"#utility.yul\":3372:3379   */\n      dup6\n        /* \"#utility.yul\":3363:3369   */\n      dup3\n        /* \"#utility.yul\":3352:3361   */\n      dup7\n        /* \"#utility.yul\":3348:3370   */\n      add\n        /* \"#utility.yul\":3327:3380   */\n      tag_309\n      jump\t// in\n    tag_415:\n        /* \"#utility.yul\":3317:3380   */\n      swap3\n      pop\n        /* \"#utility.yul\":3273:3390   */\n      pop\n        /* \"#utility.yul\":3429:3431   */\n      0x20\n        /* \"#utility.yul\":3455:3508   */\n      tag_416\n        /* \"#utility.yul\":3500:3507   */\n      dup6\n        /* \"#utility.yul\":3491:3497   */\n      dup3\n        /* \"#utility.yul\":3480:3489   */\n      dup7\n        /* \"#utility.yul\":3476:3498   */\n      add\n        /* \"#utility.yul\":3455:3508   */\n      tag_309\n      jump\t// in\n    tag_416:\n        /* \"#utility.yul\":3445:3508   */\n      swap2\n      pop\n        /* \"#utility.yul\":3400:3518   */\n      pop\n        /* \"#utility.yul\":3051:3525   */\n      swap3\n      pop\n      swap3\n      swap1\n      pop\n      jump\t// out\n        /* \"#utility.yul\":3531:3617   */\n    tag_315:\n        /* \"#utility.yul\":3566:3573   */\n      0x00\n        /* \"#utility.yul\":3606:3610   */\n      0xff\n        /* \"#utility.yul\":3599:3604   */\n      dup3\n        /* \"#utility.yul\":3595:3611   */\n      and\n        /* \"#utility.yul\":3584:3611   */\n      swap1\n      pop\n        /* \"#utility.yul\":3531:3617   */\n      swap2\n      swap1\n      pop\n      jump\t// out\n        /* \"#utility.yul\":3623:3735   */\n    tag_316:\n        /* \"#utility.yul\":3706:3728   */\n      tag_419\n        /* \"#utility.yul\":3722:3727   */\n      dup2\n        /* \"#utility.yul\":3706:3728   */\n      tag_315\n      jump\t// in\n    tag_419:\n        /* \"#utility.yul\":3701:3704   */\n      dup3\n        /* \"#utility.yul\":3694:3729   */\n      mstore\n        /* \"#utility.yul\":3623:3735   */\n      pop\n      pop\n      jump\t// out\n        /* \"#utility.yul\":3741:3955   */\n    tag_79:\n        /* \"#utility.yul\":3830:3834   */\n      0x00\n        /* \"#utility.yul\":3868:3870   */\n      0x20\n        /* \"#utility.yul\":3857:3866   */\n      dup3\n        /* \"#utility.yul\":3853:3871   */\n      add\n        /* \"#utility.yul\":3845:3871   */\n      swap1\n      pop\n        /* \"#utility.yul\":3881:3948   */\n      tag_421\n        /* \"#utility.yul\":3945:3946   */\n      0x00\n        /* \"#utility.yul\":3934:3943   */\n      dup4\n        /* \"#utility.yul\":3930:3947   */\n      add\n        /* \"#utility.yul\":3921:3927   */\n      dup5\n        /* \"#utility.yul\":3881:3948   */\n      tag_316\n      jump\t// in\n    tag_421:\n        /* \"#utility.yul\":3741:3955   */\n      swap3\n      swap2\n      pop\n      pop\n      jump\t// out\n        /* \"#utility.yul\":3961:4078   */\n    tag_317:\n        /* \"#utility.yul\":4070:4071   */\n      0x00\n        /* \"#utility.yul\":4067:4068   */\n      dup1\n        /* \"#utility.yul\":4060:4072   */\n      revert\n        /* \"#utility.yul\":4084:4201   */\n    tag_318:\n        /* \"#utility.yul\":4193:4194   */\n      0x00\n        /* \"#utility.yul\":4190:4191   */\n      dup1\n        /* \"#utility.yul\":4183:4195   */\n      revert\n        /* \"#utility.yul\":4207:4309   */\n    tag_319:\n        /* \"#utility.yul\":4248:4254   */\n      0x00\n        /* \"#utility.yul\":4299:4301   */\n      0x1f\n        /* \"#utility.yul\":4295:4302   */\n      not\n        /* \"#utility.yul\":4290:4292   */\n      0x1f\n        /* \"#utility.yul\":4283:4288   */\n      dup4\n        /* \"#utility.yul\":4279:4293   */\n      add\n        /* \"#utility.yul\":4275:4303   */\n      and\n        /* \"#utility.yul\":4265:4303   */\n      swap1\n      pop\n        /* \"#utility.yul\":4207:4309   */\n      swap2\n      swap1\n      pop\n      jump\t// out\n        /* \"#utility.yul\":4315:4495   */\n    tag_320:\n        /* \"#utility.yul\":4363:4440   */\n      0x4e487b7100000000000000000000000000000000000000000000000000000000\n        /* \"#utility.yul\":4360:4361   */\n      0x00\n        /* \"#utility.yul\":4353:4441   */\n      mstore\n        /* \"#utility.yul\":4460:4464   */\n      0x41\n        /* \"#utility.yul\":4457:4458   */\n      0x04\n        /* \"#utility.yul\":4450:4465   */\n      mstore\n        /* \"#utility.yul\":4484:4488   */\n      0x24\n        /* \"#utility.yul\":4481:4482   */\n      0x00\n        /* \"#utility.yul\":4474:4489   */\n      revert\n        /* \"#utility.yul\":4501:4782   */\n    tag_321:\n        /* \"#utility.yul\":4584:4611   */\n      tag_427\n        /* \"#utility.yul\":4606:4610   */\n      dup3\n        /* \"#utility.yul\":4584:4611   */\n      tag_319\n      jump\t// in\n    tag_427:\n        /* \"#utility.yul\":4576:4582   */\n      dup2\n        /* \"#utility.yul\":4572:4612   */\n      add\n        /* \"#utility.yul\":4714:4720   */\n      dup2\n        /* \"#utility.yul\":4702:4712   */\n      dup2\n        /* \"#utility.yul\":4699:4721   */\n      lt\n        /* \"#utility.yul\":4678:4696   */\n      0xffffffffffffffff\n        /* \"#utility.yul\":4666:4676   */\n      dup3\n        /* \"#utility.yul\":4663:4697   */\n      gt\n        /* \"#utility.yul\":4660:4722   */\n      or\n        /* \"#utility.yul\":4657:4745   */\n      iszero\n      tag_428\n      jumpi\n        /* \"#utility.yul\":4725:4743   */\n      tag_429\n      tag_320\n      jump\t// in\n    tag_429:\n        /* \"#utility.yul\":4657:4745   */\n    tag_428:\n        /* \"#utility.yul\":4765:4775   */\n      dup1\n        /* \"#utility.yul\":4761:4763   */\n      0x40\n        /* \"#utility.yul\":4754:4776   */\n      mstore\n        /* \"#utility.yul\":4544:4782   */\n      pop\n        /* \"#utility.yul\":4501:4782   */\n      pop\n      pop\n      jump\t// out\n        /* \"#utility.yul\":4788:4917   */\n    tag_322:\n        /* \"#utility.yul\":4822:4828   */\n      0x00\n        /* \"#utility.yul\":4849:4869   */\n      tag_431\n      tag_303\n      jump\t// in\n    tag_431:\n        /* \"#utility.yul\":4839:4869   */\n      swap1\n      pop\n        /* \"#utility.yul\":4878:4911   */\n      tag_432\n        /* \"#utility.yul\":4906:4910   */\n      dup3\n        /* \"#utility.yul\":4898:4904   */\n      dup3\n        /* \"#utility.yul\":4878:4911   */\n      tag_321\n      jump\t// in\n    tag_432:\n        /* \"#utility.yul\":4788:4917   */\n      swap2\n      swap1\n      pop\n      jump\t// out\n        /* \"#utility.yul\":4923:5231   */\n    tag_323:\n        /* \"#utility.yul\":4985:4989   */\n      0x00\n        /* \"#utility.yul\":5075:5093   */\n      0xffffffffffffffff\n        /* \"#utility.yul\":5067:5073   */\n      dup3\n        /* \"#utility.yul\":5064:5094   */\n      gt\n        /* \"#utility.yul\":5061:5117   */\n      iszero\n      tag_434\n      jumpi\n        /* \"#utility.yul\":5097:5115   */\n      tag_435\n      tag_320\n      jump\t// in\n    tag_435:\n        /* \"#utility.yul\":5061:5117   */\n    tag_434:\n        /* \"#utility.yul\":5135:5164   */\n      tag_436\n        /* \"#utility.yul\":5157:5163   */\n      dup3\n        /* \"#utility.yul\":5135:5164   */\n      tag_319\n      jump\t// in\n    tag_436:\n        /* \"#utility.yul\":5127:5164   */\n      swap1\n      pop\n        /* \"#utility.yul\":5219:5223   */\n      0x20\n        /* \"#utility.yul\":5213:5217   */\n      dup2\n        /* \"#utility.yul\":5209:5224   */\n      add\n        /* \"#utility.yul\":5201:5224   */\n      swap1\n      pop\n        /* \"#utility.yul\":4923:5231   */\n      swap2\n      swap1\n      pop\n      jump\t// out\n        /* \"#utility.yul\":5237:5383   */\n    tag_324:\n        /* \"#utility.yul\":5334:5340   */\n      dup3\n        /* \"#utility.yul\":5329:5332   */\n      dup2\n        /* \"#utility.yul\":5324:5327   */\n      dup4\n        /* \"#utility.yul\":5311:5341   */\n      calldatacopy\n        /* \"#utility.yul\":5375:5376   */\n      0x00\n        /* \"#utility.yul\":5366:5372   */\n      dup4\n        /* \"#utility.yul\":5361:5364   */\n      dup4\n        /* \"#utility.yul\":5357:5373   */\n      add\n        /* \"#utility.yul\":5350:5377   */\n      mstore\n        /* \"#utility.yul\":5237:5383   */\n      pop\n      pop\n      pop\n      jump\t// out\n        /* \"#utility.yul\":5389:5814   */\n    tag_325:\n        /* \"#utility.yul\":5467:5472   */\n      0x00\n        /* \"#utility.yul\":5492:5558   */\n      tag_439\n        /* \"#utility.yul\":5508:5557   */\n      tag_440\n        /* \"#utility.yul\":5550:5556   */\n      dup5\n        /* \"#utility.yul\":5508:5557   */\n      tag_323\n      jump\t// in\n    tag_440:\n        /* \"#utility.yul\":5492:5558   */\n      tag_322\n      jump\t// in\n    tag_439:\n        /* \"#utility.yul\":5483:5558   */\n      swap1\n      pop\n        /* \"#utility.yul\":5581:5587   */\n      dup3\n        /* \"#utility.yul\":5574:5579   */\n      dup2\n        /* \"#utility.yul\":5567:5588   */\n      mstore\n        /* \"#utility.yul\":5619:5623   */\n      0x20\n        /* \"#utility.yul\":5612:5617   */\n      dup2\n        /* \"#utility.yul\":5608:5624   */\n      add\n        /* \"#utility.yul\":5657:5660   */\n      dup5\n        /* \"#utility.yul\":5648:5654   */\n      dup5\n        /* \"#utility.yul\":5643:5646   */\n      dup5\n        /* \"#utility.yul\":5639:5655   */\n      add\n        /* \"#utility.yul\":5636:5661   */\n      gt\n        /* \"#utility.yul\":5633:5745   */\n      iszero\n      tag_441\n      jumpi\n        /* \"#utility.yul\":5664:5743   */\n      tag_442\n      tag_318\n      jump\t// in\n    tag_442:\n        /* \"#utility.yul\":5633:5745   */\n    tag_441:\n        /* \"#utility.yul\":5754:5808   */\n      tag_443\n        /* \"#utility.yul\":5801:5807   */\n      dup5\n        /* \"#utility.yul\":5796:5799   */\n      dup3\n        /* \"#utility.yul\":5791:5794   */\n      dup6\n        /* \"#utility.yul\":5754:5808   */\n      tag_324\n      jump\t// in\n    tag_443:\n        /* \"#utility.yul\":5473:5814   */\n      pop\n        /* \"#utility.yul\":5389:5814   */\n      swap4\n      swap3\n      pop\n      pop\n      pop\n      jump\t// out\n        /* \"#utility.yul\":5834:6174   */\n    tag_326:\n        /* \"#utility.yul\":5890:5895   */\n      0x00\n        /* \"#utility.yul\":5939:5942   */\n      dup3\n        /* \"#utility.yul\":5932:5936   */\n      0x1f\n        /* \"#utility.yul\":5924:5930   */\n      dup4\n        /* \"#utility.yul\":5920:5937   */\n      add\n        /* \"#utility.yul\":5916:5943   */\n      slt\n        /* \"#utility.yul\":5906:6028   */\n      tag_445\n      jumpi\n        /* \"#utility.yul\":5947:6026   */\n      tag_446\n      tag_317\n      jump\t// in\n    tag_446:\n        /* \"#utility.yul\":5906:6028   */\n    tag_445:\n        /* \"#utility.yul\":6064:6070   */\n      dup2\n        /* \"#utility.yul\":6051:6071   */\n      calldataload\n        /* \"#utility.yul\":6089:6168   */\n      tag_447\n        /* \"#utility.yul\":6164:6167   */\n      dup5\n        /* \"#utility.yul\":6156:6162   */\n      dup3\n        /* \"#utility.yul\":6149:6153   */\n      0x20\n        /* \"#utility.yul\":6141:6147   */\n      dup7\n        /* \"#utility.yul\":6137:6154   */\n      add\n        /* \"#utility.yul\":6089:6168   */\n      tag_325\n      jump\t// in\n    tag_447:\n        /* \"#utility.yul\":6080:6168   */\n      swap2\n      pop\n        /* \"#utility.yul\":5896:6174   */\n      pop\n        /* \"#utility.yul\":5834:6174   */\n      swap3\n      swap2\n      pop\n      pop\n      jump\t// out\n        /* \"#utility.yul\":6180:6979   */\n    tag_98:\n        /* \"#utility.yul\":6267:6273   */\n      0x00\n        /* \"#utility.yul\":6275:6281   */\n      dup1\n        /* \"#utility.yul\":6283:6289   */\n      0x00\n        /* \"#utility.yul\":6332:6334   */\n      0x60\n        /* \"#utility.yul\":6320:6329   */\n      dup5\n        /* \"#utility.yul\":6311:6318   */\n      dup7\n        /* \"#utility.yul\":6307:6330   */\n      sub\n        /* \"#utility.yul\":6303:6335   */\n      slt\n        /* \"#utility.yul\":6300:6419   */\n      iszero\n      tag_449\n      jumpi\n        /* \"#utility.yul\":6338:6417   */\n      tag_450\n      tag_304\n      jump\t// in\n    tag_450:\n        /* \"#utility.yul\":6300:6419   */\n    tag_449:\n        /* \"#utility.yul\":6486:6487   */\n      0x00\n        /* \"#utility.yul\":6475:6484   */\n      dup5\n        /* \"#utility.yul\":6471:6488   */\n      add\n        /* \"#utility.yul\":6458:6489   */\n      calldataload\n        /* \"#utility.yul\":6516:6534   */\n      0xffffffffffffffff\n        /* \"#utility.yul\":6508:6514   */\n      dup2\n        /* \"#utility.yul\":6505:6535   */\n      gt\n        /* \"#utility.yul\":6502:6619   */\n      iszero\n      tag_451\n      jumpi\n        /* \"#utility.yul\":6538:6617   */\n      tag_452\n      tag_305\n      jump\t// in\n    tag_452:\n        /* \"#utility.yul\":6502:6619   */\n    tag_451:\n        /* \"#utility.yul\":6643:6706   */\n      tag_453\n        /* \"#utility.yul\":6698:6705   */\n      dup7\n        /* \"#utility.yul\":6689:6695   */\n      dup3\n        /* \"#utility.yul\":6678:6687   */\n      dup8\n        /* \"#utility.yul\":6674:6696   */\n      add\n        /* \"#utility.yul\":6643:6706   */\n      tag_326\n      jump\t// in\n    tag_453:\n        /* \"#utility.yul\":6633:6706   */\n      swap4\n      pop\n        /* \"#utility.yul\":6429:6716   */\n      pop\n        /* \"#utility.yul\":6755:6757   */\n      0x20\n        /* \"#utility.yul\":6781:6834   */\n      tag_454\n        /* \"#utility.yul\":6826:6833   */\n      dup7\n        /* \"#utility.yul\":6817:6823   */\n      dup3\n        /* \"#utility.yul\":6806:6815   */\n      dup8\n        /* \"#utility.yul\":6802:6824   */\n      add\n        /* \"#utility.yul\":6781:6834   */\n      tag_312\n      jump\t// in\n    tag_454:\n        /* \"#utility.yul\":6771:6834   */\n      swap3\n      pop\n        /* \"#utility.yul\":6726:6844   */\n      pop\n        /* \"#utility.yul\":6883:6885   */\n      0x40\n        /* \"#utility.yul\":6909:6962   */\n      tag_455\n        /* \"#utility.yul\":6954:6961   */\n      dup7\n        /* \"#utility.yul\":6945:6951   */\n      dup3\n        /* \"#utility.yul\":6934:6943   */\n      dup8\n        /* \"#utility.yul\":6930:6952   */\n      add\n        /* \"#utility.yul\":6909:6962   */\n      tag_309\n      jump\t// in\n    tag_455:\n        /* \"#utility.yul\":6899:6962   */\n      swap2\n      pop\n        /* \"#utility.yul\":6854:6972   */\n      pop\n        /* \"#utility.yul\":6180:6979   */\n      swap3\n      pop\n      swap3\n      pop\n      swap3\n      jump\t// out\n        /* \"#utility.yul\":6985:7089   */\n    tag_327:\n        /* \"#utility.yul\":7030:7037   */\n      0x00\n        /* \"#utility.yul\":7059:7083   */\n      tag_457\n        /* \"#utility.yul\":7077:7082   */\n      dup3\n        /* \"#utility.yul\":7059:7083   */\n      tag_306\n      jump\t// in\n    tag_457:\n        /* \"#utility.yul\":7048:7083   */\n      swap1\n      pop\n        /* \"#utility.yul\":6985:7089   */\n      swap2\n      swap1\n      pop\n      jump\t// out\n        /* \"#utility.yul\":7095:7233   */\n    tag_328:\n        /* \"#utility.yul\":7176:7208   */\n      tag_459\n        /* \"#utility.yul\":7202:7207   */\n      dup2\n        /* \"#utility.yul\":7176:7208   */\n      tag_327\n      jump\t// in\n    tag_459:\n        /* \"#utility.yul\":7169:7174   */\n      dup2\n        /* \"#utility.yul\":7166:7209   */\n      eq\n        /* \"#utility.yul\":7156:7227   */\n      tag_460\n      jumpi\n        /* \"#utility.yul\":7223:7224   */\n      0x00\n        /* \"#utility.yul\":7220:7221   */\n      dup1\n        /* \"#utility.yul\":7213:7225   */\n      revert\n        /* \"#utility.yul\":7156:7227   */\n    tag_460:\n        /* \"#utility.yul\":7095:7233   */\n      pop\n      jump\t// out\n        /* \"#utility.yul\":7239:7394   */\n    tag_329:\n        /* \"#utility.yul\":7293:7298   */\n      0x00\n        /* \"#utility.yul\":7331:7337   */\n      dup2\n        /* \"#utility.yul\":7318:7338   */\n      calldataload\n        /* \"#utility.yul\":7309:7338   */\n      swap1\n      pop\n        /* \"#utility.yul\":7347:7388   */\n      tag_462\n        /* \"#utility.yul\":7382:7387   */\n      dup2\n        /* \"#utility.yul\":7347:7388   */\n      tag_328\n      jump\t// in\n    tag_462:\n        /* \"#utility.yul\":7239:7394   */\n      swap3\n      swap2\n      pop\n      pop\n      jump\t// out\n        /* \"#utility.yul\":7400:7890   */\n    tag_107:\n        /* \"#utility.yul\":7476:7482   */\n      0x00\n        /* \"#utility.yul\":7484:7490   */\n      dup1\n        /* \"#utility.yul\":7533:7535   */\n      0x40\n        /* \"#utility.yul\":7521:7530   */\n      dup4\n        /* \"#utility.yul\":7512:7519   */\n      dup6\n        /* \"#utility.yul\":7508:7531   */\n      sub\n        /* \"#utility.yul\":7504:7536   */\n      slt\n        /* \"#utility.yul\":7501:7620   */\n      iszero\n      tag_464\n      jumpi\n        /* \"#utility.yul\":7539:7618   */\n      tag_465\n      tag_304\n      jump\t// in\n    tag_465:\n        /* \"#utility.yul\":7501:7620   */\n    tag_464:\n        /* \"#utility.yul\":7659:7660   */\n      0x00\n        /* \"#utility.yul\":7684:7737   */\n      tag_466\n        /* \"#utility.yul\":7729:7736   */\n      dup6\n        /* \"#utility.yul\":7720:7726   */\n      dup3\n        /* \"#utility.yul\":7709:7718   */\n      dup7\n        /* \"#utility.yul\":7705:7727   */\n      add\n        /* \"#utility.yul\":7684:7737   */\n      tag_312\n      jump\t// in\n    tag_466:\n        /* \"#utility.yul\":7674:7737   */\n      swap3\n      pop\n        /* \"#utility.yul\":7630:7747   */\n      pop\n        /* \"#utility.yul\":7786:7788   */\n      0x20\n        /* \"#utility.yul\":7812:7873   */\n      tag_467\n        /* \"#utility.yul\":7865:7872   */\n      dup6\n        /* \"#utility.yul\":7856:7862   */\n      dup3\n        /* \"#utility.yul\":7845:7854   */\n      dup7\n        /* \"#utility.yul\":7841:7863   */\n      add\n        /* \"#utility.yul\":7812:7873   */\n      tag_329\n      jump\t// in\n    tag_467:\n        /* \"#utility.yul\":7802:7873   */\n      swap2\n      pop\n        /* \"#utility.yul\":7757:7883   */\n      pop\n        /* \"#utility.yul\":7400:7890   */\n      swap3\n      pop\n      swap3\n      swap1\n      pop\n      jump\t// out\n        /* \"#utility.yul\":7896:8014   */\n    tag_330:\n        /* \"#utility.yul\":7967:7989   */\n      tag_469\n        /* \"#utility.yul\":7983:7988   */\n      dup2\n        /* \"#utility.yul\":7967:7989   */\n      tag_315\n      jump\t// in\n    tag_469:\n        /* \"#utility.yul\":7960:7965   */\n      dup2\n        /* \"#utility.yul\":7957:7990   */\n      eq\n        /* \"#utility.yul\":7947:8008   */\n      tag_470\n      jumpi\n        /* \"#utility.yul\":8004:8005   */\n      0x00\n        /* \"#utility.yul\":8001:8002   */\n      dup1\n        /* \"#utility.yul\":7994:8006   */\n      revert\n        /* \"#utility.yul\":7947:8008   */\n    tag_470:\n        /* \"#utility.yul\":7896:8014   */\n      pop\n      jump\t// out\n        /* \"#utility.yul\":8020:8155   */\n    tag_331:\n        /* \"#utility.yul\":8064:8069   */\n      0x00\n        /* \"#utility.yul\":8102:8108   */\n      dup2\n        /* \"#utility.yul\":8089:8109   */\n      calldataload\n        /* \"#utility.yul\":8080:8109   */\n      swap1\n      pop\n        /* \"#utility.yul\":8118:8149   */\n      tag_472\n        /* \"#utility.yul\":8143:8148   */\n      dup2\n        /* \"#utility.yul\":8118:8149   */\n      tag_330\n      jump\t// in\n    tag_472:\n        /* \"#utility.yul\":8020:8155   */\n      swap3\n      swap2\n      pop\n      pop\n      jump\t// out\n        /* \"#utility.yul\":8161:8631   */\n    tag_112:\n        /* \"#utility.yul\":8227:8233   */\n      0x00\n        /* \"#utility.yul\":8235:8241   */\n      dup1\n        /* \"#utility.yul\":8284:8286   */\n      0x40\n        /* \"#utility.yul\":8272:8281   */\n      dup4\n        /* \"#utility.yul\":8263:8270   */\n      dup6\n        /* \"#utility.yul\":8259:8282   */\n      sub\n        /* \"#utility.yul\":8255:8287   */\n      slt\n        /* \"#utility.yul\":8252:8371   */\n      iszero\n      tag_474\n      jumpi\n        /* \"#utility.yul\":8290:8369   */\n      tag_475\n      tag_304\n      jump\t// in\n    tag_475:\n        /* \"#utility.yul\":8252:8371   */\n    tag_474:\n        /* \"#utility.yul\":8410:8411   */\n      0x00\n        /* \"#utility.yul\":8435:8488   */\n      tag_476\n        /* \"#utility.yul\":8480:8487   */\n      dup6\n        /* \"#utility.yul\":8471:8477   */\n      dup3\n        /* \"#utility.yul\":8460:8469   */\n      dup7\n        /* \"#utility.yul\":8456:8478   */\n      add\n        /* \"#utility.yul\":8435:8488   */\n      tag_309\n      jump\t// in\n    tag_476:\n        /* \"#utility.yul\":8425:8488   */\n      swap3\n      pop\n        /* \"#utility.yul\":8381:8498   */\n      pop\n        /* \"#utility.yul\":8537:8539   */\n      0x20\n        /* \"#utility.yul\":8563:8614   */\n      tag_477\n        /* \"#utility.yul\":8606:8613   */\n      dup6\n        /* \"#utility.yul\":8597:8603   */\n      dup3\n        /* \"#utility.yul\":8586:8595   */\n      dup7\n        /* \"#utility.yul\":8582:8604   */\n      add\n        /* \"#utility.yul\":8563:8614   */\n      tag_331\n      jump\t// in\n    tag_477:\n        /* \"#utility.yul\":8553:8614   */\n      swap2\n      pop\n        /* \"#utility.yul\":8508:8624   */\n      pop\n        /* \"#utility.yul\":8161:8631   */\n      swap3\n      pop\n      swap3\n      swap1\n      pop\n      jump\t// out\n        /* \"#utility.yul\":8637:8736   */\n    tag_332:\n        /* \"#utility.yul\":8689:8695   */\n      0x00\n        /* \"#utility.yul\":8723:8728   */\n      dup2\n        /* \"#utility.yul\":8717:8729   */\n      mload\n        /* \"#utility.yul\":8707:8729   */\n      swap1\n      pop\n        /* \"#utility.yul\":8637:8736   */\n      swap2\n      swap1\n      pop\n      jump\t// out\n        /* \"#utility.yul\":8742:8911   */\n    tag_333:\n        /* \"#utility.yul\":8826:8837   */\n      0x00\n        /* \"#utility.yul\":8860:8866   */\n      dup3\n        /* \"#utility.yul\":8855:8858   */\n      dup3\n        /* \"#utility.yul\":8848:8867   */\n      mstore\n        /* \"#utility.yul\":8900:8904   */\n      0x20\n        /* \"#utility.yul\":8895:8898   */\n      dup3\n        /* \"#utility.yul\":8891:8905   */\n      add\n        /* \"#utility.yul\":8876:8905   */\n      swap1\n      pop\n        /* \"#utility.yul\":8742:8911   */\n      swap3\n      swap2\n      pop\n      pop\n      jump\t// out\n        /* \"#utility.yul\":8917:9163   */\n    tag_334:\n        /* \"#utility.yul\":8998:8999   */\n      0x00\n        /* \"#utility.yul\":9008:9121   */\n    tag_481:\n        /* \"#utility.yul\":9022:9028   */\n      dup4\n        /* \"#utility.yul\":9019:9020   */\n      dup2\n        /* \"#utility.yul\":9016:9029   */\n      lt\n        /* \"#utility.yul\":9008:9121   */\n      iszero\n      tag_483\n      jumpi\n        /* \"#utility.yul\":9107:9108   */\n      dup1\n        /* \"#utility.yul\":9102:9105   */\n      dup3\n        /* \"#utility.yul\":9098:9109   */\n      add\n        /* \"#utility.yul\":9092:9110   */\n      mload\n        /* \"#utility.yul\":9088:9089   */\n      dup2\n        /* \"#utility.yul\":9083:9086   */\n      dup5\n        /* \"#utility.yul\":9079:9090   */\n      add\n        /* \"#utility.yul\":9072:9111   */\n      mstore\n        /* \"#utility.yul\":9044:9046   */\n      0x20\n        /* \"#utility.yul\":9041:9042   */\n      dup2\n        /* \"#utility.yul\":9037:9047   */\n      add\n        /* \"#utility.yul\":9032:9047   */\n      swap1\n      pop\n        /* \"#utility.yul\":9008:9121   */\n      jump(tag_481)\n    tag_483:\n        /* \"#utility.yul\":9155:9156   */\n      0x00\n        /* \"#utility.yul\":9146:9152   */\n      dup5\n        /* \"#utility.yul\":9141:9144   */\n      dup5\n        /* \"#utility.yul\":9137:9153   */\n      add\n        /* \"#utility.yul\":9130:9157   */\n      mstore\n        /* \"#utility.yul\":8979:9163   */\n      pop\n        /* \"#utility.yul\":8917:9163   */\n      pop\n      pop\n      pop\n      jump\t// out\n        /* \"#utility.yul\":9169:9546   */\n    tag_335:\n        /* \"#utility.yul\":9257:9260   */\n      0x00\n        /* \"#utility.yul\":9285:9324   */\n      tag_485\n        /* \"#utility.yul\":9318:9323   */\n      dup3\n        /* \"#utility.yul\":9285:9324   */\n      tag_332\n      jump\t// in\n    tag_485:\n        /* \"#utility.yul\":9340:9411   */\n      tag_486\n        /* \"#utility.yul\":9404:9410   */\n      dup2\n        /* \"#utility.yul\":9399:9402   */\n      dup6\n        /* \"#utility.yul\":9340:9411   */\n      tag_333\n      jump\t// in\n    tag_486:\n        /* \"#utility.yul\":9333:9411   */\n      swap4\n      pop\n        /* \"#utility.yul\":9420:9485   */\n      tag_487\n        /* \"#utility.yul\":9478:9484   */\n      dup2\n        /* \"#utility.yul\":9473:9476   */\n      dup6\n        /* \"#utility.yul\":9466:9470   */\n      0x20\n        /* \"#utility.yul\":9459:9464   */\n      dup7\n        /* \"#utility.yul\":9455:9471   */\n      add\n        /* \"#utility.yul\":9420:9485   */\n      tag_334\n      jump\t// in\n    tag_487:\n        /* \"#utility.yul\":9510:9539   */\n      tag_488\n        /* \"#utility.yul\":9532:9538   */\n      dup2\n        /* \"#utility.yul\":9510:9539   */\n      tag_319\n      jump\t// in\n    tag_488:\n        /* \"#utility.yul\":9505:9508   */\n      dup5\n        /* \"#utility.yul\":9501:9540   */\n      add\n        /* \"#utility.yul\":9494:9540   */\n      swap2\n      pop\n        /* \"#utility.yul\":9261:9546   */\n      pop\n        /* \"#utility.yul\":9169:9546   */\n      swap3\n      swap2\n      pop\n      pop\n      jump\t// out\n        /* \"#utility.yul\":9552:9642   */\n    tag_336:\n        /* \"#utility.yul\":9586:9593   */\n      0x00\n        /* \"#utility.yul\":9629:9634   */\n      dup2\n        /* \"#utility.yul\":9622:9635   */\n      iszero\n        /* \"#utility.yul\":9615:9636   */\n      iszero\n        /* \"#utility.yul\":9604:9636   */\n      swap1\n      pop\n        /* \"#utility.yul\":9552:9642   */\n      swap2\n      swap1\n      pop\n      jump\t// out\n        /* \"#utility.yul\":9648:9757   */\n    tag_337:\n        /* \"#utility.yul\":9729:9750   */\n      tag_491\n        /* \"#utility.yul\":9744:9749   */\n      dup2\n        /* \"#utility.yul\":9729:9750   */\n      tag_336\n      jump\t// in\n    tag_491:\n        /* \"#utility.yul\":9724:9727   */\n      dup3\n        /* \"#utility.yul\":9717:9751   */\n      mstore\n        /* \"#utility.yul\":9648:9757   */\n      pop\n      pop\n      jump\t// out\n        /* \"#utility.yul\":9763:10395   */\n    tag_119:\n        /* \"#utility.yul\":9954:9958   */\n      0x00\n        /* \"#utility.yul\":9992:9995   */\n      0x80\n        /* \"#utility.yul\":9981:9990   */\n      dup3\n        /* \"#utility.yul\":9977:9996   */\n      add\n        /* \"#utility.yul\":9969:9996   */\n      swap1\n      pop\n        /* \"#utility.yul\":10042:10051   */\n      dup2\n        /* \"#utility.yul\":10036:10040   */\n      dup2\n        /* \"#utility.yul\":10032:10052   */\n      sub\n        /* \"#utility.yul\":10028:10029   */\n      0x00\n        /* \"#utility.yul\":10017:10026   */\n      dup4\n        /* \"#utility.yul\":10013:10030   */\n      add\n        /* \"#utility.yul\":10006:10053   */\n      mstore\n        /* \"#utility.yul\":10070:10148   */\n      tag_493\n        /* \"#utility.yul\":10143:10147   */\n      dup2\n        /* \"#utility.yul\":10134:10140   */\n      dup8\n        /* \"#utility.yul\":10070:10148   */\n      tag_335\n      jump\t// in\n    tag_493:\n        /* \"#utility.yul\":10062:10148   */\n      swap1\n      pop\n        /* \"#utility.yul\":10158:10230   */\n      tag_494\n        /* \"#utility.yul\":10226:10228   */\n      0x20\n        /* \"#utility.yul\":10215:10224   */\n      dup4\n        /* \"#utility.yul\":10211:10229   */\n      add\n        /* \"#utility.yul\":10202:10208   */\n      dup7\n        /* \"#utility.yul\":10158:10230   */\n      tag_314\n      jump\t// in\n    tag_494:\n        /* \"#utility.yul\":10240:10306   */\n      tag_495\n        /* \"#utility.yul\":10302:10304   */\n      0x40\n        /* \"#utility.yul\":10291:10300   */\n      dup4\n        /* \"#utility.yul\":10287:10305   */\n      add\n        /* \"#utility.yul\":10278:10284   */\n      dup6\n        /* \"#utility.yul\":10240:10306   */\n      tag_337\n      jump\t// in\n    tag_495:\n        /* \"#utility.yul\":10316:10388   */\n      tag_496\n        /* \"#utility.yul\":10384:10386   */\n      0x60\n        /* \"#utility.yul\":10373:10382   */\n      dup4\n        /* \"#utility.yul\":10369:10387   */\n      add\n        /* \"#utility.yul\":10360:10366   */\n      dup5\n        /* \"#utility.yul\":10316:10388   */\n      tag_313\n      jump\t// in\n    tag_496:\n        /* \"#utility.yul\":9763:10395   */\n      swap6\n      swap5\n      pop\n      pop\n      pop\n      pop\n      pop\n      jump\t// out\n        /* \"#utility.yul\":10401:11508   */\n    tag_142:\n        /* \"#utility.yul\":10514:10520   */\n      0x00\n        /* \"#utility.yul\":10522:10528   */\n      dup1\n        /* \"#utility.yul\":10530:10536   */\n      0x00\n        /* \"#utility.yul\":10538:10544   */\n      dup1\n        /* \"#utility.yul\":10546:10552   */\n      0x00\n        /* \"#utility.yul\":10595:10598   */\n      0xa0\n        /* \"#utility.yul\":10583:10592   */\n      dup7\n        /* \"#utility.yul\":10574:10581   */\n      dup9\n        /* \"#utility.yul\":10570:10593   */\n      sub\n        /* \"#utility.yul\":10566:10599   */\n      slt\n        /* \"#utility.yul\":10563:10683   */\n      iszero\n      tag_498\n      jumpi\n        /* \"#utility.yul\":10602:10681   */\n      tag_499\n      tag_304\n      jump\t// in\n    tag_499:\n        /* \"#utility.yul\":10563:10683   */\n    tag_498:\n        /* \"#utility.yul\":10722:10723   */\n      0x00\n        /* \"#utility.yul\":10747:10808   */\n      tag_500\n        /* \"#utility.yul\":10800:10807   */\n      dup9\n        /* \"#utility.yul\":10791:10797   */\n      dup3\n        /* \"#utility.yul\":10780:10789   */\n      dup10\n        /* \"#utility.yul\":10776:10798   */\n      add\n        /* \"#utility.yul\":10747:10808   */\n      tag_329\n      jump\t// in\n    tag_500:\n        /* \"#utility.yul\":10737:10808   */\n      swap6\n      pop\n        /* \"#utility.yul\":10693:10818   */\n      pop\n        /* \"#utility.yul\":10857:10859   */\n      0x20\n        /* \"#utility.yul\":10883:10936   */\n      tag_501\n        /* \"#utility.yul\":10928:10935   */\n      dup9\n        /* \"#utility.yul\":10919:10925   */\n      dup3\n        /* \"#utility.yul\":10908:10917   */\n      dup10\n        /* \"#utility.yul\":10904:10926   */\n      add\n        /* \"#utility.yul\":10883:10936   */\n      tag_312\n      jump\t// in\n    tag_501:\n        /* \"#utility.yul\":10873:10936   */\n      swap5\n      pop\n        /* \"#utility.yul\":10828:10946   */\n      pop\n        /* \"#utility.yul\":10985:10987   */\n      0x40\n        /* \"#utility.yul\":11011:11064   */\n      tag_502\n        /* \"#utility.yul\":11056:11063   */\n      dup9\n        /* \"#utility.yul\":11047:11053   */\n      dup3\n        /* \"#utility.yul\":11036:11045   */\n      dup10\n        /* \"#utility.yul\":11032:11054   */\n      add\n        /* \"#utility.yul\":11011:11064   */\n      tag_312\n      jump\t// in\n    tag_502:\n        /* \"#utility.yul\":11001:11064   */\n      swap4\n      pop\n        /* \"#utility.yul\":10956:11074   */\n      pop\n        /* \"#utility.yul\":11113:11115   */\n      0x60\n        /* \"#utility.yul\":11139:11192   */\n      tag_503\n        /* \"#utility.yul\":11184:11191   */\n      dup9\n        /* \"#utility.yul\":11175:11181   */\n      dup3\n        /* \"#utility.yul\":11164:11173   */\n      dup10\n        /* \"#utility.yul\":11160:11182   */\n      add\n        /* \"#utility.yul\":11139:11192   */\n      tag_312\n      jump\t// in\n    tag_503:\n        /* \"#utility.yul\":11129:11192   */\n      swap3\n      pop\n        /* \"#utility.yul\":11084:11202   */\n      pop\n        /* \"#utility.yul\":11269:11272   */\n      0x80\n        /* \"#utility.yul\":11258:11267   */\n      dup7\n        /* \"#utility.yul\":11254:11273   */\n      add\n        /* \"#utility.yul\":11241:11274   */\n      calldataload\n        /* \"#utility.yul\":11301:11319   */\n      0xffffffffffffffff\n        /* \"#utility.yul\":11293:11299   */\n      dup2\n        /* \"#utility.yul\":11290:11320   */\n      gt\n        /* \"#utility.yul\":11287:11404   */\n      iszero\n      tag_504\n      jumpi\n        /* \"#utility.yul\":11323:11402   */\n      tag_505\n      tag_305\n      jump\t// in\n    tag_505:\n        /* \"#utility.yul\":11287:11404   */\n    tag_504:\n        /* \"#utility.yul\":11428:11491   */\n      tag_506\n        /* \"#utility.yul\":11483:11490   */\n      dup9\n        /* \"#utility.yul\":11474:11480   */\n      dup3\n        /* \"#utility.yul\":11463:11472   */\n      dup10\n        /* \"#utility.yul\":11459:11481   */\n      add\n        /* \"#utility.yul\":11428:11491   */\n      tag_326\n      jump\t// in\n    tag_506:\n        /* \"#utility.yul\":11418:11491   */\n      swap2\n      pop\n        /* \"#utility.yul\":11212:11501   */\n      pop\n        /* \"#utility.yul\":10401:11508   */\n      swap3\n      swap6\n      pop\n      swap3\n      swap6\n      swap1\n      swap4\n      pop\n      jump\t// out\n        /* \"#utility.yul\":11514:11694   */\n    tag_177:\n        /* \"#utility.yul\":11562:11639   */\n      0x4e487b7100000000000000000000000000000000000000000000000000000000\n        /* \"#utility.yul\":11559:11560   */\n      0x00\n        /* \"#utility.yul\":11552:11640   */\n      mstore\n        /* \"#utility.yul\":11659:11663   */\n      0x32\n        /* \"#utility.yul\":11656:11657   */\n      0x04\n        /* \"#utility.yul\":11649:11664   */\n      mstore\n        /* \"#utility.yul\":11683:11687   */\n      0x24\n        /* \"#utility.yul\":11680:11681   */\n      0x00\n        /* \"#utility.yul\":11673:11688   */\n      revert\n        /* \"#utility.yul\":11700:11921   */\n    tag_338:\n        /* \"#utility.yul\":11840:11874   */\n      0x726571756573742068617320616c7265616479206265656e2066696e616c6973\n        /* \"#utility.yul\":11836:11837   */\n      0x00\n        /* \"#utility.yul\":11828:11834   */\n      dup3\n        /* \"#utility.yul\":11824:11838   */\n      add\n        /* \"#utility.yul\":11817:11875   */\n      mstore\n        /* \"#utility.yul\":11909:11913   */\n      0x6564000000000000000000000000000000000000000000000000000000000000\n        /* \"#utility.yul\":11904:11906   */\n      0x20\n        /* \"#utility.yul\":11896:11902   */\n      dup3\n        /* \"#utility.yul\":11892:11907   */\n      add\n        /* \"#utility.yul\":11885:11914   */\n      mstore\n        /* \"#utility.yul\":11700:11921   */\n      pop\n      jump\t// out\n        /* \"#utility.yul\":11927:12293   */\n    tag_339:\n        /* \"#utility.yul\":12069:12072   */\n      0x00\n        /* \"#utility.yul\":12090:12157   */\n      tag_510\n        /* \"#utility.yul\":12154:12156   */\n      0x22\n        /* \"#utility.yul\":12149:12152   */\n      dup4\n        /* \"#utility.yul\":12090:12157   */\n      tag_333\n      jump\t// in\n    tag_510:\n        /* \"#utility.yul\":12083:12157   */\n      swap2\n      pop\n        /* \"#utility.yul\":12166:12259   */\n      tag_511\n        /* \"#utility.yul\":12255:12258   */\n      dup3\n        /* \"#utility.yul\":12166:12259   */\n      tag_338\n      jump\t// in\n    tag_511:\n        /* \"#utility.yul\":12284:12286   */\n      0x40\n        /* \"#utility.yul\":12279:12282   */\n      dup3\n        /* \"#utility.yul\":12275:12287   */\n      add\n        /* \"#utility.yul\":12268:12287   */\n      swap1\n      pop\n        /* \"#utility.yul\":11927:12293   */\n      swap2\n      swap1\n      pop\n      jump\t// out\n        /* \"#utility.yul\":12299:12718   */\n    tag_181:\n        /* \"#utility.yul\":12465:12469   */\n      0x00\n        /* \"#utility.yul\":12503:12505   */\n      0x20\n        /* \"#utility.yul\":12492:12501   */\n      dup3\n        /* \"#utility.yul\":12488:12506   */\n      add\n        /* \"#utility.yul\":12480:12506   */\n      swap1\n      pop\n        /* \"#utility.yul\":12552:12561   */\n      dup2\n        /* \"#utility.yul\":12546:12550   */\n      dup2\n        /* \"#utility.yul\":12542:12562   */\n      sub\n        /* \"#utility.yul\":12538:12539   */\n      0x00\n        /* \"#utility.yul\":12527:12536   */\n      dup4\n        /* \"#utility.yul\":12523:12540   */\n      add\n        /* \"#utility.yul\":12516:12563   */\n      mstore\n        /* \"#utility.yul\":12580:12711   */\n      tag_513\n        /* \"#utility.yul\":12706:12710   */\n      dup2\n        /* \"#utility.yul\":12580:12711   */\n      tag_339\n      jump\t// in\n    tag_513:\n        /* \"#utility.yul\":12572:12711   */\n      swap1\n      pop\n        /* \"#utility.yul\":12299:12718   */\n      swap2\n      swap1\n      pop\n      jump\t// out\n        /* \"#utility.yul\":12724:12892   */\n    tag_340:\n        /* \"#utility.yul\":12864:12884   */\n      0x496e73756666696369656e742066756e64730000000000000000000000000000\n        /* \"#utility.yul\":12860:12861   */\n      0x00\n        /* \"#utility.yul\":12852:12858   */\n      dup3\n        /* \"#utility.yul\":12848:12862   */\n      add\n        /* \"#utility.yul\":12841:12885   */\n      mstore\n        /* \"#utility.yul\":12724:12892   */\n      pop\n      jump\t// out\n        /* \"#utility.yul\":12898:13264   */\n    tag_341:\n        /* \"#utility.yul\":13040:13043   */\n      0x00\n        /* \"#utility.yul\":13061:13128   */\n      tag_516\n        /* \"#utility.yul\":13125:13127   */\n      0x12\n        /* \"#utility.yul\":13120:13123   */\n      dup4\n        /* \"#utility.yul\":13061:13128   */\n      tag_333\n      jump\t// in\n    tag_516:\n        /* \"#utility.yul\":13054:13128   */\n      swap2\n      pop\n        /* \"#utility.yul\":13137:13230   */\n      tag_517\n        /* \"#utility.yul\":13226:13229   */\n      dup3\n        /* \"#utility.yul\":13137:13230   */\n      tag_340\n      jump\t// in\n    tag_517:\n        /* \"#utility.yul\":13255:13257   */\n      0x20\n        /* \"#utility.yul\":13250:13253   */\n      dup3\n        /* \"#utility.yul\":13246:13258   */\n      add\n        /* \"#utility.yul\":13239:13258   */\n      swap1\n      pop\n        /* \"#utility.yul\":12898:13264   */\n      swap2\n      swap1\n      pop\n      jump\t// out\n        /* \"#utility.yul\":13270:13689   */\n    tag_185:\n        /* \"#utility.yul\":13436:13440   */\n      0x00\n        /* \"#utility.yul\":13474:13476   */\n      0x20\n        /* \"#utility.yul\":13463:13472   */\n      dup3\n        /* \"#utility.yul\":13459:13477   */\n      add\n        /* \"#utility.yul\":13451:13477   */\n      swap1\n      pop\n        /* \"#utility.yul\":13523:13532   */\n      dup2\n        /* \"#utility.yul\":13517:13521   */\n      dup2\n        /* \"#utility.yul\":13513:13533   */\n      sub\n        /* \"#utility.yul\":13509:13510   */\n      0x00\n        /* \"#utility.yul\":13498:13507   */\n      dup4\n        /* \"#utility.yul\":13494:13511   */\n      add\n        /* \"#utility.yul\":13487:13534   */\n      mstore\n        /* \"#utility.yul\":13551:13682   */\n      tag_519\n        /* \"#utility.yul\":13677:13681   */\n      dup2\n        /* \"#utility.yul\":13551:13682   */\n      tag_341\n      jump\t// in\n    tag_519:\n        /* \"#utility.yul\":13543:13682   */\n      swap1\n      pop\n        /* \"#utility.yul\":13270:13689   */\n      swap2\n      swap1\n      pop\n      jump\t// out\n        /* \"#utility.yul\":13695:13919   */\n    tag_342:\n        /* \"#utility.yul\":13835:13869   */\n      0x7472616e73616374696f6e2077697468203020657468206973206e6f7420616c\n        /* \"#utility.yul\":13831:13832   */\n      0x00\n        /* \"#utility.yul\":13823:13829   */\n      dup3\n        /* \"#utility.yul\":13819:13833   */\n      add\n        /* \"#utility.yul\":13812:13870   */\n      mstore\n        /* \"#utility.yul\":13904:13911   */\n      0x6c6f776564000000000000000000000000000000000000000000000000000000\n        /* \"#utility.yul\":13899:13901   */\n      0x20\n        /* \"#utility.yul\":13891:13897   */\n      dup3\n        /* \"#utility.yul\":13887:13902   */\n      add\n        /* \"#utility.yul\":13880:13912   */\n      mstore\n        /* \"#utility.yul\":13695:13919   */\n      pop\n      jump\t// out\n        /* \"#utility.yul\":13925:14291   */\n    tag_343:\n        /* \"#utility.yul\":14067:14070   */\n      0x00\n        /* \"#utility.yul\":14088:14155   */\n      tag_522\n        /* \"#utility.yul\":14152:14154   */\n      0x25\n        /* \"#utility.yul\":14147:14150   */\n      dup4\n        /* \"#utility.yul\":14088:14155   */\n      tag_333\n      jump\t// in\n    tag_522:\n        /* \"#utility.yul\":14081:14155   */\n      swap2\n      pop\n        /* \"#utility.yul\":14164:14257   */\n      tag_523\n        /* \"#utility.yul\":14253:14256   */\n      dup3\n        /* \"#utility.yul\":14164:14257   */\n      tag_342\n      jump\t// in\n    tag_523:\n        /* \"#utility.yul\":14282:14284   */\n      0x40\n        /* \"#utility.yul\":14277:14280   */\n      dup3\n        /* \"#utility.yul\":14273:14285   */\n      add\n        /* \"#utility.yul\":14266:14285   */\n      swap1\n      pop\n        /* \"#utility.yul\":13925:14291   */\n      swap2\n      swap1\n      pop\n      jump\t// out\n        /* \"#utility.yul\":14297:14716   */\n    tag_188:\n        /* \"#utility.yul\":14463:14467   */\n      0x00\n        /* \"#utility.yul\":14501:14503   */\n      0x20\n        /* \"#utility.yul\":14490:14499   */\n      dup3\n        /* \"#utility.yul\":14486:14504   */\n      add\n        /* \"#utility.yul\":14478:14504   */\n      swap1\n      pop\n        /* \"#utility.yul\":14550:14559   */\n      dup2\n        /* \"#utility.yul\":14544:14548   */\n      dup2\n        /* \"#utility.yul\":14540:14560   */\n      sub\n        /* \"#utility.yul\":14536:14537   */\n      0x00\n        /* \"#utility.yul\":14525:14534   */\n      dup4\n        /* \"#utility.yul\":14521:14538   */\n      add\n        /* \"#utility.yul\":14514:14561   */\n      mstore\n        /* \"#utility.yul\":14578:14709   */\n      tag_525\n        /* \"#utility.yul\":14704:14708   */\n      dup2\n        /* \"#utility.yul\":14578:14709   */\n      tag_343\n      jump\t// in\n    tag_525:\n        /* \"#utility.yul\":14570:14709   */\n      swap1\n      pop\n        /* \"#utility.yul\":14297:14716   */\n      swap2\n      swap1\n      pop\n      jump\t// out\n        /* \"#utility.yul\":14722:14902   */\n    tag_344:\n        /* \"#utility.yul\":14770:14847   */\n      0x4e487b7100000000000000000000000000000000000000000000000000000000\n        /* \"#utility.yul\":14767:14768   */\n      0x00\n        /* \"#utility.yul\":14760:14848   */\n      mstore\n        /* \"#utility.yul\":14867:14871   */\n      0x11\n        /* \"#utility.yul\":14864:14865   */\n      0x04\n        /* \"#utility.yul\":14857:14872   */\n      mstore\n        /* \"#utility.yul\":14891:14895   */\n      0x24\n        /* \"#utility.yul\":14888:14889   */\n      0x00\n        /* \"#utility.yul\":14881:14896   */\n      revert\n        /* \"#utility.yul\":14908:15102   */\n    tag_192:\n        /* \"#utility.yul\":14948:14952   */\n      0x00\n        /* \"#utility.yul\":14968:14988   */\n      tag_528\n        /* \"#utility.yul\":14986:14987   */\n      dup3\n        /* \"#utility.yul\":14968:14988   */\n      tag_310\n      jump\t// in\n    tag_528:\n        /* \"#utility.yul\":14963:14988   */\n      swap2\n      pop\n        /* \"#utility.yul\":15002:15022   */\n      tag_529\n        /* \"#utility.yul\":15020:15021   */\n      dup4\n        /* \"#utility.yul\":15002:15022   */\n      tag_310\n      jump\t// in\n    tag_529:\n        /* \"#utility.yul\":14997:15022   */\n      swap3\n      pop\n        /* \"#utility.yul\":15046:15047   */\n      dup3\n        /* \"#utility.yul\":15043:15044   */\n      dup3\n        /* \"#utility.yul\":15039:15048   */\n      sub\n        /* \"#utility.yul\":15031:15048   */\n      swap1\n      pop\n        /* \"#utility.yul\":15070:15071   */\n      dup2\n        /* \"#utility.yul\":15064:15068   */\n      dup2\n        /* \"#utility.yul\":15061:15072   */\n      gt\n        /* \"#utility.yul\":15058:15095   */\n      iszero\n      tag_530\n      jumpi\n        /* \"#utility.yul\":15075:15093   */\n      tag_531\n      tag_344\n      jump\t// in\n    tag_531:\n        /* \"#utility.yul\":15058:15095   */\n    tag_530:\n        /* \"#utility.yul\":14908:15102   */\n      swap3\n      swap2\n      pop\n      pop\n      jump\t// out\n        /* \"#utility.yul\":15108:15264   */\n    tag_345:\n        /* \"#utility.yul\":15248:15256   */\n      0x4672617564730000000000000000000000000000000000000000000000000000\n        /* \"#utility.yul\":15244:15245   */\n      0x00\n        /* \"#utility.yul\":15236:15242   */\n      dup3\n        /* \"#utility.yul\":15232:15246   */\n      add\n        /* \"#utility.yul\":15225:15257   */\n      mstore\n        /* \"#utility.yul\":15108:15264   */\n      pop\n      jump\t// out\n        /* \"#utility.yul\":15270:15635   */\n    tag_346:\n        /* \"#utility.yul\":15412:15415   */\n      0x00\n        /* \"#utility.yul\":15433:15499   */\n      tag_534\n        /* \"#utility.yul\":15497:15498   */\n      0x06\n        /* \"#utility.yul\":15492:15495   */\n      dup4\n        /* \"#utility.yul\":15433:15499   */\n      tag_333\n      jump\t// in\n    tag_534:\n        /* \"#utility.yul\":15426:15499   */\n      swap2\n      pop\n        /* \"#utility.yul\":15508:15601   */\n      tag_535\n        /* \"#utility.yul\":15597:15600   */\n      dup3\n        /* \"#utility.yul\":15508:15601   */\n      tag_345\n      jump\t// in\n    tag_535:\n        /* \"#utility.yul\":15626:15628   */\n      0x20\n        /* \"#utility.yul\":15621:15624   */\n      dup3\n        /* \"#utility.yul\":15617:15629   */\n      add\n        /* \"#utility.yul\":15610:15629   */\n      swap1\n      pop\n        /* \"#utility.yul\":15270:15635   */\n      swap2\n      swap1\n      pop\n      jump\t// out\n        /* \"#utility.yul\":15641:16060   */\n    tag_202:\n        /* \"#utility.yul\":15807:15811   */\n      0x00\n        /* \"#utility.yul\":15845:15847   */\n      0x20\n        /* \"#utility.yul\":15834:15843   */\n      dup3\n        /* \"#utility.yul\":15830:15848   */\n      add\n        /* \"#utility.yul\":15822:15848   */\n      swap1\n      pop\n        /* \"#utility.yul\":15894:15903   */\n      dup2\n        /* \"#utility.yul\":15888:15892   */\n      dup2\n        /* \"#utility.yul\":15884:15904   */\n      sub\n        /* \"#utility.yul\":15880:15881   */\n      0x00\n        /* \"#utility.yul\":15869:15878   */\n      dup4\n        /* \"#utility.yul\":15865:15882   */\n      add\n        /* \"#utility.yul\":15858:15905   */\n      mstore\n        /* \"#utility.yul\":15922:16053   */\n      tag_537\n        /* \"#utility.yul\":16048:16052   */\n      dup2\n        /* \"#utility.yul\":15922:16053   */\n      tag_346\n      jump\t// in\n    tag_537:\n        /* \"#utility.yul\":15914:16053   */\n      swap1\n      pop\n        /* \"#utility.yul\":15641:16060   */\n      swap2\n      swap1\n      pop\n      jump\t// out\n        /* \"#utility.yul\":16066:16246   */\n    tag_347:\n        /* \"#utility.yul\":16114:16191   */\n      0x4e487b7100000000000000000000000000000000000000000000000000000000\n        /* \"#utility.yul\":16111:16112   */\n      0x00\n        /* \"#utility.yul\":16104:16192   */\n      mstore\n        /* \"#utility.yul\":16211:16215   */\n      0x22\n        /* \"#utility.yul\":16208:16209   */\n      0x04\n        /* \"#utility.yul\":16201:16216   */\n      mstore\n        /* \"#utility.yul\":16235:16239   */\n      0x24\n        /* \"#utility.yul\":16232:16233   */\n      0x00\n        /* \"#utility.yul\":16225:16240   */\n      revert\n        /* \"#utility.yul\":16252:16572   */\n    tag_225:\n        /* \"#utility.yul\":16296:16302   */\n      0x00\n        /* \"#utility.yul\":16333:16334   */\n      0x02\n        /* \"#utility.yul\":16327:16331   */\n      dup3\n        /* \"#utility.yul\":16323:16335   */\n      div\n        /* \"#utility.yul\":16313:16335   */\n      swap1\n      pop\n        /* \"#utility.yul\":16380:16381   */\n      0x01\n        /* \"#utility.yul\":16374:16378   */\n      dup3\n        /* \"#utility.yul\":16370:16382   */\n      and\n        /* \"#utility.yul\":16401:16419   */\n      dup1\n        /* \"#utility.yul\":16391:16472   */\n      tag_540\n      jumpi\n        /* \"#utility.yul\":16457:16461   */\n      0x7f\n        /* \"#utility.yul\":16449:16455   */\n      dup3\n        /* \"#utility.yul\":16445:16462   */\n      and\n        /* \"#utility.yul\":16435:16462   */\n      swap2\n      pop\n        /* \"#utility.yul\":16391:16472   */\n    tag_540:\n        /* \"#utility.yul\":16519:16521   */\n      0x20\n        /* \"#utility.yul\":16511:16517   */\n      dup3\n        /* \"#utility.yul\":16508:16522   */\n      lt\n        /* \"#utility.yul\":16488:16506   */\n      dup2\n        /* \"#utility.yul\":16485:16523   */\n      sub\n        /* \"#utility.yul\":16482:16566   */\n      tag_541\n      jumpi\n        /* \"#utility.yul\":16538:16556   */\n      tag_542\n      tag_347\n      jump\t// in\n    tag_542:\n        /* \"#utility.yul\":16482:16566   */\n    tag_541:\n        /* \"#utility.yul\":16303:16572   */\n      pop\n        /* \"#utility.yul\":16252:16572   */\n      swap2\n      swap1\n      pop\n      jump\t// out\n        /* \"#utility.yul\":16578:16719   */\n    tag_348:\n        /* \"#utility.yul\":16627:16631   */\n      0x00\n        /* \"#utility.yul\":16650:16653   */\n      dup2\n        /* \"#utility.yul\":16642:16653   */\n      swap1\n      pop\n        /* \"#utility.yul\":16673:16676   */\n      dup2\n        /* \"#utility.yul\":16670:16671   */\n      0x00\n        /* \"#utility.yul\":16663:16677   */\n      mstore\n        /* \"#utility.yul\":16707:16711   */\n      0x20\n        /* \"#utility.yul\":16704:16705   */\n      0x00\n        /* \"#utility.yul\":16694:16712   */\n      keccak256\n        /* \"#utility.yul\":16686:16712   */\n      swap1\n      pop\n        /* \"#utility.yul\":16578:16719   */\n      swap2\n      swap1\n      pop\n      jump\t// out\n        /* \"#utility.yul\":16725:16818   */\n    tag_349:\n        /* \"#utility.yul\":16762:16768   */\n      0x00\n        /* \"#utility.yul\":16809:16811   */\n      0x20\n        /* \"#utility.yul\":16804:16806   */\n      0x1f\n        /* \"#utility.yul\":16797:16802   */\n      dup4\n        /* \"#utility.yul\":16793:16807   */\n      add\n        /* \"#utility.yul\":16789:16812   */\n      div\n        /* \"#utility.yul\":16779:16812   */\n      swap1\n      pop\n        /* \"#utility.yul\":16725:16818   */\n      swap2\n      swap1\n      pop\n      jump\t// out\n        /* \"#utility.yul\":16824:16931   */\n    tag_350:\n        /* \"#utility.yul\":16868:16876   */\n      0x00\n        /* \"#utility.yul\":16918:16923   */\n      dup3\n        /* \"#utility.yul\":16912:16916   */\n      dup3\n        /* \"#utility.yul\":16908:16924   */\n      shl\n        /* \"#utility.yul\":16887:16924   */\n      swap1\n      pop\n        /* \"#utility.yul\":16824:16931   */\n      swap3\n      swap2\n      pop\n      pop\n      jump\t// out\n        /* \"#utility.yul\":16937:17330   */\n    tag_351:\n        /* \"#utility.yul\":17006:17012   */\n      0x00\n        /* \"#utility.yul\":17056:17057   */\n      0x08\n        /* \"#utility.yul\":17044:17054   */\n      dup4\n        /* \"#utility.yul\":17040:17058   */\n      mul\n        /* \"#utility.yul\":17079:17176   */\n      tag_547\n        /* \"#utility.yul\":17109:17175   */\n      0xffffffffffffffffffffffffffffffffffffffffffffffffffffffffffffffff\n        /* \"#utility.yul\":17098:17107   */\n      dup3\n        /* \"#utility.yul\":17079:17176   */\n      tag_350\n      jump\t// in\n    tag_547:\n        /* \"#utility.yul\":17197:17236   */\n      tag_548\n        /* \"#utility.yul\":17227:17235   */\n      dup7\n        /* \"#utility.yul\":17216:17225   */\n      dup4\n        /* \"#utility.yul\":17197:17236   */\n      tag_350\n      jump\t// in\n    tag_548:\n        /* \"#utility.yul\":17185:17236   */\n      swap6\n      pop\n        /* \"#utility.yul\":17269:17273   */\n      dup1\n        /* \"#utility.yul\":17265:17274   */\n      not\n        /* \"#utility.yul\":17258:17263   */\n      dup5\n        /* \"#utility.yul\":17254:17275   */\n      and\n        /* \"#utility.yul\":17245:17275   */\n      swap4\n      pop\n        /* \"#utility.yul\":17318:17322   */\n      dup1\n        /* \"#utility.yul\":17308:17316   */\n      dup7\n        /* \"#utility.yul\":17304:17323   */\n      and\n        /* \"#utility.yul\":17297:17302   */\n      dup5\n        /* \"#utility.yul\":17294:17324   */\n      or\n        /* \"#utility.yul\":17284:17324   */\n      swap3\n      pop\n        /* \"#utility.yul\":17013:17330   */\n      pop\n      pop\n        /* \"#utility.yul\":16937:17330   */\n      swap4\n      swap3\n      pop\n      pop\n      pop\n      jump\t// out\n        /* \"#utility.yul\":17336:17396   */\n    tag_352:\n        /* \"#utility.yul\":17364:17367   */\n      0x00\n        /* \"#utility.yul\":17385:17390   */\n      dup2\n        /* \"#utility.yul\":17378:17390   */\n      swap1\n      pop\n        /* \"#utility.yul\":17336:17396   */\n      swap2\n      swap1\n      pop\n      jump\t// out\n        /* \"#utility.yul\":17402:17544   */\n    tag_353:\n        /* \"#utility.yul\":17452:17461   */\n      0x00\n        /* \"#utility.yul\":17485:17538   */\n      tag_551\n        /* \"#utility.yul\":17503:17537   */\n      tag_552\n        /* \"#utility.yul\":17512:17536   */\n      tag_553\n        /* \"#utility.yul\":17530:17535   */\n      dup5\n        /* \"#utility.yul\":17512:17536   */\n      tag_310\n      jump\t// in\n    tag_553:\n        /* \"#utility.yul\":17503:17537   */\n      tag_352\n      jump\t// in\n    tag_552:\n        /* \"#utility.yul\":17485:17538   */\n      tag_310\n      jump\t// in\n    tag_551:\n        /* \"#utility.yul\":17472:17538   */\n      swap1\n      pop\n        /* \"#utility.yul\":17402:17544   */\n      swap2\n      swap1\n      pop\n      jump\t// out\n        /* \"#utility.yul\":17550:17625   */\n    tag_354:\n        /* \"#utility.yul\":17593:17596   */\n      0x00\n        /* \"#utility.yul\":17614:17619   */\n      dup2\n        /* \"#utility.yul\":17607:17619   */\n      swap1\n      pop\n        /* \"#utility.yul\":17550:17625   */\n      swap2\n      swap1\n      pop\n      jump\t// out\n        /* \"#utility.yul\":17631:17900   */\n    tag_355:\n        /* \"#utility.yul\":17741:17780   */\n      tag_556\n        /* \"#utility.yul\":17772:17779   */\n      dup4\n        /* \"#utility.yul\":17741:17780   */\n      tag_353\n      jump\t// in\n    tag_556:\n        /* \"#utility.yul\":17802:17893   */\n      tag_557\n        /* \"#utility.yul\":17851:17892   */\n      tag_558\n        /* \"#utility.yul\":17875:17891   */\n      dup3\n        /* \"#utility.yul\":17851:17892   */\n      tag_354\n      jump\t// in\n    tag_558:\n        /* \"#utility.yul\":17843:17849   */\n      dup5\n        /* \"#utility.yul\":17836:17840   */\n      dup5\n        /* \"#utility.yul\":17830:17841   */\n      sload\n        /* \"#utility.yul\":17802:17893   */\n      tag_351\n      jump\t// in\n    tag_557:\n        /* \"#utility.yul\":17796:17800   */\n      dup3\n        /* \"#utility.yul\":17789:17894   */\n      sstore\n        /* \"#utility.yul\":17707:17900   */\n      pop\n        /* \"#utility.yul\":17631:17900   */\n      pop\n      pop\n      pop\n      jump\t// out\n        /* \"#utility.yul\":17906:17979   */\n    tag_356:\n        /* \"#utility.yul\":17951:17954   */\n      0x00\n        /* \"#utility.yul\":17906:17979   */\n      swap1\n      jump\t// out\n        /* \"#utility.yul\":17985:18174   */\n    tag_357:\n        /* \"#utility.yul\":18062:18094   */\n      tag_561\n      tag_356\n      jump\t// in\n    tag_561:\n        /* \"#utility.yul\":18103:18168   */\n      tag_562\n        /* \"#utility.yul\":18161:18167   */\n      dup2\n        /* \"#utility.yul\":18153:18159   */\n      dup5\n        /* \"#utility.yul\":18147:18151   */\n      dup5\n        /* \"#utility.yul\":18103:18168   */\n      tag_355\n      jump\t// in\n    tag_562:\n        /* \"#utility.yul\":18038:18174   */\n      pop\n        /* \"#utility.yul\":17985:18174   */\n      pop\n      pop\n      jump\t// out\n        /* \"#utility.yul\":18180:18366   */\n    tag_358:\n        /* \"#utility.yul\":18240:18360   */\n    tag_564:\n        /* \"#utility.yul\":18257:18260   */\n      dup2\n        /* \"#utility.yul\":18250:18255   */\n      dup2\n        /* \"#utility.yul\":18247:18261   */\n      lt\n        /* \"#utility.yul\":18240:18360   */\n      iszero\n      tag_566\n      jumpi\n        /* \"#utility.yul\":18311:18350   */\n      tag_567\n        /* \"#utility.yul\":18348:18349   */\n      0x00\n        /* \"#utility.yul\":18341:18346   */\n      dup3\n        /* \"#utility.yul\":18311:18350   */\n      tag_357\n      jump\t// in\n    tag_567:\n        /* \"#utility.yul\":18284:18285   */\n      0x01\n        /* \"#utility.yul\":18277:18282   */\n      dup2\n        /* \"#utility.yul\":18273:18286   */\n      add\n        /* \"#utility.yul\":18264:18286   */\n      swap1\n      pop\n        /* \"#utility.yul\":18240:18360   */\n      jump(tag_564)\n    tag_566:\n        /* \"#utility.yul\":18180:18366   */\n      pop\n      pop\n      jump\t// out\n        /* \"#utility.yul\":18372:18915   */\n    tag_359:\n        /* \"#utility.yul\":18473:18475   */\n      0x1f\n        /* \"#utility.yul\":18468:18471   */\n      dup3\n        /* \"#utility.yul\":18465:18476   */\n      gt\n        /* \"#utility.yul\":18462:18908   */\n      iszero\n      tag_569\n      jumpi\n        /* \"#utility.yul\":18507:18545   */\n      tag_570\n        /* \"#utility.yul\":18539:18544   */\n      dup2\n        /* \"#utility.yul\":18507:18545   */\n      tag_348\n      jump\t// in\n    tag_570:\n        /* \"#utility.yul\":18591:18620   */\n      tag_571\n        /* \"#utility.yul\":18609:18619   */\n      dup5\n        /* \"#utility.yul\":18591:18620   */\n      tag_349\n      jump\t// in\n    tag_571:\n        /* \"#utility.yul\":18581:18589   */\n      dup2\n        /* \"#utility.yul\":18577:18621   */\n      add\n        /* \"#utility.yul\":18774:18776   */\n      0x20\n        /* \"#utility.yul\":18762:18772   */\n      dup6\n        /* \"#utility.yul\":18759:18777   */\n      lt\n        /* \"#utility.yul\":18756:18805   */\n      iszero\n      tag_572\n      jumpi\n        /* \"#utility.yul\":18795:18803   */\n      dup2\n        /* \"#utility.yul\":18780:18803   */\n      swap1\n      pop\n        /* \"#utility.yul\":18756:18805   */\n    tag_572:\n        /* \"#utility.yul\":18818:18898   */\n      tag_573\n        /* \"#utility.yul\":18874:18896   */\n      tag_574\n        /* \"#utility.yul\":18892:18895   */\n      dup6\n        /* \"#utility.yul\":18874:18896   */\n      tag_349\n      jump\t// in\n    tag_574:\n        /* \"#utility.yul\":18864:18872   */\n      dup4\n        /* \"#utility.yul\":18860:18897   */\n      add\n        /* \"#utility.yul\":18847:18858   */\n      dup3\n        /* \"#utility.yul\":18818:18898   */\n      tag_358\n      jump\t// in\n    tag_573:\n        /* \"#utility.yul\":18477:18908   */\n      pop\n      pop\n        /* \"#utility.yul\":18462:18908   */\n    tag_569:\n        /* \"#utility.yul\":18372:18915   */\n      pop\n      pop\n      pop\n      jump\t// out\n        /* \"#utility.yul\":18921:19038   */\n    tag_360:\n        /* \"#utility.yul\":18975:18983   */\n      0x00\n        /* \"#utility.yul\":19025:19030   */\n      dup3\n        /* \"#utility.yul\":19019:19023   */\n      dup3\n        /* \"#utility.yul\":19015:19031   */\n      shr\n        /* \"#utility.yul\":18994:19031   */\n      swap1\n      pop\n        /* \"#utility.yul\":18921:19038   */\n      swap3\n      swap2\n      pop\n      pop\n      jump\t// out\n        /* \"#utility.yul\":19044:19213   */\n    tag_361:\n        /* \"#utility.yul\":19088:19094   */\n      0x00\n        /* \"#utility.yul\":19121:19172   */\n      tag_577\n        /* \"#utility.yul\":19169:19170   */\n      0x00\n        /* \"#utility.yul\":19165:19171   */\n      not\n        /* \"#utility.yul\":19157:19162   */\n      dup5\n        /* \"#utility.yul\":19154:19155   */\n      0x08\n        /* \"#utility.yul\":19150:19163   */\n      mul\n        /* \"#utility.yul\":19121:19172   */\n      tag_360\n      jump\t// in\n    tag_577:\n        /* \"#utility.yul\":19117:19173   */\n      not\n        /* \"#utility.yul\":19202:19206   */\n      dup1\n        /* \"#utility.yul\":19196:19200   */\n      dup4\n        /* \"#utility.yul\":19192:19207   */\n      and\n        /* \"#utility.yul\":19182:19207   */\n      swap2\n      pop\n        /* \"#utility.yul\":19095:19213   */\n      pop\n        /* \"#utility.yul\":19044:19213   */\n      swap3\n      swap2\n      pop\n      pop\n      jump\t// out\n        /* \"#utility.yul\":19218:19513   */\n    tag_362:\n        /* \"#utility.yul\":19294:19298   */\n      0x00\n        /* \"#utility.yul\":19440:19469   */\n      tag_579\n        /* \"#utility.yul\":19465:19468   */\n      dup4\n        /* \"#utility.yul\":19459:19463   */\n      dup4\n        /* \"#utility.yul\":19440:19469   */\n      tag_361\n      jump\t// in\n    tag_579:\n        /* \"#utility.yul\":19432:19469   */\n      swap2\n      pop\n        /* \"#utility.yul\":19502:19505   */\n      dup3\n        /* \"#utility.yul\":19499:19500   */\n      0x02\n        /* \"#utility.yul\":19495:19506   */\n      mul\n        /* \"#utility.yul\":19489:19493   */\n      dup3\n        /* \"#utility.yul\":19486:19507   */\n      or\n        /* \"#utility.yul\":19478:19507   */\n      swap1\n      pop\n        /* \"#utility.yul\":19218:19513   */\n      swap3\n      swap2\n      pop\n      pop\n      jump\t// out\n        /* \"#utility.yul\":19518:20913   */\n    tag_205:\n        /* \"#utility.yul\":19635:19672   */\n      tag_581\n        /* \"#utility.yul\":19668:19671   */\n      dup3\n        /* \"#utility.yul\":19635:19672   */\n      tag_332\n      jump\t// in\n    tag_581:\n        /* \"#utility.yul\":19737:19755   */\n      0xffffffffffffffff\n        /* \"#utility.yul\":19729:19735   */\n      dup2\n        /* \"#utility.yul\":19726:19756   */\n      gt\n        /* \"#utility.yul\":19723:19779   */\n      iszero\n      tag_582\n      jumpi\n        /* \"#utility.yul\":19759:19777   */\n      tag_583\n      tag_320\n      jump\t// in\n    tag_583:\n        /* \"#utility.yul\":19723:19779   */\n    tag_582:\n        /* \"#utility.yul\":19803:19841   */\n      tag_584\n        /* \"#utility.yul\":19835:19839   */\n      dup3\n        /* \"#utility.yul\":19829:19840   */\n      sload\n        /* \"#utility.yul\":19803:19841   */\n      tag_225\n      jump\t// in\n    tag_584:\n        /* \"#utility.yul\":19888:19955   */\n      tag_585\n        /* \"#utility.yul\":19948:19954   */\n      dup3\n        /* \"#utility.yul\":19940:19946   */\n      dup3\n        /* \"#utility.yul\":19934:19938   */\n      dup6\n        /* \"#utility.yul\":19888:19955   */\n      tag_359\n      jump\t// in\n    tag_585:\n        /* \"#utility.yul\":19982:19983   */\n      0x00\n        /* \"#utility.yul\":20006:20010   */\n      0x20\n        /* \"#utility.yul\":19993:20010   */\n      swap1\n      pop\n        /* \"#utility.yul\":20038:20040   */\n      0x1f\n        /* \"#utility.yul\":20030:20036   */\n      dup4\n        /* \"#utility.yul\":20027:20041   */\n      gt\n        /* \"#utility.yul\":20055:20056   */\n      0x01\n        /* \"#utility.yul\":20050:20668   */\n      dup2\n      eq\n      tag_587\n      jumpi\n        /* \"#utility.yul\":20712:20713   */\n      0x00\n        /* \"#utility.yul\":20729:20735   */\n      dup5\n        /* \"#utility.yul\":20726:20803   */\n      iszero\n      tag_588\n      jumpi\n        /* \"#utility.yul\":20778:20787   */\n      dup3\n        /* \"#utility.yul\":20773:20776   */\n      dup8\n        /* \"#utility.yul\":20769:20788   */\n      add\n        /* \"#utility.yul\":20763:20789   */\n      mload\n        /* \"#utility.yul\":20754:20789   */\n      swap1\n      pop\n        /* \"#utility.yul\":20726:20803   */\n    tag_588:\n        /* \"#utility.yul\":20829:20896   */\n      tag_589\n        /* \"#utility.yul\":20889:20895   */\n      dup6\n        /* \"#utility.yul\":20882:20887   */\n      dup3\n        /* \"#utility.yul\":20829:20896   */\n      tag_362\n      jump\t// in\n    tag_589:\n        /* \"#utility.yul\":20823:20827   */\n      dup7\n        /* \"#utility.yul\":20816:20897   */\n      sstore\n        /* \"#utility.yul\":20685:20907   */\n      pop\n        /* \"#utility.yul\":20020:20907   */\n      jump(tag_586)\n        /* \"#utility.yul\":20050:20668   */\n    tag_587:\n        /* \"#utility.yul\":20102:20106   */\n      0x1f\n        /* \"#utility.yul\":20098:20107   */\n      not\n        /* \"#utility.yul\":20090:20096   */\n      dup5\n        /* \"#utility.yul\":20086:20108   */\n      and\n        /* \"#utility.yul\":20136:20173   */\n      tag_590\n        /* \"#utility.yul\":20168:20172   */\n      dup7\n        /* \"#utility.yul\":20136:20173   */\n      tag_348\n      jump\t// in\n    tag_590:\n        /* \"#utility.yul\":20195:20196   */\n      0x00\n        /* \"#utility.yul\":20209:20417   */\n    tag_591:\n        /* \"#utility.yul\":20223:20230   */\n      dup3\n        /* \"#utility.yul\":20220:20221   */\n      dup2\n        /* \"#utility.yul\":20217:20231   */\n      lt\n        /* \"#utility.yul\":20209:20417   */\n      iszero\n      tag_593\n      jumpi\n        /* \"#utility.yul\":20302:20311   */\n      dup5\n        /* \"#utility.yul\":20297:20300   */\n      dup10\n        /* \"#utility.yul\":20293:20312   */\n      add\n        /* \"#utility.yul\":20287:20313   */\n      mload\n        /* \"#utility.yul\":20279:20285   */\n      dup3\n        /* \"#utility.yul\":20272:20314   */\n      sstore\n        /* \"#utility.yul\":20353:20354   */\n      0x01\n        /* \"#utility.yul\":20345:20351   */\n      dup3\n        /* \"#utility.yul\":20341:20355   */\n      add\n        /* \"#utility.yul\":20331:20355   */\n      swap2\n      pop\n        /* \"#utility.yul\":20400:20402   */\n      0x20\n        /* \"#utility.yul\":20389:20398   */\n      dup6\n        /* \"#utility.yul\":20385:20403   */\n      add\n        /* \"#utility.yul\":20372:20403   */\n      swap5\n      pop\n        /* \"#utility.yul\":20246:20250   */\n      0x20\n        /* \"#utility.yul\":20243:20244   */\n      dup2\n        /* \"#utility.yul\":20239:20251   */\n      add\n        /* \"#utility.yul\":20234:20251   */\n      swap1\n      pop\n        /* \"#utility.yul\":20209:20417   */\n      jump(tag_591)\n    tag_593:\n        /* \"#utility.yul\":20445:20451   */\n      dup7\n        /* \"#utility.yul\":20436:20443   */\n      dup4\n        /* \"#utility.yul\":20433:20452   */\n      lt\n        /* \"#utility.yul\":20430:20609   */\n      iszero\n      tag_594\n      jumpi\n        /* \"#utility.yul\":20503:20512   */\n      dup5\n        /* \"#utility.yul\":20498:20501   */\n      dup10\n        /* \"#utility.yul\":20494:20513   */\n      add\n        /* \"#utility.yul\":20488:20514   */\n      mload\n        /* \"#utility.yul\":20546:20594   */\n      tag_595\n        /* \"#utility.yul\":20588:20592   */\n      0x1f\n        /* \"#utility.yul\":20580:20586   */\n      dup10\n        /* \"#utility.yul\":20576:20593   */\n      and\n        /* \"#utility.yul\":20565:20574   */\n      dup3\n        /* \"#utility.yul\":20546:20594   */\n      tag_361\n      jump\t// in\n    tag_595:\n        /* \"#utility.yul\":20538:20544   */\n      dup4\n        /* \"#utility.yul\":20531:20595   */\n      sstore\n        /* \"#utility.yul\":20453:20609   */\n      pop\n        /* \"#utility.yul\":20430:20609   */\n    tag_594:\n        /* \"#utility.yul\":20655:20656   */\n      0x01\n        /* \"#utility.yul\":20651:20652   */\n      0x02\n        /* \"#utility.yul\":20643:20649   */\n      dup9\n        /* \"#utility.yul\":20639:20653   */\n      mul\n        /* \"#utility.yul\":20635:20657   */\n      add\n        /* \"#utility.yul\":20629:20633   */\n      dup9\n        /* \"#utility.yul\":20622:20658   */\n      sstore\n        /* \"#utility.yul\":20057:20668   */\n      pop\n      pop\n      pop\n        /* \"#utility.yul\":20020:20907   */\n    tag_586:\n      pop\n        /* \"#utility.yul\":19610:20913   */\n      pop\n      pop\n      pop\n        /* \"#utility.yul\":19518:20913   */\n      pop\n      pop\n      jump\t// out\n        /* \"#utility.yul\":20919:21145   */\n    tag_363:\n        /* \"#utility.yul\":21059:21093   */\n      0x546865206164647265737320646f65736e7420686176652074686174206d7563\n        /* \"#utility.yul\":21055:21056   */\n      0x00\n        /* \"#utility.yul\":21047:21053   */\n      dup3\n        /* \"#utility.yul\":21043:21057   */\n      add\n        /* \"#utility.yul\":21036:21094   */\n      mstore\n        /* \"#utility.yul\":21128:21137   */\n      0x682066756e647300000000000000000000000000000000000000000000000000\n        /* \"#utility.yul\":21123:21125   */\n      0x20\n        /* \"#utility.yul\":21115:21121   */\n      dup3\n        /* \"#utility.yul\":21111:21126   */\n      add\n        /* \"#utility.yul\":21104:21138   */\n      mstore\n        /* \"#utility.yul\":20919:21145   */\n      pop\n      jump\t// out\n        /* \"#utility.yul\":21151:21517   */\n    tag_364:\n        /* \"#utility.yul\":21293:21296   */\n      0x00\n        /* \"#utility.yul\":21314:21381   */\n      tag_598\n        /* \"#utility.yul\":21378:21380   */\n      0x27\n        /* \"#utility.yul\":21373:21376   */\n      dup4\n        /* \"#utility.yul\":21314:21381   */\n      tag_333\n      jump\t// in\n    tag_598:\n        /* \"#utility.yul\":21307:21381   */\n      swap2\n      pop\n        /* \"#utility.yul\":21390:21483   */\n      tag_599\n        /* \"#utility.yul\":21479:21482   */\n      dup3\n        /* \"#utility.yul\":21390:21483   */\n      tag_363\n      jump\t// in\n    tag_599:\n        /* \"#utility.yul\":21508:21510   */\n      0x40\n        /* \"#utility.yul\":21503:21506   */\n      dup3\n        /* \"#utility.yul\":21499:21511   */\n      add\n        /* \"#utility.yul\":21492:21511   */\n      swap1\n      pop\n        /* \"#utility.yul\":21151:21517   */\n      swap2\n      swap1\n      pop\n      jump\t// out\n        /* \"#utility.yul\":21523:21942   */\n    tag_211:\n        /* \"#utility.yul\":21689:21693   */\n      0x00\n        /* \"#utility.yul\":21727:21729   */\n      0x20\n        /* \"#utility.yul\":21716:21725   */\n      dup3\n        /* \"#utility.yul\":21712:21730   */\n      add\n        /* \"#utility.yul\":21704:21730   */\n      swap1\n      pop\n        /* \"#utility.yul\":21776:21785   */\n      dup2\n        /* \"#utility.yul\":21770:21774   */\n      dup2\n        /* \"#utility.yul\":21766:21786   */\n      sub\n        /* \"#utility.yul\":21762:21763   */\n      0x00\n        /* \"#utility.yul\":21751:21760   */\n      dup4\n        /* \"#utility.yul\":21747:21764   */\n      add\n        /* \"#utility.yul\":21740:21787   */\n      mstore\n        /* \"#utility.yul\":21804:21935   */\n      tag_601\n        /* \"#utility.yul\":21930:21934   */\n      dup2\n        /* \"#utility.yul\":21804:21935   */\n      tag_364\n      jump\t// in\n    tag_601:\n        /* \"#utility.yul\":21796:21935   */\n      swap1\n      pop\n        /* \"#utility.yul\":21523:21942   */\n      swap2\n      swap1\n      pop\n      jump\t// out\n        /* \"#utility.yul\":21948:22139   */\n    tag_213:\n        /* \"#utility.yul\":21988:21991   */\n      0x00\n        /* \"#utility.yul\":22007:22027   */\n      tag_603\n        /* \"#utility.yul\":22025:22026   */\n      dup3\n        /* \"#utility.yul\":22007:22027   */\n      tag_310\n      jump\t// in\n    tag_603:\n        /* \"#utility.yul\":22002:22027   */\n      swap2\n      pop\n        /* \"#utility.yul\":22041:22061   */\n      tag_604\n        /* \"#utility.yul\":22059:22060   */\n      dup4\n        /* \"#utility.yul\":22041:22061   */\n      tag_310\n      jump\t// in\n    tag_604:\n        /* \"#utility.yul\":22036:22061   */\n      swap3\n      pop\n        /* \"#utility.yul\":22084:22085   */\n      dup3\n        /* \"#utility.yul\":22081:22082   */\n      dup3\n        /* \"#utility.yul\":22077:22086   */\n      add\n        /* \"#utility.yul\":22070:22086   */\n      swap1\n      pop\n        /* \"#utility.yul\":22105:22108   */\n      dup1\n        /* \"#utility.yul\":22102:22103   */\n      dup3\n        /* \"#utility.yul\":22099:22109   */\n      gt\n        /* \"#utility.yul\":22096:22132   */\n      iszero\n      tag_605\n      jumpi\n        /* \"#utility.yul\":22112:22130   */\n      tag_606\n      tag_344\n      jump\t// in\n    tag_606:\n        /* \"#utility.yul\":22096:22132   */\n    tag_605:\n        /* \"#utility.yul\":21948:22139   */\n      swap3\n      swap2\n      pop\n      pop\n      jump\t// out\n        /* \"#utility.yul\":22145:22308   */\n    tag_365:\n        /* \"#utility.yul\":22285:22300   */\n      0x4e6f206c6f616e20676976656e00000000000000000000000000000000000000\n        /* \"#utility.yul\":22281:22282   */\n      0x00\n        /* \"#utility.yul\":22273:22279   */\n      dup3\n        /* \"#utility.yul\":22269:22283   */\n      add\n        /* \"#utility.yul\":22262:22301   */\n      mstore\n        /* \"#utility.yul\":22145:22308   */\n      pop\n      jump\t// out\n        /* \"#utility.yul\":22314:22680   */\n    tag_366:\n        /* \"#utility.yul\":22456:22459   */\n      0x00\n        /* \"#utility.yul\":22477:22544   */\n      tag_609\n        /* \"#utility.yul\":22541:22543   */\n      0x0d\n        /* \"#utility.yul\":22536:22539   */\n      dup4\n        /* \"#utility.yul\":22477:22544   */\n      tag_333\n      jump\t// in\n    tag_609:\n        /* \"#utility.yul\":22470:22544   */\n      swap2\n      pop\n        /* \"#utility.yul\":22553:22646   */\n      tag_610\n        /* \"#utility.yul\":22642:22645   */\n      dup3\n        /* \"#utility.yul\":22553:22646   */\n      tag_365\n      jump\t// in\n    tag_610:\n        /* \"#utility.yul\":22671:22673   */\n      0x20\n        /* \"#utility.yul\":22666:22669   */\n      dup3\n        /* \"#utility.yul\":22662:22674   */\n      add\n        /* \"#utility.yul\":22655:22674   */\n      swap1\n      pop\n        /* \"#utility.yul\":22314:22680   */\n      swap2\n      swap1\n      pop\n      jump\t// out\n        /* \"#utility.yul\":22686:23105   */\n    tag_221:\n        /* \"#utility.yul\":22852:22856   */\n      0x00\n        /* \"#utility.yul\":22890:22892   */\n      0x20\n        /* \"#utility.yul\":22879:22888   */\n      dup3\n        /* \"#utility.yul\":22875:22893   */\n      add\n        /* \"#utility.yul\":22867:22893   */\n      swap1\n      pop\n        /* \"#utility.yul\":22939:22948   */\n      dup2\n        /* \"#utility.yul\":22933:22937   */\n      dup2\n        /* \"#utility.yul\":22929:22949   */\n      sub\n        /* \"#utility.yul\":22925:22926   */\n      0x00\n        /* \"#utility.yul\":22914:22923   */\n      dup4\n        /* \"#utility.yul\":22910:22927   */\n      add\n        /* \"#utility.yul\":22903:22950   */\n      mstore\n        /* \"#utility.yul\":22967:23098   */\n      tag_612\n        /* \"#utility.yul\":23093:23097   */\n      dup2\n        /* \"#utility.yul\":22967:23098   */\n      tag_366\n      jump\t// in\n    tag_612:\n        /* \"#utility.yul\":22959:23098   */\n      swap1\n      pop\n        /* \"#utility.yul\":22686:23105   */\n      swap2\n      swap1\n      pop\n      jump\t// out\n        /* \"#utility.yul\":23111:23331   */\n    tag_367:\n        /* \"#utility.yul\":23251:23285   */\n      0x596f752063616e6e6f74206c656e64206d6f6e657920746f20796f757273656c\n        /* \"#utility.yul\":23247:23248   */\n      0x00\n        /* \"#utility.yul\":23239:23245   */\n      dup3\n        /* \"#utility.yul\":23235:23249   */\n      add\n        /* \"#utility.yul\":23228:23286   */\n      mstore\n        /* \"#utility.yul\":23320:23323   */\n      0x6600000000000000000000000000000000000000000000000000000000000000\n        /* \"#utility.yul\":23315:23317   */\n      0x20\n        /* \"#utility.yul\":23307:23313   */\n      dup3\n        /* \"#utility.yul\":23303:23318   */\n      add\n        /* \"#utility.yul\":23296:23324   */\n      mstore\n        /* \"#utility.yul\":23111:23331   */\n      pop\n      jump\t// out\n        /* \"#utility.yul\":23337:23703   */\n    tag_368:\n        /* \"#utility.yul\":23479:23482   */\n      0x00\n        /* \"#utility.yul\":23500:23567   */\n      tag_615\n        /* \"#utility.yul\":23564:23566   */\n      0x21\n        /* \"#utility.yul\":23559:23562   */\n      dup4\n        /* \"#utility.yul\":23500:23567   */\n      tag_333\n      jump\t// in\n    tag_615:\n        /* \"#utility.yul\":23493:23567   */\n      swap2\n      pop\n        /* \"#utility.yul\":23576:23669   */\n      tag_616\n        /* \"#utility.yul\":23665:23668   */\n      dup3\n        /* \"#utility.yul\":23576:23669   */\n      tag_367\n      jump\t// in\n    tag_616:\n        /* \"#utility.yul\":23694:23696   */\n      0x40\n        /* \"#utility.yul\":23689:23692   */\n      dup3\n        /* \"#utility.yul\":23685:23697   */\n      add\n        /* \"#utility.yul\":23678:23697   */\n      swap1\n      pop\n        /* \"#utility.yul\":23337:23703   */\n      swap2\n      swap1\n      pop\n      jump\t// out\n        /* \"#utility.yul\":23709:24128   */\n    tag_243:\n        /* \"#utility.yul\":23875:23879   */\n      0x00\n        /* \"#utility.yul\":23913:23915   */\n      0x20\n        /* \"#utility.yul\":23902:23911   */\n      dup3\n        /* \"#utility.yul\":23898:23916   */\n      add\n        /* \"#utility.yul\":23890:23916   */\n      swap1\n      pop\n        /* \"#utility.yul\":23962:23971   */\n      dup2\n        /* \"#utility.yul\":23956:23960   */\n      dup2\n        /* \"#utility.yul\":23952:23972   */\n      sub\n        /* \"#utility.yul\":23948:23949   */\n      0x00\n        /* \"#utility.yul\":23937:23946   */\n      dup4\n        /* \"#utility.yul\":23933:23950   */\n      add\n        /* \"#utility.yul\":23926:23973   */\n      mstore\n        /* \"#utility.yul\":23990:24121   */\n      tag_618\n        /* \"#utility.yul\":24116:24120   */\n      dup2\n        /* \"#utility.yul\":23990:24121   */\n      tag_368\n      jump\t// in\n    tag_618:\n        /* \"#utility.yul\":23982:24121   */\n      swap1\n      pop\n        /* \"#utility.yul\":23709:24128   */\n      swap2\n      swap1\n      pop\n      jump\t// out\n        /* \"#utility.yul\":24134:24316   */\n    tag_369:\n        /* \"#utility.yul\":24274:24308   */\n      0x596f752063616e6e6f7420706179206d6f6e657920746f20796f757273656c66\n        /* \"#utility.yul\":24270:24271   */\n      0x00\n        /* \"#utility.yul\":24262:24268   */\n      dup3\n        /* \"#utility.yul\":24258:24272   */\n      add\n        /* \"#utility.yul\":24251:24309   */\n      mstore\n        /* \"#utility.yul\":24134:24316   */\n      pop\n      jump\t// out\n        /* \"#utility.yul\":24322:24688   */\n    tag_370:\n        /* \"#utility.yul\":24464:24467   */\n      0x00\n        /* \"#utility.yul\":24485:24552   */\n      tag_621\n        /* \"#utility.yul\":24549:24551   */\n      0x20\n        /* \"#utility.yul\":24544:24547   */\n      dup4\n        /* \"#utility.yul\":24485:24552   */\n      tag_333\n      jump\t// in\n    tag_621:\n        /* \"#utility.yul\":24478:24552   */\n      swap2\n      pop\n        /* \"#utility.yul\":24561:24654   */\n      tag_622\n        /* \"#utility.yul\":24650:24653   */\n      dup3\n        /* \"#utility.yul\":24561:24654   */\n      tag_369\n      jump\t// in\n    tag_622:\n        /* \"#utility.yul\":24679:24681   */\n      0x20\n        /* \"#utility.yul\":24674:24677   */\n      dup3\n        /* \"#utility.yul\":24670:24682   */\n      add\n        /* \"#utility.yul\":24663:24682   */\n      swap1\n      pop\n        /* \"#utility.yul\":24322:24688   */\n      swap2\n      swap1\n      pop\n      jump\t// out\n        /* \"#utility.yul\":24694:25113   */\n    tag_258:\n        /* \"#utility.yul\":24860:24864   */\n      0x00\n        /* \"#utility.yul\":24898:24900   */\n      0x20\n        /* \"#utility.yul\":24887:24896   */\n      dup3\n        /* \"#utility.yul\":24883:24901   */\n      add\n        /* \"#utility.yul\":24875:24901   */\n      swap1\n      pop\n        /* \"#utility.yul\":24947:24956   */\n      dup2\n        /* \"#utility.yul\":24941:24945   */\n      dup2\n        /* \"#utility.yul\":24937:24957   */\n      sub\n        /* \"#utility.yul\":24933:24934   */\n      0x00\n        /* \"#utility.yul\":24922:24931   */\n      dup4\n        /* \"#utility.yul\":24918:24935   */\n      add\n        /* \"#utility.yul\":24911:24958   */\n      mstore\n        /* \"#utility.yul\":24975:25106   */\n      tag_624\n        /* \"#utility.yul\":25101:25105   */\n      dup2\n        /* \"#utility.yul\":24975:25106   */\n      tag_370\n      jump\t// in\n    tag_624:\n        /* \"#utility.yul\":24967:25106   */\n      swap1\n      pop\n        /* \"#utility.yul\":24694:25113   */\n      swap2\n      swap1\n      pop\n      jump\t// out\n        /* \"#utility.yul\":25119:25763   */\n    tag_268:\n        /* \"#utility.yul\":25316:25320   */\n      0x00\n        /* \"#utility.yul\":25354:25357   */\n      0x80\n        /* \"#utility.yul\":25343:25352   */\n      dup3\n        /* \"#utility.yul\":25339:25358   */\n      add\n        /* \"#utility.yul\":25331:25358   */\n      swap1\n      pop\n        /* \"#utility.yul\":25368:25439   */\n      tag_626\n        /* \"#utility.yul\":25436:25437   */\n      0x00\n        /* \"#utility.yul\":25425:25434   */\n      dup4\n        /* \"#utility.yul\":25421:25438   */\n      add\n        /* \"#utility.yul\":25412:25418   */\n      dup8\n        /* \"#utility.yul\":25368:25439   */\n      tag_314\n      jump\t// in\n    tag_626:\n        /* \"#utility.yul\":25449:25521   */\n      tag_627\n        /* \"#utility.yul\":25517:25519   */\n      0x20\n        /* \"#utility.yul\":25506:25515   */\n      dup4\n        /* \"#utility.yul\":25502:25520   */\n      add\n        /* \"#utility.yul\":25493:25499   */\n      dup7\n        /* \"#utility.yul\":25449:25521   */\n      tag_314\n      jump\t// in\n    tag_627:\n        /* \"#utility.yul\":25531:25603   */\n      tag_628\n        /* \"#utility.yul\":25599:25601   */\n      0x40\n        /* \"#utility.yul\":25588:25597   */\n      dup4\n        /* \"#utility.yul\":25584:25602   */\n      add\n        /* \"#utility.yul\":25575:25581   */\n      dup6\n        /* \"#utility.yul\":25531:25603   */\n      tag_314\n      jump\t// in\n    tag_628:\n        /* \"#utility.yul\":25650:25659   */\n      dup2\n        /* \"#utility.yul\":25644:25648   */\n      dup2\n        /* \"#utility.yul\":25640:25660   */\n      sub\n        /* \"#utility.yul\":25635:25637   */\n      0x60\n        /* \"#utility.yul\":25624:25633   */\n      dup4\n        /* \"#utility.yul\":25620:25638   */\n      add\n        /* \"#utility.yul\":25613:25661   */\n      mstore\n        /* \"#utility.yul\":25678:25756   */\n      tag_629\n        /* \"#utility.yul\":25751:25755   */\n      dup2\n        /* \"#utility.yul\":25742:25748   */\n      dup5\n        /* \"#utility.yul\":25678:25756   */\n      tag_335\n      jump\t// in\n    tag_629:\n        /* \"#utility.yul\":25670:25756   */\n      swap1\n      pop\n        /* \"#utility.yul\":25119:25763   */\n      swap6\n      swap5\n      pop\n      pop\n      pop\n      pop\n      pop\n      jump\t// out\n        /* \"#utility.yul\":25769:25935   */\n    tag_371:\n        /* \"#utility.yul\":25909:25927   */\n      0x4e6f7420656e6f7567682066756e647300000000000000000000000000000000\n        /* \"#utility.yul\":25905:25906   */\n      0x00\n        /* \"#utility.yul\":25897:25903   */\n      dup3\n        /* \"#utility.yul\":25893:25907   */\n      add\n        /* \"#utility.yul\":25886:25928   */\n      mstore\n        /* \"#utility.yul\":25769:25935   */\n      pop\n      jump\t// out\n        /* \"#utility.yul\":25941:26307   */\n    tag_372:\n        /* \"#utility.yul\":26083:26086   */\n      0x00\n        /* \"#utility.yul\":26104:26171   */\n      tag_632\n        /* \"#utility.yul\":26168:26170   */\n      0x10\n        /* \"#utility.yul\":26163:26166   */\n      dup4\n        /* \"#utility.yul\":26104:26171   */\n      tag_333\n      jump\t// in\n    tag_632:\n        /* \"#utility.yul\":26097:26171   */\n      swap2\n      pop\n        /* \"#utility.yul\":26180:26273   */\n      tag_633\n        /* \"#utility.yul\":26269:26272   */\n      dup3\n        /* \"#utility.yul\":26180:26273   */\n      tag_371\n      jump\t// in\n    tag_633:\n        /* \"#utility.yul\":26298:26300   */\n      0x20\n        /* \"#utility.yul\":26293:26296   */\n      dup3\n        /* \"#utility.yul\":26289:26301   */\n      add\n        /* \"#utility.yul\":26282:26301   */\n      swap1\n      pop\n        /* \"#utility.yul\":25941:26307   */\n      swap2\n      swap1\n      pop\n      jump\t// out\n        /* \"#utility.yul\":26313:26732   */\n    tag_282:\n        /* \"#utility.yul\":26479:26483   */\n      0x00\n        /* \"#utility.yul\":26517:26519   */\n      0x20\n        /* \"#utility.yul\":26506:26515   */\n      dup3\n        /* \"#utility.yul\":26502:26520   */\n      add\n        /* \"#utility.yul\":26494:26520   */\n      swap1\n      pop\n        /* \"#utility.yul\":26566:26575   */\n      dup2\n        /* \"#utility.yul\":26560:26564   */\n      dup2\n        /* \"#utility.yul\":26556:26576   */\n      sub\n        /* \"#utility.yul\":26552:26553   */\n      0x00\n        /* \"#utility.yul\":26541:26550   */\n      dup4\n        /* \"#utility.yul\":26537:26554   */\n      add\n        /* \"#utility.yul\":26530:26577   */\n      mstore\n        /* \"#utility.yul\":26594:26725   */\n      tag_635\n        /* \"#utility.yul\":26720:26724   */\n      dup2\n        /* \"#utility.yul\":26594:26725   */\n      tag_372\n      jump\t// in\n    tag_635:\n        /* \"#utility.yul\":26586:26725   */\n      swap1\n      pop\n        /* \"#utility.yul\":26313:26732   */\n      swap2\n      swap1\n      pop\n      jump\t// out\n\n    auxdata: 0xa264697066735822122074053edb17ed079849aa6161a67251f93af080841aa4d3b72e639cf538c6936f64736f6c63430008130033\n}\n","bytecode":{"linkReferences":{},"object":"608060405234801561001057600080fd5b50613bd5806100206000396000f3fe6080604052600436106101b75760003560e01c80639e6b84c4116100ec578063d14d7ae81161008a578063d7b6e15e11610064578063d7b6e15e14610670578063d7d1bbdb146106ad578063e3d670d7146106c9578063f061029714610706576101b7565b8063d14d7ae8146105da578063d2713bcf146105f6578063d522ac8f14610633576101b7565b8063ad1ac14c116100c6578063ad1ac14c14610507578063b0a02abe14610544578063b188474414610581578063b331ea631461059d576101b7565b80639e6b84c4146104945780639ecebe2a146104bd578063a2f09dfa146104fd576101b7565b806350e300421161015957806388811f8d1161013357806388811f8d146103d55780638a9cfd55146104125780638ead837b1461043b57806395f4513a14610478576101b7565b806350e300421461031e5780635195afa51461035b57806371929c5114610398576101b7565b806331287c311161019557806331287c311461023e578063334e3de21461027b57806343999ac2146102b85780634fd49044146102e1576101b7565b8063092a0a8a146101bc5780632d7788db146101f95780632e1a7d4d14610222575b600080fd5b3480156101c857600080fd5b506101e360048036038101906101de9190612dca565b610743565b6040516101f09190612e19565b60405180910390f35b34801561020557600080fd5b50610220600480360381019061021b9190612e34565b610791565b005b61023c60048036038101906102379190612e34565b61086c565b005b34801561024a57600080fd5b5061026560048036038101906102609190612dca565b6109d0565b6040516102729190612e19565b60405180910390f35b34801561028757600080fd5b506102a2600480360381019061029d9190612e61565b610a1e565b6040516102af9190612e9d565b60405180910390f35b3480156102c457600080fd5b506102df60048036038101906102da9190612e61565b610a6a565b005b3480156102ed57600080fd5b5061030860048036038101906103039190612dca565b610aef565b6040516103159190612e19565b60405180910390f35b34801561032a57600080fd5b5061034560048036038101906103409190612eb8565b610b3d565b6040516103529190612f14565b60405180910390f35b34801561036757600080fd5b50610382600480360381019061037d9190612eb8565b610b6c565b60405161038f9190612e9d565b60405180910390f35b3480156103a457600080fd5b506103bf60048036038101906103ba9190612e61565b610b91565b6040516103cc9190612e9d565b60405180910390f35b3480156103e157600080fd5b506103fc60048036038101906103f79190612eb8565b610ba9565b6040516104099190612e9d565b60405180910390f35b34801561041e57600080fd5b5061043960048036038101906104349190613075565b610bce565b005b34801561044757600080fd5b50610462600480360381019061045d9190612e61565b610d1d565b60405161046f9190612e9d565b60405180910390f35b610492600480360381019061048d9190613122565b610d68565b005b3480156104a057600080fd5b506104bb60048036038101906104b6919061318e565b611075565b005b3480156104c957600080fd5b506104e460048036038101906104df9190612dca565b6111cd565b6040516104f49493929190613268565b60405180910390f35b6105056112cf565b005b34801561051357600080fd5b5061052e60048036038101906105299190612e61565b6113c0565b60405161053b9190612e9d565b60405180910390f35b34801561055057600080fd5b5061056b60048036038101906105669190612eb8565b61140c565b6040516105789190612e9d565b60405180910390f35b61059b60048036038101906105969190613122565b611431565b005b3480156105a957600080fd5b506105c460048036038101906105bf9190612eb8565b61192e565b6040516105d19190612e9d565b60405180910390f35b6105f460048036038101906105ef91906132b4565b611953565b005b34801561060257600080fd5b5061061d60048036038101906106189190612eb8565b611e7f565b60405161062a9190612e9d565b60405180910390f35b34801561063f57600080fd5b5061065a60048036038101906106559190612e61565b611ea4565b6040516106679190612e9d565b60405180910390f35b34801561067c57600080fd5b5061069760048036038101906106929190612dca565b611ef0565b6040516106a49190612e19565b60405180910390f35b6106c760048036038101906106c29190612e34565b611f3e565b005b3480156106d557600080fd5b506106f060048036038101906106eb9190612e61565b612cbe565b6040516106fd9190612e9d565b60405180910390f35b34801561071257600080fd5b5061072d60048036038101906107289190612e61565b612cd6565b60405161073a9190612e9d565b60405180910390f35b600a602052816000526040600020818154811061075f57600080fd5b906000526020600020016000915091509054906101000a900473ffffffffffffffffffffffffffffffffffffffff1681565b60008060003373ffffffffffffffffffffffffffffffffffffffff1673ffffffffffffffffffffffffffffffffffffffff16815260200190815260200160002082815481106107e3576107e261334b565b5b90600052602060002090600302019050600015158160020160009054906101000a900460ff1615151461084b576040517f08c379a0000000000000000000000000000000000000000000000000000000008152600401610842906133ec565b60405180910390fd5b60018160020160006101000a81548160ff0219169083151502179055505050565b600160003373ffffffffffffffffffffffffffffffffffffffff1673ffffffffffffffffffffffffffffffffffffffff1681526020019081526020016000205481106108ed576040517f08c379a00000000000000000000000000000000000000000000000000000000081526004016108e490613458565b60405180910390fd5b60008111610930576040517f08c379a0000000000000000000000000000000000000000000000000000000008152600401610927906134ea565b60405180910390fd5b3373ffffffffffffffffffffffffffffffffffffffff166108fc829081150290604051600060405180830381858888f19350505050158015610976573d6000803e3d6000fd5b5080600160003373ffffffffffffffffffffffffffffffffffffffff1673ffffffffffffffffffffffffffffffffffffffff16815260200190815260200160002060008282546109c69190613539565b9250508190555050565b600b60205281600052604060002081815481106109ec57600080fd5b906000526020600020016000915091509054906101000a900473ffffffffffffffffffffffffffffffffffffffff1681565b6000600b60008373ffffffffffffffffffffffffffffffffffffffff1673ffffffffffffffffffffffffffffffffffffffff168152602001908152602001600020805490509050919050565b6000600360003373ffffffffffffffffffffffffffffffffffffffff1673ffffffffffffffffffffffffffffffffffffffff16815260200190815260200160002060008373ffffffffffffffffffffffffffffffffffffffff1673ffffffffffffffffffffffffffffffffffffffff1681526020019081526020016000208190555050565b60086020528160005260406000208181548110610b0b57600080fd5b906000526020600020016000915091509054906101000a900473ffffffffffffffffffffffffffffffffffffffff1681565b60076020528160005260406000206020528060005260406000206000915091509054906101000a900460ff1681565b6003602052816000526040600020602052806000526040600020600091509150505481565b600c6020528060005260406000206000915090505481565b6005602052816000526040600020602052806000526040600020600091509150505481565b3373ffffffffffffffffffffffffffffffffffffffff168173ffffffffffffffffffffffffffffffffffffffff1603610c3c576040517f08c379a0000000000000000000000000000000000000000000000000000000008152600401610c33906135b9565b60405180910390fd5b60008060008373ffffffffffffffffffffffffffffffffffffffff1673ffffffffffffffffffffffffffffffffffffffff168152602001908152602001600020600181600181540180825580915050039060005260206000209060030201905083816000019081610cad91906137e5565b5082816001018190555060008160020160006101000a81548160ff021916908315150217905550338160020160016101000a81548173ffffffffffffffffffffffffffffffffffffffff021916908373ffffffffffffffffffffffffffffffffffffffff16021790555050505050565b60008060008373ffffffffffffffffffffffffffffffffffffffff1673ffffffffffffffffffffffffffffffffffffffff168152602001908152602001600020805490509050919050565b81600360003373ffffffffffffffffffffffffffffffffffffffff1673ffffffffffffffffffffffffffffffffffffffff16815260200190815260200160002060008373ffffffffffffffffffffffffffffffffffffffff1673ffffffffffffffffffffffffffffffffffffffff16815260200190815260200160002054600260003373ffffffffffffffffffffffffffffffffffffffff1673ffffffffffffffffffffffffffffffffffffffff16815260200190815260200160002060008473ffffffffffffffffffffffffffffffffffffffff1673ffffffffffffffffffffffffffffffffffffffff16815260200190815260200160002054610e6d9190613539565b1015610eae576040517f08c379a0000000000000000000000000000000000000000000000000000000008152600401610ea590613929565b60405180910390fd5b81600160003373ffffffffffffffffffffffffffffffffffffffff1673ffffffffffffffffffffffffffffffffffffffff1681526020019081526020016000206000828254610efd9190613949565b9250508190555081600260003373ffffffffffffffffffffffffffffffffffffffff1673ffffffffffffffffffffffffffffffffffffffff16815260200190815260200160002060008373ffffffffffffffffffffffffffffffffffffffff1673ffffffffffffffffffffffffffffffffffffffff1681526020019081526020016000206000828254610f909190613539565b9250508190555081600460008373ffffffffffffffffffffffffffffffffffffffff1673ffffffffffffffffffffffffffffffffffffffff16815260200190815260200160002060003373ffffffffffffffffffffffffffffffffffffffff1673ffffffffffffffffffffffffffffffffffffffff16815260200190815260200160002060008282546110239190613539565b925050819055503373ffffffffffffffffffffffffffffffffffffffff166108fc839081150290604051600060405180830381858888f19350505050158015611070573d6000803e3d6000fd5b505050565b6000600460008473ffffffffffffffffffffffffffffffffffffffff1673ffffffffffffffffffffffffffffffffffffffff16815260200190815260200160002060003373ffffffffffffffffffffffffffffffffffffffff1673ffffffffffffffffffffffffffffffffffffffff1681526020019081526020016000205411611134576040517f08c379a000000000000000000000000000000000000000000000000000000000815260040161112b906139c9565b60405180910390fd5b80600760008473ffffffffffffffffffffffffffffffffffffffff1673ffffffffffffffffffffffffffffffffffffffff16815260200190815260200160002060003373ffffffffffffffffffffffffffffffffffffffff1673ffffffffffffffffffffffffffffffffffffffff16815260200190815260200160002060006101000a81548160ff021916908360ff1602179055505050565b600060205281600052604060002081815481106111e957600080fd5b90600052602060002090600302016000915091505080600001805461120d90613608565b80601f016020809104026020016040519081016040528092919081815260200182805461123990613608565b80156112865780601f1061125b57610100808354040283529160200191611286565b820191906000526020600020905b81548152906001019060200180831161126957829003601f168201915b5050505050908060010154908060020160009054906101000a900460ff16908060020160019054906101000a900473ffffffffffffffffffffffffffffffffffffffff16905084565b60003411611312576040517f08c379a0000000000000000000000000000000000000000000000000000000008152600401611309906134ea565b60405180910390fd5b34600160003373ffffffffffffffffffffffffffffffffffffffff1673ffffffffffffffffffffffffffffffffffffffff16815260200190815260200160002060008282546113619190613949565b9250508190555034600c60003373ffffffffffffffffffffffffffffffffffffffff1673ffffffffffffffffffffffffffffffffffffffff16815260200190815260200160002060008282546113b79190613949565b92505081905550565b6000600960008373ffffffffffffffffffffffffffffffffffffffff1673ffffffffffffffffffffffffffffffffffffffff168152602001908152602001600020805490509050919050565b6004602052816000526040600020602052806000526040600020600091509150505481565b600160003373ffffffffffffffffffffffffffffffffffffffff1673ffffffffffffffffffffffffffffffffffffffff168152602001908152602001600020548211156114b3576040517f08c379a00000000000000000000000000000000000000000000000000000000081526004016114aa90613458565b60405180910390fd5b600082116114f6576040517f08c379a00000000000000000000000000000000000000000000000000000000081526004016114ed906134ea565b60405180910390fd5b3373ffffffffffffffffffffffffffffffffffffffff168173ffffffffffffffffffffffffffffffffffffffff1603611564576040517f08c379a000000000000000000000000000000000000000000000000000000000815260040161155b90613a5b565b60405180910390fd5b6000600460008373ffffffffffffffffffffffffffffffffffffffff1673ffffffffffffffffffffffffffffffffffffffff16815260200190815260200160002060003373ffffffffffffffffffffffffffffffffffffffff1673ffffffffffffffffffffffffffffffffffffffff168152602001908152602001600020540361168957600a60003373ffffffffffffffffffffffffffffffffffffffff1673ffffffffffffffffffffffffffffffffffffffff168152602001908152602001600020819080600181540180825580915050600190039060005260206000200160009091909190916101000a81548173ffffffffffffffffffffffffffffffffffffffff021916908373ffffffffffffffffffffffffffffffffffffffff1602179055505b6000600260003373ffffffffffffffffffffffffffffffffffffffff1673ffffffffffffffffffffffffffffffffffffffff16815260200190815260200160002060008373ffffffffffffffffffffffffffffffffffffffff1673ffffffffffffffffffffffffffffffffffffffff16815260200190815260200160002054036117ae57600b60008273ffffffffffffffffffffffffffffffffffffffff1673ffffffffffffffffffffffffffffffffffffffff168152602001908152602001600020339080600181540180825580915050600190039060005260206000200160009091909190916101000a81548173ffffffffffffffffffffffffffffffffffffffff021916908373ffffffffffffffffffffffffffffffffffffffff1602179055505b81600160003373ffffffffffffffffffffffffffffffffffffffff1673ffffffffffffffffffffffffffffffffffffffff16815260200190815260200160002060008282546117fd9190613539565b9250508190555081600260003373ffffffffffffffffffffffffffffffffffffffff1673ffffffffffffffffffffffffffffffffffffffff16815260200190815260200160002060008373ffffffffffffffffffffffffffffffffffffffff1673ffffffffffffffffffffffffffffffffffffffff16815260200190815260200160002060008282546118909190613949565b9250508190555081600460008373ffffffffffffffffffffffffffffffffffffffff1673ffffffffffffffffffffffffffffffffffffffff16815260200190815260200160002060003373ffffffffffffffffffffffffffffffffffffffff1673ffffffffffffffffffffffffffffffffffffffff16815260200190815260200160002060008282546119239190613949565b925050819055505050565b6002602052816000526040600020602052806000526040600020600091509150505481565b600160003373ffffffffffffffffffffffffffffffffffffffff1673ffffffffffffffffffffffffffffffffffffffff1681526020019081526020016000205484106119d4576040517f08c379a00000000000000000000000000000000000000000000000000000000081526004016119cb90613458565b60405180910390fd5b60008411611a17576040517f08c379a0000000000000000000000000000000000000000000000000000000008152600401611a0e906134ea565b60405180910390fd5b3373ffffffffffffffffffffffffffffffffffffffff168573ffffffffffffffffffffffffffffffffffffffff1603611a85576040517f08c379a0000000000000000000000000000000000000000000000000000000008152600401611a7c90613ac7565b60405180910390fd5b8473ffffffffffffffffffffffffffffffffffffffff166108fc859081150290604051600060405180830381858888f19350505050158015611acb573d6000803e3d6000fd5b5083600160003373ffffffffffffffffffffffffffffffffffffffff1673ffffffffffffffffffffffffffffffffffffffff1681526020019081526020016000206000828254611b1b9190613539565b925050819055506000600560003373ffffffffffffffffffffffffffffffffffffffff1673ffffffffffffffffffffffffffffffffffffffff16815260200190815260200160002060008773ffffffffffffffffffffffffffffffffffffffff1673ffffffffffffffffffffffffffffffffffffffff1681526020019081526020016000205403611ce757600860003373ffffffffffffffffffffffffffffffffffffffff1673ffffffffffffffffffffffffffffffffffffffff168152602001908152602001600020859080600181540180825580915050600190039060005260206000200160009091909190916101000a81548173ffffffffffffffffffffffffffffffffffffffff021916908373ffffffffffffffffffffffffffffffffffffffff160217905550600960008673ffffffffffffffffffffffffffffffffffffffff1673ffffffffffffffffffffffffffffffffffffffff168152602001908152602001600020339080600181540180825580915050600190039060005260206000200160009091909190916101000a81548173ffffffffffffffffffffffffffffffffffffffff021916908373ffffffffffffffffffffffffffffffffffffffff1602179055505b83600560003373ffffffffffffffffffffffffffffffffffffffff1673ffffffffffffffffffffffffffffffffffffffff16815260200190815260200160002060008773ffffffffffffffffffffffffffffffffffffffff1673ffffffffffffffffffffffffffffffffffffffff1681526020019081526020016000206000828254611d739190613949565b9250508190555083600660008773ffffffffffffffffffffffffffffffffffffffff1673ffffffffffffffffffffffffffffffffffffffff16815260200190815260200160002060003373ffffffffffffffffffffffffffffffffffffffff1673ffffffffffffffffffffffffffffffffffffffff1681526020019081526020016000206000828254611e069190613949565b925050819055508473ffffffffffffffffffffffffffffffffffffffff163373ffffffffffffffffffffffffffffffffffffffff167fa32c156f4b3b8a11a69a7ce04d9290f328629e9ba578b036df29793cceed6ec986868686604051611e709493929190613ae7565b60405180910390a35050505050565b6006602052816000526040600020602052806000526040600020600091509150505481565b6000600860008373ffffffffffffffffffffffffffffffffffffffff1673ffffffffffffffffffffffffffffffffffffffff168152602001908152602001600020805490509050919050565b60096020528160005260406000208181548110611f0c57600080fd5b906000526020600020016000915091509054906101000a900473ffffffffffffffffffffffffffffffffffffffff1681565b60008060003373ffffffffffffffffffffffffffffffffffffffff1673ffffffffffffffffffffffffffffffffffffffff1681526020019081526020016000208281548110611f9057611f8f61334b565b5b90600052602060002090600302019050600015158160020160009054906101000a900460ff16151514611ff8576040517f08c379a0000000000000000000000000000000000000000000000000000000008152600401611fef906133ec565b60405180910390fd5b600160003373ffffffffffffffffffffffffffffffffffffffff1673ffffffffffffffffffffffffffffffffffffffff16815260200190815260200160002054600360003373ffffffffffffffffffffffffffffffffffffffff1673ffffffffffffffffffffffffffffffffffffffff16815260200190815260200160002060008360020160019054906101000a900473ffffffffffffffffffffffffffffffffffffffff1673ffffffffffffffffffffffffffffffffffffffff1673ffffffffffffffffffffffffffffffffffffffff16815260200190815260200160002054600260003373ffffffffffffffffffffffffffffffffffffffff1673ffffffffffffffffffffffffffffffffffffffff16815260200190815260200160002060008460020160019054906101000a900473ffffffffffffffffffffffffffffffffffffffff1673ffffffffffffffffffffffffffffffffffffffff1673ffffffffffffffffffffffffffffffffffffffff168152602001908152602001600020546121849190613539565b82600101546121939190613539565b11156121d4576040517f08c379a00000000000000000000000000000000000000000000000000000000081526004016121cb90613b7f565b60405180910390fd5b8060010154600360003373ffffffffffffffffffffffffffffffffffffffff1673ffffffffffffffffffffffffffffffffffffffff16815260200190815260200160002060008360020160019054906101000a900473ffffffffffffffffffffffffffffffffffffffff1673ffffffffffffffffffffffffffffffffffffffff1673ffffffffffffffffffffffffffffffffffffffff16815260200190815260200160002054600260003373ffffffffffffffffffffffffffffffffffffffff1673ffffffffffffffffffffffffffffffffffffffff16815260200190815260200160002060008460020160019054906101000a900473ffffffffffffffffffffffffffffffffffffffff1673ffffffffffffffffffffffffffffffffffffffff1673ffffffffffffffffffffffffffffffffffffffff168152602001908152602001600020546123259190613539565b10612476578060020160019054906101000a900473ffffffffffffffffffffffffffffffffffffffff1673ffffffffffffffffffffffffffffffffffffffff166108fc82600101549081150290604051600060405180830381858888f19350505050158015612398573d6000803e3d6000fd5b5060018160020160006101000a81548160ff0219169083151502179055508060010154600360003373ffffffffffffffffffffffffffffffffffffffff1673ffffffffffffffffffffffffffffffffffffffff16815260200190815260200160002060008360020160019054906101000a900473ffffffffffffffffffffffffffffffffffffffff1673ffffffffffffffffffffffffffffffffffffffff1673ffffffffffffffffffffffffffffffffffffffff168152602001908152602001600020600082825461246a9190613949565b92505081905550612cba565b6000600460008360020160019054906101000a900473ffffffffffffffffffffffffffffffffffffffff1673ffffffffffffffffffffffffffffffffffffffff1673ffffffffffffffffffffffffffffffffffffffff16815260200190815260200160002060003373ffffffffffffffffffffffffffffffffffffffff1673ffffffffffffffffffffffffffffffffffffffff16815260200190815260200160002054036125e357600a60003373ffffffffffffffffffffffffffffffffffffffff1673ffffffffffffffffffffffffffffffffffffffff1681526020019081526020016000208160020160019054906101000a900473ffffffffffffffffffffffffffffffffffffffff169080600181540180825580915050600190039060005260206000200160009091909190916101000a81548173ffffffffffffffffffffffffffffffffffffffff021916908373ffffffffffffffffffffffffffffffffffffffff1602179055505b6000600260003373ffffffffffffffffffffffffffffffffffffffff1673ffffffffffffffffffffffffffffffffffffffff16815260200190815260200160002060008360020160019054906101000a900473ffffffffffffffffffffffffffffffffffffffff1673ffffffffffffffffffffffffffffffffffffffff1673ffffffffffffffffffffffffffffffffffffffff168152602001908152602001600020540361275057600b60008260020160019054906101000a900473ffffffffffffffffffffffffffffffffffffffff1673ffffffffffffffffffffffffffffffffffffffff1673ffffffffffffffffffffffffffffffffffffffff168152602001908152602001600020339080600181540180825580915050600190039060005260206000200160009091909190916101000a81548173ffffffffffffffffffffffffffffffffffffffff021916908373ffffffffffffffffffffffffffffffffffffffff1602179055505b8060020160019054906101000a900473ffffffffffffffffffffffffffffffffffffffff1673ffffffffffffffffffffffffffffffffffffffff166108fc82600101549081150290604051600060405180830381858888f193505050501580156127be573d6000803e3d6000fd5b5060018160020160006101000a81548160ff021916908315150217905550600360003373ffffffffffffffffffffffffffffffffffffffff1673ffffffffffffffffffffffffffffffffffffffff16815260200190815260200160002060008260020160019054906101000a900473ffffffffffffffffffffffffffffffffffffffff1673ffffffffffffffffffffffffffffffffffffffff1673ffffffffffffffffffffffffffffffffffffffff16815260200190815260200160002054600260003373ffffffffffffffffffffffffffffffffffffffff1673ffffffffffffffffffffffffffffffffffffffff16815260200190815260200160002060008360020160019054906101000a900473ffffffffffffffffffffffffffffffffffffffff1673ffffffffffffffffffffffffffffffffffffffff1673ffffffffffffffffffffffffffffffffffffffff168152602001908152602001600020546129289190613539565b81600101546129379190613539565b600460008360020160019054906101000a900473ffffffffffffffffffffffffffffffffffffffff1673ffffffffffffffffffffffffffffffffffffffff1673ffffffffffffffffffffffffffffffffffffffff16815260200190815260200160002060003373ffffffffffffffffffffffffffffffffffffffff1673ffffffffffffffffffffffffffffffffffffffff16815260200190815260200160002060008282546129e69190613949565b92505081905550600360003373ffffffffffffffffffffffffffffffffffffffff1673ffffffffffffffffffffffffffffffffffffffff16815260200190815260200160002060008260020160019054906101000a900473ffffffffffffffffffffffffffffffffffffffff1673ffffffffffffffffffffffffffffffffffffffff1673ffffffffffffffffffffffffffffffffffffffff16815260200190815260200160002054600260003373ffffffffffffffffffffffffffffffffffffffff1673ffffffffffffffffffffffffffffffffffffffff16815260200190815260200160002060008360020160019054906101000a900473ffffffffffffffffffffffffffffffffffffffff1673ffffffffffffffffffffffffffffffffffffffff1673ffffffffffffffffffffffffffffffffffffffff16815260200190815260200160002054612b399190613539565b8160010154612b489190613539565b600260003373ffffffffffffffffffffffffffffffffffffffff1673ffffffffffffffffffffffffffffffffffffffff16815260200190815260200160002060008360020160019054906101000a900473ffffffffffffffffffffffffffffffffffffffff1673ffffffffffffffffffffffffffffffffffffffff1673ffffffffffffffffffffffffffffffffffffffff1681526020019081526020016000206000828254612bf79190613949565b925050819055508060010154600360003373ffffffffffffffffffffffffffffffffffffffff1673ffffffffffffffffffffffffffffffffffffffff16815260200190815260200160002060008360020160019054906101000a900473ffffffffffffffffffffffffffffffffffffffff1673ffffffffffffffffffffffffffffffffffffffff1673ffffffffffffffffffffffffffffffffffffffff1681526020019081526020016000206000828254612cb29190613949565b925050819055505b5050565b60016020528060005260406000206000915090505481565b6000600a60008373ffffffffffffffffffffffffffffffffffffffff1673ffffffffffffffffffffffffffffffffffffffff168152602001908152602001600020805490509050919050565b6000604051905090565b600080fd5b600080fd5b600073ffffffffffffffffffffffffffffffffffffffff82169050919050565b6000612d6182612d36565b9050919050565b612d7181612d56565b8114612d7c57600080fd5b50565b600081359050612d8e81612d68565b92915050565b6000819050919050565b612da781612d94565b8114612db257600080fd5b50565b600081359050612dc481612d9e565b92915050565b60008060408385031215612de157612de0612d2c565b5b6000612def85828601612d7f565b9250506020612e0085828601612db5565b9150509250929050565b612e1381612d56565b82525050565b6000602082019050612e2e6000830184612e0a565b92915050565b600060208284031215612e4a57612e49612d2c565b5b6000612e5884828501612db5565b91505092915050565b600060208284031215612e7757612e76612d2c565b5b6000612e8584828501612d7f565b91505092915050565b612e9781612d94565b82525050565b6000602082019050612eb26000830184612e8e565b92915050565b60008060408385031215612ecf57612ece612d2c565b5b6000612edd85828601612d7f565b9250506020612eee85828601612d7f565b9150509250929050565b600060ff82169050919050565b612f0e81612ef8565b82525050565b6000602082019050612f296000830184612f05565b92915050565b600080fd5b600080fd5b6000601f19601f8301169050919050565b7f4e487b7100000000000000000000000000000000000000000000000000000000600052604160045260246000fd5b612f8282612f39565b810181811067ffffffffffffffff82111715612fa157612fa0612f4a565b5b80604052505050565b6000612fb4612d22565b9050612fc08282612f79565b919050565b600067ffffffffffffffff821115612fe057612fdf612f4a565b5b612fe982612f39565b9050602081019050919050565b82818337600083830152505050565b600061301861301384612fc5565b612faa565b90508281526020810184848401111561303457613033612f34565b5b61303f848285612ff6565b509392505050565b600082601f83011261305c5761305b612f2f565b5b813561306c848260208601613005565b91505092915050565b60008060006060848603121561308e5761308d612d2c565b5b600084013567ffffffffffffffff8111156130ac576130ab612d31565b5b6130b886828701613047565b93505060206130c986828701612db5565b92505060406130da86828701612d7f565b9150509250925092565b60006130ef82612d36565b9050919050565b6130ff816130e4565b811461310a57600080fd5b50565b60008135905061311c816130f6565b92915050565b6000806040838503121561313957613138612d2c565b5b600061314785828601612db5565b92505060206131588582860161310d565b9150509250929050565b61316b81612ef8565b811461317657600080fd5b50565b60008135905061318881613162565b92915050565b600080604083850312156131a5576131a4612d2c565b5b60006131b385828601612d7f565b92505060206131c485828601613179565b9150509250929050565b600081519050919050565b600082825260208201905092915050565b60005b838110156132085780820151818401526020810190506131ed565b60008484015250505050565b600061321f826131ce565b61322981856131d9565b93506132398185602086016131ea565b61324281612f39565b840191505092915050565b60008115159050919050565b6132628161324d565b82525050565b600060808201905081810360008301526132828187613214565b90506132916020830186612e8e565b61329e6040830185613259565b6132ab6060830184612e0a565b95945050505050565b600080600080600060a086880312156132d0576132cf612d2c565b5b60006132de8882890161310d565b95505060206132ef88828901612db5565b945050604061330088828901612db5565b935050606061331188828901612db5565b925050608086013567ffffffffffffffff81111561333257613331612d31565b5b61333e88828901613047565b9150509295509295909350565b7f4e487b7100000000000000000000000000000000000000000000000000000000600052603260045260246000fd5b7f726571756573742068617320616c7265616479206265656e2066696e616c697360008201527f6564000000000000000000000000000000000000000000000000000000000000602082015250565b60006133d66022836131d9565b91506133e18261337a565b604082019050919050565b60006020820190508181036000830152613405816133c9565b9050919050565b7f496e73756666696369656e742066756e64730000000000000000000000000000600082015250565b60006134426012836131d9565b915061344d8261340c565b602082019050919050565b6000602082019050818103600083015261347181613435565b9050919050565b7f7472616e73616374696f6e2077697468203020657468206973206e6f7420616c60008201527f6c6f776564000000000000000000000000000000000000000000000000000000602082015250565b60006134d46025836131d9565b91506134df82613478565b604082019050919050565b60006020820190508181036000830152613503816134c7565b9050919050565b7f4e487b7100000000000000000000000000000000000000000000000000000000600052601160045260246000fd5b600061354482612d94565b915061354f83612d94565b92508282039050818111156135675761356661350a565b5b92915050565b7f4672617564730000000000000000000000000000000000000000000000000000600082015250565b60006135a36006836131d9565b91506135ae8261356d565b602082019050919050565b600060208201905081810360008301526135d281613596565b9050919050565b7f4e487b7100000000000000000000000000000000000000000000000000000000600052602260045260246000fd5b6000600282049050600182168061362057607f821691505b602082108103613633576136326135d9565b5b50919050565b60008190508160005260206000209050919050565b60006020601f8301049050919050565b600082821b905092915050565b60006008830261369b7fffffffffffffffffffffffffffffffffffffffffffffffffffffffffffffffff8261365e565b6136a5868361365e565b95508019841693508086168417925050509392505050565b6000819050919050565b60006136e26136dd6136d884612d94565b6136bd565b612d94565b9050919050565b6000819050919050565b6136fc836136c7565b613710613708826136e9565b84845461366b565b825550505050565b600090565b613725613718565b6137308184846136f3565b505050565b5b818110156137545761374960008261371d565b600181019050613736565b5050565b601f8211156137995761376a81613639565b6137738461364e565b81016020851015613782578190505b61379661378e8561364e565b830182613735565b50505b505050565b600082821c905092915050565b60006137bc6000198460080261379e565b1980831691505092915050565b60006137d583836137ab565b9150826002028217905092915050565b6137ee826131ce565b67ffffffffffffffff81111561380757613806612f4a565b5b6138118254613608565b61381c828285613758565b600060209050601f83116001811461384f576000841561383d578287015190505b61384785826137c9565b8655506138af565b601f19841661385d86613639565b60005b8281101561388557848901518255600182019150602085019450602081019050613860565b868310156138a2578489015161389e601f8916826137ab565b8355505b6001600288020188555050505b505050505050565b7f546865206164647265737320646f65736e7420686176652074686174206d756360008201527f682066756e647300000000000000000000000000000000000000000000000000602082015250565b60006139136027836131d9565b915061391e826138b7565b604082019050919050565b6000602082019050818103600083015261394281613906565b9050919050565b600061395482612d94565b915061395f83612d94565b92508282019050808211156139775761397661350a565b5b92915050565b7f4e6f206c6f616e20676976656e00000000000000000000000000000000000000600082015250565b60006139b3600d836131d9565b91506139be8261397d565b602082019050919050565b600060208201905081810360008301526139e2816139a6565b9050919050565b7f596f752063616e6e6f74206c656e64206d6f6e657920746f20796f757273656c60008201527f6600000000000000000000000000000000000000000000000000000000000000602082015250565b6000613a456021836131d9565b9150613a50826139e9565b604082019050919050565b60006020820190508181036000830152613a7481613a38565b9050919050565b7f596f752063616e6e6f7420706179206d6f6e657920746f20796f757273656c66600082015250565b6000613ab16020836131d9565b9150613abc82613a7b565b602082019050919050565b60006020820190508181036000830152613ae081613aa4565b9050919050565b6000608082019050613afc6000830187612e8e565b613b096020830186612e8e565b613b166040830185612e8e565b8181036060830152613b288184613214565b905095945050505050565b7f4e6f7420656e6f7567682066756e647300000000000000000000000000000000600082015250565b6000613b696010836131d9565b9150613b7482613b33565b602082019050919050565b60006020820190508181036000830152613b9881613b5c565b905091905056fea264697066735822122074053edb17ed079849aa6161a67251f93af080841aa4d3b72e639cf538c6936f64736f6c63430008130033","opcodes":"PUSH1 0x80 PUSH1 0x40 MSTORE CALLVALUE DUP1 ISZERO PUSH2 0x10 JUMPI PUSH1 0x0 DUP1 REVERT JUMPDEST POP PUSH2 0x3BD5 DUP1 PUSH2 0x20 PUSH1 0x0 CODECOPY PUSH1 0x0 RETURN INVALID PUSH1 0x80 PUSH1 0x40 MSTORE PUSH1 0x4 CALLDATASIZE LT PUSH2 0x1B7 JUMPI PUSH1 0x0 CALLDATALOAD PUSH1 0xE0 SHR DUP1 PUSH4 0x9E6B84C4 GT PUSH2 0xEC JUMPI DUP1 PUSH4 0xD14D7AE8 GT PUSH2 0x8A JUMPI DUP1 PUSH4 0xD7B6E15E GT PUSH2 0x64 JUMPI DUP1 PUSH4 0xD7B6E15E EQ PUSH2 0x670 JUMPI DUP1 PUSH4 0xD7D1BBDB EQ PUSH2 0x6AD JUMPI DUP1 PUSH4 0xE3D670D7 EQ PUSH2 0x6C9 JUMPI DUP1 PUSH4 0xF0610297 EQ PUSH2 0x706 JUMPI PUSH2 0x1B7 JUMP JUMPDEST DUP1 PUSH4 0xD14D7AE8 EQ PUSH2 0x5DA JUMPI DUP1 PUSH4 0xD2713BCF EQ PUSH2 0x5F6 JUMPI DUP1 PUSH4 0xD522AC8F EQ PUSH2 0x633 JUMPI PUSH2 0x1B7 JUMP JUMPDEST DUP1 PUSH4 0xAD1AC14C GT PUSH2 0xC6 JUMPI DUP1 PUSH4 0xAD1AC14C EQ PUSH2 0x507 JUMPI DUP1 PUSH4 0xB0A02ABE EQ PUSH2 0x544 JUMPI DUP1 PUSH4 0xB1884744 EQ PUSH2 0x581 JUMPI DUP1 PUSH4 0xB331EA63 EQ PUSH2 0x59D JUMPI PUSH2 0x1B7 JUMP JUMPDEST DUP1 PUSH4 0x9E6B84C4 EQ PUSH2 0x494 JUMPI DUP1 PUSH4 0x9ECEBE2A EQ PUSH2 0x4BD JUMPI DUP1 PUSH4 0xA2F09DFA EQ PUSH2 0x4FD JUMPI PUSH2 0x1B7 JUMP JUMPDEST DUP1 PUSH4 0x50E30042 GT PUSH2 0x159 JUMPI DUP1 PUSH4 0x88811F8D GT PUSH2 0x133 JUMPI DUP1 PUSH4 0x88811F8D EQ PUSH2 0x3D5 JUMPI DUP1 PUSH4 0x8A9CFD55 EQ PUSH2 0x412 JUMPI DUP1 PUSH4 0x8EAD837B EQ PUSH2 0x43B JUMPI DUP1 PUSH4 0x95F4513A EQ PUSH2 0x478 JUMPI PUSH2 0x1B7 JUMP JUMPDEST DUP1 PUSH4 0x50E30042 EQ PUSH2 0x31E JUMPI DUP1 PUSH4 0x5195AFA5 EQ PUSH2 0x35B JUMPI DUP1 PUSH4 0x71929C51 EQ PUSH2 0x398 JUMPI PUSH2 0x1B7 JUMP JUMPDEST DUP1 PUSH4 0x31287C31 GT PUSH2 0x195 JUMPI DUP1 PUSH4 0x31287C31 EQ PUSH2 0x23E JUMPI DUP1 PUSH4 0x334E3DE2 EQ PUSH2 0x27B JUMPI DUP1 PUSH4 0x43999AC2 EQ PUSH2 0x2B8 JUMPI DUP1 PUSH4 0x4FD49044 EQ PUSH2 0x2E1 JUMPI PUSH2 0x1B7 JUMP JUMPDEST DUP1 PUSH4 0x92A0A8A EQ PUSH2 0x1BC JUMPI DUP1 PUSH4 0x2D7788DB EQ PUSH2 0x1F9 JUMPI DUP1 PUSH4 0x2E1A7D4D EQ PUSH2 0x222 JUMPI JUMPDEST PUSH1 0x0 DUP1 REVERT JUMPDEST CALLVALUE DUP1 ISZERO PUSH2 0x1C8 JUMPI PUSH1 0x0 DUP1 REVERT JUMPDEST POP PUSH2 0x1E3 PUSH1 0x4 DUP1 CALLDATASIZE SUB DUP2 ADD SWAP1 PUSH2 0x1DE SWAP2 SWAP1 PUSH2 0x2DCA JUMP JUMPDEST PUSH2 0x743 JUMP JUMPDEST PUSH1 0x40 MLOAD PUSH2 0x1F0 SWAP2 SWAP1 PUSH2 0x2E19 JUMP JUMPDEST PUSH1 0x40 MLOAD DUP1 SWAP2 SUB SWAP1 RETURN JUMPDEST CALLVALUE DUP1 ISZERO PUSH2 0x205 JUMPI PUSH1 0x0 DUP1 REVERT JUMPDEST POP PUSH2 0x220 PUSH1 0x4 DUP1 CALLDATASIZE SUB DUP2 ADD SWAP1 PUSH2 0x21B SWAP2 SWAP1 PUSH2 0x2E34 JUMP JUMPDEST PUSH2 0x791 JUMP JUMPDEST STOP JUMPDEST PUSH2 0x23C PUSH1 0x4 DUP1 CALLDATASIZE SUB DUP2 ADD SWAP1 PUSH2 0x237 SWAP2 SWAP1 PUSH2 0x2E34 JUMP JUMPDEST PUSH2 0x86C JUMP JUMPDEST STOP JUMPDEST CALLVALUE DUP1 ISZERO PUSH2 0x24A JUMPI PUSH1 0x0 DUP1 REVERT JUMPDEST POP PUSH2 0x265 PUSH1 0x4 DUP1 CALLDATASIZE SUB DUP2 ADD SWAP1 PUSH2 0x260 SWAP2 SWAP1 PUSH2 0x2DCA JUMP JUMPDEST PUSH2 0x9D0 JUMP JUMPDEST PUSH1 0x40 MLOAD PUSH2 0x272 SWAP2 SWAP1 PUSH2 0x2E19 JUMP JUMPDEST PUSH1 0x40 MLOAD DUP1 SWAP2 SUB SWAP1 RETURN JUMPDEST CALLVALUE DUP1 ISZERO PUSH2 0x287 JUMPI PUSH1 0x0 DUP1 REVERT JUMPDEST POP PUSH2 0x2A2 PUSH1 0x4 DUP1 CALLDATASIZE SUB DUP2 ADD SWAP1 PUSH2 0x29D SWAP2 SWAP1 PUSH2 0x2E61 JUMP JUMPDEST PUSH2 0xA1E JUMP JUMPDEST PUSH1 0x40 MLOAD PUSH2 0x2AF SWAP2 SWAP1 PUSH2 0x2E9D JUMP JUMPDEST PUSH1 0x40 MLOAD DUP1 SWAP2 SUB SWAP1 RETURN JUMPDEST CALLVALUE DUP1 ISZERO PUSH2 0x2C4 JUMPI PUSH1 0x0 DUP1 REVERT JUMPDEST POP PUSH2 0x2DF PUSH1 0x4 DUP1 CALLDATASIZE SUB DUP2 ADD SWAP1 PUSH2 0x2DA SWAP2 SWAP1 PUSH2 0x2E61 JUMP JUMPDEST PUSH2 0xA6A JUMP JUMPDEST STOP JUMPDEST CALLVALUE DUP1 ISZERO PUSH2 0x2ED JUMPI PUSH1 0x0 DUP1 REVERT JUMPDEST POP PUSH2 0x308 PUSH1 0x4 DUP1 CALLDATASIZE SUB DUP2 ADD SWAP1 PUSH2 0x303 SWAP2 SWAP1 PUSH2 0x2DCA JUMP JUMPDEST PUSH2 0xAEF JUMP JUMPDEST PUSH1 0x40 MLOAD PUSH2 0x315 SWAP2 SWAP1 PUSH2 0x2E19 JUMP JUMPDEST PUSH1 0x40 MLOAD DUP1 SWAP2 SUB SWAP1 RETURN JUMPDEST CALLVALUE DUP1 ISZERO PUSH2 0x32A JUMPI PUSH1 0x0 DUP1 REVERT JUMPDEST POP PUSH2 0x345 PUSH1 0x4 DUP1 CALLDATASIZE SUB DUP2 ADD SWAP1 PUSH2 0x340 SWAP2 SWAP1 PUSH2 0x2EB8 JUMP JUMPDEST PUSH2 0xB3D JUMP JUMPDEST PUSH1 0x40 MLOAD PUSH2 0x352 SWAP2 SWAP1 PUSH2 0x2F14 JUMP JUMPDEST PUSH1 0x40 MLOAD DUP1 SWAP2 SUB SWAP1 RETURN JUMPDEST CALLVALUE DUP1 ISZERO PUSH2 0x367 JUMPI PUSH1 0x0 DUP1 REVERT JUMPDEST POP PUSH2 0x382 PUSH1 0x4 DUP1 CALLDATASIZE SUB DUP2 ADD SWAP1 PUSH2 0x37D SWAP2 SWAP1 PUSH2 0x2EB8 JUMP JUMPDEST PUSH2 0xB6C JUMP JUMPDEST PUSH1 0x40 MLOAD PUSH2 0x38F SWAP2 SWAP1 PUSH2 0x2E9D JUMP JUMPDEST PUSH1 0x40 MLOAD DUP1 SWAP2 SUB SWAP1 RETURN JUMPDEST CALLVALUE DUP1 ISZERO PUSH2 0x3A4 JUMPI PUSH1 0x0 DUP1 REVERT JUMPDEST POP PUSH2 0x3BF PUSH1 0x4 DUP1 CALLDATASIZE SUB DUP2 ADD SWAP1 PUSH2 0x3BA SWAP2 SWAP1 PUSH2 0x2E61 JUMP JUMPDEST PUSH2 0xB91 JUMP JUMPDEST PUSH1 0x40 MLOAD PUSH2 0x3CC SWAP2 SWAP1 PUSH2 0x2E9D JUMP JUMPDEST PUSH1 0x40 MLOAD DUP1 SWAP2 SUB SWAP1 RETURN JUMPDEST CALLVALUE DUP1 ISZERO PUSH2 0x3E1 JUMPI PUSH1 0x0 DUP1 REVERT JUMPDEST POP PUSH2 0x3FC PUSH1 0x4 DUP1 CALLDATASIZE SUB DUP2 ADD SWAP1 PUSH2 0x3F7 SWAP2 SWAP1 PUSH2 0x2EB8 JUMP JUMPDEST PUSH2 0xBA9 JUMP JUMPDEST PUSH1 0x40 MLOAD PUSH2 0x409 SWAP2 SWAP1 PUSH2 0x2E9D JUMP JUMPDEST PUSH1 0x40 MLOAD DUP1 SWAP2 SUB SWAP1 RETURN JUMPDEST CALLVALUE DUP1 ISZERO PUSH2 0x41E JUMPI PUSH1 0x0 DUP1 REVERT JUMPDEST POP PUSH2 0x439 PUSH1 0x4 DUP1 CALLDATASIZE SUB DUP2 ADD SWAP1 PUSH2 0x434 SWAP2 SWAP1 PUSH2 0x3075 JUMP JUMPDEST PUSH2 0xBCE JUMP JUMPDEST STOP JUMPDEST CALLVALUE DUP1 ISZERO PUSH2 0x447 JUMPI PUSH1 0x0 DUP1 REVERT JUMPDEST POP PUSH2 0x462 PUSH1 0x4 DUP1 CALLDATASIZE SUB DUP2 ADD SWAP1 PUSH2 0x45D SWAP2 SWAP1 PUSH2 0x2E61 JUMP JUMPDEST PUSH2 0xD1D JUMP JUMPDEST PUSH1 0x40 MLOAD PUSH2 0x46F SWAP2 SWAP1 PUSH2 0x2E9D JUMP JUMPDEST PUSH1 0x40 MLOAD DUP1 SWAP2 SUB SWAP1 RETURN JUMPDEST PUSH2 0x492 PUSH1 0x4 DUP1 CALLDATASIZE SUB DUP2 ADD SWAP1 PUSH2 0x48D SWAP2 SWAP1 PUSH2 0x3122 JUMP JUMPDEST PUSH2 0xD68 JUMP JUMPDEST STOP JUMPDEST CALLVALUE DUP1 ISZERO PUSH2 0x4A0 JUMPI PUSH1 0x0 DUP1 REVERT JUMPDEST POP PUSH2 0x4BB PUSH1 0x4 DUP1 CALLDATASIZE SUB DUP2 ADD SWAP1 PUSH2 0x4B6 SWAP2 SWAP1 PUSH2 0x318E JUMP JUMPDEST PUSH2 0x1075 JUMP JUMPDEST STOP JUMPDEST CALLVALUE DUP1 ISZERO PUSH2 0x4C9 JUMPI PUSH1 0x0 DUP1 REVERT JUMPDEST POP PUSH2 0x4E4 PUSH1 0x4 DUP1 CALLDATASIZE SUB DUP2 ADD SWAP1 PUSH2 0x4DF SWAP2 SWAP1 PUSH2 0x2DCA JUMP JUMPDEST PUSH2 0x11CD JUMP JUMPDEST PUSH1 0x40 MLOAD PUSH2 0x4F4 SWAP5 SWAP4 SWAP3 SWAP2 SWAP1 PUSH2 0x3268 JUMP JUMPDEST PUSH1 0x40 MLOAD DUP1 SWAP2 SUB SWAP1 RETURN JUMPDEST PUSH2 0x505 PUSH2 0x12CF JUMP JUMPDEST STOP JUMPDEST CALLVALUE DUP1 ISZERO PUSH2 0x513 JUMPI PUSH1 0x0 DUP1 REVERT JUMPDEST POP PUSH2 0x52E PUSH1 0x4 DUP1 CALLDATASIZE SUB DUP2 ADD SWAP1 PUSH2 0x529 SWAP2 SWAP1 PUSH2 0x2E61 JUMP JUMPDEST PUSH2 0x13C0 JUMP JUMPDEST PUSH1 0x40 MLOAD PUSH2 0x53B SWAP2 SWAP1 PUSH2 0x2E9D JUMP JUMPDEST PUSH1 0x40 MLOAD DUP1 SWAP2 SUB SWAP1 RETURN JUMPDEST CALLVALUE DUP1 ISZERO PUSH2 0x550 JUMPI PUSH1 0x0 DUP1 REVERT JUMPDEST POP PUSH2 0x56B PUSH1 0x4 DUP1 CALLDATASIZE SUB DUP2 ADD SWAP1 PUSH2 0x566 SWAP2 SWAP1 PUSH2 0x2EB8 JUMP JUMPDEST PUSH2 0x140C JUMP JUMPDEST PUSH1 0x40 MLOAD PUSH2 0x578 SWAP2 SWAP1 PUSH2 0x2E9D JUMP JUMPDEST PUSH1 0x40 MLOAD DUP1 SWAP2 SUB SWAP1 RETURN JUMPDEST PUSH2 0x59B PUSH1 0x4 DUP1 CALLDATASIZE SUB DUP2 ADD SWAP1 PUSH2 0x596 SWAP2 SWAP1 PUSH2 0x3122 JUMP JUMPDEST PUSH2 0x1431 JUMP JUMPDEST STOP JUMPDEST CALLVALUE DUP1 ISZERO PUSH2 0x5A9 JUMPI PUSH1 0x0 DUP1 REVERT JUMPDEST POP PUSH2 0x5C4 PUSH1 0x4 DUP1 CALLDATASIZE SUB DUP2 ADD SWAP1 PUSH2 0x5BF SWAP2 SWAP1 PUSH2 0x2EB8 JUMP JUMPDEST PUSH2 0x192E JUMP JUMPDEST PUSH1 0x40 MLOAD PUSH2 0x5D1 SWAP2 SWAP1 PUSH2 0x2E9D JUMP JUMPDEST PUSH1 0x40 MLOAD DUP1 SWAP2 SUB SWAP1 RETURN JUMPDEST PUSH2 0x5F4 PUSH1 0x4 DUP1 CALLDATASIZE SUB DUP2 ADD SWAP1 PUSH2 0x5EF SWAP2 SWAP1 PUSH2 0x32B4 JUMP JUMPDEST PUSH2 0x1953 JUMP JUMPDEST STOP JUMPDEST CALLVALUE DUP1 ISZERO PUSH2 0x602 JUMPI PUSH1 0x0 DUP1 REVERT JUMPDEST POP PUSH2 0x61D PUSH1 0x4 DUP1 CALLDATASIZE SUB DUP2 ADD SWAP1 PUSH2 0x618 SWAP2 SWAP1 PUSH2 0x2EB8 JUMP JUMPDEST PUSH2 0x1E7F JUMP JUMPDEST PUSH1 0x40 MLOAD PUSH2 0x62A SWAP2 SWAP1 PUSH2 0x2E9D JUMP JUMPDEST PUSH1 0x40 MLOAD DUP1 SWAP2 SUB SWAP1 RETURN JUMPDEST CALLVALUE DUP1 ISZERO PUSH2 0x63F JUMPI PUSH1 0x0 DUP1 REVERT JUMPDEST POP PUSH2 0x65A PUSH1 0x4 DUP1 CALLDATASIZE SUB DUP2 ADD SWAP1 PUSH2 0x655 SWAP2 SWAP1 PUSH2 0x2E61 JUMP JUMPDEST PUSH2 0x1EA4 JUMP JUMPDEST PUSH1 0x40 MLOAD PUSH2 0x667 SWAP2 SWAP1 PUSH2 0x2E9D JUMP JUMPDEST PUSH1 0x40 MLOAD DUP1 SWAP2 SUB SWAP1 RETURN JUMPDEST CALLVALUE DUP1 ISZERO PUSH2 0x67C JUMPI PUSH1 0x0 DUP1 REVERT JUMPDEST POP PUSH2 0x697 PUSH1 0x4 DUP1 CALLDATASIZE SUB DUP2 ADD SWAP1 PUSH2 0x692 SWAP2 SWAP1 PUSH2 0x2DCA JUMP JUMPDEST PUSH2 0x1EF0 JUMP JUMPDEST PUSH1 0x40 MLOAD PUSH2 0x6A4 SWAP2 SWAP1 PUSH2 0x2E19 JUMP JUMPDEST PUSH1 0x40 MLOAD DUP1 SWAP2 SUB SWAP1 RETURN JUMPDEST PUSH2 0x6C7 PUSH1 0x4 DUP1 CALLDATASIZE SUB DUP2 ADD SWAP1 PUSH2 0x6C2 SWAP2 SWAP1 PUSH2 0x2E34 JUMP JUMPDEST PUSH2 0x1F3E JUMP JUMPDEST STOP JUMPDEST CALLVALUE DUP1 ISZERO PUSH2 0x6D5 JUMPI PUSH1 0x0 DUP1 REVERT JUMPDEST POP PUSH2 0x6F0 PUSH1 0x4 DUP1 CALLDATASIZE SUB DUP2 ADD SWAP1 PUSH2 0x6EB SWAP2 SWAP1 PUSH2 0x2E61 JUMP JUMPDEST PUSH2 0x2CBE JUMP JUMPDEST PUSH1 0x40 MLOAD PUSH2 0x6FD SWAP2 SWAP1 PUSH2 0x2E9D JUMP JUMPDEST PUSH1 0x40 MLOAD DUP1 SWAP2 SUB SWAP1 RETURN JUMPDEST CALLVALUE DUP1 ISZERO PUSH2 0x712 JUMPI PUSH1 0x0 DUP1 REVERT JUMPDEST POP PUSH2 0x72D PUSH1 0x4 DUP1 CALLDATASIZE SUB DUP2 ADD SWAP1 PUSH2 0x728 SWAP2 SWAP1 PUSH2 0x2E61 JUMP JUMPDEST PUSH2 0x2CD6 JUMP JUMPDEST PUSH1 0x40 MLOAD PUSH2 0x73A SWAP2 SWAP1 PUSH2 0x2E9D JUMP JUMPDEST PUSH1 0x40 MLOAD DUP1 SWAP2 SUB SWAP1 RETURN JUMPDEST PUSH1 0xA PUSH1 0x20 MSTORE DUP2 PUSH1 0x0 MSTORE PUSH1 0x40 PUSH1 0x0 KECCAK256 DUP2 DUP2 SLOAD DUP2 LT PUSH2 0x75F JUMPI PUSH1 0x0 DUP1 REVERT JUMPDEST SWAP1 PUSH1 0x0 MSTORE PUSH1 0x20 PUSH1 0x0 KECCAK256 ADD PUSH1 0x0 SWAP2 POP SWAP2 POP SWAP1 SLOAD SWAP1 PUSH2 0x100 EXP SWAP1 DIV PUSH20 0xFFFFFFFFFFFFFFFFFFFFFFFFFFFFFFFFFFFFFFFF AND DUP2 JUMP JUMPDEST PUSH1 0x0 DUP1 PUSH1 0x0 CALLER PUSH20 0xFFFFFFFFFFFFFFFFFFFFFFFFFFFFFFFFFFFFFFFF AND PUSH20 0xFFFFFFFFFFFFFFFFFFFFFFFFFFFFFFFFFFFFFFFF AND DUP2 MSTORE PUSH1 0x20 ADD SWAP1 DUP2 MSTORE PUSH1 0x20 ADD PUSH1 0x0 KECCAK256 DUP3 DUP2 SLOAD DUP2 LT PUSH2 0x7E3 JUMPI PUSH2 0x7E2 PUSH2 0x334B JUMP JUMPDEST JUMPDEST SWAP1 PUSH1 0x0 MSTORE PUSH1 0x20 PUSH1 0x0 KECCAK256 SWAP1 PUSH1 0x3 MUL ADD SWAP1 POP PUSH1 0x0 ISZERO ISZERO DUP2 PUSH1 0x2 ADD PUSH1 0x0 SWAP1 SLOAD SWAP1 PUSH2 0x100 EXP SWAP1 DIV PUSH1 0xFF AND ISZERO ISZERO EQ PUSH2 0x84B JUMPI PUSH1 0x40 MLOAD PUSH32 0x8C379A000000000000000000000000000000000000000000000000000000000 DUP2 MSTORE PUSH1 0x4 ADD PUSH2 0x842 SWAP1 PUSH2 0x33EC JUMP JUMPDEST PUSH1 0x40 MLOAD DUP1 SWAP2 SUB SWAP1 REVERT JUMPDEST PUSH1 0x1 DUP2 PUSH1 0x2 ADD PUSH1 0x0 PUSH2 0x100 EXP DUP2 SLOAD DUP2 PUSH1 0xFF MUL NOT AND SWAP1 DUP4 ISZERO ISZERO MUL OR SWAP1 SSTORE POP POP POP JUMP JUMPDEST PUSH1 0x1 PUSH1 0x0 CALLER PUSH20 0xFFFFFFFFFFFFFFFFFFFFFFFFFFFFFFFFFFFFFFFF AND PUSH20 0xFFFFFFFFFFFFFFFFFFFFFFFFFFFFFFFFFFFFFFFF AND DUP2 MSTORE PUSH1 0x20 ADD SWAP1 DUP2 MSTORE PUSH1 0x20 ADD PUSH1 0x0 KECCAK256 SLOAD DUP2 LT PUSH2 0x8ED JUMPI PUSH1 0x40 MLOAD PUSH32 0x8C379A000000000000000000000000000000000000000000000000000000000 DUP2 MSTORE PUSH1 0x4 ADD PUSH2 0x8E4 SWAP1 PUSH2 0x3458 JUMP JUMPDEST PUSH1 0x40 MLOAD DUP1 SWAP2 SUB SWAP1 REVERT JUMPDEST PUSH1 0x0 DUP2 GT PUSH2 0x930 JUMPI PUSH1 0x40 MLOAD PUSH32 0x8C379A000000000000000000000000000000000000000000000000000000000 DUP2 MSTORE PUSH1 0x4 ADD PUSH2 0x927 SWAP1 PUSH2 0x34EA JUMP JUMPDEST PUSH1 0x40 MLOAD DUP1 SWAP2 SUB SWAP1 REVERT JUMPDEST CALLER PUSH20 0xFFFFFFFFFFFFFFFFFFFFFFFFFFFFFFFFFFFFFFFF AND PUSH2 0x8FC DUP3 SWAP1 DUP2 ISZERO MUL SWAP1 PUSH1 0x40 MLOAD PUSH1 0x0 PUSH1 0x40 MLOAD DUP1 DUP4 SUB DUP2 DUP6 DUP9 DUP9 CALL SWAP4 POP POP POP POP ISZERO DUP1 ISZERO PUSH2 0x976 JUMPI RETURNDATASIZE PUSH1 0x0 DUP1 RETURNDATACOPY RETURNDATASIZE PUSH1 0x0 REVERT JUMPDEST POP DUP1 PUSH1 0x1 PUSH1 0x0 CALLER PUSH20 0xFFFFFFFFFFFFFFFFFFFFFFFFFFFFFFFFFFFFFFFF AND PUSH20 0xFFFFFFFFFFFFFFFFFFFFFFFFFFFFFFFFFFFFFFFF AND DUP2 MSTORE PUSH1 0x20 ADD SWAP1 DUP2 MSTORE PUSH1 0x20 ADD PUSH1 0x0 KECCAK256 PUSH1 0x0 DUP3 DUP3 SLOAD PUSH2 0x9C6 SWAP2 SWAP1 PUSH2 0x3539 JUMP JUMPDEST SWAP3 POP POP DUP2 SWAP1 SSTORE POP POP JUMP JUMPDEST PUSH1 0xB PUSH1 0x20 MSTORE DUP2 PUSH1 0x0 MSTORE PUSH1 0x40 PUSH1 0x0 KECCAK256 DUP2 DUP2 SLOAD DUP2 LT PUSH2 0x9EC JUMPI PUSH1 0x0 DUP1 REVERT JUMPDEST SWAP1 PUSH1 0x0 MSTORE PUSH1 0x20 PUSH1 0x0 KECCAK256 ADD PUSH1 0x0 SWAP2 POP SWAP2 POP SWAP1 SLOAD SWAP1 PUSH2 0x100 EXP SWAP1 DIV PUSH20 0xFFFFFFFFFFFFFFFFFFFFFFFFFFFFFFFFFFFFFFFF AND DUP2 JUMP JUMPDEST PUSH1 0x0 PUSH1 0xB PUSH1 0x0 DUP4 PUSH20 0xFFFFFFFFFFFFFFFFFFFFFFFFFFFFFFFFFFFFFFFF AND PUSH20 0xFFFFFFFFFFFFFFFFFFFFFFFFFFFFFFFFFFFFFFFF AND DUP2 MSTORE PUSH1 0x20 ADD SWAP1 DUP2 MSTORE PUSH1 0x20 ADD PUSH1 0x0 KECCAK256 DUP1 SLOAD SWAP1 POP SWAP1 POP SWAP2 SWAP1 POP JUMP JUMPDEST PUSH1 0x0 PUSH1 0x3 PUSH1 0x0 CALLER PUSH20 0xFFFFFFFFFFFFFFFFFFFFFFFFFFFFFFFFFFFFFFFF AND PUSH20 0xFFFFFFFFFFFFFFFFFFFFFFFFFFFFFFFFFFFFFFFF AND DUP2 MSTORE PUSH1 0x20 ADD SWAP1 DUP2 MSTORE PUSH1 0x20 ADD PUSH1 0x0 KECCAK256 PUSH1 0x0 DUP4 PUSH20 0xFFFFFFFFFFFFFFFFFFFFFFFFFFFFFFFFFFFFFFFF AND PUSH20 0xFFFFFFFFFFFFFFFFFFFFFFFFFFFFFFFFFFFFFFFF AND DUP2 MSTORE PUSH1 0x20 ADD SWAP1 DUP2 MSTORE PUSH1 0x20 ADD PUSH1 0x0 KECCAK256 DUP2 SWAP1 SSTORE POP POP JUMP JUMPDEST PUSH1 0x8 PUSH1 0x20 MSTORE DUP2 PUSH1 0x0 MSTORE PUSH1 0x40 PUSH1 0x0 KECCAK256 DUP2 DUP2 SLOAD DUP2 LT PUSH2 0xB0B JUMPI PUSH1 0x0 DUP1 REVERT JUMPDEST SWAP1 PUSH1 0x0 MSTORE PUSH1 0x20 PUSH1 0x0 KECCAK256 ADD PUSH1 0x0 SWAP2 POP SWAP2 POP SWAP1 SLOAD SWAP1 PUSH2 0x100 EXP SWAP1 DIV PUSH20 0xFFFFFFFFFFFFFFFFFFFFFFFFFFFFFFFFFFFFFFFF AND DUP2 JUMP JUMPDEST PUSH1 0x7 PUSH1 0x20 MSTORE DUP2 PUSH1 0x0 MSTORE PUSH1 0x40 PUSH1 0x0 KECCAK256 PUSH1 0x20 MSTORE DUP1 PUSH1 0x0 MSTORE PUSH1 0x40 PUSH1 0x0 KECCAK256 PUSH1 0x0 SWAP2 POP SWAP2 POP SWAP1 SLOAD SWAP1 PUSH2 0x100 EXP SWAP1 DIV PUSH1 0xFF AND DUP2 JUMP JUMPDEST PUSH1 0x3 PUSH1 0x20 MSTORE DUP2 PUSH1 0x0 MSTORE PUSH1 0x40 PUSH1 0x0 KECCAK256 PUSH1 0x20 MSTORE DUP1 PUSH1 0x0 MSTORE PUSH1 0x40 PUSH1 0x0 KECCAK256 PUSH1 0x0 SWAP2 POP SWAP2 POP POP SLOAD DUP2 JUMP JUMPDEST PUSH1 0xC PUSH1 0x20 MSTORE DUP1 PUSH1 0x0 MSTORE PUSH1 0x40 PUSH1 0x0 KECCAK256 PUSH1 0x0 SWAP2 POP SWAP1 POP SLOAD DUP2 JUMP JUMPDEST PUSH1 0x5 PUSH1 0x20 MSTORE DUP2 PUSH1 0x0 MSTORE PUSH1 0x40 PUSH1 0x0 KECCAK256 PUSH1 0x20 MSTORE DUP1 PUSH1 0x0 MSTORE PUSH1 0x40 PUSH1 0x0 KECCAK256 PUSH1 0x0 SWAP2 POP SWAP2 POP POP SLOAD DUP2 JUMP JUMPDEST CALLER PUSH20 0xFFFFFFFFFFFFFFFFFFFFFFFFFFFFFFFFFFFFFFFF AND DUP2 PUSH20 0xFFFFFFFFFFFFFFFFFFFFFFFFFFFFFFFFFFFFFFFF AND SUB PUSH2 0xC3C JUMPI PUSH1 0x40 MLOAD PUSH32 0x8C379A000000000000000000000000000000000000000000000000000000000 DUP2 MSTORE PUSH1 0x4 ADD PUSH2 0xC33 SWAP1 PUSH2 0x35B9 JUMP JUMPDEST PUSH1 0x40 MLOAD DUP1 SWAP2 SUB SWAP1 REVERT JUMPDEST PUSH1 0x0 DUP1 PUSH1 0x0 DUP4 PUSH20 0xFFFFFFFFFFFFFFFFFFFFFFFFFFFFFFFFFFFFFFFF AND PUSH20 0xFFFFFFFFFFFFFFFFFFFFFFFFFFFFFFFFFFFFFFFF AND DUP2 MSTORE PUSH1 0x20 ADD SWAP1 DUP2 MSTORE PUSH1 0x20 ADD PUSH1 0x0 KECCAK256 PUSH1 0x1 DUP2 PUSH1 0x1 DUP2 SLOAD ADD DUP1 DUP3 SSTORE DUP1 SWAP2 POP POP SUB SWAP1 PUSH1 0x0 MSTORE PUSH1 0x20 PUSH1 0x0 KECCAK256 SWAP1 PUSH1 0x3 MUL ADD SWAP1 POP DUP4 DUP2 PUSH1 0x0 ADD SWAP1 DUP2 PUSH2 0xCAD SWAP2 SWAP1 PUSH2 0x37E5 JUMP JUMPDEST POP DUP3 DUP2 PUSH1 0x1 ADD DUP2 SWAP1 SSTORE POP PUSH1 0x0 DUP2 PUSH1 0x2 ADD PUSH1 0x0 PUSH2 0x100 EXP DUP2 SLOAD DUP2 PUSH1 0xFF MUL NOT AND SWAP1 DUP4 ISZERO ISZERO MUL OR SWAP1 SSTORE POP CALLER DUP2 PUSH1 0x2 ADD PUSH1 0x1 PUSH2 0x100 EXP DUP2 SLOAD DUP2 PUSH20 0xFFFFFFFFFFFFFFFFFFFFFFFFFFFFFFFFFFFFFFFF MUL NOT AND SWAP1 DUP4 PUSH20 0xFFFFFFFFFFFFFFFFFFFFFFFFFFFFFFFFFFFFFFFF AND MUL OR SWAP1 SSTORE POP POP POP POP POP JUMP JUMPDEST PUSH1 0x0 DUP1 PUSH1 0x0 DUP4 PUSH20 0xFFFFFFFFFFFFFFFFFFFFFFFFFFFFFFFFFFFFFFFF AND PUSH20 0xFFFFFFFFFFFFFFFFFFFFFFFFFFFFFFFFFFFFFFFF AND DUP2 MSTORE PUSH1 0x20 ADD SWAP1 DUP2 MSTORE PUSH1 0x20 ADD PUSH1 0x0 KECCAK256 DUP1 SLOAD SWAP1 POP SWAP1 POP SWAP2 SWAP1 POP JUMP JUMPDEST DUP2 PUSH1 0x3 PUSH1 0x0 CALLER PUSH20 0xFFFFFFFFFFFFFFFFFFFFFFFFFFFFFFFFFFFFFFFF AND PUSH20 0xFFFFFFFFFFFFFFFFFFFFFFFFFFFFFFFFFFFFFFFF AND DUP2 MSTORE PUSH1 0x20 ADD SWAP1 DUP2 MSTORE PUSH1 0x20 ADD PUSH1 0x0 KECCAK256 PUSH1 0x0 DUP4 PUSH20 0xFFFFFFFFFFFFFFFFFFFFFFFFFFFFFFFFFFFFFFFF AND PUSH20 0xFFFFFFFFFFFFFFFFFFFFFFFFFFFFFFFFFFFFFFFF AND DUP2 MSTORE PUSH1 0x20 ADD SWAP1 DUP2 MSTORE PUSH1 0x20 ADD PUSH1 0x0 KECCAK256 SLOAD PUSH1 0x2 PUSH1 0x0 CALLER PUSH20 0xFFFFFFFFFFFFFFFFFFFFFFFFFFFFFFFFFFFFFFFF AND PUSH20 0xFFFFFFFFFFFFFFFFFFFFFFFFFFFFFFFFFFFFFFFF AND DUP2 MSTORE PUSH1 0x20 ADD SWAP1 DUP2 MSTORE PUSH1 0x20 ADD PUSH1 0x0 KECCAK256 PUSH1 0x0 DUP5 PUSH20 0xFFFFFFFFFFFFFFFFFFFFFFFFFFFFFFFFFFFFFFFF AND PUSH20 0xFFFFFFFFFFFFFFFFFFFFFFFFFFFFFFFFFFFFFFFF AND DUP2 MSTORE PUSH1 0x20 ADD SWAP1 DUP2 MSTORE PUSH1 0x20 ADD PUSH1 0x0 KECCAK256 SLOAD PUSH2 0xE6D SWAP2 SWAP1 PUSH2 0x3539 JUMP JUMPDEST LT ISZERO PUSH2 0xEAE JUMPI PUSH1 0x40 MLOAD PUSH32 0x8C379A000000000000000000000000000000000000000000000000000000000 DUP2 MSTORE PUSH1 0x4 ADD PUSH2 0xEA5 SWAP1 PUSH2 0x3929 JUMP JUMPDEST PUSH1 0x40 MLOAD DUP1 SWAP2 SUB SWAP1 REVERT JUMPDEST DUP2 PUSH1 0x1 PUSH1 0x0 CALLER PUSH20 0xFFFFFFFFFFFFFFFFFFFFFFFFFFFFFFFFFFFFFFFF AND PUSH20 0xFFFFFFFFFFFFFFFFFFFFFFFFFFFFFFFFFFFFFFFF AND DUP2 MSTORE PUSH1 0x20 ADD SWAP1 DUP2 MSTORE PUSH1 0x20 ADD PUSH1 0x0 KECCAK256 PUSH1 0x0 DUP3 DUP3 SLOAD PUSH2 0xEFD SWAP2 SWAP1 PUSH2 0x3949 JUMP JUMPDEST SWAP3 POP POP DUP2 SWAP1 SSTORE POP DUP2 PUSH1 0x2 PUSH1 0x0 CALLER PUSH20 0xFFFFFFFFFFFFFFFFFFFFFFFFFFFFFFFFFFFFFFFF AND PUSH20 0xFFFFFFFFFFFFFFFFFFFFFFFFFFFFFFFFFFFFFFFF AND DUP2 MSTORE PUSH1 0x20 ADD SWAP1 DUP2 MSTORE PUSH1 0x20 ADD PUSH1 0x0 KECCAK256 PUSH1 0x0 DUP4 PUSH20 0xFFFFFFFFFFFFFFFFFFFFFFFFFFFFFFFFFFFFFFFF AND PUSH20 0xFFFFFFFFFFFFFFFFFFFFFFFFFFFFFFFFFFFFFFFF AND DUP2 MSTORE PUSH1 0x20 ADD SWAP1 DUP2 MSTORE PUSH1 0x20 ADD PUSH1 0x0 KECCAK256 PUSH1 0x0 DUP3 DUP3 SLOAD PUSH2 0xF90 SWAP2 SWAP1 PUSH2 0x3539 JUMP JUMPDEST SWAP3 POP POP DUP2 SWAP1 SSTORE POP DUP2 PUSH1 0x4 PUSH1 0x0 DUP4 PUSH20 0xFFFFFFFFFFFFFFFFFFFFFFFFFFFFFFFFFFFFFFFF AND PUSH20 0xFFFFFFFFFFFFFFFFFFFFFFFFFFFFFFFFFFFFFFFF AND DUP2 MSTORE PUSH1 0x20 ADD SWAP1 DUP2 MSTORE PUSH1 0x20 ADD PUSH1 0x0 KECCAK256 PUSH1 0x0 CALLER PUSH20 0xFFFFFFFFFFFFFFFFFFFFFFFFFFFFFFFFFFFFFFFF AND PUSH20 0xFFFFFFFFFFFFFFFFFFFFFFFFFFFFFFFFFFFFFFFF AND DUP2 MSTORE PUSH1 0x20 ADD SWAP1 DUP2 MSTORE PUSH1 0x20 ADD PUSH1 0x0 KECCAK256 PUSH1 0x0 DUP3 DUP3 SLOAD PUSH2 0x1023 SWAP2 SWAP1 PUSH2 0x3539 JUMP JUMPDEST SWAP3 POP POP DUP2 SWAP1 SSTORE POP CALLER PUSH20 0xFFFFFFFFFFFFFFFFFFFFFFFFFFFFFFFFFFFFFFFF AND PUSH2 0x8FC DUP4 SWAP1 DUP2 ISZERO MUL SWAP1 PUSH1 0x40 MLOAD PUSH1 0x0 PUSH1 0x40 MLOAD DUP1 DUP4 SUB DUP2 DUP6 DUP9 DUP9 CALL SWAP4 POP POP POP POP ISZERO DUP1 ISZERO PUSH2 0x1070 JUMPI RETURNDATASIZE PUSH1 0x0 DUP1 RETURNDATACOPY RETURNDATASIZE PUSH1 0x0 REVERT JUMPDEST POP POP POP JUMP JUMPDEST PUSH1 0x0 PUSH1 0x4 PUSH1 0x0 DUP5 PUSH20 0xFFFFFFFFFFFFFFFFFFFFFFFFFFFFFFFFFFFFFFFF AND PUSH20 0xFFFFFFFFFFFFFFFFFFFFFFFFFFFFFFFFFFFFFFFF AND DUP2 MSTORE PUSH1 0x20 ADD SWAP1 DUP2 MSTORE PUSH1 0x20 ADD PUSH1 0x0 KECCAK256 PUSH1 0x0 CALLER PUSH20 0xFFFFFFFFFFFFFFFFFFFFFFFFFFFFFFFFFFFFFFFF AND PUSH20 0xFFFFFFFFFFFFFFFFFFFFFFFFFFFFFFFFFFFFFFFF AND DUP2 MSTORE PUSH1 0x20 ADD SWAP1 DUP2 MSTORE PUSH1 0x20 ADD PUSH1 0x0 KECCAK256 SLOAD GT PUSH2 0x1134 JUMPI PUSH1 0x40 MLOAD PUSH32 0x8C379A000000000000000000000000000000000000000000000000000000000 DUP2 MSTORE PUSH1 0x4 ADD PUSH2 0x112B SWAP1 PUSH2 0x39C9 JUMP JUMPDEST PUSH1 0x40 MLOAD DUP1 SWAP2 SUB SWAP1 REVERT JUMPDEST DUP1 PUSH1 0x7 PUSH1 0x0 DUP5 PUSH20 0xFFFFFFFFFFFFFFFFFFFFFFFFFFFFFFFFFFFFFFFF AND PUSH20 0xFFFFFFFFFFFFFFFFFFFFFFFFFFFFFFFFFFFFFFFF AND DUP2 MSTORE PUSH1 0x20 ADD SWAP1 DUP2 MSTORE PUSH1 0x20 ADD PUSH1 0x0 KECCAK256 PUSH1 0x0 CALLER PUSH20 0xFFFFFFFFFFFFFFFFFFFFFFFFFFFFFFFFFFFFFFFF AND PUSH20 0xFFFFFFFFFFFFFFFFFFFFFFFFFFFFFFFFFFFFFFFF AND DUP2 MSTORE PUSH1 0x20 ADD SWAP1 DUP2 MSTORE PUSH1 0x20 ADD PUSH1 0x0 KECCAK256 PUSH1 0x0 PUSH2 0x100 EXP DUP2 SLOAD DUP2 PUSH1 0xFF MUL NOT AND SWAP1 DUP4 PUSH1 0xFF AND MUL OR SWAP1 SSTORE POP POP POP JUMP JUMPDEST PUSH1 0x0 PUSH1 0x20 MSTORE DUP2 PUSH1 0x0 MSTORE PUSH1 0x40 PUSH1 0x0 KECCAK256 DUP2 DUP2 SLOAD DUP2 LT PUSH2 0x11E9 JUMPI PUSH1 0x0 DUP1 REVERT JUMPDEST SWAP1 PUSH1 0x0 MSTORE PUSH1 0x20 PUSH1 0x0 KECCAK256 SWAP1 PUSH1 0x3 MUL ADD PUSH1 0x0 SWAP2 POP SWAP2 POP POP DUP1 PUSH1 0x0 ADD DUP1 SLOAD PUSH2 0x120D SWAP1 PUSH2 0x3608 JUMP JUMPDEST DUP1 PUSH1 0x1F ADD PUSH1 0x20 DUP1 SWAP2 DIV MUL PUSH1 0x20 ADD PUSH1 0x40 MLOAD SWAP1 DUP2 ADD PUSH1 0x40 MSTORE DUP1 SWAP3 SWAP2 SWAP1 DUP2 DUP2 MSTORE PUSH1 0x20 ADD DUP3 DUP1 SLOAD PUSH2 0x1239 SWAP1 PUSH2 0x3608 JUMP JUMPDEST DUP1 ISZERO PUSH2 0x1286 JUMPI DUP1 PUSH1 0x1F LT PUSH2 0x125B JUMPI PUSH2 0x100 DUP1 DUP4 SLOAD DIV MUL DUP4 MSTORE SWAP2 PUSH1 0x20 ADD SWAP2 PUSH2 0x1286 JUMP JUMPDEST DUP3 ADD SWAP2 SWAP1 PUSH1 0x0 MSTORE PUSH1 0x20 PUSH1 0x0 KECCAK256 SWAP1 JUMPDEST DUP2 SLOAD DUP2 MSTORE SWAP1 PUSH1 0x1 ADD SWAP1 PUSH1 0x20 ADD DUP1 DUP4 GT PUSH2 0x1269 JUMPI DUP3 SWAP1 SUB PUSH1 0x1F AND DUP3 ADD SWAP2 JUMPDEST POP POP POP POP POP SWAP1 DUP1 PUSH1 0x1 ADD SLOAD SWAP1 DUP1 PUSH1 0x2 ADD PUSH1 0x0 SWAP1 SLOAD SWAP1 PUSH2 0x100 EXP SWAP1 DIV PUSH1 0xFF AND SWAP1 DUP1 PUSH1 0x2 ADD PUSH1 0x1 SWAP1 SLOAD SWAP1 PUSH2 0x100 EXP SWAP1 DIV PUSH20 0xFFFFFFFFFFFFFFFFFFFFFFFFFFFFFFFFFFFFFFFF AND SWAP1 POP DUP5 JUMP JUMPDEST PUSH1 0x0 CALLVALUE GT PUSH2 0x1312 JUMPI PUSH1 0x40 MLOAD PUSH32 0x8C379A000000000000000000000000000000000000000000000000000000000 DUP2 MSTORE PUSH1 0x4 ADD PUSH2 0x1309 SWAP1 PUSH2 0x34EA JUMP JUMPDEST PUSH1 0x40 MLOAD DUP1 SWAP2 SUB SWAP1 REVERT JUMPDEST CALLVALUE PUSH1 0x1 PUSH1 0x0 CALLER PUSH20 0xFFFFFFFFFFFFFFFFFFFFFFFFFFFFFFFFFFFFFFFF AND PUSH20 0xFFFFFFFFFFFFFFFFFFFFFFFFFFFFFFFFFFFFFFFF AND DUP2 MSTORE PUSH1 0x20 ADD SWAP1 DUP2 MSTORE PUSH1 0x20 ADD PUSH1 0x0 KECCAK256 PUSH1 0x0 DUP3 DUP3 SLOAD PUSH2 0x1361 SWAP2 SWAP1 PUSH2 0x3949 JUMP JUMPDEST SWAP3 POP POP DUP2 SWAP1 SSTORE POP CALLVALUE PUSH1 0xC PUSH1 0x0 CALLER PUSH20 0xFFFFFFFFFFFFFFFFFFFFFFFFFFFFFFFFFFFFFFFF AND PUSH20 0xFFFFFFFFFFFFFFFFFFFFFFFFFFFFFFFFFFFFFFFF AND DUP2 MSTORE PUSH1 0x20 ADD SWAP1 DUP2 MSTORE PUSH1 0x20 ADD PUSH1 0x0 KECCAK256 PUSH1 0x0 DUP3 DUP3 SLOAD PUSH2 0x13B7 SWAP2 SWAP1 PUSH2 0x3949 JUMP JUMPDEST SWAP3 POP POP DUP2 SWAP1 SSTORE POP JUMP JUMPDEST PUSH1 0x0 PUSH1 0x9 PUSH1 0x0 DUP4 PUSH20 0xFFFFFFFFFFFFFFFFFFFFFFFFFFFFFFFFFFFFFFFF AND PUSH20 0xFFFFFFFFFFFFFFFFFFFFFFFFFFFFFFFFFFFFFFFF AND DUP2 MSTORE PUSH1 0x20 ADD SWAP1 DUP2 MSTORE PUSH1 0x20 ADD PUSH1 0x0 KECCAK256 DUP1 SLOAD SWAP1 POP SWAP1 POP SWAP2 SWAP1 POP JUMP JUMPDEST PUSH1 0x4 PUSH1 0x20 MSTORE DUP2 PUSH1 0x0 MSTORE PUSH1 0x40 PUSH1 0x0 KECCAK256 PUSH1 0x20 MSTORE DUP1 PUSH1 0x0 MSTORE PUSH1 0x40 PUSH1 0x0 KECCAK256 PUSH1 0x0 SWAP2 POP SWAP2 POP POP SLOAD DUP2 JUMP JUMPDEST PUSH1 0x1 PUSH1 0x0 CALLER PUSH20 0xFFFFFFFFFFFFFFFFFFFFFFFFFFFFFFFFFFFFFFFF AND PUSH20 0xFFFFFFFFFFFFFFFFFFFFFFFFFFFFFFFFFFFFFFFF AND DUP2 MSTORE PUSH1 0x20 ADD SWAP1 DUP2 MSTORE PUSH1 0x20 ADD PUSH1 0x0 KECCAK256 SLOAD DUP3 GT ISZERO PUSH2 0x14B3 JUMPI PUSH1 0x40 MLOAD PUSH32 0x8C379A000000000000000000000000000000000000000000000000000000000 DUP2 MSTORE PUSH1 0x4 ADD PUSH2 0x14AA SWAP1 PUSH2 0x3458 JUMP JUMPDEST PUSH1 0x40 MLOAD DUP1 SWAP2 SUB SWAP1 REVERT JUMPDEST PUSH1 0x0 DUP3 GT PUSH2 0x14F6 JUMPI PUSH1 0x40 MLOAD PUSH32 0x8C379A000000000000000000000000000000000000000000000000000000000 DUP2 MSTORE PUSH1 0x4 ADD PUSH2 0x14ED SWAP1 PUSH2 0x34EA JUMP JUMPDEST PUSH1 0x40 MLOAD DUP1 SWAP2 SUB SWAP1 REVERT JUMPDEST CALLER PUSH20 0xFFFFFFFFFFFFFFFFFFFFFFFFFFFFFFFFFFFFFFFF AND DUP2 PUSH20 0xFFFFFFFFFFFFFFFFFFFFFFFFFFFFFFFFFFFFFFFF AND SUB PUSH2 0x1564 JUMPI PUSH1 0x40 MLOAD PUSH32 0x8C379A000000000000000000000000000000000000000000000000000000000 DUP2 MSTORE PUSH1 0x4 ADD PUSH2 0x155B SWAP1 PUSH2 0x3A5B JUMP JUMPDEST PUSH1 0x40 MLOAD DUP1 SWAP2 SUB SWAP1 REVERT JUMPDEST PUSH1 0x0 PUSH1 0x4 PUSH1 0x0 DUP4 PUSH20 0xFFFFFFFFFFFFFFFFFFFFFFFFFFFFFFFFFFFFFFFF AND PUSH20 0xFFFFFFFFFFFFFFFFFFFFFFFFFFFFFFFFFFFFFFFF AND DUP2 MSTORE PUSH1 0x20 ADD SWAP1 DUP2 MSTORE PUSH1 0x20 ADD PUSH1 0x0 KECCAK256 PUSH1 0x0 CALLER PUSH20 0xFFFFFFFFFFFFFFFFFFFFFFFFFFFFFFFFFFFFFFFF AND PUSH20 0xFFFFFFFFFFFFFFFFFFFFFFFFFFFFFFFFFFFFFFFF AND DUP2 MSTORE PUSH1 0x20 ADD SWAP1 DUP2 MSTORE PUSH1 0x20 ADD PUSH1 0x0 KECCAK256 SLOAD SUB PUSH2 0x1689 JUMPI PUSH1 0xA PUSH1 0x0 CALLER PUSH20 0xFFFFFFFFFFFFFFFFFFFFFFFFFFFFFFFFFFFFFFFF AND PUSH20 0xFFFFFFFFFFFFFFFFFFFFFFFFFFFFFFFFFFFFFFFF AND DUP2 MSTORE PUSH1 0x20 ADD SWAP1 DUP2 MSTORE PUSH1 0x20 ADD PUSH1 0x0 KECCAK256 DUP2 SWAP1 DUP1 PUSH1 0x1 DUP2 SLOAD ADD DUP1 DUP3 SSTORE DUP1 SWAP2 POP POP PUSH1 0x1 SWAP1 SUB SWAP1 PUSH1 0x0 MSTORE PUSH1 0x20 PUSH1 0x0 KECCAK256 ADD PUSH1 0x0 SWAP1 SWAP2 SWAP1 SWAP2 SWAP1 SWAP2 PUSH2 0x100 EXP DUP2 SLOAD DUP2 PUSH20 0xFFFFFFFFFFFFFFFFFFFFFFFFFFFFFFFFFFFFFFFF MUL NOT AND SWAP1 DUP4 PUSH20 0xFFFFFFFFFFFFFFFFFFFFFFFFFFFFFFFFFFFFFFFF AND MUL OR SWAP1 SSTORE POP JUMPDEST PUSH1 0x0 PUSH1 0x2 PUSH1 0x0 CALLER PUSH20 0xFFFFFFFFFFFFFFFFFFFFFFFFFFFFFFFFFFFFFFFF AND PUSH20 0xFFFFFFFFFFFFFFFFFFFFFFFFFFFFFFFFFFFFFFFF AND DUP2 MSTORE PUSH1 0x20 ADD SWAP1 DUP2 MSTORE PUSH1 0x20 ADD PUSH1 0x0 KECCAK256 PUSH1 0x0 DUP4 PUSH20 0xFFFFFFFFFFFFFFFFFFFFFFFFFFFFFFFFFFFFFFFF AND PUSH20 0xFFFFFFFFFFFFFFFFFFFFFFFFFFFFFFFFFFFFFFFF AND DUP2 MSTORE PUSH1 0x20 ADD SWAP1 DUP2 MSTORE PUSH1 0x20 ADD PUSH1 0x0 KECCAK256 SLOAD SUB PUSH2 0x17AE JUMPI PUSH1 0xB PUSH1 0x0 DUP3 PUSH20 0xFFFFFFFFFFFFFFFFFFFFFFFFFFFFFFFFFFFFFFFF AND PUSH20 0xFFFFFFFFFFFFFFFFFFFFFFFFFFFFFFFFFFFFFFFF AND DUP2 MSTORE PUSH1 0x20 ADD SWAP1 DUP2 MSTORE PUSH1 0x20 ADD PUSH1 0x0 KECCAK256 CALLER SWAP1 DUP1 PUSH1 0x1 DUP2 SLOAD ADD DUP1 DUP3 SSTORE DUP1 SWAP2 POP POP PUSH1 0x1 SWAP1 SUB SWAP1 PUSH1 0x0 MSTORE PUSH1 0x20 PUSH1 0x0 KECCAK256 ADD PUSH1 0x0 SWAP1 SWAP2 SWAP1 SWAP2 SWAP1 SWAP2 PUSH2 0x100 EXP DUP2 SLOAD DUP2 PUSH20 0xFFFFFFFFFFFFFFFFFFFFFFFFFFFFFFFFFFFFFFFF MUL NOT AND SWAP1 DUP4 PUSH20 0xFFFFFFFFFFFFFFFFFFFFFFFFFFFFFFFFFFFFFFFF AND MUL OR SWAP1 SSTORE POP JUMPDEST DUP2 PUSH1 0x1 PUSH1 0x0 CALLER PUSH20 0xFFFFFFFFFFFFFFFFFFFFFFFFFFFFFFFFFFFFFFFF AND PUSH20 0xFFFFFFFFFFFFFFFFFFFFFFFFFFFFFFFFFFFFFFFF AND DUP2 MSTORE PUSH1 0x20 ADD SWAP1 DUP2 MSTORE PUSH1 0x20 ADD PUSH1 0x0 KECCAK256 PUSH1 0x0 DUP3 DUP3 SLOAD PUSH2 0x17FD SWAP2 SWAP1 PUSH2 0x3539 JUMP JUMPDEST SWAP3 POP POP DUP2 SWAP1 SSTORE POP DUP2 PUSH1 0x2 PUSH1 0x0 CALLER PUSH20 0xFFFFFFFFFFFFFFFFFFFFFFFFFFFFFFFFFFFFFFFF AND PUSH20 0xFFFFFFFFFFFFFFFFFFFFFFFFFFFFFFFFFFFFFFFF AND DUP2 MSTORE PUSH1 0x20 ADD SWAP1 DUP2 MSTORE PUSH1 0x20 ADD PUSH1 0x0 KECCAK256 PUSH1 0x0 DUP4 PUSH20 0xFFFFFFFFFFFFFFFFFFFFFFFFFFFFFFFFFFFFFFFF AND PUSH20 0xFFFFFFFFFFFFFFFFFFFFFFFFFFFFFFFFFFFFFFFF AND DUP2 MSTORE PUSH1 0x20 ADD SWAP1 DUP2 MSTORE PUSH1 0x20 ADD PUSH1 0x0 KECCAK256 PUSH1 0x0 DUP3 DUP3 SLOAD PUSH2 0x1890 SWAP2 SWAP1 PUSH2 0x3949 JUMP JUMPDEST SWAP3 POP POP DUP2 SWAP1 SSTORE POP DUP2 PUSH1 0x4 PUSH1 0x0 DUP4 PUSH20 0xFFFFFFFFFFFFFFFFFFFFFFFFFFFFFFFFFFFFFFFF AND PUSH20 0xFFFFFFFFFFFFFFFFFFFFFFFFFFFFFFFFFFFFFFFF AND DUP2 MSTORE PUSH1 0x20 ADD SWAP1 DUP2 MSTORE PUSH1 0x20 ADD PUSH1 0x0 KECCAK256 PUSH1 0x0 CALLER PUSH20 0xFFFFFFFFFFFFFFFFFFFFFFFFFFFFFFFFFFFFFFFF AND PUSH20 0xFFFFFFFFFFFFFFFFFFFFFFFFFFFFFFFFFFFFFFFF AND DUP2 MSTORE PUSH1 0x20 ADD SWAP1 DUP2 MSTORE PUSH1 0x20 ADD PUSH1 0x0 KECCAK256 PUSH1 0x0 DUP3 DUP3 SLOAD PUSH2 0x1923 SWAP2 SWAP1 PUSH2 0x3949 JUMP JUMPDEST SWAP3 POP POP DUP2 SWAP1 SSTORE POP POP POP JUMP JUMPDEST PUSH1 0x2 PUSH1 0x20 MSTORE DUP2 PUSH1 0x0 MSTORE PUSH1 0x40 PUSH1 0x0 KECCAK256 PUSH1 0x20 MSTORE DUP1 PUSH1 0x0 MSTORE PUSH1 0x40 PUSH1 0x0 KECCAK256 PUSH1 0x0 SWAP2 POP SWAP2 POP POP SLOAD DUP2 JUMP JUMPDEST PUSH1 0x1 PUSH1 0x0 CALLER PUSH20 0xFFFFFFFFFFFFFFFFFFFFFFFFFFFFFFFFFFFFFFFF AND PUSH20 0xFFFFFFFFFFFFFFFFFFFFFFFFFFFFFFFFFFFFFFFF AND DUP2 MSTORE PUSH1 0x20 ADD SWAP1 DUP2 MSTORE PUSH1 0x20 ADD PUSH1 0x0 KECCAK256 SLOAD DUP5 LT PUSH2 0x19D4 JUMPI PUSH1 0x40 MLOAD PUSH32 0x8C379A000000000000000000000000000000000000000000000000000000000 DUP2 MSTORE PUSH1 0x4 ADD PUSH2 0x19CB SWAP1 PUSH2 0x3458 JUMP JUMPDEST PUSH1 0x40 MLOAD DUP1 SWAP2 SUB SWAP1 REVERT JUMPDEST PUSH1 0x0 DUP5 GT PUSH2 0x1A17 JUMPI PUSH1 0x40 MLOAD PUSH32 0x8C379A000000000000000000000000000000000000000000000000000000000 DUP2 MSTORE PUSH1 0x4 ADD PUSH2 0x1A0E SWAP1 PUSH2 0x34EA JUMP JUMPDEST PUSH1 0x40 MLOAD DUP1 SWAP2 SUB SWAP1 REVERT JUMPDEST CALLER PUSH20 0xFFFFFFFFFFFFFFFFFFFFFFFFFFFFFFFFFFFFFFFF AND DUP6 PUSH20 0xFFFFFFFFFFFFFFFFFFFFFFFFFFFFFFFFFFFFFFFF AND SUB PUSH2 0x1A85 JUMPI PUSH1 0x40 MLOAD PUSH32 0x8C379A000000000000000000000000000000000000000000000000000000000 DUP2 MSTORE PUSH1 0x4 ADD PUSH2 0x1A7C SWAP1 PUSH2 0x3AC7 JUMP JUMPDEST PUSH1 0x40 MLOAD DUP1 SWAP2 SUB SWAP1 REVERT JUMPDEST DUP5 PUSH20 0xFFFFFFFFFFFFFFFFFFFFFFFFFFFFFFFFFFFFFFFF AND PUSH2 0x8FC DUP6 SWAP1 DUP2 ISZERO MUL SWAP1 PUSH1 0x40 MLOAD PUSH1 0x0 PUSH1 0x40 MLOAD DUP1 DUP4 SUB DUP2 DUP6 DUP9 DUP9 CALL SWAP4 POP POP POP POP ISZERO DUP1 ISZERO PUSH2 0x1ACB JUMPI RETURNDATASIZE PUSH1 0x0 DUP1 RETURNDATACOPY RETURNDATASIZE PUSH1 0x0 REVERT JUMPDEST POP DUP4 PUSH1 0x1 PUSH1 0x0 CALLER PUSH20 0xFFFFFFFFFFFFFFFFFFFFFFFFFFFFFFFFFFFFFFFF AND PUSH20 0xFFFFFFFFFFFFFFFFFFFFFFFFFFFFFFFFFFFFFFFF AND DUP2 MSTORE PUSH1 0x20 ADD SWAP1 DUP2 MSTORE PUSH1 0x20 ADD PUSH1 0x0 KECCAK256 PUSH1 0x0 DUP3 DUP3 SLOAD PUSH2 0x1B1B SWAP2 SWAP1 PUSH2 0x3539 JUMP JUMPDEST SWAP3 POP POP DUP2 SWAP1 SSTORE POP PUSH1 0x0 PUSH1 0x5 PUSH1 0x0 CALLER PUSH20 0xFFFFFFFFFFFFFFFFFFFFFFFFFFFFFFFFFFFFFFFF AND PUSH20 0xFFFFFFFFFFFFFFFFFFFFFFFFFFFFFFFFFFFFFFFF AND DUP2 MSTORE PUSH1 0x20 ADD SWAP1 DUP2 MSTORE PUSH1 0x20 ADD PUSH1 0x0 KECCAK256 PUSH1 0x0 DUP8 PUSH20 0xFFFFFFFFFFFFFFFFFFFFFFFFFFFFFFFFFFFFFFFF AND PUSH20 0xFFFFFFFFFFFFFFFFFFFFFFFFFFFFFFFFFFFFFFFF AND DUP2 MSTORE PUSH1 0x20 ADD SWAP1 DUP2 MSTORE PUSH1 0x20 ADD PUSH1 0x0 KECCAK256 SLOAD SUB PUSH2 0x1CE7 JUMPI PUSH1 0x8 PUSH1 0x0 CALLER PUSH20 0xFFFFFFFFFFFFFFFFFFFFFFFFFFFFFFFFFFFFFFFF AND PUSH20 0xFFFFFFFFFFFFFFFFFFFFFFFFFFFFFFFFFFFFFFFF AND DUP2 MSTORE PUSH1 0x20 ADD SWAP1 DUP2 MSTORE PUSH1 0x20 ADD PUSH1 0x0 KECCAK256 DUP6 SWAP1 DUP1 PUSH1 0x1 DUP2 SLOAD ADD DUP1 DUP3 SSTORE DUP1 SWAP2 POP POP PUSH1 0x1 SWAP1 SUB SWAP1 PUSH1 0x0 MSTORE PUSH1 0x20 PUSH1 0x0 KECCAK256 ADD PUSH1 0x0 SWAP1 SWAP2 SWAP1 SWAP2 SWAP1 SWAP2 PUSH2 0x100 EXP DUP2 SLOAD DUP2 PUSH20 0xFFFFFFFFFFFFFFFFFFFFFFFFFFFFFFFFFFFFFFFF MUL NOT AND SWAP1 DUP4 PUSH20 0xFFFFFFFFFFFFFFFFFFFFFFFFFFFFFFFFFFFFFFFF AND MUL OR SWAP1 SSTORE POP PUSH1 0x9 PUSH1 0x0 DUP7 PUSH20 0xFFFFFFFFFFFFFFFFFFFFFFFFFFFFFFFFFFFFFFFF AND PUSH20 0xFFFFFFFFFFFFFFFFFFFFFFFFFFFFFFFFFFFFFFFF AND DUP2 MSTORE PUSH1 0x20 ADD SWAP1 DUP2 MSTORE PUSH1 0x20 ADD PUSH1 0x0 KECCAK256 CALLER SWAP1 DUP1 PUSH1 0x1 DUP2 SLOAD ADD DUP1 DUP3 SSTORE DUP1 SWAP2 POP POP PUSH1 0x1 SWAP1 SUB SWAP1 PUSH1 0x0 MSTORE PUSH1 0x20 PUSH1 0x0 KECCAK256 ADD PUSH1 0x0 SWAP1 SWAP2 SWAP1 SWAP2 SWAP1 SWAP2 PUSH2 0x100 EXP DUP2 SLOAD DUP2 PUSH20 0xFFFFFFFFFFFFFFFFFFFFFFFFFFFFFFFFFFFFFFFF MUL NOT AND SWAP1 DUP4 PUSH20 0xFFFFFFFFFFFFFFFFFFFFFFFFFFFFFFFFFFFFFFFF AND MUL OR SWAP1 SSTORE POP JUMPDEST DUP4 PUSH1 0x5 PUSH1 0x0 CALLER PUSH20 0xFFFFFFFFFFFFFFFFFFFFFFFFFFFFFFFFFFFFFFFF AND PUSH20 0xFFFFFFFFFFFFFFFFFFFFFFFFFFFFFFFFFFFFFFFF AND DUP2 MSTORE PUSH1 0x20 ADD SWAP1 DUP2 MSTORE PUSH1 0x20 ADD PUSH1 0x0 KECCAK256 PUSH1 0x0 DUP8 PUSH20 0xFFFFFFFFFFFFFFFFFFFFFFFFFFFFFFFFFFFFFFFF AND PUSH20 0xFFFFFFFFFFFFFFFFFFFFFFFFFFFFFFFFFFFFFFFF AND DUP2 MSTORE PUSH1 0x20 ADD SWAP1 DUP2 MSTORE PUSH1 0x20 ADD PUSH1 0x0 KECCAK256 PUSH1 0x0 DUP3 DUP3 SLOAD PUSH2 0x1D73 SWAP2 SWAP1 PUSH2 0x3949 JUMP JUMPDEST SWAP3 POP POP DUP2 SWAP1 SSTORE POP DUP4 PUSH1 0x6 PUSH1 0x0 DUP8 PUSH20 0xFFFFFFFFFFFFFFFFFFFFFFFFFFFFFFFFFFFFFFFF AND PUSH20 0xFFFFFFFFFFFFFFFFFFFFFFFFFFFFFFFFFFFFFFFF AND DUP2 MSTORE PUSH1 0x20 ADD SWAP1 DUP2 MSTORE PUSH1 0x20 ADD PUSH1 0x0 KECCAK256 PUSH1 0x0 CALLER PUSH20 0xFFFFFFFFFFFFFFFFFFFFFFFFFFFFFFFFFFFFFFFF AND PUSH20 0xFFFFFFFFFFFFFFFFFFFFFFFFFFFFFFFFFFFFFFFF AND DUP2 MSTORE PUSH1 0x20 ADD SWAP1 DUP2 MSTORE PUSH1 0x20 ADD PUSH1 0x0 KECCAK256 PUSH1 0x0 DUP3 DUP3 SLOAD PUSH2 0x1E06 SWAP2 SWAP1 PUSH2 0x3949 JUMP JUMPDEST SWAP3 POP POP DUP2 SWAP1 SSTORE POP DUP5 PUSH20 0xFFFFFFFFFFFFFFFFFFFFFFFFFFFFFFFFFFFFFFFF AND CALLER PUSH20 0xFFFFFFFFFFFFFFFFFFFFFFFFFFFFFFFFFFFFFFFF AND PUSH32 0xA32C156F4B3B8A11A69A7CE04D9290F328629E9BA578B036DF29793CCEED6EC9 DUP7 DUP7 DUP7 DUP7 PUSH1 0x40 MLOAD PUSH2 0x1E70 SWAP5 SWAP4 SWAP3 SWAP2 SWAP1 PUSH2 0x3AE7 JUMP JUMPDEST PUSH1 0x40 MLOAD DUP1 SWAP2 SUB SWAP1 LOG3 POP POP POP POP POP JUMP JUMPDEST PUSH1 0x6 PUSH1 0x20 MSTORE DUP2 PUSH1 0x0 MSTORE PUSH1 0x40 PUSH1 0x0 KECCAK256 PUSH1 0x20 MSTORE DUP1 PUSH1 0x0 MSTORE PUSH1 0x40 PUSH1 0x0 KECCAK256 PUSH1 0x0 SWAP2 POP SWAP2 POP POP SLOAD DUP2 JUMP JUMPDEST PUSH1 0x0 PUSH1 0x8 PUSH1 0x0 DUP4 PUSH20 0xFFFFFFFFFFFFFFFFFFFFFFFFFFFFFFFFFFFFFFFF AND PUSH20 0xFFFFFFFFFFFFFFFFFFFFFFFFFFFFFFFFFFFFFFFF AND DUP2 MSTORE PUSH1 0x20 ADD SWAP1 DUP2 MSTORE PUSH1 0x20 ADD PUSH1 0x0 KECCAK256 DUP1 SLOAD SWAP1 POP SWAP1 POP SWAP2 SWAP1 POP JUMP JUMPDEST PUSH1 0x9 PUSH1 0x20 MSTORE DUP2 PUSH1 0x0 MSTORE PUSH1 0x40 PUSH1 0x0 KECCAK256 DUP2 DUP2 SLOAD DUP2 LT PUSH2 0x1F0C JUMPI PUSH1 0x0 DUP1 REVERT JUMPDEST SWAP1 PUSH1 0x0 MSTORE PUSH1 0x20 PUSH1 0x0 KECCAK256 ADD PUSH1 0x0 SWAP2 POP SWAP2 POP SWAP1 SLOAD SWAP1 PUSH2 0x100 EXP SWAP1 DIV PUSH20 0xFFFFFFFFFFFFFFFFFFFFFFFFFFFFFFFFFFFFFFFF AND DUP2 JUMP JUMPDEST PUSH1 0x0 DUP1 PUSH1 0x0 CALLER PUSH20 0xFFFFFFFFFFFFFFFFFFFFFFFFFFFFFFFFFFFFFFFF AND PUSH20 0xFFFFFFFFFFFFFFFFFFFFFFFFFFFFFFFFFFFFFFFF AND DUP2 MSTORE PUSH1 0x20 ADD SWAP1 DUP2 MSTORE PUSH1 0x20 ADD PUSH1 0x0 KECCAK256 DUP3 DUP2 SLOAD DUP2 LT PUSH2 0x1F90 JUMPI PUSH2 0x1F8F PUSH2 0x334B JUMP JUMPDEST JUMPDEST SWAP1 PUSH1 0x0 MSTORE PUSH1 0x20 PUSH1 0x0 KECCAK256 SWAP1 PUSH1 0x3 MUL ADD SWAP1 POP PUSH1 0x0 ISZERO ISZERO DUP2 PUSH1 0x2 ADD PUSH1 0x0 SWAP1 SLOAD SWAP1 PUSH2 0x100 EXP SWAP1 DIV PUSH1 0xFF AND ISZERO ISZERO EQ PUSH2 0x1FF8 JUMPI PUSH1 0x40 MLOAD PUSH32 0x8C379A000000000000000000000000000000000000000000000000000000000 DUP2 MSTORE PUSH1 0x4 ADD PUSH2 0x1FEF SWAP1 PUSH2 0x33EC JUMP JUMPDEST PUSH1 0x40 MLOAD DUP1 SWAP2 SUB SWAP1 REVERT JUMPDEST PUSH1 0x1 PUSH1 0x0 CALLER PUSH20 0xFFFFFFFFFFFFFFFFFFFFFFFFFFFFFFFFFFFFFFFF AND PUSH20 0xFFFFFFFFFFFFFFFFFFFFFFFFFFFFFFFFFFFFFFFF AND DUP2 MSTORE PUSH1 0x20 ADD SWAP1 DUP2 MSTORE PUSH1 0x20 ADD PUSH1 0x0 KECCAK256 SLOAD PUSH1 0x3 PUSH1 0x0 CALLER PUSH20 0xFFFFFFFFFFFFFFFFFFFFFFFFFFFFFFFFFFFFFFFF AND PUSH20 0xFFFFFFFFFFFFFFFFFFFFFFFFFFFFFFFFFFFFFFFF AND DUP2 MSTORE PUSH1 0x20 ADD SWAP1 DUP2 MSTORE PUSH1 0x20 ADD PUSH1 0x0 KECCAK256 PUSH1 0x0 DUP4 PUSH1 0x2 ADD PUSH1 0x1 SWAP1 SLOAD SWAP1 PUSH2 0x100 EXP SWAP1 DIV PUSH20 0xFFFFFFFFFFFFFFFFFFFFFFFFFFFFFFFFFFFFFFFF AND PUSH20 0xFFFFFFFFFFFFFFFFFFFFFFFFFFFFFFFFFFFFFFFF AND PUSH20 0xFFFFFFFFFFFFFFFFFFFFFFFFFFFFFFFFFFFFFFFF AND DUP2 MSTORE PUSH1 0x20 ADD SWAP1 DUP2 MSTORE PUSH1 0x20 ADD PUSH1 0x0 KECCAK256 SLOAD PUSH1 0x2 PUSH1 0x0 CALLER PUSH20 0xFFFFFFFFFFFFFFFFFFFFFFFFFFFFFFFFFFFFFFFF AND PUSH20 0xFFFFFFFFFFFFFFFFFFFFFFFFFFFFFFFFFFFFFFFF AND DUP2 MSTORE PUSH1 0x20 ADD SWAP1 DUP2 MSTORE PUSH1 0x20 ADD PUSH1 0x0 KECCAK256 PUSH1 0x0 DUP5 PUSH1 0x2 ADD PUSH1 0x1 SWAP1 SLOAD SWAP1 PUSH2 0x100 EXP SWAP1 DIV PUSH20 0xFFFFFFFFFFFFFFFFFFFFFFFFFFFFFFFFFFFFFFFF AND PUSH20 0xFFFFFFFFFFFFFFFFFFFFFFFFFFFFFFFFFFFFFFFF AND PUSH20 0xFFFFFFFFFFFFFFFFFFFFFFFFFFFFFFFFFFFFFFFF AND DUP2 MSTORE PUSH1 0x20 ADD SWAP1 DUP2 MSTORE PUSH1 0x20 ADD PUSH1 0x0 KECCAK256 SLOAD PUSH2 0x2184 SWAP2 SWAP1 PUSH2 0x3539 JUMP JUMPDEST DUP3 PUSH1 0x1 ADD SLOAD PUSH2 0x2193 SWAP2 SWAP1 PUSH2 0x3539 JUMP JUMPDEST GT ISZERO PUSH2 0x21D4 JUMPI PUSH1 0x40 MLOAD PUSH32 0x8C379A000000000000000000000000000000000000000000000000000000000 DUP2 MSTORE PUSH1 0x4 ADD PUSH2 0x21CB SWAP1 PUSH2 0x3B7F JUMP JUMPDEST PUSH1 0x40 MLOAD DUP1 SWAP2 SUB SWAP1 REVERT JUMPDEST DUP1 PUSH1 0x1 ADD SLOAD PUSH1 0x3 PUSH1 0x0 CALLER PUSH20 0xFFFFFFFFFFFFFFFFFFFFFFFFFFFFFFFFFFFFFFFF AND PUSH20 0xFFFFFFFFFFFFFFFFFFFFFFFFFFFFFFFFFFFFFFFF AND DUP2 MSTORE PUSH1 0x20 ADD SWAP1 DUP2 MSTORE PUSH1 0x20 ADD PUSH1 0x0 KECCAK256 PUSH1 0x0 DUP4 PUSH1 0x2 ADD PUSH1 0x1 SWAP1 SLOAD SWAP1 PUSH2 0x100 EXP SWAP1 DIV PUSH20 0xFFFFFFFFFFFFFFFFFFFFFFFFFFFFFFFFFFFFFFFF AND PUSH20 0xFFFFFFFFFFFFFFFFFFFFFFFFFFFFFFFFFFFFFFFF AND PUSH20 0xFFFFFFFFFFFFFFFFFFFFFFFFFFFFFFFFFFFFFFFF AND DUP2 MSTORE PUSH1 0x20 ADD SWAP1 DUP2 MSTORE PUSH1 0x20 ADD PUSH1 0x0 KECCAK256 SLOAD PUSH1 0x2 PUSH1 0x0 CALLER PUSH20 0xFFFFFFFFFFFFFFFFFFFFFFFFFFFFFFFFFFFFFFFF AND PUSH20 0xFFFFFFFFFFFFFFFFFFFFFFFFFFFFFFFFFFFFFFFF AND DUP2 MSTORE PUSH1 0x20 ADD SWAP1 DUP2 MSTORE PUSH1 0x20 ADD PUSH1 0x0 KECCAK256 PUSH1 0x0 DUP5 PUSH1 0x2 ADD PUSH1 0x1 SWAP1 SLOAD SWAP1 PUSH2 0x100 EXP SWAP1 DIV PUSH20 0xFFFFFFFFFFFFFFFFFFFFFFFFFFFFFFFFFFFFFFFF AND PUSH20 0xFFFFFFFFFFFFFFFFFFFFFFFFFFFFFFFFFFFFFFFF AND PUSH20 0xFFFFFFFFFFFFFFFFFFFFFFFFFFFFFFFFFFFFFFFF AND DUP2 MSTORE PUSH1 0x20 ADD SWAP1 DUP2 MSTORE PUSH1 0x20 ADD PUSH1 0x0 KECCAK256 SLOAD PUSH2 0x2325 SWAP2 SWAP1 PUSH2 0x3539 JUMP JUMPDEST LT PUSH2 0x2476 JUMPI DUP1 PUSH1 0x2 ADD PUSH1 0x1 SWAP1 SLOAD SWAP1 PUSH2 0x100 EXP SWAP1 DIV PUSH20 0xFFFFFFFFFFFFFFFFFFFFFFFFFFFFFFFFFFFFFFFF AND PUSH20 0xFFFFFFFFFFFFFFFFFFFFFFFFFFFFFFFFFFFFFFFF AND PUSH2 0x8FC DUP3 PUSH1 0x1 ADD SLOAD SWAP1 DUP2 ISZERO MUL SWAP1 PUSH1 0x40 MLOAD PUSH1 0x0 PUSH1 0x40 MLOAD DUP1 DUP4 SUB DUP2 DUP6 DUP9 DUP9 CALL SWAP4 POP POP POP POP ISZERO DUP1 ISZERO PUSH2 0x2398 JUMPI RETURNDATASIZE PUSH1 0x0 DUP1 RETURNDATACOPY RETURNDATASIZE PUSH1 0x0 REVERT JUMPDEST POP PUSH1 0x1 DUP2 PUSH1 0x2 ADD PUSH1 0x0 PUSH2 0x100 EXP DUP2 SLOAD DUP2 PUSH1 0xFF MUL NOT AND SWAP1 DUP4 ISZERO ISZERO MUL OR SWAP1 SSTORE POP DUP1 PUSH1 0x1 ADD SLOAD PUSH1 0x3 PUSH1 0x0 CALLER PUSH20 0xFFFFFFFFFFFFFFFFFFFFFFFFFFFFFFFFFFFFFFFF AND PUSH20 0xFFFFFFFFFFFFFFFFFFFFFFFFFFFFFFFFFFFFFFFF AND DUP2 MSTORE PUSH1 0x20 ADD SWAP1 DUP2 MSTORE PUSH1 0x20 ADD PUSH1 0x0 KECCAK256 PUSH1 0x0 DUP4 PUSH1 0x2 ADD PUSH1 0x1 SWAP1 SLOAD SWAP1 PUSH2 0x100 EXP SWAP1 DIV PUSH20 0xFFFFFFFFFFFFFFFFFFFFFFFFFFFFFFFFFFFFFFFF AND PUSH20 0xFFFFFFFFFFFFFFFFFFFFFFFFFFFFFFFFFFFFFFFF AND PUSH20 0xFFFFFFFFFFFFFFFFFFFFFFFFFFFFFFFFFFFFFFFF AND DUP2 MSTORE PUSH1 0x20 ADD SWAP1 DUP2 MSTORE PUSH1 0x20 ADD PUSH1 0x0 KECCAK256 PUSH1 0x0 DUP3 DUP3 SLOAD PUSH2 0x246A SWAP2 SWAP1 PUSH2 0x3949 JUMP JUMPDEST SWAP3 POP POP DUP2 SWAP1 SSTORE POP PUSH2 0x2CBA JUMP JUMPDEST PUSH1 0x0 PUSH1 0x4 PUSH1 0x0 DUP4 PUSH1 0x2 ADD PUSH1 0x1 SWAP1 SLOAD SWAP1 PUSH2 0x100 EXP SWAP1 DIV PUSH20 0xFFFFFFFFFFFFFFFFFFFFFFFFFFFFFFFFFFFFFFFF AND PUSH20 0xFFFFFFFFFFFFFFFFFFFFFFFFFFFFFFFFFFFFFFFF AND PUSH20 0xFFFFFFFFFFFFFFFFFFFFFFFFFFFFFFFFFFFFFFFF AND DUP2 MSTORE PUSH1 0x20 ADD SWAP1 DUP2 MSTORE PUSH1 0x20 ADD PUSH1 0x0 KECCAK256 PUSH1 0x0 CALLER PUSH20 0xFFFFFFFFFFFFFFFFFFFFFFFFFFFFFFFFFFFFFFFF AND PUSH20 0xFFFFFFFFFFFFFFFFFFFFFFFFFFFFFFFFFFFFFFFF AND DUP2 MSTORE PUSH1 0x20 ADD SWAP1 DUP2 MSTORE PUSH1 0x20 ADD PUSH1 0x0 KECCAK256 SLOAD SUB PUSH2 0x25E3 JUMPI PUSH1 0xA PUSH1 0x0 CALLER PUSH20 0xFFFFFFFFFFFFFFFFFFFFFFFFFFFFFFFFFFFFFFFF AND PUSH20 0xFFFFFFFFFFFFFFFFFFFFFFFFFFFFFFFFFFFFFFFF AND DUP2 MSTORE PUSH1 0x20 ADD SWAP1 DUP2 MSTORE PUSH1 0x20 ADD PUSH1 0x0 KECCAK256 DUP2 PUSH1 0x2 ADD PUSH1 0x1 SWAP1 SLOAD SWAP1 PUSH2 0x100 EXP SWAP1 DIV PUSH20 0xFFFFFFFFFFFFFFFFFFFFFFFFFFFFFFFFFFFFFFFF AND SWAP1 DUP1 PUSH1 0x1 DUP2 SLOAD ADD DUP1 DUP3 SSTORE DUP1 SWAP2 POP POP PUSH1 0x1 SWAP1 SUB SWAP1 PUSH1 0x0 MSTORE PUSH1 0x20 PUSH1 0x0 KECCAK256 ADD PUSH1 0x0 SWAP1 SWAP2 SWAP1 SWAP2 SWAP1 SWAP2 PUSH2 0x100 EXP DUP2 SLOAD DUP2 PUSH20 0xFFFFFFFFFFFFFFFFFFFFFFFFFFFFFFFFFFFFFFFF MUL NOT AND SWAP1 DUP4 PUSH20 0xFFFFFFFFFFFFFFFFFFFFFFFFFFFFFFFFFFFFFFFF AND MUL OR SWAP1 SSTORE POP JUMPDEST PUSH1 0x0 PUSH1 0x2 PUSH1 0x0 CALLER PUSH20 0xFFFFFFFFFFFFFFFFFFFFFFFFFFFFFFFFFFFFFFFF AND PUSH20 0xFFFFFFFFFFFFFFFFFFFFFFFFFFFFFFFFFFFFFFFF AND DUP2 MSTORE PUSH1 0x20 ADD SWAP1 DUP2 MSTORE PUSH1 0x20 ADD PUSH1 0x0 KECCAK256 PUSH1 0x0 DUP4 PUSH1 0x2 ADD PUSH1 0x1 SWAP1 SLOAD SWAP1 PUSH2 0x100 EXP SWAP1 DIV PUSH20 0xFFFFFFFFFFFFFFFFFFFFFFFFFFFFFFFFFFFFFFFF AND PUSH20 0xFFFFFFFFFFFFFFFFFFFFFFFFFFFFFFFFFFFFFFFF AND PUSH20 0xFFFFFFFFFFFFFFFFFFFFFFFFFFFFFFFFFFFFFFFF AND DUP2 MSTORE PUSH1 0x20 ADD SWAP1 DUP2 MSTORE PUSH1 0x20 ADD PUSH1 0x0 KECCAK256 SLOAD SUB PUSH2 0x2750 JUMPI PUSH1 0xB PUSH1 0x0 DUP3 PUSH1 0x2 ADD PUSH1 0x1 SWAP1 SLOAD SWAP1 PUSH2 0x100 EXP SWAP1 DIV PUSH20 0xFFFFFFFFFFFFFFFFFFFFFFFFFFFFFFFFFFFFFFFF AND PUSH20 0xFFFFFFFFFFFFFFFFFFFFFFFFFFFFFFFFFFFFFFFF AND PUSH20 0xFFFFFFFFFFFFFFFFFFFFFFFFFFFFFFFFFFFFFFFF AND DUP2 MSTORE PUSH1 0x20 ADD SWAP1 DUP2 MSTORE PUSH1 0x20 ADD PUSH1 0x0 KECCAK256 CALLER SWAP1 DUP1 PUSH1 0x1 DUP2 SLOAD ADD DUP1 DUP3 SSTORE DUP1 SWAP2 POP POP PUSH1 0x1 SWAP1 SUB SWAP1 PUSH1 0x0 MSTORE PUSH1 0x20 PUSH1 0x0 KECCAK256 ADD PUSH1 0x0 SWAP1 SWAP2 SWAP1 SWAP2 SWAP1 SWAP2 PUSH2 0x100 EXP DUP2 SLOAD DUP2 PUSH20 0xFFFFFFFFFFFFFFFFFFFFFFFFFFFFFFFFFFFFFFFF MUL NOT AND SWAP1 DUP4 PUSH20 0xFFFFFFFFFFFFFFFFFFFFFFFFFFFFFFFFFFFFFFFF AND MUL OR SWAP1 SSTORE POP JUMPDEST DUP1 PUSH1 0x2 ADD PUSH1 0x1 SWAP1 SLOAD SWAP1 PUSH2 0x100 EXP SWAP1 DIV PUSH20 0xFFFFFFFFFFFFFFFFFFFFFFFFFFFFFFFFFFFFFFFF AND PUSH20 0xFFFFFFFFFFFFFFFFFFFFFFFFFFFFFFFFFFFFFFFF AND PUSH2 0x8FC DUP3 PUSH1 0x1 ADD SLOAD SWAP1 DUP2 ISZERO MUL SWAP1 PUSH1 0x40 MLOAD PUSH1 0x0 PUSH1 0x40 MLOAD DUP1 DUP4 SUB DUP2 DUP6 DUP9 DUP9 CALL SWAP4 POP POP POP POP ISZERO DUP1 ISZERO PUSH2 0x27BE JUMPI RETURNDATASIZE PUSH1 0x0 DUP1 RETURNDATACOPY RETURNDATASIZE PUSH1 0x0 REVERT JUMPDEST POP PUSH1 0x1 DUP2 PUSH1 0x2 ADD PUSH1 0x0 PUSH2 0x100 EXP DUP2 SLOAD DUP2 PUSH1 0xFF MUL NOT AND SWAP1 DUP4 ISZERO ISZERO MUL OR SWAP1 SSTORE POP PUSH1 0x3 PUSH1 0x0 CALLER PUSH20 0xFFFFFFFFFFFFFFFFFFFFFFFFFFFFFFFFFFFFFFFF AND PUSH20 0xFFFFFFFFFFFFFFFFFFFFFFFFFFFFFFFFFFFFFFFF AND DUP2 MSTORE PUSH1 0x20 ADD SWAP1 DUP2 MSTORE PUSH1 0x20 ADD PUSH1 0x0 KECCAK256 PUSH1 0x0 DUP3 PUSH1 0x2 ADD PUSH1 0x1 SWAP1 SLOAD SWAP1 PUSH2 0x100 EXP SWAP1 DIV PUSH20 0xFFFFFFFFFFFFFFFFFFFFFFFFFFFFFFFFFFFFFFFF AND PUSH20 0xFFFFFFFFFFFFFFFFFFFFFFFFFFFFFFFFFFFFFFFF AND PUSH20 0xFFFFFFFFFFFFFFFFFFFFFFFFFFFFFFFFFFFFFFFF AND DUP2 MSTORE PUSH1 0x20 ADD SWAP1 DUP2 MSTORE PUSH1 0x20 ADD PUSH1 0x0 KECCAK256 SLOAD PUSH1 0x2 PUSH1 0x0 CALLER PUSH20 0xFFFFFFFFFFFFFFFFFFFFFFFFFFFFFFFFFFFFFFFF AND PUSH20 0xFFFFFFFFFFFFFFFFFFFFFFFFFFFFFFFFFFFFFFFF AND DUP2 MSTORE PUSH1 0x20 ADD SWAP1 DUP2 MSTORE PUSH1 0x20 ADD PUSH1 0x0 KECCAK256 PUSH1 0x0 DUP4 PUSH1 0x2 ADD PUSH1 0x1 SWAP1 SLOAD SWAP1 PUSH2 0x100 EXP SWAP1 DIV PUSH20 0xFFFFFFFFFFFFFFFFFFFFFFFFFFFFFFFFFFFFFFFF AND PUSH20 0xFFFFFFFFFFFFFFFFFFFFFFFFFFFFFFFFFFFFFFFF AND PUSH20 0xFFFFFFFFFFFFFFFFFFFFFFFFFFFFFFFFFFFFFFFF AND DUP2 MSTORE PUSH1 0x20 ADD SWAP1 DUP2 MSTORE PUSH1 0x20 ADD PUSH1 0x0 KECCAK256 SLOAD PUSH2 0x2928 SWAP2 SWAP1 PUSH2 0x3539 JUMP JUMPDEST DUP2 PUSH1 0x1 ADD SLOAD PUSH2 0x2937 SWAP2 SWAP1 PUSH2 0x3539 JUMP JUMPDEST PUSH1 0x4 PUSH1 0x0 DUP4 PUSH1 0x2 ADD PUSH1 0x1 SWAP1 SLOAD SWAP1 PUSH2 0x100 EXP SWAP1 DIV PUSH20 0xFFFFFFFFFFFFFFFFFFFFFFFFFFFFFFFFFFFFFFFF AND PUSH20 0xFFFFFFFFFFFFFFFFFFFFFFFFFFFFFFFFFFFFFFFF AND PUSH20 0xFFFFFFFFFFFFFFFFFFFFFFFFFFFFFFFFFFFFFFFF AND DUP2 MSTORE PUSH1 0x20 ADD SWAP1 DUP2 MSTORE PUSH1 0x20 ADD PUSH1 0x0 KECCAK256 PUSH1 0x0 CALLER PUSH20 0xFFFFFFFFFFFFFFFFFFFFFFFFFFFFFFFFFFFFFFFF AND PUSH20 0xFFFFFFFFFFFFFFFFFFFFFFFFFFFFFFFFFFFFFFFF AND DUP2 MSTORE PUSH1 0x20 ADD SWAP1 DUP2 MSTORE PUSH1 0x20 ADD PUSH1 0x0 KECCAK256 PUSH1 0x0 DUP3 DUP3 SLOAD PUSH2 0x29E6 SWAP2 SWAP1 PUSH2 0x3949 JUMP JUMPDEST SWAP3 POP POP DUP2 SWAP1 SSTORE POP PUSH1 0x3 PUSH1 0x0 CALLER PUSH20 0xFFFFFFFFFFFFFFFFFFFFFFFFFFFFFFFFFFFFFFFF AND PUSH20 0xFFFFFFFFFFFFFFFFFFFFFFFFFFFFFFFFFFFFFFFF AND DUP2 MSTORE PUSH1 0x20 ADD SWAP1 DUP2 MSTORE PUSH1 0x20 ADD PUSH1 0x0 KECCAK256 PUSH1 0x0 DUP3 PUSH1 0x2 ADD PUSH1 0x1 SWAP1 SLOAD SWAP1 PUSH2 0x100 EXP SWAP1 DIV PUSH20 0xFFFFFFFFFFFFFFFFFFFFFFFFFFFFFFFFFFFFFFFF AND PUSH20 0xFFFFFFFFFFFFFFFFFFFFFFFFFFFFFFFFFFFFFFFF AND PUSH20 0xFFFFFFFFFFFFFFFFFFFFFFFFFFFFFFFFFFFFFFFF AND DUP2 MSTORE PUSH1 0x20 ADD SWAP1 DUP2 MSTORE PUSH1 0x20 ADD PUSH1 0x0 KECCAK256 SLOAD PUSH1 0x2 PUSH1 0x0 CALLER PUSH20 0xFFFFFFFFFFFFFFFFFFFFFFFFFFFFFFFFFFFFFFFF AND PUSH20 0xFFFFFFFFFFFFFFFFFFFFFFFFFFFFFFFFFFFFFFFF AND DUP2 MSTORE PUSH1 0x20 ADD SWAP1 DUP2 MSTORE PUSH1 0x20 ADD PUSH1 0x0 KECCAK256 PUSH1 0x0 DUP4 PUSH1 0x2 ADD PUSH1 0x1 SWAP1 SLOAD SWAP1 PUSH2 0x100 EXP SWAP1 DIV PUSH20 0xFFFFFFFFFFFFFFFFFFFFFFFFFFFFFFFFFFFFFFFF AND PUSH20 0xFFFFFFFFFFFFFFFFFFFFFFFFFFFFFFFFFFFFFFFF AND PUSH20 0xFFFFFFFFFFFFFFFFFFFFFFFFFFFFFFFFFFFFFFFF AND DUP2 MSTORE PUSH1 0x20 ADD SWAP1 DUP2 MSTORE PUSH1 0x20 ADD PUSH1 0x0 KECCAK256 SLOAD PUSH2 0x2B39 SWAP2 SWAP1 PUSH2 0x3539 JUMP JUMPDEST DUP2 PUSH1 0x1 ADD SLOAD PUSH2 0x2B48 SWAP2 SWAP1 PUSH2 0x3539 JUMP JUMPDEST PUSH1 0x2 PUSH1 0x0 CALLER PUSH20 0xFFFFFFFFFFFFFFFFFFFFFFFFFFFFFFFFFFFFFFFF AND PUSH20 0xFFFFFFFFFFFFFFFFFFFFFFFFFFFFFFFFFFFFFFFF AND DUP2 MSTORE PUSH1 0x20 ADD SWAP1 DUP2 MSTORE PUSH1 0x20 ADD PUSH1 0x0 KECCAK256 PUSH1 0x0 DUP4 PUSH1 0x2 ADD PUSH1 0x1 SWAP1 SLOAD SWAP1 PUSH2 0x100 EXP SWAP1 DIV PUSH20 0xFFFFFFFFFFFFFFFFFFFFFFFFFFFFFFFFFFFFFFFF AND PUSH20 0xFFFFFFFFFFFFFFFFFFFFFFFFFFFFFFFFFFFFFFFF AND PUSH20 0xFFFFFFFFFFFFFFFFFFFFFFFFFFFFFFFFFFFFFFFF AND DUP2 MSTORE PUSH1 0x20 ADD SWAP1 DUP2 MSTORE PUSH1 0x20 ADD PUSH1 0x0 KECCAK256 PUSH1 0x0 DUP3 DUP3 SLOAD PUSH2 0x2BF7 SWAP2 SWAP1 PUSH2 0x3949 JUMP JUMPDEST SWAP3 POP POP DUP2 SWAP1 SSTORE POP DUP1 PUSH1 0x1 ADD SLOAD PUSH1 0x3 PUSH1 0x0 CALLER PUSH20 0xFFFFFFFFFFFFFFFFFFFFFFFFFFFFFFFFFFFFFFFF AND PUSH20 0xFFFFFFFFFFFFFFFFFFFFFFFFFFFFFFFFFFFFFFFF AND DUP2 MSTORE PUSH1 0x20 ADD SWAP1 DUP2 MSTORE PUSH1 0x20 ADD PUSH1 0x0 KECCAK256 PUSH1 0x0 DUP4 PUSH1 0x2 ADD PUSH1 0x1 SWAP1 SLOAD SWAP1 PUSH2 0x100 EXP SWAP1 DIV PUSH20 0xFFFFFFFFFFFFFFFFFFFFFFFFFFFFFFFFFFFFFFFF AND PUSH20 0xFFFFFFFFFFFFFFFFFFFFFFFFFFFFFFFFFFFFFFFF AND PUSH20 0xFFFFFFFFFFFFFFFFFFFFFFFFFFFFFFFFFFFFFFFF AND DUP2 MSTORE PUSH1 0x20 ADD SWAP1 DUP2 MSTORE PUSH1 0x20 ADD PUSH1 0x0 KECCAK256 PUSH1 0x0 DUP3 DUP3 SLOAD PUSH2 0x2CB2 SWAP2 SWAP1 PUSH2 0x3949 JUMP JUMPDEST SWAP3 POP POP DUP2 SWAP1 SSTORE POP JUMPDEST POP POP JUMP JUMPDEST PUSH1 0x1 PUSH1 0x20 MSTORE DUP1 PUSH1 0x0 MSTORE PUSH1 0x40 PUSH1 0x0 KECCAK256 PUSH1 0x0 SWAP2 POP SWAP1 POP SLOAD DUP2 JUMP JUMPDEST PUSH1 0x0 PUSH1 0xA PUSH1 0x0 DUP4 PUSH20 0xFFFFFFFFFFFFFFFFFFFFFFFFFFFFFFFFFFFFFFFF AND PUSH20 0xFFFFFFFFFFFFFFFFFFFFFFFFFFFFFFFFFFFFFFFF AND DUP2 MSTORE PUSH1 0x20 ADD SWAP1 DUP2 MSTORE PUSH1 0x20 ADD PUSH1 0x0 KECCAK256 DUP1 SLOAD SWAP1 POP SWAP1 POP SWAP2 SWAP1 POP JUMP JUMPDEST PUSH1 0x0 PUSH1 0x40 MLOAD SWAP1 POP SWAP1 JUMP JUMPDEST PUSH1 0x0 DUP1 REVERT JUMPDEST PUSH1 0x0 DUP1 REVERT JUMPDEST PUSH1 0x0 PUSH20 0xFFFFFFFFFFFFFFFFFFFFFFFFFFFFFFFFFFFFFFFF DUP3 AND SWAP1 POP SWAP2 SWAP1 POP JUMP JUMPDEST PUSH1 0x0 PUSH2 0x2D61 DUP3 PUSH2 0x2D36 JUMP JUMPDEST SWAP1 POP SWAP2 SWAP1 POP JUMP JUMPDEST PUSH2 0x2D71 DUP2 PUSH2 0x2D56 JUMP JUMPDEST DUP2 EQ PUSH2 0x2D7C JUMPI PUSH1 0x0 DUP1 REVERT JUMPDEST POP JUMP JUMPDEST PUSH1 0x0 DUP2 CALLDATALOAD SWAP1 POP PUSH2 0x2D8E DUP2 PUSH2 0x2D68 JUMP JUMPDEST SWAP3 SWAP2 POP POP JUMP JUMPDEST PUSH1 0x0 DUP2 SWAP1 POP SWAP2 SWAP1 POP JUMP JUMPDEST PUSH2 0x2DA7 DUP2 PUSH2 0x2D94 JUMP JUMPDEST DUP2 EQ PUSH2 0x2DB2 JUMPI PUSH1 0x0 DUP1 REVERT JUMPDEST POP JUMP JUMPDEST PUSH1 0x0 DUP2 CALLDATALOAD SWAP1 POP PUSH2 0x2DC4 DUP2 PUSH2 0x2D9E JUMP JUMPDEST SWAP3 SWAP2 POP POP JUMP JUMPDEST PUSH1 0x0 DUP1 PUSH1 0x40 DUP4 DUP6 SUB SLT ISZERO PUSH2 0x2DE1 JUMPI PUSH2 0x2DE0 PUSH2 0x2D2C JUMP JUMPDEST JUMPDEST PUSH1 0x0 PUSH2 0x2DEF DUP6 DUP3 DUP7 ADD PUSH2 0x2D7F JUMP JUMPDEST SWAP3 POP POP PUSH1 0x20 PUSH2 0x2E00 DUP6 DUP3 DUP7 ADD PUSH2 0x2DB5 JUMP JUMPDEST SWAP2 POP POP SWAP3 POP SWAP3 SWAP1 POP JUMP JUMPDEST PUSH2 0x2E13 DUP2 PUSH2 0x2D56 JUMP JUMPDEST DUP3 MSTORE POP POP JUMP JUMPDEST PUSH1 0x0 PUSH1 0x20 DUP3 ADD SWAP1 POP PUSH2 0x2E2E PUSH1 0x0 DUP4 ADD DUP5 PUSH2 0x2E0A JUMP JUMPDEST SWAP3 SWAP2 POP POP JUMP JUMPDEST PUSH1 0x0 PUSH1 0x20 DUP3 DUP5 SUB SLT ISZERO PUSH2 0x2E4A JUMPI PUSH2 0x2E49 PUSH2 0x2D2C JUMP JUMPDEST JUMPDEST PUSH1 0x0 PUSH2 0x2E58 DUP5 DUP3 DUP6 ADD PUSH2 0x2DB5 JUMP JUMPDEST SWAP2 POP POP SWAP3 SWAP2 POP POP JUMP JUMPDEST PUSH1 0x0 PUSH1 0x20 DUP3 DUP5 SUB SLT ISZERO PUSH2 0x2E77 JUMPI PUSH2 0x2E76 PUSH2 0x2D2C JUMP JUMPDEST JUMPDEST PUSH1 0x0 PUSH2 0x2E85 DUP5 DUP3 DUP6 ADD PUSH2 0x2D7F JUMP JUMPDEST SWAP2 POP POP SWAP3 SWAP2 POP POP JUMP JUMPDEST PUSH2 0x2E97 DUP2 PUSH2 0x2D94 JUMP JUMPDEST DUP3 MSTORE POP POP JUMP JUMPDEST PUSH1 0x0 PUSH1 0x20 DUP3 ADD SWAP1 POP PUSH2 0x2EB2 PUSH1 0x0 DUP4 ADD DUP5 PUSH2 0x2E8E JUMP JUMPDEST SWAP3 SWAP2 POP POP JUMP JUMPDEST PUSH1 0x0 DUP1 PUSH1 0x40 DUP4 DUP6 SUB SLT ISZERO PUSH2 0x2ECF JUMPI PUSH2 0x2ECE PUSH2 0x2D2C JUMP JUMPDEST JUMPDEST PUSH1 0x0 PUSH2 0x2EDD DUP6 DUP3 DUP7 ADD PUSH2 0x2D7F JUMP JUMPDEST SWAP3 POP POP PUSH1 0x20 PUSH2 0x2EEE DUP6 DUP3 DUP7 ADD PUSH2 0x2D7F JUMP JUMPDEST SWAP2 POP POP SWAP3 POP SWAP3 SWAP1 POP JUMP JUMPDEST PUSH1 0x0 PUSH1 0xFF DUP3 AND SWAP1 POP SWAP2 SWAP1 POP JUMP JUMPDEST PUSH2 0x2F0E DUP2 PUSH2 0x2EF8 JUMP JUMPDEST DUP3 MSTORE POP POP JUMP JUMPDEST PUSH1 0x0 PUSH1 0x20 DUP3 ADD SWAP1 POP PUSH2 0x2F29 PUSH1 0x0 DUP4 ADD DUP5 PUSH2 0x2F05 JUMP JUMPDEST SWAP3 SWAP2 POP POP JUMP JUMPDEST PUSH1 0x0 DUP1 REVERT JUMPDEST PUSH1 0x0 DUP1 REVERT JUMPDEST PUSH1 0x0 PUSH1 0x1F NOT PUSH1 0x1F DUP4 ADD AND SWAP1 POP SWAP2 SWAP1 POP JUMP JUMPDEST PUSH32 0x4E487B7100000000000000000000000000000000000000000000000000000000 PUSH1 0x0 MSTORE PUSH1 0x41 PUSH1 0x4 MSTORE PUSH1 0x24 PUSH1 0x0 REVERT JUMPDEST PUSH2 0x2F82 DUP3 PUSH2 0x2F39 JUMP JUMPDEST DUP2 ADD DUP2 DUP2 LT PUSH8 0xFFFFFFFFFFFFFFFF DUP3 GT OR ISZERO PUSH2 0x2FA1 JUMPI PUSH2 0x2FA0 PUSH2 0x2F4A JUMP JUMPDEST JUMPDEST DUP1 PUSH1 0x40 MSTORE POP POP POP JUMP JUMPDEST PUSH1 0x0 PUSH2 0x2FB4 PUSH2 0x2D22 JUMP JUMPDEST SWAP1 POP PUSH2 0x2FC0 DUP3 DUP3 PUSH2 0x2F79 JUMP JUMPDEST SWAP2 SWAP1 POP JUMP JUMPDEST PUSH1 0x0 PUSH8 0xFFFFFFFFFFFFFFFF DUP3 GT ISZERO PUSH2 0x2FE0 JUMPI PUSH2 0x2FDF PUSH2 0x2F4A JUMP JUMPDEST JUMPDEST PUSH2 0x2FE9 DUP3 PUSH2 0x2F39 JUMP JUMPDEST SWAP1 POP PUSH1 0x20 DUP2 ADD SWAP1 POP SWAP2 SWAP1 POP JUMP JUMPDEST DUP3 DUP2 DUP4 CALLDATACOPY PUSH1 0x0 DUP4 DUP4 ADD MSTORE POP POP POP JUMP JUMPDEST PUSH1 0x0 PUSH2 0x3018 PUSH2 0x3013 DUP5 PUSH2 0x2FC5 JUMP JUMPDEST PUSH2 0x2FAA JUMP JUMPDEST SWAP1 POP DUP3 DUP2 MSTORE PUSH1 0x20 DUP2 ADD DUP5 DUP5 DUP5 ADD GT ISZERO PUSH2 0x3034 JUMPI PUSH2 0x3033 PUSH2 0x2F34 JUMP JUMPDEST JUMPDEST PUSH2 0x303F DUP5 DUP3 DUP6 PUSH2 0x2FF6 JUMP JUMPDEST POP SWAP4 SWAP3 POP POP POP JUMP JUMPDEST PUSH1 0x0 DUP3 PUSH1 0x1F DUP4 ADD SLT PUSH2 0x305C JUMPI PUSH2 0x305B PUSH2 0x2F2F JUMP JUMPDEST JUMPDEST DUP2 CALLDATALOAD PUSH2 0x306C DUP5 DUP3 PUSH1 0x20 DUP7 ADD PUSH2 0x3005 JUMP JUMPDEST SWAP2 POP POP SWAP3 SWAP2 POP POP JUMP JUMPDEST PUSH1 0x0 DUP1 PUSH1 0x0 PUSH1 0x60 DUP5 DUP7 SUB SLT ISZERO PUSH2 0x308E JUMPI PUSH2 0x308D PUSH2 0x2D2C JUMP JUMPDEST JUMPDEST PUSH1 0x0 DUP5 ADD CALLDATALOAD PUSH8 0xFFFFFFFFFFFFFFFF DUP2 GT ISZERO PUSH2 0x30AC JUMPI PUSH2 0x30AB PUSH2 0x2D31 JUMP JUMPDEST JUMPDEST PUSH2 0x30B8 DUP7 DUP3 DUP8 ADD PUSH2 0x3047 JUMP JUMPDEST SWAP4 POP POP PUSH1 0x20 PUSH2 0x30C9 DUP7 DUP3 DUP8 ADD PUSH2 0x2DB5 JUMP JUMPDEST SWAP3 POP POP PUSH1 0x40 PUSH2 0x30DA DUP7 DUP3 DUP8 ADD PUSH2 0x2D7F JUMP JUMPDEST SWAP2 POP POP SWAP3 POP SWAP3 POP SWAP3 JUMP JUMPDEST PUSH1 0x0 PUSH2 0x30EF DUP3 PUSH2 0x2D36 JUMP JUMPDEST SWAP1 POP SWAP2 SWAP1 POP JUMP JUMPDEST PUSH2 0x30FF DUP2 PUSH2 0x30E4 JUMP JUMPDEST DUP2 EQ PUSH2 0x310A JUMPI PUSH1 0x0 DUP1 REVERT JUMPDEST POP JUMP JUMPDEST PUSH1 0x0 DUP2 CALLDATALOAD SWAP1 POP PUSH2 0x311C DUP2 PUSH2 0x30F6 JUMP JUMPDEST SWAP3 SWAP2 POP POP JUMP JUMPDEST PUSH1 0x0 DUP1 PUSH1 0x40 DUP4 DUP6 SUB SLT ISZERO PUSH2 0x3139 JUMPI PUSH2 0x3138 PUSH2 0x2D2C JUMP JUMPDEST JUMPDEST PUSH1 0x0 PUSH2 0x3147 DUP6 DUP3 DUP7 ADD PUSH2 0x2DB5 JUMP JUMPDEST SWAP3 POP POP PUSH1 0x20 PUSH2 0x3158 DUP6 DUP3 DUP7 ADD PUSH2 0x310D JUMP JUMPDEST SWAP2 POP POP SWAP3 POP SWAP3 SWAP1 POP JUMP JUMPDEST PUSH2 0x316B DUP2 PUSH2 0x2EF8 JUMP JUMPDEST DUP2 EQ PUSH2 0x3176 JUMPI PUSH1 0x0 DUP1 REVERT JUMPDEST POP JUMP JUMPDEST PUSH1 0x0 DUP2 CALLDATALOAD SWAP1 POP PUSH2 0x3188 DUP2 PUSH2 0x3162 JUMP JUMPDEST SWAP3 SWAP2 POP POP JUMP JUMPDEST PUSH1 0x0 DUP1 PUSH1 0x40 DUP4 DUP6 SUB SLT ISZERO PUSH2 0x31A5 JUMPI PUSH2 0x31A4 PUSH2 0x2D2C JUMP JUMPDEST JUMPDEST PUSH1 0x0 PUSH2 0x31B3 DUP6 DUP3 DUP7 ADD PUSH2 0x2D7F JUMP JUMPDEST SWAP3 POP POP PUSH1 0x20 PUSH2 0x31C4 DUP6 DUP3 DUP7 ADD PUSH2 0x3179 JUMP JUMPDEST SWAP2 POP POP SWAP3 POP SWAP3 SWAP1 POP JUMP JUMPDEST PUSH1 0x0 DUP2 MLOAD SWAP1 POP SWAP2 SWAP1 POP JUMP JUMPDEST PUSH1 0x0 DUP3 DUP3 MSTORE PUSH1 0x20 DUP3 ADD SWAP1 POP SWAP3 SWAP2 POP POP JUMP JUMPDEST PUSH1 0x0 JUMPDEST DUP4 DUP2 LT ISZERO PUSH2 0x3208 JUMPI DUP1 DUP3 ADD MLOAD DUP2 DUP5 ADD MSTORE PUSH1 0x20 DUP2 ADD SWAP1 POP PUSH2 0x31ED JUMP JUMPDEST PUSH1 0x0 DUP5 DUP5 ADD MSTORE POP POP POP POP JUMP JUMPDEST PUSH1 0x0 PUSH2 0x321F DUP3 PUSH2 0x31CE JUMP JUMPDEST PUSH2 0x3229 DUP2 DUP6 PUSH2 0x31D9 JUMP JUMPDEST SWAP4 POP PUSH2 0x3239 DUP2 DUP6 PUSH1 0x20 DUP7 ADD PUSH2 0x31EA JUMP JUMPDEST PUSH2 0x3242 DUP2 PUSH2 0x2F39 JUMP JUMPDEST DUP5 ADD SWAP2 POP POP SWAP3 SWAP2 POP POP JUMP JUMPDEST PUSH1 0x0 DUP2 ISZERO ISZERO SWAP1 POP SWAP2 SWAP1 POP JUMP JUMPDEST PUSH2 0x3262 DUP2 PUSH2 0x324D JUMP JUMPDEST DUP3 MSTORE POP POP JUMP JUMPDEST PUSH1 0x0 PUSH1 0x80 DUP3 ADD SWAP1 POP DUP2 DUP2 SUB PUSH1 0x0 DUP4 ADD MSTORE PUSH2 0x3282 DUP2 DUP8 PUSH2 0x3214 JUMP JUMPDEST SWAP1 POP PUSH2 0x3291 PUSH1 0x20 DUP4 ADD DUP7 PUSH2 0x2E8E JUMP JUMPDEST PUSH2 0x329E PUSH1 0x40 DUP4 ADD DUP6 PUSH2 0x3259 JUMP JUMPDEST PUSH2 0x32AB PUSH1 0x60 DUP4 ADD DUP5 PUSH2 0x2E0A JUMP JUMPDEST SWAP6 SWAP5 POP POP POP POP POP JUMP JUMPDEST PUSH1 0x0 DUP1 PUSH1 0x0 DUP1 PUSH1 0x0 PUSH1 0xA0 DUP7 DUP9 SUB SLT ISZERO PUSH2 0x32D0 JUMPI PUSH2 0x32CF PUSH2 0x2D2C JUMP JUMPDEST JUMPDEST PUSH1 0x0 PUSH2 0x32DE DUP9 DUP3 DUP10 ADD PUSH2 0x310D JUMP JUMPDEST SWAP6 POP POP PUSH1 0x20 PUSH2 0x32EF DUP9 DUP3 DUP10 ADD PUSH2 0x2DB5 JUMP JUMPDEST SWAP5 POP POP PUSH1 0x40 PUSH2 0x3300 DUP9 DUP3 DUP10 ADD PUSH2 0x2DB5 JUMP JUMPDEST SWAP4 POP POP PUSH1 0x60 PUSH2 0x3311 DUP9 DUP3 DUP10 ADD PUSH2 0x2DB5 JUMP JUMPDEST SWAP3 POP POP PUSH1 0x80 DUP7 ADD CALLDATALOAD PUSH8 0xFFFFFFFFFFFFFFFF DUP2 GT ISZERO PUSH2 0x3332 JUMPI PUSH2 0x3331 PUSH2 0x2D31 JUMP JUMPDEST JUMPDEST PUSH2 0x333E DUP9 DUP3 DUP10 ADD PUSH2 0x3047 JUMP JUMPDEST SWAP2 POP POP SWAP3 SWAP6 POP SWAP3 SWAP6 SWAP1 SWAP4 POP JUMP JUMPDEST PUSH32 0x4E487B7100000000000000000000000000000000000000000000000000000000 PUSH1 0x0 MSTORE PUSH1 0x32 PUSH1 0x4 MSTORE PUSH1 0x24 PUSH1 0x0 REVERT JUMPDEST PUSH32 0x726571756573742068617320616C7265616479206265656E2066696E616C6973 PUSH1 0x0 DUP3 ADD MSTORE PUSH32 0x6564000000000000000000000000000000000000000000000000000000000000 PUSH1 0x20 DUP3 ADD MSTORE POP JUMP JUMPDEST PUSH1 0x0 PUSH2 0x33D6 PUSH1 0x22 DUP4 PUSH2 0x31D9 JUMP JUMPDEST SWAP2 POP PUSH2 0x33E1 DUP3 PUSH2 0x337A JUMP JUMPDEST PUSH1 0x40 DUP3 ADD SWAP1 POP SWAP2 SWAP1 POP JUMP JUMPDEST PUSH1 0x0 PUSH1 0x20 DUP3 ADD SWAP1 POP DUP2 DUP2 SUB PUSH1 0x0 DUP4 ADD MSTORE PUSH2 0x3405 DUP2 PUSH2 0x33C9 JUMP JUMPDEST SWAP1 POP SWAP2 SWAP1 POP JUMP JUMPDEST PUSH32 0x496E73756666696369656E742066756E64730000000000000000000000000000 PUSH1 0x0 DUP3 ADD MSTORE POP JUMP JUMPDEST PUSH1 0x0 PUSH2 0x3442 PUSH1 0x12 DUP4 PUSH2 0x31D9 JUMP JUMPDEST SWAP2 POP PUSH2 0x344D DUP3 PUSH2 0x340C JUMP JUMPDEST PUSH1 0x20 DUP3 ADD SWAP1 POP SWAP2 SWAP1 POP JUMP JUMPDEST PUSH1 0x0 PUSH1 0x20 DUP3 ADD SWAP1 POP DUP2 DUP2 SUB PUSH1 0x0 DUP4 ADD MSTORE PUSH2 0x3471 DUP2 PUSH2 0x3435 JUMP JUMPDEST SWAP1 POP SWAP2 SWAP1 POP JUMP JUMPDEST PUSH32 0x7472616E73616374696F6E2077697468203020657468206973206E6F7420616C PUSH1 0x0 DUP3 ADD MSTORE PUSH32 0x6C6F776564000000000000000000000000000000000000000000000000000000 PUSH1 0x20 DUP3 ADD MSTORE POP JUMP JUMPDEST PUSH1 0x0 PUSH2 0x34D4 PUSH1 0x25 DUP4 PUSH2 0x31D9 JUMP JUMPDEST SWAP2 POP PUSH2 0x34DF DUP3 PUSH2 0x3478 JUMP JUMPDEST PUSH1 0x40 DUP3 ADD SWAP1 POP SWAP2 SWAP1 POP JUMP JUMPDEST PUSH1 0x0 PUSH1 0x20 DUP3 ADD SWAP1 POP DUP2 DUP2 SUB PUSH1 0x0 DUP4 ADD MSTORE PUSH2 0x3503 DUP2 PUSH2 0x34C7 JUMP JUMPDEST SWAP1 POP SWAP2 SWAP1 POP JUMP JUMPDEST PUSH32 0x4E487B7100000000000000000000000000000000000000000000000000000000 PUSH1 0x0 MSTORE PUSH1 0x11 PUSH1 0x4 MSTORE PUSH1 0x24 PUSH1 0x0 REVERT JUMPDEST PUSH1 0x0 PUSH2 0x3544 DUP3 PUSH2 0x2D94 JUMP JUMPDEST SWAP2 POP PUSH2 0x354F DUP4 PUSH2 0x2D94 JUMP JUMPDEST SWAP3 POP DUP3 DUP3 SUB SWAP1 POP DUP2 DUP2 GT ISZERO PUSH2 0x3567 JUMPI PUSH2 0x3566 PUSH2 0x350A JUMP JUMPDEST JUMPDEST SWAP3 SWAP2 POP POP JUMP JUMPDEST PUSH32 0x4672617564730000000000000000000000000000000000000000000000000000 PUSH1 0x0 DUP3 ADD MSTORE POP JUMP JUMPDEST PUSH1 0x0 PUSH2 0x35A3 PUSH1 0x6 DUP4 PUSH2 0x31D9 JUMP JUMPDEST SWAP2 POP PUSH2 0x35AE DUP3 PUSH2 0x356D JUMP JUMPDEST PUSH1 0x20 DUP3 ADD SWAP1 POP SWAP2 SWAP1 POP JUMP JUMPDEST PUSH1 0x0 PUSH1 0x20 DUP3 ADD SWAP1 POP DUP2 DUP2 SUB PUSH1 0x0 DUP4 ADD MSTORE PUSH2 0x35D2 DUP2 PUSH2 0x3596 JUMP JUMPDEST SWAP1 POP SWAP2 SWAP1 POP JUMP JUMPDEST PUSH32 0x4E487B7100000000000000000000000000000000000000000000000000000000 PUSH1 0x0 MSTORE PUSH1 0x22 PUSH1 0x4 MSTORE PUSH1 0x24 PUSH1 0x0 REVERT JUMPDEST PUSH1 0x0 PUSH1 0x2 DUP3 DIV SWAP1 POP PUSH1 0x1 DUP3 AND DUP1 PUSH2 0x3620 JUMPI PUSH1 0x7F DUP3 AND SWAP2 POP JUMPDEST PUSH1 0x20 DUP3 LT DUP2 SUB PUSH2 0x3633 JUMPI PUSH2 0x3632 PUSH2 0x35D9 JUMP JUMPDEST JUMPDEST POP SWAP2 SWAP1 POP JUMP JUMPDEST PUSH1 0x0 DUP2 SWAP1 POP DUP2 PUSH1 0x0 MSTORE PUSH1 0x20 PUSH1 0x0 KECCAK256 SWAP1 POP SWAP2 SWAP1 POP JUMP JUMPDEST PUSH1 0x0 PUSH1 0x20 PUSH1 0x1F DUP4 ADD DIV SWAP1 POP SWAP2 SWAP1 POP JUMP JUMPDEST PUSH1 0x0 DUP3 DUP3 SHL SWAP1 POP SWAP3 SWAP2 POP POP JUMP JUMPDEST PUSH1 0x0 PUSH1 0x8 DUP4 MUL PUSH2 0x369B PUSH32 0xFFFFFFFFFFFFFFFFFFFFFFFFFFFFFFFFFFFFFFFFFFFFFFFFFFFFFFFFFFFFFFFF DUP3 PUSH2 0x365E JUMP JUMPDEST PUSH2 0x36A5 DUP7 DUP4 PUSH2 0x365E JUMP JUMPDEST SWAP6 POP DUP1 NOT DUP5 AND SWAP4 POP DUP1 DUP7 AND DUP5 OR SWAP3 POP POP POP SWAP4 SWAP3 POP POP POP JUMP JUMPDEST PUSH1 0x0 DUP2 SWAP1 POP SWAP2 SWAP1 POP JUMP JUMPDEST PUSH1 0x0 PUSH2 0x36E2 PUSH2 0x36DD PUSH2 0x36D8 DUP5 PUSH2 0x2D94 JUMP JUMPDEST PUSH2 0x36BD JUMP JUMPDEST PUSH2 0x2D94 JUMP JUMPDEST SWAP1 POP SWAP2 SWAP1 POP JUMP JUMPDEST PUSH1 0x0 DUP2 SWAP1 POP SWAP2 SWAP1 POP JUMP JUMPDEST PUSH2 0x36FC DUP4 PUSH2 0x36C7 JUMP JUMPDEST PUSH2 0x3710 PUSH2 0x3708 DUP3 PUSH2 0x36E9 JUMP JUMPDEST DUP5 DUP5 SLOAD PUSH2 0x366B JUMP JUMPDEST DUP3 SSTORE POP POP POP POP JUMP JUMPDEST PUSH1 0x0 SWAP1 JUMP JUMPDEST PUSH2 0x3725 PUSH2 0x3718 JUMP JUMPDEST PUSH2 0x3730 DUP2 DUP5 DUP5 PUSH2 0x36F3 JUMP JUMPDEST POP POP POP JUMP JUMPDEST JUMPDEST DUP2 DUP2 LT ISZERO PUSH2 0x3754 JUMPI PUSH2 0x3749 PUSH1 0x0 DUP3 PUSH2 0x371D JUMP JUMPDEST PUSH1 0x1 DUP2 ADD SWAP1 POP PUSH2 0x3736 JUMP JUMPDEST POP POP JUMP JUMPDEST PUSH1 0x1F DUP3 GT ISZERO PUSH2 0x3799 JUMPI PUSH2 0x376A DUP2 PUSH2 0x3639 JUMP JUMPDEST PUSH2 0x3773 DUP5 PUSH2 0x364E JUMP JUMPDEST DUP2 ADD PUSH1 0x20 DUP6 LT ISZERO PUSH2 0x3782 JUMPI DUP2 SWAP1 POP JUMPDEST PUSH2 0x3796 PUSH2 0x378E DUP6 PUSH2 0x364E JUMP JUMPDEST DUP4 ADD DUP3 PUSH2 0x3735 JUMP JUMPDEST POP POP JUMPDEST POP POP POP JUMP JUMPDEST PUSH1 0x0 DUP3 DUP3 SHR SWAP1 POP SWAP3 SWAP2 POP POP JUMP JUMPDEST PUSH1 0x0 PUSH2 0x37BC PUSH1 0x0 NOT DUP5 PUSH1 0x8 MUL PUSH2 0x379E JUMP JUMPDEST NOT DUP1 DUP4 AND SWAP2 POP POP SWAP3 SWAP2 POP POP JUMP JUMPDEST PUSH1 0x0 PUSH2 0x37D5 DUP4 DUP4 PUSH2 0x37AB JUMP JUMPDEST SWAP2 POP DUP3 PUSH1 0x2 MUL DUP3 OR SWAP1 POP SWAP3 SWAP2 POP POP JUMP JUMPDEST PUSH2 0x37EE DUP3 PUSH2 0x31CE JUMP JUMPDEST PUSH8 0xFFFFFFFFFFFFFFFF DUP2 GT ISZERO PUSH2 0x3807 JUMPI PUSH2 0x3806 PUSH2 0x2F4A JUMP JUMPDEST JUMPDEST PUSH2 0x3811 DUP3 SLOAD PUSH2 0x3608 JUMP JUMPDEST PUSH2 0x381C DUP3 DUP3 DUP6 PUSH2 0x3758 JUMP JUMPDEST PUSH1 0x0 PUSH1 0x20 SWAP1 POP PUSH1 0x1F DUP4 GT PUSH1 0x1 DUP2 EQ PUSH2 0x384F JUMPI PUSH1 0x0 DUP5 ISZERO PUSH2 0x383D JUMPI DUP3 DUP8 ADD MLOAD SWAP1 POP JUMPDEST PUSH2 0x3847 DUP6 DUP3 PUSH2 0x37C9 JUMP JUMPDEST DUP7 SSTORE POP PUSH2 0x38AF JUMP JUMPDEST PUSH1 0x1F NOT DUP5 AND PUSH2 0x385D DUP7 PUSH2 0x3639 JUMP JUMPDEST PUSH1 0x0 JUMPDEST DUP3 DUP2 LT ISZERO PUSH2 0x3885 JUMPI DUP5 DUP10 ADD MLOAD DUP3 SSTORE PUSH1 0x1 DUP3 ADD SWAP2 POP PUSH1 0x20 DUP6 ADD SWAP5 POP PUSH1 0x20 DUP2 ADD SWAP1 POP PUSH2 0x3860 JUMP JUMPDEST DUP7 DUP4 LT ISZERO PUSH2 0x38A2 JUMPI DUP5 DUP10 ADD MLOAD PUSH2 0x389E PUSH1 0x1F DUP10 AND DUP3 PUSH2 0x37AB JUMP JUMPDEST DUP4 SSTORE POP JUMPDEST PUSH1 0x1 PUSH1 0x2 DUP9 MUL ADD DUP9 SSTORE POP POP POP JUMPDEST POP POP POP POP POP POP JUMP JUMPDEST PUSH32 0x546865206164647265737320646F65736E7420686176652074686174206D7563 PUSH1 0x0 DUP3 ADD MSTORE PUSH32 0x682066756E647300000000000000000000000000000000000000000000000000 PUSH1 0x20 DUP3 ADD MSTORE POP JUMP JUMPDEST PUSH1 0x0 PUSH2 0x3913 PUSH1 0x27 DUP4 PUSH2 0x31D9 JUMP JUMPDEST SWAP2 POP PUSH2 0x391E DUP3 PUSH2 0x38B7 JUMP JUMPDEST PUSH1 0x40 DUP3 ADD SWAP1 POP SWAP2 SWAP1 POP JUMP JUMPDEST PUSH1 0x0 PUSH1 0x20 DUP3 ADD SWAP1 POP DUP2 DUP2 SUB PUSH1 0x0 DUP4 ADD MSTORE PUSH2 0x3942 DUP2 PUSH2 0x3906 JUMP JUMPDEST SWAP1 POP SWAP2 SWAP1 POP JUMP JUMPDEST PUSH1 0x0 PUSH2 0x3954 DUP3 PUSH2 0x2D94 JUMP JUMPDEST SWAP2 POP PUSH2 0x395F DUP4 PUSH2 0x2D94 JUMP JUMPDEST SWAP3 POP DUP3 DUP3 ADD SWAP1 POP DUP1 DUP3 GT ISZERO PUSH2 0x3977 JUMPI PUSH2 0x3976 PUSH2 0x350A JUMP JUMPDEST JUMPDEST SWAP3 SWAP2 POP POP JUMP JUMPDEST PUSH32 0x4E6F206C6F616E20676976656E00000000000000000000000000000000000000 PUSH1 0x0 DUP3 ADD MSTORE POP JUMP JUMPDEST PUSH1 0x0 PUSH2 0x39B3 PUSH1 0xD DUP4 PUSH2 0x31D9 JUMP JUMPDEST SWAP2 POP PUSH2 0x39BE DUP3 PUSH2 0x397D JUMP JUMPDEST PUSH1 0x20 DUP3 ADD SWAP1 POP SWAP2 SWAP1 POP JUMP JUMPDEST PUSH1 0x0 PUSH1 0x20 DUP3 ADD SWAP1 POP DUP2 DUP2 SUB PUSH1 0x0 DUP4 ADD MSTORE PUSH2 0x39E2 DUP2 PUSH2 0x39A6 JUMP JUMPDEST SWAP1 POP SWAP2 SWAP1 POP JUMP JUMPDEST PUSH32 0x596F752063616E6E6F74206C656E64206D6F6E657920746F20796F757273656C PUSH1 0x0 DUP3 ADD MSTORE PUSH32 0x6600000000000000000000000000000000000000000000000000000000000000 PUSH1 0x20 DUP3 ADD MSTORE POP JUMP JUMPDEST PUSH1 0x0 PUSH2 0x3A45 PUSH1 0x21 DUP4 PUSH2 0x31D9 JUMP JUMPDEST SWAP2 POP PUSH2 0x3A50 DUP3 PUSH2 0x39E9 JUMP JUMPDEST PUSH1 0x40 DUP3 ADD SWAP1 POP SWAP2 SWAP1 POP JUMP JUMPDEST PUSH1 0x0 PUSH1 0x20 DUP3 ADD SWAP1 POP DUP2 DUP2 SUB PUSH1 0x0 DUP4 ADD MSTORE PUSH2 0x3A74 DUP2 PUSH2 0x3A38 JUMP JUMPDEST SWAP1 POP SWAP2 SWAP1 POP JUMP JUMPDEST PUSH32 0x596F752063616E6E6F7420706179206D6F6E657920746F20796F757273656C66 PUSH1 0x0 DUP3 ADD MSTORE POP JUMP JUMPDEST PUSH1 0x0 PUSH2 0x3AB1 PUSH1 0x20 DUP4 PUSH2 0x31D9 JUMP JUMPDEST SWAP2 POP PUSH2 0x3ABC DUP3 PUSH2 0x3A7B JUMP JUMPDEST PUSH1 0x20 DUP3 ADD SWAP1 POP SWAP2 SWAP1 POP JUMP JUMPDEST PUSH1 0x0 PUSH1 0x20 DUP3 ADD SWAP1 POP DUP2 DUP2 SUB PUSH1 0x0 DUP4 ADD MSTORE PUSH2 0x3AE0 DUP2 PUSH2 0x3AA4 JUMP JUMPDEST SWAP1 POP SWAP2 SWAP1 POP JUMP JUMPDEST PUSH1 0x0 PUSH1 0x80 DUP3 ADD SWAP1 POP PUSH2 0x3AFC PUSH1 0x0 DUP4 ADD DUP8 PUSH2 0x2E8E JUMP JUMPDEST PUSH2 0x3B09 PUSH1 0x20 DUP4 ADD DUP7 PUSH2 0x2E8E JUMP JUMPDEST PUSH2 0x3B16 PUSH1 0x40 DUP4 ADD DUP6 PUSH2 0x2E8E JUMP JUMPDEST DUP2 DUP2 SUB PUSH1 0x60 DUP4 ADD MSTORE PUSH2 0x3B28 DUP2 DUP5 PUSH2 0x3214 JUMP JUMPDEST SWAP1 POP SWAP6 SWAP5 POP POP POP POP POP JUMP JUMPDEST PUSH32 0x4E6F7420656E6F7567682066756E647300000000000000000000000000000000 PUSH1 0x0 DUP3 ADD MSTORE POP JUMP JUMPDEST PUSH1 0x0 PUSH2 0x3B69 PUSH1 0x10 DUP4 PUSH2 0x31D9 JUMP JUMPDEST SWAP2 POP PUSH2 0x3B74 DUP3 PUSH2 0x3B33 JUMP JUMPDEST PUSH1 0x20 DUP3 ADD SWAP1 POP SWAP2 SWAP1 POP JUMP JUMPDEST PUSH1 0x0 PUSH1 0x20 DUP3 ADD SWAP1 POP DUP2 DUP2 SUB PUSH1 0x0 DUP4 ADD MSTORE PUSH2 0x3B98 DUP2 PUSH2 0x3B5C JUMP JUMPDEST SWAP1 POP SWAP2 SWAP1 POP JUMP INVALID LOG2 PUSH5 0x6970667358 0x22 SLT KECCAK256 PUSH21 0x53EDB17ED079849AA6161A67251F93AF080841AA4 0xD3 0xB7 0x2E PUSH4 0x9CF538C6 SWAP4 PUSH16 0x64736F6C634300081300330000000000 "},"gasEstimates":{"creation":{"codeDepositCost":"3063400","executionCost":"3373","totalCost":"3066773"},"external":{"ReceivedFrom(address,address)":"infinite","addFund()":"infinite","approveRequest(uint256)":"infinite","balance(address)":"2902","borrowed(address,address)":"infinite","clearedMyDebt(address)":"5738","createRequest(string,uint256,address)":"infinite","given(address,address)":"infinite","lend(uint256,address)":"infinite","loanGivenArr(address,uint256)":"infinite","loanTakenArr(address,uint256)":"infinite","numberOfPeopleIPaid(address)":"2938","numberOfPeopleWhoHaveGivenLoanToMe(address)":"2917","numberOfPeopleWhoPaidMe(address)":"2894","numberOfPeopleWhomIHaveGivenLoan(address)":"2959","numberOfRequets(address)":"2938","paidArr(address,uint256)":"infinite","paidTo(address,address)":"infinite","pay(address,uint256,uint256,uint256,string)":"infinite","rate(address,address)":"infinite","receivedArr(address,uint256)":"infinite","rejectRequest(uint256)":"29218","requests(address,uint256)":"infinite","setRate(address,uint8)":"27428","takeBack(uint256,address)":"infinite","totalBalanceIHaveAdded(address)":"2904","used(address,address)":"infinite","withdraw(uint256)":"infinite"}},"methodIdentifiers":{"ReceivedFrom(address,address)":"d2713bcf","addFund()":"a2f09dfa","approveRequest(uint256)":"d7d1bbdb","balance(address)":"e3d670d7","borrowed(address,address)":"b0a02abe","clearedMyDebt(address)":"43999ac2","createRequest(string,uint256,address)":"8a9cfd55","given(address,address)":"b331ea63","lend(uint256,address)":"b1884744","loanGivenArr(address,uint256)":"092a0a8a","loanTakenArr(address,uint256)":"31287c31","numberOfPeopleIPaid(address)":"d522ac8f","numberOfPeopleWhoHaveGivenLoanToMe(address)":"334e3de2","numberOfPeopleWhoPaidMe(address)":"ad1ac14c","numberOfPeopleWhomIHaveGivenLoan(address)":"f0610297","numberOfRequets(address)":"8ead837b","paidArr(address,uint256)":"4fd49044","paidTo(address,address)":"88811f8d","pay(address,uint256,uint256,uint256,string)":"d14d7ae8","rate(address,address)":"50e30042","receivedArr(address,uint256)":"d7b6e15e","rejectRequest(uint256)":"2d7788db","requests(address,uint256)":"9ecebe2a","setRate(address,uint8)":"9e6b84c4","takeBack(uint256,address)":"95f4513a","totalBalanceIHaveAdded(address)":"71929c51","used(address,address)":"5195afa5","withdraw(uint256)":"2e1a7d4d"}},"storageLayout":{"storage":[{"astId":16,"contract":"DePay.sol:DePay","label":"requests","offset":0,"slot":"0","type":"t_mapping(t_address,t_array(t_struct(Request)10_storage)dyn_storage)"},{"astId":20,"contract":"DePay.sol:DePay","label":"balance","offset":0,"slot":"1","type":"t_mapping(t_address,t_uint256)"},{"astId":26,"contract":"DePay.sol:DePay","label":"given","offset":0,"slot":"2","type":"t_mapping(t_address,t_mapping(t_address,t_uint256))"},{"astId":32,"contract":"DePay.sol:DePay","label":"used","offset":0,"slot":"3","type":"t_mapping(t_address,t_mapping(t_address,t_uint256))"},{"astId":38,"contract":"DePay.sol:DePay","label":"borrowed","offset":0,"slot":"4","type":"t_mapping(t_address,t_mapping(t_address,t_uint256))"},{"astId":44,"contract":"DePay.sol:DePay","label":"paidTo","offset":0,"slot":"5","type":"t_mapping(t_address,t_mapping(t_address,t_uint256))"},{"astId":50,"contract":"DePay.sol:DePay","label":"ReceivedFrom","offset":0,"slot":"6","type":"t_mapping(t_address,t_mapping(t_address,t_uint256))"},{"astId":56,"contract":"DePay.sol:DePay","label":"rate","offset":0,"slot":"7","type":"t_mapping(t_address,t_mapping(t_address,t_uint8))"},{"astId":61,"contract":"DePay.sol:DePay","label":"paidArr","offset":0,"slot":"8","type":"t_mapping(t_address,t_array(t_address)dyn_storage)"},{"astId":66,"contract":"DePay.sol:DePay","label":"receivedArr","offset":0,"slot":"9","type":"t_mapping(t_address,t_array(t_address)dyn_storage)"},{"astId":71,"contract":"DePay.sol:DePay","label":"loanGivenArr","offset":0,"slot":"10","type":"t_mapping(t_address,t_array(t_address)dyn_storage)"},{"astId":76,"contract":"DePay.sol:DePay","label":"loanTakenArr","offset":0,"slot":"11","type":"t_mapping(t_address,t_array(t_address)dyn_storage)"},{"astId":80,"contract":"DePay.sol:DePay","label":"totalBalanceIHaveAdded","offset":0,"slot":"12","type":"t_mapping(t_address,t_uint256)"}],"types":{"t_address":{"encoding":"inplace","label":"address","numberOfBytes":"20"},"t_array(t_address)dyn_storage":{"base":"t_address","encoding":"dynamic_array","label":"address[]","numberOfBytes":"32"},"t_array(t_struct(Request)10_storage)dyn_storage":{"base":"t_struct(Request)10_storage","encoding":"dynamic_array","label":"struct DePay.Request[]","numberOfBytes":"32"},"t_bool":{"encoding":"inplace","label":"bool","numberOfBytes":"1"},"t_mapping(t_address,t_array(t_address)dyn_storage)":{"encoding":"mapping","key":"t_address","label":"mapping(address => address[])","numberOfBytes":"32","value":"t_array(t_address)dyn_storage"},"t_mapping(t_address,t_array(t_struct(Request)10_storage)dyn_storage)":{"encoding":"mapping","key":"t_address","label":"mapping(address => struct DePay.Request[])","numberOfBytes":"32","value":"t_array(t_struct(Request)10_storage)dyn_storage"},"t_mapping(t_address,t_mapping(t_address,t_uint256))":{"encoding":"mapping","key":"t_address","label":"mapping(address => mapping(address => uint256))","numberOfBytes":"32","value":"t_mapping(t_address,t_uint256)"},"t_mapping(t_address,t_mapping(t_address,t_uint8))":{"encoding":"mapping","key":"t_address","label":"mapping(address => mapping(address => uint8))","numberOfBytes":"32","value":"t_mapping(t_address,t_uint8)"},"t_mapping(t_address,t_uint256)":{"encoding":"mapping","key":"t_address","label":"mapping(address => uint256)","numberOfBytes":"32","value":"t_uint256"},"t_mapping(t_address,t_uint8)":{"encoding":"mapping","key":"t_address","label":"mapping(address => uint8)","numberOfBytes":"32","value":"t_uint8"},"t_string_storage":{"encoding":"bytes","label":"string","numberOfBytes":"32"},"t_struct(Request)10_storage":{"encoding":"inplace","label":"struct DePay.Request","members":[{"astId":3,"contract":"DePay.sol:DePay","label":"description","offset":0,"slot":"0","type":"t_string_storage"},{"astId":5,"contract":"DePay.sol:DePay","label":"value","offset":0,"slot":"1","type":"t_uint256"},{"astId":7,"contract":"DePay.sol:DePay","label":"complete","offset":0,"slot":"2","type":"t_bool"},{"astId":9,"contract":"DePay.sol:DePay","label":"from","offset":1,"slot":"2","type":"t_address"}],"numberOfBytes":"96"},"t_uint256":{"encoding":"inplace","label":"uint256","numberOfBytes":"32"},"t_uint8":{"encoding":"inplace","label":"uint8","numberOfBytes":"1"}}},"userdoc":{"kind":"user","methods":{},"version":1}}