{"abi":[{"anonymous":false,"inputs":[{"indexed":true,"internalType":"address","name":"_from","type":"address"},{"indexed":false,"internalType":"uint256","name":"amount","type":"uint256"},{"indexed":true,"internalType":"address","name":"_to","type":"address"},{"indexed":false,"internalType":"uint256","name":"date","type":"uint256"},{"indexed":false,"internalType":"uint256","name":"time","type":"uint256"},{"indexed":false,"internalType":"string","name":"purpose","type":"string"}],"name":"transactionData","type":"event"},{"inputs":[{"internalType":"address","name":"","type":"address"},{"internalType":"address","name":"","type":"address"}],"name":"ReceivedFrom","outputs":[{"internalType":"uint256","name":"","type":"uint256"}],"stateMutability":"view","type":"function"},{"inputs":[],"name":"addFund","outputs":[],"stateMutability":"payable","type":"function"},{"inputs":[{"internalType":"uint256","name":"index","type":"uint256"}],"name":"approveRequest","outputs":[],"stateMutability":"payable","type":"function"},{"inputs":[{"internalType":"address","name":"","type":"address"}],"name":"balance","outputs":[{"internalType":"uint256","name":"","type":"uint256"}],"stateMutability":"view","type":"function"},{"inputs":[{"internalType":"address","name":"","type":"address"},{"internalType":"address","name":"","type":"address"}],"name":"borrowed","outputs":[{"internalType":"uint256","name":"","type":"uint256"}],"stateMutability":"view","type":"function"},{"inputs":[{"internalType":"address","name":"_to","type":"address"}],"name":"clearedMyDebt","outputs":[],"stateMutability":"nonpayable","type":"function"},{"inputs":[{"internalType":"string","name":"description","type":"string"},{"internalType":"uint256","name":"value","type":"uint256"},{"internalType":"address","name":"_to","type":"address"}],"name":"createRequest","outputs":[],"stateMutability":"nonpayable","type":"function"},{"inputs":[{"internalType":"address","name":"","type":"address"},{"internalType":"address","name":"","type":"address"}],"name":"given","outputs":[{"internalType":"uint256","name":"","type":"uint256"}],"stateMutability":"view","type":"function"},{"inputs":[{"internalType":"uint256","name":"amount","type":"uint256"},{"internalType":"address payable","name":"_to","type":"address"}],"name":"lend","outputs":[],"stateMutability":"payable","type":"function"},{"inputs":[{"internalType":"address","name":"","type":"address"},{"internalType":"uint256","name":"","type":"uint256"}],"name":"loanGivenArr","outputs":[{"internalType":"address","name":"","type":"address"}],"stateMutability":"view","type":"function"},{"inputs":[{"internalType":"address","name":"","type":"address"},{"internalType":"uint256","name":"","type":"uint256"}],"name":"loanTakenArr","outputs":[{"internalType":"address","name":"","type":"address"}],"stateMutability":"view","type":"function"},{"inputs":[{"internalType":"address","name":"find","type":"address"}],"name":"numberOfPeopleIPaid","outputs":[{"internalType":"uint256","name":"","type":"uint256"}],"stateMutability":"view","type":"function"},{"inputs":[{"internalType":"address","name":"find","type":"address"}],"name":"numberOfPeopleWhoHaveGivenLoanToMe","outputs":[{"internalType":"uint256","name":"","type":"uint256"}],"stateMutability":"view","type":"function"},{"inputs":[{"internalType":"address","name":"find","type":"address"}],"name":"numberOfPeopleWhoPaidMe","outputs":[{"internalType":"uint256","name":"","type":"uint256"}],"stateMutability":"view","type":"function"},{"inputs":[{"internalType":"address","name":"find","type":"address"}],"name":"numberOfPeopleWhomIHaveGivenLoan","outputs":[{"internalType":"uint256","name":"","type":"uint256"}],"stateMutability":"view","type":"function"},{"inputs":[{"internalType":"address","name":"find","type":"address"}],"name":"numberOfRequets","outputs":[{"internalType":"uint256","name":"","type":"uint256"}],"stateMutability":"view","type":"function"},{"inputs":[{"internalType":"address","name":"","type":"address"},{"internalType":"uint256","name":"","type":"uint256"}],"name":"paidArr","outputs":[{"internalType":"address","name":"","type":"address"}],"stateMutability":"view","type":"function"},{"inputs":[{"internalType":"address","name":"","type":"address"},{"internalType":"address","name":"","type":"address"}],"name":"paidTo","outputs":[{"internalType":"uint256","name":"","type":"uint256"}],"stateMutability":"view","type":"function"},{"inputs":[{"internalType":"address payable","name":"_to","type":"address"},{"internalType":"uint256","name":"amount","type":"uint256"},{"internalType":"uint256","name":"date","type":"uint256"},{"internalType":"uint256","name":"time","type":"uint256"},{"internalType":"string","name":"purpose","type":"string"}],"name":"pay","outputs":[],"stateMutability":"payable","type":"function"},{"inputs":[{"internalType":"address","name":"","type":"address"},{"internalType":"address","name":"","type":"address"}],"name":"rate","outputs":[{"internalType":"uint8","name":"","type":"uint8"}],"stateMutability":"view","type":"function"},{"inputs":[{"internalType":"address","name":"","type":"address"},{"internalType":"uint256","name":"","type":"uint256"}],"name":"receivedArr","outputs":[{"internalType":"address","name":"","type":"address"}],"stateMutability":"view","type":"function"},{"inputs":[{"internalType":"uint256","name":"index","type":"uint256"}],"name":"rejectRequest","outputs":[],"stateMutability":"nonpayable","type":"function"},{"inputs":[{"internalType":"address","name":"","type":"address"},{"internalType":"uint256","name":"","type":"uint256"}],"name":"requests","outputs":[{"internalType":"string","name":"description","type":"string"},{"internalType":"uint256","name":"value","type":"uint256"},{"internalType":"bool","name":"complete","type":"bool"},{"internalType":"address","name":"from","type":"address"}],"stateMutability":"view","type":"function"},{"inputs":[{"internalType":"address","name":"_for","type":"address"},{"internalType":"uint8","name":"rates","type":"uint8"}],"name":"setRate","outputs":[],"stateMutability":"nonpayable","type":"function"},{"inputs":[{"internalType":"uint256","name":"amount","type":"uint256"},{"internalType":"address payable","name":"_to","type":"address"}],"name":"takeBack","outputs":[],"stateMutability":"payable","type":"function"},{"inputs":[{"internalType":"address","name":"","type":"address"}],"name":"totalBalanceIHaveAdded","outputs":[{"internalType":"uint256","name":"","type":"uint256"}],"stateMutability":"view","type":"function"},{"inputs":[{"internalType":"address","name":"","type":"address"},{"internalType":"address","name":"","type":"address"}],"name":"used","outputs":[{"internalType":"uint256","name":"","type":"uint256"}],"stateMutability":"view","type":"function"},{"inputs":[{"internalType":"uint256","name":"amount","type":"uint256"}],"name":"withdraw","outputs":[],"stateMutability":"payable","type":"function"}],"devdoc":{"kind":"dev","methods":{},"version":1},"evm":{"assembly":"    /* \"DePay.sol\":125:6037  contract DePay {... */\n  mstore(0x40, 0x80)\n  callvalue\n  dup1\n  iszero\n  tag_1\n  jumpi\n  0x00\n  dup1\n  revert\ntag_1:\n  pop\n  dataSize(sub_0)\n  dup1\n  dataOffset(sub_0)\n  0x00\n  codecopy\n  0x00\n  return\nstop\n\nsub_0: assembly {\n        /* \"DePay.sol\":125:6037  contract DePay {... */\n      mstore(0x40, 0x80)\n      jumpi(tag_1, lt(calldatasize, 0x04))\n      shr(0xe0, calldataload(0x00))\n      dup1\n      0x9e6b84c4\n      gt\n      tag_30\n      jumpi\n      dup1\n      0xd14d7ae8\n      gt\n      tag_31\n      jumpi\n      dup1\n      0xd7b6e15e\n      gt\n      tag_32\n      jumpi\n      dup1\n      0xd7b6e15e\n      eq\n      tag_26\n      jumpi\n      dup1\n      0xd7d1bbdb\n      eq\n      tag_27\n      jumpi\n      dup1\n      0xe3d670d7\n      eq\n      tag_28\n      jumpi\n      dup1\n      0xf0610297\n      eq\n      tag_29\n      jumpi\n      jump(tag_1)\n    tag_32:\n      dup1\n      0xd14d7ae8\n      eq\n      tag_23\n      jumpi\n      dup1\n      0xd2713bcf\n      eq\n      tag_24\n      jumpi\n      dup1\n      0xd522ac8f\n      eq\n      tag_25\n      jumpi\n      jump(tag_1)\n    tag_31:\n      dup1\n      0xad1ac14c\n      gt\n      tag_33\n      jumpi\n      dup1\n      0xad1ac14c\n      eq\n      tag_19\n      jumpi\n      dup1\n      0xb0a02abe\n      eq\n      tag_20\n      jumpi\n      dup1\n      0xb1884744\n      eq\n      tag_21\n      jumpi\n      dup1\n      0xb331ea63\n      eq\n      tag_22\n      jumpi\n      jump(tag_1)\n    tag_33:\n      dup1\n      0x9e6b84c4\n      eq\n      tag_16\n      jumpi\n      dup1\n      0x9ecebe2a\n      eq\n      tag_17\n      jumpi\n      dup1\n      0xa2f09dfa\n      eq\n      tag_18\n      jumpi\n      jump(tag_1)\n    tag_30:\n      dup1\n      0x50e30042\n      gt\n      tag_34\n      jumpi\n      dup1\n      0x88811f8d\n      gt\n      tag_35\n      jumpi\n      dup1\n      0x88811f8d\n      eq\n      tag_12\n      jumpi\n      dup1\n      0x8a9cfd55\n      eq\n      tag_13\n      jumpi\n      dup1\n      0x8ead837b\n      eq\n      tag_14\n      jumpi\n      dup1\n      0x95f4513a\n      eq\n      tag_15\n      jumpi\n      jump(tag_1)\n    tag_35:\n      dup1\n      0x50e30042\n      eq\n      tag_9\n      jumpi\n      dup1\n      0x5195afa5\n      eq\n      tag_10\n      jumpi\n      dup1\n      0x71929c51\n      eq\n      tag_11\n      jumpi\n      jump(tag_1)\n    tag_34:\n      dup1\n      0x31287c31\n      gt\n      tag_36\n      jumpi\n      dup1\n      0x31287c31\n      eq\n      tag_5\n      jumpi\n      dup1\n      0x334e3de2\n      eq\n      tag_6\n      jumpi\n      dup1\n      0x43999ac2\n      eq\n      tag_7\n      jumpi\n      dup1\n      0x4fd49044\n      eq\n      tag_8\n      jumpi\n      jump(tag_1)\n    tag_36:\n      dup1\n      0x092a0a8a\n      eq\n      tag_2\n      jumpi\n      dup1\n      0x2d7788db\n      eq\n      tag_3\n      jumpi\n      dup1\n      0x2e1a7d4d\n      eq\n      tag_4\n      jumpi\n    tag_1:\n      0x00\n      dup1\n      revert\n        /* \"DePay.sol\":876:925  mapping(address => address[]) public loanGivenArr */\n    tag_2:\n      callvalue\n      dup1\n      iszero\n      tag_37\n      jumpi\n      0x00\n      dup1\n      revert\n    tag_37:\n      pop\n      tag_38\n      0x04\n      dup1\n      calldatasize\n      sub\n      dup2\n      add\n      swap1\n      tag_39\n      swap2\n      swap1\n      tag_40\n      jump\t// in\n    tag_39:\n      tag_41\n      jump\t// in\n    tag_38:\n      mload(0x40)\n      tag_42\n      swap2\n      swap1\n      tag_43\n      jump\t// in\n    tag_42:\n      mload(0x40)\n      dup1\n      swap2\n      sub\n      swap1\n      return\n        /* \"DePay.sol\":4786:5050  function rejectRequest(uint256 index) public {... */\n    tag_3:\n      callvalue\n      dup1\n      iszero\n      tag_44\n      jumpi\n      0x00\n      dup1\n      revert\n    tag_44:\n      pop\n      tag_45\n      0x04\n      dup1\n      calldatasize\n      sub\n      dup2\n      add\n      swap1\n      tag_46\n      swap2\n      swap1\n      tag_47\n      jump\t// in\n    tag_46:\n      tag_48\n      jump\t// in\n    tag_45:\n      stop\n        /* \"DePay.sol\":2221:2503  function withdraw(uint256 amount) public payable {... */\n    tag_4:\n      tag_49\n      0x04\n      dup1\n      calldatasize\n      sub\n      dup2\n      add\n      swap1\n      tag_50\n      swap2\n      swap1\n      tag_47\n      jump\t// in\n    tag_50:\n      tag_51\n      jump\t// in\n    tag_49:\n      stop\n        /* \"DePay.sol\":931:980  mapping(address => address[]) public loanTakenArr */\n    tag_5:\n      callvalue\n      dup1\n      iszero\n      tag_52\n      jumpi\n      0x00\n      dup1\n      revert\n    tag_52:\n      pop\n      tag_53\n      0x04\n      dup1\n      calldatasize\n      sub\n      dup2\n      add\n      swap1\n      tag_54\n      swap2\n      swap1\n      tag_40\n      jump\t// in\n    tag_54:\n      tag_55\n      jump\t// in\n    tag_53:\n      mload(0x40)\n      tag_56\n      swap2\n      swap1\n      tag_43\n      jump\t// in\n    tag_56:\n      mload(0x40)\n      dup1\n      swap2\n      sub\n      swap1\n      return\n        /* \"DePay.sol\":5775:5944  function numberOfPeopleWhoHaveGivenLoanToMe(address find)... */\n    tag_6:\n      callvalue\n      dup1\n      iszero\n      tag_57\n      jumpi\n      0x00\n      dup1\n      revert\n    tag_57:\n      pop\n      tag_58\n      0x04\n      dup1\n      calldatasize\n      sub\n      dup2\n      add\n      swap1\n      tag_59\n      swap2\n      swap1\n      tag_60\n      jump\t// in\n    tag_59:\n      tag_61\n      jump\t// in\n    tag_58:\n      mload(0x40)\n      tag_62\n      swap2\n      swap1\n      tag_63\n      jump\t// in\n    tag_62:\n      mload(0x40)\n      dup1\n      swap2\n      sub\n      swap1\n      return\n        /* \"DePay.sol\":5950:6035  function clearedMyDebt(address _to) public {... */\n    tag_7:\n      callvalue\n      dup1\n      iszero\n      tag_64\n      jumpi\n      0x00\n      dup1\n      revert\n    tag_64:\n      pop\n      tag_65\n      0x04\n      dup1\n      calldatasize\n      sub\n      dup2\n      add\n      swap1\n      tag_66\n      swap2\n      swap1\n      tag_60\n      jump\t// in\n    tag_66:\n      tag_67\n      jump\t// in\n    tag_65:\n      stop\n        /* \"DePay.sol\":772:816  mapping(address => address[]) public paidArr */\n    tag_8:\n      callvalue\n      dup1\n      iszero\n      tag_68\n      jumpi\n      0x00\n      dup1\n      revert\n    tag_68:\n      pop\n      tag_69\n      0x04\n      dup1\n      calldatasize\n      sub\n      dup2\n      add\n      swap1\n      tag_70\n      swap2\n      swap1\n      tag_40\n      jump\t// in\n    tag_70:\n      tag_71\n      jump\t// in\n    tag_69:\n      mload(0x40)\n      tag_72\n      swap2\n      swap1\n      tag_43\n      jump\t// in\n    tag_72:\n      mload(0x40)\n      dup1\n      swap2\n      sub\n      swap1\n      return\n        /* \"DePay.sol\":709:766  mapping(address => mapping(address => uint8)) public rate */\n    tag_9:\n      callvalue\n      dup1\n      iszero\n      tag_73\n      jumpi\n      0x00\n      dup1\n      revert\n    tag_73:\n      pop\n      tag_74\n      0x04\n      dup1\n      calldatasize\n      sub\n      dup2\n      add\n      swap1\n      tag_75\n      swap2\n      swap1\n      tag_76\n      jump\t// in\n    tag_75:\n      tag_77\n      jump\t// in\n    tag_74:\n      mload(0x40)\n      tag_78\n      swap2\n      swap1\n      tag_79\n      jump\t// in\n    tag_78:\n      mload(0x40)\n      dup1\n      swap2\n      sub\n      swap1\n      return\n        /* \"DePay.sol\":435:494  mapping(address => mapping(address => uint256)) public used */\n    tag_10:\n      callvalue\n      dup1\n      iszero\n      tag_80\n      jumpi\n      0x00\n      dup1\n      revert\n    tag_80:\n      pop\n      tag_81\n      0x04\n      dup1\n      calldatasize\n      sub\n      dup2\n      add\n      swap1\n      tag_82\n      swap2\n      swap1\n      tag_76\n      jump\t// in\n    tag_82:\n      tag_83\n      jump\t// in\n    tag_81:\n      mload(0x40)\n      tag_84\n      swap2\n      swap1\n      tag_63\n      jump\t// in\n    tag_84:\n      mload(0x40)\n      dup1\n      swap2\n      sub\n      swap1\n      return\n        /* \"DePay.sol\":986:1043  mapping(address => uint256) public totalBalanceIHaveAdded */\n    tag_11:\n      callvalue\n      dup1\n      iszero\n      tag_85\n      jumpi\n      0x00\n      dup1\n      revert\n    tag_85:\n      pop\n      tag_86\n      0x04\n      dup1\n      calldatasize\n      sub\n      dup2\n      add\n      swap1\n      tag_87\n      swap2\n      swap1\n      tag_60\n      jump\t// in\n    tag_87:\n      tag_88\n      jump\t// in\n    tag_86:\n      mload(0x40)\n      tag_89\n      swap2\n      swap1\n      tag_63\n      jump\t// in\n    tag_89:\n      mload(0x40)\n      dup1\n      swap2\n      sub\n      swap1\n      return\n        /* \"DePay.sol\":569:630  mapping(address => mapping(address => uint256)) public paidTo */\n    tag_12:\n      callvalue\n      dup1\n      iszero\n      tag_90\n      jumpi\n      0x00\n      dup1\n      revert\n    tag_90:\n      pop\n      tag_91\n      0x04\n      dup1\n      calldatasize\n      sub\n      dup2\n      add\n      swap1\n      tag_92\n      swap2\n      swap1\n      tag_76\n      jump\t// in\n    tag_92:\n      tag_93\n      jump\t// in\n    tag_91:\n      mload(0x40)\n      tag_94\n      swap2\n      swap1\n      tag_63\n      jump\t// in\n    tag_94:\n      mload(0x40)\n      dup1\n      swap2\n      sub\n      swap1\n      return\n        /* \"DePay.sol\":3543:4206  function createRequest(... */\n    tag_13:\n      callvalue\n      dup1\n      iszero\n      tag_95\n      jumpi\n      0x00\n      dup1\n      revert\n    tag_95:\n      pop\n      tag_96\n      0x04\n      dup1\n      calldatasize\n      sub\n      dup2\n      add\n      swap1\n      tag_97\n      swap2\n      swap1\n      tag_98\n      jump\t// in\n    tag_97:\n      tag_99\n      jump\t// in\n    tag_96:\n      stop\n        /* \"DePay.sol\":5216:5334  function numberOfRequets(address find) external view returns (uint256) {... */\n    tag_14:\n      callvalue\n      dup1\n      iszero\n      tag_100\n      jumpi\n      0x00\n      dup1\n      revert\n    tag_100:\n      pop\n      tag_101\n      0x04\n      dup1\n      calldatasize\n      sub\n      dup2\n      add\n      swap1\n      tag_102\n      swap2\n      swap1\n      tag_60\n      jump\t// in\n    tag_102:\n      tag_103\n      jump\t// in\n    tag_101:\n      mload(0x40)\n      tag_104\n      swap2\n      swap1\n      tag_63\n      jump\t// in\n    tag_104:\n      mload(0x40)\n      dup1\n      swap2\n      sub\n      swap1\n      return\n        /* \"DePay.sol\":3134:3537  function takeBack(uint256 amount, address payable _to) public payable {... */\n    tag_15:\n      tag_105\n      0x04\n      dup1\n      calldatasize\n      sub\n      dup2\n      add\n      swap1\n      tag_106\n      swap2\n      swap1\n      tag_107\n      jump\t// in\n    tag_106:\n      tag_108\n      jump\t// in\n    tag_105:\n      stop\n        /* \"DePay.sol\":5056:5210  function setRate(address _for,uint8 rates)public{... */\n    tag_16:\n      callvalue\n      dup1\n      iszero\n      tag_109\n      jumpi\n      0x00\n      dup1\n      revert\n    tag_109:\n      pop\n      tag_110\n      0x04\n      dup1\n      calldatasize\n      sub\n      dup2\n      add\n      swap1\n      tag_111\n      swap2\n      swap1\n      tag_112\n      jump\t// in\n    tag_111:\n      tag_113\n      jump\t// in\n    tag_110:\n      stop\n        /* \"DePay.sol\":270:315  mapping(address => Request[]) public requests */\n    tag_17:\n      callvalue\n      dup1\n      iszero\n      tag_114\n      jumpi\n      0x00\n      dup1\n      revert\n    tag_114:\n      pop\n      tag_115\n      0x04\n      dup1\n      calldatasize\n      sub\n      dup2\n      add\n      swap1\n      tag_116\n      swap2\n      swap1\n      tag_40\n      jump\t// in\n    tag_116:\n      tag_117\n      jump\t// in\n    tag_115:\n      mload(0x40)\n      tag_118\n      swap5\n      swap4\n      swap3\n      swap2\n      swap1\n      tag_119\n      jump\t// in\n    tag_118:\n      mload(0x40)\n      dup1\n      swap2\n      sub\n      swap1\n      return\n        /* \"DePay.sol\":1235:1448  function addFund() public payable {... */\n    tag_18:\n      tag_120\n      tag_121\n      jump\t// in\n    tag_120:\n      stop\n        /* \"DePay.sol\":5467:5596  function numberOfPeopleWhoPaidMe(address find) external view returns (uint256) {... */\n    tag_19:\n      callvalue\n      dup1\n      iszero\n      tag_122\n      jumpi\n      0x00\n      dup1\n      revert\n    tag_122:\n      pop\n      tag_123\n      0x04\n      dup1\n      calldatasize\n      sub\n      dup2\n      add\n      swap1\n      tag_124\n      swap2\n      swap1\n      tag_60\n      jump\t// in\n    tag_124:\n      tag_125\n      jump\t// in\n    tag_123:\n      mload(0x40)\n      tag_126\n      swap2\n      swap1\n      tag_63\n      jump\t// in\n    tag_126:\n      mload(0x40)\n      dup1\n      swap2\n      sub\n      swap1\n      return\n        /* \"DePay.sol\":500:563  mapping(address => mapping(address => uint256)) public borrowed */\n    tag_20:\n      callvalue\n      dup1\n      iszero\n      tag_127\n      jumpi\n      0x00\n      dup1\n      revert\n    tag_127:\n      pop\n      tag_128\n      0x04\n      dup1\n      calldatasize\n      sub\n      dup2\n      add\n      swap1\n      tag_129\n      swap2\n      swap1\n      tag_76\n      jump\t// in\n    tag_129:\n      tag_130\n      jump\t// in\n    tag_128:\n      mload(0x40)\n      tag_131\n      swap2\n      swap1\n      tag_63\n      jump\t// in\n    tag_131:\n      mload(0x40)\n      dup1\n      swap2\n      sub\n      swap1\n      return\n        /* \"DePay.sol\":2509:3128  function lend(uint256 amount, address payable _to) public payable {... */\n    tag_21:\n      tag_132\n      0x04\n      dup1\n      calldatasize\n      sub\n      dup2\n      add\n      swap1\n      tag_133\n      swap2\n      swap1\n      tag_107\n      jump\t// in\n    tag_133:\n      tag_134\n      jump\t// in\n    tag_132:\n      stop\n        /* \"DePay.sol\":369:429  mapping(address => mapping(address => uint256)) public given */\n    tag_22:\n      callvalue\n      dup1\n      iszero\n      tag_135\n      jumpi\n      0x00\n      dup1\n      revert\n    tag_135:\n      pop\n      tag_136\n      0x04\n      dup1\n      calldatasize\n      sub\n      dup2\n      add\n      swap1\n      tag_137\n      swap2\n      swap1\n      tag_76\n      jump\t// in\n    tag_137:\n      tag_138\n      jump\t// in\n    tag_136:\n      mload(0x40)\n      tag_139\n      swap2\n      swap1\n      tag_63\n      jump\t// in\n    tag_139:\n      mload(0x40)\n      dup1\n      swap2\n      sub\n      swap1\n      return\n        /* \"DePay.sol\":1454:2215  function pay(... */\n    tag_23:\n      tag_140\n      0x04\n      dup1\n      calldatasize\n      sub\n      dup2\n      add\n      swap1\n      tag_141\n      swap2\n      swap1\n      tag_142\n      jump\t// in\n    tag_141:\n      tag_143\n      jump\t// in\n    tag_140:\n      stop\n        /* \"DePay.sol\":636:703  mapping(address => mapping(address => uint256)) public ReceivedFrom */\n    tag_24:\n      callvalue\n      dup1\n      iszero\n      tag_144\n      jumpi\n      0x00\n      dup1\n      revert\n    tag_144:\n      pop\n      tag_145\n      0x04\n      dup1\n      calldatasize\n      sub\n      dup2\n      add\n      swap1\n      tag_146\n      swap2\n      swap1\n      tag_76\n      jump\t// in\n    tag_146:\n      tag_147\n      jump\t// in\n    tag_145:\n      mload(0x40)\n      tag_148\n      swap2\n      swap1\n      tag_63\n      jump\t// in\n    tag_148:\n      mload(0x40)\n      dup1\n      swap2\n      sub\n      swap1\n      return\n        /* \"DePay.sol\":5340:5461  function numberOfPeopleIPaid(address find) external view returns (uint256) {... */\n    tag_25:\n      callvalue\n      dup1\n      iszero\n      tag_149\n      jumpi\n      0x00\n      dup1\n      revert\n    tag_149:\n      pop\n      tag_150\n      0x04\n      dup1\n      calldatasize\n      sub\n      dup2\n      add\n      swap1\n      tag_151\n      swap2\n      swap1\n      tag_60\n      jump\t// in\n    tag_151:\n      tag_152\n      jump\t// in\n    tag_150:\n      mload(0x40)\n      tag_153\n      swap2\n      swap1\n      tag_63\n      jump\t// in\n    tag_153:\n      mload(0x40)\n      dup1\n      swap2\n      sub\n      swap1\n      return\n        /* \"DePay.sol\":822:870  mapping(address => address[]) public receivedArr */\n    tag_26:\n      callvalue\n      dup1\n      iszero\n      tag_154\n      jumpi\n      0x00\n      dup1\n      revert\n    tag_154:\n      pop\n      tag_155\n      0x04\n      dup1\n      calldatasize\n      sub\n      dup2\n      add\n      swap1\n      tag_156\n      swap2\n      swap1\n      tag_40\n      jump\t// in\n    tag_156:\n      tag_157\n      jump\t// in\n    tag_155:\n      mload(0x40)\n      tag_158\n      swap2\n      swap1\n      tag_43\n      jump\t// in\n    tag_158:\n      mload(0x40)\n      dup1\n      swap2\n      sub\n      swap1\n      return\n        /* \"DePay.sol\":4212:4780  function approveRequest(uint256 index) public payable {... */\n    tag_27:\n      tag_159\n      0x04\n      dup1\n      calldatasize\n      sub\n      dup2\n      add\n      swap1\n      tag_160\n      swap2\n      swap1\n      tag_47\n      jump\t// in\n    tag_160:\n      tag_161\n      jump\t// in\n    tag_159:\n      stop\n        /* \"DePay.sol\":321:363  mapping(address => uint256) public balance */\n    tag_28:\n      callvalue\n      dup1\n      iszero\n      tag_162\n      jumpi\n      0x00\n      dup1\n      revert\n    tag_162:\n      pop\n      tag_163\n      0x04\n      dup1\n      calldatasize\n      sub\n      dup2\n      add\n      swap1\n      tag_164\n      swap2\n      swap1\n      tag_60\n      jump\t// in\n    tag_164:\n      tag_165\n      jump\t// in\n    tag_163:\n      mload(0x40)\n      tag_166\n      swap2\n      swap1\n      tag_63\n      jump\t// in\n    tag_166:\n      mload(0x40)\n      dup1\n      swap2\n      sub\n      swap1\n      return\n        /* \"DePay.sol\":5602:5769  function numberOfPeopleWhomIHaveGivenLoan(address find)... */\n    tag_29:\n      callvalue\n      dup1\n      iszero\n      tag_167\n      jumpi\n      0x00\n      dup1\n      revert\n    tag_167:\n      pop\n      tag_168\n      0x04\n      dup1\n      calldatasize\n      sub\n      dup2\n      add\n      swap1\n      tag_169\n      swap2\n      swap1\n      tag_60\n      jump\t// in\n    tag_169:\n      tag_170\n      jump\t// in\n    tag_168:\n      mload(0x40)\n      tag_171\n      swap2\n      swap1\n      tag_63\n      jump\t// in\n    tag_171:\n      mload(0x40)\n      dup1\n      swap2\n      sub\n      swap1\n      return\n        /* \"DePay.sol\":876:925  mapping(address => address[]) public loanGivenArr */\n    tag_41:\n      mstore(0x20, 0x0a)\n      dup2\n      0x00\n      mstore\n      keccak256(0x00, 0x40)\n      dup2\n      dup2\n      sload\n      dup2\n      lt\n      tag_172\n      jumpi\n      0x00\n      dup1\n      revert\n    tag_172:\n      swap1\n      0x00\n      mstore\n      keccak256(0x00, 0x20)\n      add\n      0x00\n      swap2\n      pop\n      swap2\n      pop\n      swap1\n      sload\n      swap1\n      0x0100\n      exp\n      swap1\n      div\n      0xffffffffffffffffffffffffffffffffffffffff\n      and\n      dup2\n      jump\t// out\n        /* \"DePay.sol\":4786:5050  function rejectRequest(uint256 index) public {... */\n    tag_48:\n        /* \"DePay.sol\":4841:4864  Request storage request */\n      0x00\n        /* \"DePay.sol\":4867:4875  requests */\n      dup1\n        /* \"DePay.sol\":4867:4887  requests[msg.sender] */\n      0x00\n        /* \"DePay.sol\":4876:4886  msg.sender */\n      caller\n        /* \"DePay.sol\":4867:4887  requests[msg.sender] */\n      0xffffffffffffffffffffffffffffffffffffffff\n      and\n      0xffffffffffffffffffffffffffffffffffffffff\n      and\n      dup2\n      mstore\n      0x20\n      add\n      swap1\n      dup2\n      mstore\n      0x20\n      add\n      0x00\n      keccak256\n        /* \"DePay.sol\":4888:4893  index */\n      dup3\n        /* \"DePay.sol\":4867:4894  requests[msg.sender][index] */\n      dup2\n      sload\n      dup2\n      lt\n      tag_175\n      jumpi\n      tag_176\n      tag_177\n      jump\t// in\n    tag_176:\n    tag_175:\n      swap1\n      0x00\n      mstore\n      keccak256(0x00, 0x20)\n      swap1\n      0x03\n      mul\n      add\n        /* \"DePay.sol\":4841:4894  Request storage request = requests[msg.sender][index] */\n      swap1\n      pop\n        /* \"DePay.sol\":4945:4950  false */\n      0x00\n        /* \"DePay.sol\":4925:4950  request.complete == false */\n      iszero\n      iszero\n        /* \"DePay.sol\":4925:4932  request */\n      dup2\n        /* \"DePay.sol\":4925:4941  request.complete */\n      0x02\n      add\n      0x00\n      swap1\n      sload\n      swap1\n      0x0100\n      exp\n      swap1\n      div\n      0xff\n      and\n        /* \"DePay.sol\":4925:4950  request.complete == false */\n      iszero\n      iszero\n      eq\n        /* \"DePay.sol\":4904:5010  require(... */\n      tag_179\n      jumpi\n      mload(0x40)\n      0x08c379a000000000000000000000000000000000000000000000000000000000\n      dup2\n      mstore\n      0x04\n      add\n      tag_180\n      swap1\n      tag_181\n      jump\t// in\n    tag_180:\n      mload(0x40)\n      dup1\n      swap2\n      sub\n      swap1\n      revert\n    tag_179:\n        /* \"DePay.sol\":5039:5043  true */\n      0x01\n        /* \"DePay.sol\":5020:5027  request */\n      dup2\n        /* \"DePay.sol\":5020:5036  request.complete */\n      0x02\n      add\n      0x00\n        /* \"DePay.sol\":5020:5043  request.complete = true */\n      0x0100\n      exp\n      dup2\n      sload\n      dup2\n      0xff\n      mul\n      not\n      and\n      swap1\n      dup4\n      iszero\n      iszero\n      mul\n      or\n      swap1\n      sstore\n      pop\n        /* \"DePay.sol\":4831:5050  {... */\n      pop\n        /* \"DePay.sol\":4786:5050  function rejectRequest(uint256 index) public {... */\n      pop\n      jump\t// out\n        /* \"DePay.sol\":2221:2503  function withdraw(uint256 amount) public payable {... */\n    tag_51:\n        /* \"DePay.sol\":2297:2304  balance */\n      0x01\n        /* \"DePay.sol\":2297:2316  balance[msg.sender] */\n      0x00\n        /* \"DePay.sol\":2305:2315  msg.sender */\n      caller\n        /* \"DePay.sol\":2297:2316  balance[msg.sender] */\n      0xffffffffffffffffffffffffffffffffffffffff\n      and\n      0xffffffffffffffffffffffffffffffffffffffff\n      and\n      dup2\n      mstore\n      0x20\n      add\n      swap1\n      dup2\n      mstore\n      0x20\n      add\n      0x00\n      keccak256\n      sload\n        /* \"DePay.sol\":2288:2294  amount */\n      dup2\n        /* \"DePay.sol\":2288:2316  amount < balance[msg.sender] */\n      lt\n        /* \"DePay.sol\":2280:2339  require(amount < balance[msg.sender], \"Insufficient funds\") */\n      tag_183\n      jumpi\n      mload(0x40)\n      0x08c379a000000000000000000000000000000000000000000000000000000000\n      dup2\n      mstore\n      0x04\n      add\n      tag_184\n      swap1\n      tag_185\n      jump\t// in\n    tag_184:\n      mload(0x40)\n      dup1\n      swap2\n      sub\n      swap1\n      revert\n    tag_183:\n        /* \"DePay.sol\":2366:2367  0 */\n      0x00\n        /* \"DePay.sol\":2357:2363  amount */\n      dup2\n        /* \"DePay.sol\":2357:2367  amount > 0 */\n      gt\n        /* \"DePay.sol\":2349:2409  require(amount > 0, \"transaction with 0 eth is not allowed\") */\n      tag_186\n      jumpi\n      mload(0x40)\n      0x08c379a000000000000000000000000000000000000000000000000000000000\n      dup2\n      mstore\n      0x04\n      add\n      tag_187\n      swap1\n      tag_188\n      jump\t// in\n    tag_187:\n      mload(0x40)\n      dup1\n      swap2\n      sub\n      swap1\n      revert\n    tag_186:\n        /* \"DePay.sol\":2428:2438  msg.sender */\n      caller\n        /* \"DePay.sol\":2419:2449  (payable(msg.sender)).transfer */\n      0xffffffffffffffffffffffffffffffffffffffff\n      and\n        /* \"DePay.sol\":2419:2457  (payable(msg.sender)).transfer(amount) */\n      0x08fc\n        /* \"DePay.sol\":2450:2456  amount */\n      dup3\n        /* \"DePay.sol\":2419:2457  (payable(msg.sender)).transfer(amount) */\n      swap1\n      dup2\n      iszero\n      mul\n      swap1\n      mload(0x40)\n      0x00\n      mload(0x40)\n      dup1\n      dup4\n      sub\n      dup2\n      dup6\n      dup9\n      dup9\n      call\n      swap4\n      pop\n      pop\n      pop\n      pop\n      iszero\n      dup1\n      iszero\n      tag_190\n      jumpi\n      returndatasize\n      0x00\n      dup1\n      returndatacopy\n      revert(0x00, returndatasize)\n    tag_190:\n      pop\n        /* \"DePay.sol\":2490:2496  amount */\n      dup1\n        /* \"DePay.sol\":2467:2474  balance */\n      0x01\n        /* \"DePay.sol\":2467:2486  balance[msg.sender] */\n      0x00\n        /* \"DePay.sol\":2475:2485  msg.sender */\n      caller\n        /* \"DePay.sol\":2467:2486  balance[msg.sender] */\n      0xffffffffffffffffffffffffffffffffffffffff\n      and\n      0xffffffffffffffffffffffffffffffffffffffff\n      and\n      dup2\n      mstore\n      0x20\n      add\n      swap1\n      dup2\n      mstore\n      0x20\n      add\n      0x00\n      keccak256\n      0x00\n        /* \"DePay.sol\":2467:2496  balance[msg.sender] -= amount */\n      dup3\n      dup3\n      sload\n      tag_191\n      swap2\n      swap1\n      tag_192\n      jump\t// in\n    tag_191:\n      swap3\n      pop\n      pop\n      dup2\n      swap1\n      sstore\n      pop\n        /* \"DePay.sol\":2221:2503  function withdraw(uint256 amount) public payable {... */\n      pop\n      jump\t// out\n        /* \"DePay.sol\":931:980  mapping(address => address[]) public loanTakenArr */\n    tag_55:\n      mstore(0x20, 0x0b)\n      dup2\n      0x00\n      mstore\n      keccak256(0x00, 0x40)\n      dup2\n      dup2\n      sload\n      dup2\n      lt\n      tag_193\n      jumpi\n      0x00\n      dup1\n      revert\n    tag_193:\n      swap1\n      0x00\n      mstore\n      keccak256(0x00, 0x20)\n      add\n      0x00\n      swap2\n      pop\n      swap2\n      pop\n      swap1\n      sload\n      swap1\n      0x0100\n      exp\n      swap1\n      div\n      0xffffffffffffffffffffffffffffffffffffffff\n      and\n      dup2\n      jump\t// out\n        /* \"DePay.sol\":5775:5944  function numberOfPeopleWhoHaveGivenLoanToMe(address find)... */\n    tag_61:\n        /* \"DePay.sol\":5880:5887  uint256 */\n      0x00\n        /* \"DePay.sol\":5911:5923  loanTakenArr */\n      0x0b\n        /* \"DePay.sol\":5911:5929  loanTakenArr[find] */\n      0x00\n        /* \"DePay.sol\":5924:5928  find */\n      dup4\n        /* \"DePay.sol\":5911:5929  loanTakenArr[find] */\n      0xffffffffffffffffffffffffffffffffffffffff\n      and\n      0xffffffffffffffffffffffffffffffffffffffff\n      and\n      dup2\n      mstore\n      0x20\n      add\n      swap1\n      dup2\n      mstore\n      0x20\n      add\n      0x00\n      keccak256\n        /* \"DePay.sol\":5911:5936  loanTakenArr[find].length */\n      dup1\n      sload\n      swap1\n      pop\n        /* \"DePay.sol\":5903:5937  return (loanTakenArr[find].length) */\n      swap1\n      pop\n        /* \"DePay.sol\":5775:5944  function numberOfPeopleWhoHaveGivenLoanToMe(address find)... */\n      swap2\n      swap1\n      pop\n      jump\t// out\n        /* \"DePay.sol\":5950:6035  function clearedMyDebt(address _to) public {... */\n    tag_67:\n        /* \"DePay.sol\":6027:6028  0 */\n      0x00\n        /* \"DePay.sol\":6003:6007  used */\n      0x03\n        /* \"DePay.sol\":6003:6019  used[msg.sender] */\n      0x00\n        /* \"DePay.sol\":6008:6018  msg.sender */\n      caller\n        /* \"DePay.sol\":6003:6019  used[msg.sender] */\n      0xffffffffffffffffffffffffffffffffffffffff\n      and\n      0xffffffffffffffffffffffffffffffffffffffff\n      and\n      dup2\n      mstore\n      0x20\n      add\n      swap1\n      dup2\n      mstore\n      0x20\n      add\n      0x00\n      keccak256\n        /* \"DePay.sol\":6003:6024  used[msg.sender][_to] */\n      0x00\n        /* \"DePay.sol\":6020:6023  _to */\n      dup4\n        /* \"DePay.sol\":6003:6024  used[msg.sender][_to] */\n      0xffffffffffffffffffffffffffffffffffffffff\n      and\n      0xffffffffffffffffffffffffffffffffffffffff\n      and\n      dup2\n      mstore\n      0x20\n      add\n      swap1\n      dup2\n      mstore\n      0x20\n      add\n      0x00\n      keccak256\n        /* \"DePay.sol\":6003:6028  used[msg.sender][_to] = 0 */\n      dup2\n      swap1\n      sstore\n      pop\n        /* \"DePay.sol\":5950:6035  function clearedMyDebt(address _to) public {... */\n      pop\n      jump\t// out\n        /* \"DePay.sol\":772:816  mapping(address => address[]) public paidArr */\n    tag_71:\n      mstore(0x20, 0x08)\n      dup2\n      0x00\n      mstore\n      keccak256(0x00, 0x40)\n      dup2\n      dup2\n      sload\n      dup2\n      lt\n      tag_197\n      jumpi\n      0x00\n      dup1\n      revert\n    tag_197:\n      swap1\n      0x00\n      mstore\n      keccak256(0x00, 0x20)\n      add\n      0x00\n      swap2\n      pop\n      swap2\n      pop\n      swap1\n      sload\n      swap1\n      0x0100\n      exp\n      swap1\n      div\n      0xffffffffffffffffffffffffffffffffffffffff\n      and\n      dup2\n      jump\t// out\n        /* \"DePay.sol\":709:766  mapping(address => mapping(address => uint8)) public rate */\n    tag_77:\n      mstore(0x20, 0x07)\n      dup2\n      0x00\n      mstore\n      mstore(0x20, keccak256(0x00, 0x40))\n      dup1\n      0x00\n      mstore\n      keccak256(0x00, 0x40)\n      0x00\n      swap2\n      pop\n      swap2\n      pop\n      swap1\n      sload\n      swap1\n      0x0100\n      exp\n      swap1\n      div\n      0xff\n      and\n      dup2\n      jump\t// out\n        /* \"DePay.sol\":435:494  mapping(address => mapping(address => uint256)) public used */\n    tag_83:\n      mstore(0x20, 0x03)\n      dup2\n      0x00\n      mstore\n      mstore(0x20, keccak256(0x00, 0x40))\n      dup1\n      0x00\n      mstore\n      keccak256(0x00, 0x40)\n      0x00\n      swap2\n      pop\n      swap2\n      pop\n      pop\n      sload\n      dup2\n      jump\t// out\n        /* \"DePay.sol\":986:1043  mapping(address => uint256) public totalBalanceIHaveAdded */\n    tag_88:\n      mstore(0x20, 0x0c)\n      dup1\n      0x00\n      mstore\n      keccak256(0x00, 0x40)\n      0x00\n      swap2\n      pop\n      swap1\n      pop\n      sload\n      dup2\n      jump\t// out\n        /* \"DePay.sol\":569:630  mapping(address => mapping(address => uint256)) public paidTo */\n    tag_93:\n      mstore(0x20, 0x05)\n      dup2\n      0x00\n      mstore\n      mstore(0x20, keccak256(0x00, 0x40))\n      dup1\n      0x00\n      mstore\n      keccak256(0x00, 0x40)\n      0x00\n      swap2\n      pop\n      swap2\n      pop\n      pop\n      sload\n      dup2\n      jump\t// out\n        /* \"DePay.sol\":3543:4206  function createRequest(... */\n    tag_99:\n        /* \"DePay.sol\":3738:3739  0 */\n      0x00\n        /* \"DePay.sol\":3714:3718  used */\n      0x03\n        /* \"DePay.sol\":3714:3730  used[msg.sender] */\n      0x00\n        /* \"DePay.sol\":3719:3729  msg.sender */\n      caller\n        /* \"DePay.sol\":3714:3730  used[msg.sender] */\n      0xffffffffffffffffffffffffffffffffffffffff\n      and\n      0xffffffffffffffffffffffffffffffffffffffff\n      and\n      dup2\n      mstore\n      0x20\n      add\n      swap1\n      dup2\n      mstore\n      0x20\n      add\n      0x00\n      keccak256\n        /* \"DePay.sol\":3714:3735  used[msg.sender][_to] */\n      0x00\n        /* \"DePay.sol\":3731:3734  _to */\n      dup4\n        /* \"DePay.sol\":3714:3735  used[msg.sender][_to] */\n      0xffffffffffffffffffffffffffffffffffffffff\n      and\n      0xffffffffffffffffffffffffffffffffffffffff\n      and\n      dup2\n      mstore\n      0x20\n      add\n      swap1\n      dup2\n      mstore\n      0x20\n      add\n      0x00\n      keccak256\n      sload\n        /* \"DePay.sol\":3689:3694  given */\n      0x02\n        /* \"DePay.sol\":3689:3699  given[_to] */\n      0x00\n        /* \"DePay.sol\":3695:3698  _to */\n      dup5\n        /* \"DePay.sol\":3689:3699  given[_to] */\n      0xffffffffffffffffffffffffffffffffffffffff\n      and\n      0xffffffffffffffffffffffffffffffffffffffff\n      and\n      dup2\n      mstore\n      0x20\n      add\n      swap1\n      dup2\n      mstore\n      0x20\n      add\n      0x00\n      keccak256\n        /* \"DePay.sol\":3689:3711  given[_to][msg.sender] */\n      0x00\n        /* \"DePay.sol\":3700:3710  msg.sender */\n      caller\n        /* \"DePay.sol\":3689:3711  given[_to][msg.sender] */\n      0xffffffffffffffffffffffffffffffffffffffff\n      and\n      0xffffffffffffffffffffffffffffffffffffffff\n      and\n      dup2\n      mstore\n      0x20\n      add\n      swap1\n      dup2\n      mstore\n      0x20\n      add\n      0x00\n      keccak256\n      sload\n        /* \"DePay.sol\":3689:3735  given[_to][msg.sender] - used[msg.sender][_to] */\n      tag_200\n      swap2\n      swap1\n      tag_192\n      jump\t// in\n    tag_200:\n        /* \"DePay.sol\":3689:3739  given[_to][msg.sender] - used[msg.sender][_to] > 0 */\n      gt\n        /* \"DePay.sol\":3668:3813  require(... */\n      tag_201\n      jumpi\n      mload(0x40)\n      0x08c379a000000000000000000000000000000000000000000000000000000000\n      dup2\n      mstore\n      0x04\n      add\n      tag_202\n      swap1\n      tag_203\n      jump\t// in\n    tag_202:\n      mload(0x40)\n      dup1\n      swap2\n      sub\n      swap1\n      revert\n    tag_201:\n        /* \"DePay.sol\":3894:3899  value */\n      dup2\n        /* \"DePay.sol\":3869:3873  used */\n      0x03\n        /* \"DePay.sol\":3869:3885  used[msg.sender] */\n      0x00\n        /* \"DePay.sol\":3874:3884  msg.sender */\n      caller\n        /* \"DePay.sol\":3869:3885  used[msg.sender] */\n      0xffffffffffffffffffffffffffffffffffffffff\n      and\n      0xffffffffffffffffffffffffffffffffffffffff\n      and\n      dup2\n      mstore\n      0x20\n      add\n      swap1\n      dup2\n      mstore\n      0x20\n      add\n      0x00\n      keccak256\n        /* \"DePay.sol\":3869:3890  used[msg.sender][_to] */\n      0x00\n        /* \"DePay.sol\":3886:3889  _to */\n      dup4\n        /* \"DePay.sol\":3869:3890  used[msg.sender][_to] */\n      0xffffffffffffffffffffffffffffffffffffffff\n      and\n      0xffffffffffffffffffffffffffffffffffffffff\n      and\n      dup2\n      mstore\n      0x20\n      add\n      swap1\n      dup2\n      mstore\n      0x20\n      add\n      0x00\n      keccak256\n      sload\n        /* \"DePay.sol\":3844:3849  given */\n      0x02\n        /* \"DePay.sol\":3844:3854  given[_to] */\n      0x00\n        /* \"DePay.sol\":3850:3853  _to */\n      dup5\n        /* \"DePay.sol\":3844:3854  given[_to] */\n      0xffffffffffffffffffffffffffffffffffffffff\n      and\n      0xffffffffffffffffffffffffffffffffffffffff\n      and\n      dup2\n      mstore\n      0x20\n      add\n      swap1\n      dup2\n      mstore\n      0x20\n      add\n      0x00\n      keccak256\n        /* \"DePay.sol\":3844:3866  given[_to][msg.sender] */\n      0x00\n        /* \"DePay.sol\":3855:3865  msg.sender */\n      caller\n        /* \"DePay.sol\":3844:3866  given[_to][msg.sender] */\n      0xffffffffffffffffffffffffffffffffffffffff\n      and\n      0xffffffffffffffffffffffffffffffffffffffff\n      and\n      dup2\n      mstore\n      0x20\n      add\n      swap1\n      dup2\n      mstore\n      0x20\n      add\n      0x00\n      keccak256\n      sload\n        /* \"DePay.sol\":3844:3890  given[_to][msg.sender] - used[msg.sender][_to] */\n      tag_204\n      swap2\n      swap1\n      tag_192\n      jump\t// in\n    tag_204:\n        /* \"DePay.sol\":3844:3899  given[_to][msg.sender] - used[msg.sender][_to] >= value */\n      lt\n      iszero\n        /* \"DePay.sol\":3823:3985  require(... */\n      tag_205\n      jumpi\n      mload(0x40)\n      0x08c379a000000000000000000000000000000000000000000000000000000000\n      dup2\n      mstore\n      0x04\n      add\n      tag_206\n      swap1\n      tag_207\n      jump\t// in\n    tag_206:\n      mload(0x40)\n      dup1\n      swap2\n      sub\n      swap1\n      revert\n    tag_205:\n        /* \"DePay.sol\":3995:4021  Request storage newRequest */\n      0x00\n        /* \"DePay.sol\":4024:4032  requests */\n      dup1\n        /* \"DePay.sol\":4024:4037  requests[_to] */\n      0x00\n        /* \"DePay.sol\":4033:4036  _to */\n      dup4\n        /* \"DePay.sol\":4024:4037  requests[_to] */\n      0xffffffffffffffffffffffffffffffffffffffff\n      and\n      0xffffffffffffffffffffffffffffffffffffffff\n      and\n      dup2\n      mstore\n      0x20\n      add\n      swap1\n      dup2\n      mstore\n      0x20\n      add\n      0x00\n      keccak256\n        /* \"DePay.sol\":4024:4044  requests[_to].push() */\n      0x01\n      dup2\n      0x01\n      dup2\n      sload\n      add\n      dup1\n      dup3\n      sstore\n      dup1\n      swap2\n      pop\n      pop\n      sub\n      swap1\n      0x00\n      mstore\n      keccak256(0x00, 0x20)\n      swap1\n      0x03\n      mul\n      add\n        /* \"DePay.sol\":3995:4044  Request storage newRequest = requests[_to].push() */\n      swap1\n      pop\n        /* \"DePay.sol\":4079:4090  description */\n      dup4\n        /* \"DePay.sol\":4054:4064  newRequest */\n      dup2\n        /* \"DePay.sol\":4054:4076  newRequest.description */\n      0x00\n      add\n        /* \"DePay.sol\":4054:4090  newRequest.description = description */\n      swap1\n      dup2\n      tag_209\n      swap2\n      swap1\n      tag_210\n      jump\t// in\n    tag_209:\n      pop\n        /* \"DePay.sol\":4119:4124  value */\n      dup3\n        /* \"DePay.sol\":4100:4110  newRequest */\n      dup2\n        /* \"DePay.sol\":4100:4116  newRequest.value */\n      0x01\n      add\n        /* \"DePay.sol\":4100:4124  newRequest.value = value */\n      dup2\n      swap1\n      sstore\n      pop\n        /* \"DePay.sol\":4156:4161  false */\n      0x00\n        /* \"DePay.sol\":4134:4144  newRequest */\n      dup2\n        /* \"DePay.sol\":4134:4153  newRequest.complete */\n      0x02\n      add\n      0x00\n        /* \"DePay.sol\":4134:4161  newRequest.complete = false */\n      0x0100\n      exp\n      dup2\n      sload\n      dup2\n      0xff\n      mul\n      not\n      and\n      swap1\n      dup4\n      iszero\n      iszero\n      mul\n      or\n      swap1\n      sstore\n      pop\n        /* \"DePay.sol\":4189:4199  msg.sender */\n      caller\n        /* \"DePay.sol\":4171:4181  newRequest */\n      dup2\n        /* \"DePay.sol\":4171:4186  newRequest.from */\n      0x02\n      add\n      0x01\n        /* \"DePay.sol\":4171:4199  newRequest.from = msg.sender */\n      0x0100\n      exp\n      dup2\n      sload\n      dup2\n      0xffffffffffffffffffffffffffffffffffffffff\n      mul\n      not\n      and\n      swap1\n      dup4\n      0xffffffffffffffffffffffffffffffffffffffff\n      and\n      mul\n      or\n      swap1\n      sstore\n      pop\n        /* \"DePay.sol\":3658:4206  {... */\n      pop\n        /* \"DePay.sol\":3543:4206  function createRequest(... */\n      pop\n      pop\n      pop\n      jump\t// out\n        /* \"DePay.sol\":5216:5334  function numberOfRequets(address find) external view returns (uint256) {... */\n    tag_103:\n        /* \"DePay.sol\":5278:5285  uint256 */\n      0x00\n        /* \"DePay.sol\":5305:5313  requests */\n      dup1\n        /* \"DePay.sol\":5305:5319  requests[find] */\n      0x00\n        /* \"DePay.sol\":5314:5318  find */\n      dup4\n        /* \"DePay.sol\":5305:5319  requests[find] */\n      0xffffffffffffffffffffffffffffffffffffffff\n      and\n      0xffffffffffffffffffffffffffffffffffffffff\n      and\n      dup2\n      mstore\n      0x20\n      add\n      swap1\n      dup2\n      mstore\n      0x20\n      add\n      0x00\n      keccak256\n        /* \"DePay.sol\":5305:5326  requests[find].length */\n      dup1\n      sload\n      swap1\n      pop\n        /* \"DePay.sol\":5297:5327  return (requests[find].length) */\n      swap1\n      pop\n        /* \"DePay.sol\":5216:5334  function numberOfRequets(address find) external view returns (uint256) {... */\n      swap2\n      swap1\n      pop\n      jump\t// out\n        /* \"DePay.sol\":3134:3537  function takeBack(uint256 amount, address payable _to) public payable {... */\n    tag_108:\n        /* \"DePay.sol\":3285:3291  amount */\n      dup2\n        /* \"DePay.sol\":3260:3264  used */\n      0x03\n        /* \"DePay.sol\":3260:3276  used[msg.sender] */\n      0x00\n        /* \"DePay.sol\":3265:3275  msg.sender */\n      caller\n        /* \"DePay.sol\":3260:3276  used[msg.sender] */\n      0xffffffffffffffffffffffffffffffffffffffff\n      and\n      0xffffffffffffffffffffffffffffffffffffffff\n      and\n      dup2\n      mstore\n      0x20\n      add\n      swap1\n      dup2\n      mstore\n      0x20\n      add\n      0x00\n      keccak256\n        /* \"DePay.sol\":3260:3281  used[msg.sender][_to] */\n      0x00\n        /* \"DePay.sol\":3277:3280  _to */\n      dup4\n        /* \"DePay.sol\":3260:3281  used[msg.sender][_to] */\n      0xffffffffffffffffffffffffffffffffffffffff\n      and\n      0xffffffffffffffffffffffffffffffffffffffff\n      and\n      dup2\n      mstore\n      0x20\n      add\n      swap1\n      dup2\n      mstore\n      0x20\n      add\n      0x00\n      keccak256\n      sload\n        /* \"DePay.sol\":3235:3240  given */\n      0x02\n        /* \"DePay.sol\":3235:3252  given[msg.sender] */\n      0x00\n        /* \"DePay.sol\":3241:3251  msg.sender */\n      caller\n        /* \"DePay.sol\":3235:3252  given[msg.sender] */\n      0xffffffffffffffffffffffffffffffffffffffff\n      and\n      0xffffffffffffffffffffffffffffffffffffffff\n      and\n      dup2\n      mstore\n      0x20\n      add\n      swap1\n      dup2\n      mstore\n      0x20\n      add\n      0x00\n      keccak256\n        /* \"DePay.sol\":3235:3257  given[msg.sender][_to] */\n      0x00\n        /* \"DePay.sol\":3253:3256  _to */\n      dup5\n        /* \"DePay.sol\":3235:3257  given[msg.sender][_to] */\n      0xffffffffffffffffffffffffffffffffffffffff\n      and\n      0xffffffffffffffffffffffffffffffffffffffff\n      and\n      dup2\n      mstore\n      0x20\n      add\n      swap1\n      dup2\n      mstore\n      0x20\n      add\n      0x00\n      keccak256\n      sload\n        /* \"DePay.sol\":3235:3281  given[msg.sender][_to] - used[msg.sender][_to] */\n      tag_213\n      swap2\n      swap1\n      tag_192\n      jump\t// in\n    tag_213:\n        /* \"DePay.sol\":3235:3291  given[msg.sender][_to] - used[msg.sender][_to] >= amount */\n      lt\n      iszero\n        /* \"DePay.sol\":3214:3356  require(... */\n      tag_214\n      jumpi\n      mload(0x40)\n      0x08c379a000000000000000000000000000000000000000000000000000000000\n      dup2\n      mstore\n      0x04\n      add\n      tag_215\n      swap1\n      tag_216\n      jump\t// in\n    tag_215:\n      mload(0x40)\n      dup1\n      swap2\n      sub\n      swap1\n      revert\n    tag_214:\n        /* \"DePay.sol\":3389:3395  amount */\n      dup2\n        /* \"DePay.sol\":3366:3373  balance */\n      0x01\n        /* \"DePay.sol\":3366:3385  balance[msg.sender] */\n      0x00\n        /* \"DePay.sol\":3374:3384  msg.sender */\n      caller\n        /* \"DePay.sol\":3366:3385  balance[msg.sender] */\n      0xffffffffffffffffffffffffffffffffffffffff\n      and\n      0xffffffffffffffffffffffffffffffffffffffff\n      and\n      dup2\n      mstore\n      0x20\n      add\n      swap1\n      dup2\n      mstore\n      0x20\n      add\n      0x00\n      keccak256\n      0x00\n        /* \"DePay.sol\":3366:3395  balance[msg.sender] += amount */\n      dup3\n      dup3\n      sload\n      tag_217\n      swap2\n      swap1\n      tag_218\n      jump\t// in\n    tag_217:\n      swap3\n      pop\n      pop\n      dup2\n      swap1\n      sstore\n      pop\n        /* \"DePay.sol\":3431:3437  amount */\n      dup2\n        /* \"DePay.sol\":3405:3410  given */\n      0x02\n        /* \"DePay.sol\":3405:3422  given[msg.sender] */\n      0x00\n        /* \"DePay.sol\":3411:3421  msg.sender */\n      caller\n        /* \"DePay.sol\":3405:3422  given[msg.sender] */\n      0xffffffffffffffffffffffffffffffffffffffff\n      and\n      0xffffffffffffffffffffffffffffffffffffffff\n      and\n      dup2\n      mstore\n      0x20\n      add\n      swap1\n      dup2\n      mstore\n      0x20\n      add\n      0x00\n      keccak256\n        /* \"DePay.sol\":3405:3427  given[msg.sender][_to] */\n      0x00\n        /* \"DePay.sol\":3423:3426  _to */\n      dup4\n        /* \"DePay.sol\":3405:3427  given[msg.sender][_to] */\n      0xffffffffffffffffffffffffffffffffffffffff\n      and\n      0xffffffffffffffffffffffffffffffffffffffff\n      and\n      dup2\n      mstore\n      0x20\n      add\n      swap1\n      dup2\n      mstore\n      0x20\n      add\n      0x00\n      keccak256\n      0x00\n        /* \"DePay.sol\":3405:3437  given[msg.sender][_to] -= amount */\n      dup3\n      dup3\n      sload\n      tag_219\n      swap2\n      swap1\n      tag_192\n      jump\t// in\n    tag_219:\n      swap3\n      pop\n      pop\n      dup2\n      swap1\n      sstore\n      pop\n        /* \"DePay.sol\":3476:3482  amount */\n      dup2\n        /* \"DePay.sol\":3447:3455  borrowed */\n      0x04\n        /* \"DePay.sol\":3447:3460  borrowed[_to] */\n      0x00\n        /* \"DePay.sol\":3456:3459  _to */\n      dup4\n        /* \"DePay.sol\":3447:3460  borrowed[_to] */\n      0xffffffffffffffffffffffffffffffffffffffff\n      and\n      0xffffffffffffffffffffffffffffffffffffffff\n      and\n      dup2\n      mstore\n      0x20\n      add\n      swap1\n      dup2\n      mstore\n      0x20\n      add\n      0x00\n      keccak256\n        /* \"DePay.sol\":3447:3472  borrowed[_to][msg.sender] */\n      0x00\n        /* \"DePay.sol\":3461:3471  msg.sender */\n      caller\n        /* \"DePay.sol\":3447:3472  borrowed[_to][msg.sender] */\n      0xffffffffffffffffffffffffffffffffffffffff\n      and\n      0xffffffffffffffffffffffffffffffffffffffff\n      and\n      dup2\n      mstore\n      0x20\n      add\n      swap1\n      dup2\n      mstore\n      0x20\n      add\n      0x00\n      keccak256\n      0x00\n        /* \"DePay.sol\":3447:3482  borrowed[_to][msg.sender] -= amount */\n      dup3\n      dup3\n      sload\n      tag_220\n      swap2\n      swap1\n      tag_192\n      jump\t// in\n    tag_220:\n      swap3\n      pop\n      pop\n      dup2\n      swap1\n      sstore\n      pop\n        /* \"DePay.sol\":3501:3511  msg.sender */\n      caller\n        /* \"DePay.sol\":3492:3522  (payable(msg.sender)).transfer */\n      0xffffffffffffffffffffffffffffffffffffffff\n      and\n        /* \"DePay.sol\":3492:3530  (payable(msg.sender)).transfer(amount) */\n      0x08fc\n        /* \"DePay.sol\":3523:3529  amount */\n      dup4\n        /* \"DePay.sol\":3492:3530  (payable(msg.sender)).transfer(amount) */\n      swap1\n      dup2\n      iszero\n      mul\n      swap1\n      mload(0x40)\n      0x00\n      mload(0x40)\n      dup1\n      dup4\n      sub\n      dup2\n      dup6\n      dup9\n      dup9\n      call\n      swap4\n      pop\n      pop\n      pop\n      pop\n      iszero\n      dup1\n      iszero\n      tag_222\n      jumpi\n      returndatasize\n      0x00\n      dup1\n      returndatacopy\n      revert(0x00, returndatasize)\n    tag_222:\n      pop\n        /* \"DePay.sol\":3134:3537  function takeBack(uint256 amount, address payable _to) public payable {... */\n      pop\n      pop\n      jump\t// out\n        /* \"DePay.sol\":5056:5210  function setRate(address _for,uint8 rates)public{... */\n    tag_113:\n        /* \"DePay.sol\":5148:5149  0 */\n      0x00\n        /* \"DePay.sol\":5121:5129  borrowed */\n      0x04\n        /* \"DePay.sol\":5121:5135  borrowed[_for] */\n      0x00\n        /* \"DePay.sol\":5130:5134  _for */\n      dup5\n        /* \"DePay.sol\":5121:5135  borrowed[_for] */\n      0xffffffffffffffffffffffffffffffffffffffff\n      and\n      0xffffffffffffffffffffffffffffffffffffffff\n      and\n      dup2\n      mstore\n      0x20\n      add\n      swap1\n      dup2\n      mstore\n      0x20\n      add\n      0x00\n      keccak256\n        /* \"DePay.sol\":5121:5147  borrowed[_for][msg.sender] */\n      0x00\n        /* \"DePay.sol\":5136:5146  msg.sender */\n      caller\n        /* \"DePay.sol\":5121:5147  borrowed[_for][msg.sender] */\n      0xffffffffffffffffffffffffffffffffffffffff\n      and\n      0xffffffffffffffffffffffffffffffffffffffff\n      and\n      dup2\n      mstore\n      0x20\n      add\n      swap1\n      dup2\n      mstore\n      0x20\n      add\n      0x00\n      keccak256\n      sload\n        /* \"DePay.sol\":5121:5149  borrowed[_for][msg.sender]>0 */\n      gt\n        /* \"DePay.sol\":5113:5166  require(borrowed[_for][msg.sender]>0,\"No loan given\") */\n      tag_224\n      jumpi\n      mload(0x40)\n      0x08c379a000000000000000000000000000000000000000000000000000000000\n      dup2\n      mstore\n      0x04\n      add\n      tag_225\n      swap1\n      tag_226\n      jump\t// in\n    tag_225:\n      mload(0x40)\n      dup1\n      swap2\n      sub\n      swap1\n      revert\n    tag_224:\n        /* \"DePay.sol\":5198:5203  rates */\n      dup1\n        /* \"DePay.sol\":5175:5179  rate */\n      0x07\n        /* \"DePay.sol\":5175:5185  rate[_for] */\n      0x00\n        /* \"DePay.sol\":5180:5184  _for */\n      dup5\n        /* \"DePay.sol\":5175:5185  rate[_for] */\n      0xffffffffffffffffffffffffffffffffffffffff\n      and\n      0xffffffffffffffffffffffffffffffffffffffff\n      and\n      dup2\n      mstore\n      0x20\n      add\n      swap1\n      dup2\n      mstore\n      0x20\n      add\n      0x00\n      keccak256\n        /* \"DePay.sol\":5175:5197  rate[_for][msg.sender] */\n      0x00\n        /* \"DePay.sol\":5186:5196  msg.sender */\n      caller\n        /* \"DePay.sol\":5175:5197  rate[_for][msg.sender] */\n      0xffffffffffffffffffffffffffffffffffffffff\n      and\n      0xffffffffffffffffffffffffffffffffffffffff\n      and\n      dup2\n      mstore\n      0x20\n      add\n      swap1\n      dup2\n      mstore\n      0x20\n      add\n      0x00\n      keccak256\n      0x00\n        /* \"DePay.sol\":5175:5203  rate[_for][msg.sender]=rates */\n      0x0100\n      exp\n      dup2\n      sload\n      dup2\n      0xff\n      mul\n      not\n      and\n      swap1\n      dup4\n      0xff\n      and\n      mul\n      or\n      swap1\n      sstore\n      pop\n        /* \"DePay.sol\":5056:5210  function setRate(address _for,uint8 rates)public{... */\n      pop\n      pop\n      jump\t// out\n        /* \"DePay.sol\":270:315  mapping(address => Request[]) public requests */\n    tag_117:\n      mstore(0x20, 0x00)\n      dup2\n      0x00\n      mstore\n      keccak256(0x00, 0x40)\n      dup2\n      dup2\n      sload\n      dup2\n      lt\n      tag_227\n      jumpi\n      0x00\n      dup1\n      revert\n    tag_227:\n      swap1\n      0x00\n      mstore\n      keccak256(0x00, 0x20)\n      swap1\n      0x03\n      mul\n      add\n      0x00\n      swap2\n      pop\n      swap2\n      pop\n      pop\n      dup1\n      0x00\n      add\n      dup1\n      sload\n      tag_229\n      swap1\n      tag_230\n      jump\t// in\n    tag_229:\n      dup1\n      0x1f\n      add\n      0x20\n      dup1\n      swap2\n      div\n      mul\n      0x20\n      add\n      mload(0x40)\n      swap1\n      dup2\n      add\n      0x40\n      mstore\n      dup1\n      swap3\n      swap2\n      swap1\n      dup2\n      dup2\n      mstore\n      0x20\n      add\n      dup3\n      dup1\n      sload\n      tag_231\n      swap1\n      tag_230\n      jump\t// in\n    tag_231:\n      dup1\n      iszero\n      tag_232\n      jumpi\n      dup1\n      0x1f\n      lt\n      tag_233\n      jumpi\n      0x0100\n      dup1\n      dup4\n      sload\n      div\n      mul\n      dup4\n      mstore\n      swap2\n      0x20\n      add\n      swap2\n      jump(tag_232)\n    tag_233:\n      dup3\n      add\n      swap2\n      swap1\n      0x00\n      mstore\n      keccak256(0x00, 0x20)\n      swap1\n    tag_234:\n      dup2\n      sload\n      dup2\n      mstore\n      swap1\n      0x01\n      add\n      swap1\n      0x20\n      add\n      dup1\n      dup4\n      gt\n      tag_234\n      jumpi\n      dup3\n      swap1\n      sub\n      0x1f\n      and\n      dup3\n      add\n      swap2\n    tag_232:\n      pop\n      pop\n      pop\n      pop\n      pop\n      swap1\n      dup1\n      0x01\n      add\n      sload\n      swap1\n      dup1\n      0x02\n      add\n      0x00\n      swap1\n      sload\n      swap1\n      0x0100\n      exp\n      swap1\n      div\n      0xff\n      and\n      swap1\n      dup1\n      0x02\n      add\n      0x01\n      swap1\n      sload\n      swap1\n      0x0100\n      exp\n      swap1\n      div\n      0xffffffffffffffffffffffffffffffffffffffff\n      and\n      swap1\n      pop\n      dup5\n      jump\t// out\n        /* \"DePay.sol\":1235:1448  function addFund() public payable {... */\n    tag_121:\n        /* \"DePay.sol\":1299:1300  0 */\n      0x00\n        /* \"DePay.sol\":1287:1296  msg.value */\n      callvalue\n        /* \"DePay.sol\":1287:1300  msg.value > 0 */\n      gt\n        /* \"DePay.sol\":1279:1342  require(msg.value > 0, \"transaction with 0 eth is not allowed\") */\n      tag_236\n      jumpi\n      mload(0x40)\n      0x08c379a000000000000000000000000000000000000000000000000000000000\n      dup2\n      mstore\n      0x04\n      add\n      tag_237\n      swap1\n      tag_188\n      jump\t// in\n    tag_237:\n      mload(0x40)\n      dup1\n      swap2\n      sub\n      swap1\n      revert\n    tag_236:\n        /* \"DePay.sol\":1375:1384  msg.value */\n      callvalue\n        /* \"DePay.sol\":1352:1359  balance */\n      0x01\n        /* \"DePay.sol\":1352:1371  balance[msg.sender] */\n      0x00\n        /* \"DePay.sol\":1360:1370  msg.sender */\n      caller\n        /* \"DePay.sol\":1352:1371  balance[msg.sender] */\n      0xffffffffffffffffffffffffffffffffffffffff\n      and\n      0xffffffffffffffffffffffffffffffffffffffff\n      and\n      dup2\n      mstore\n      0x20\n      add\n      swap1\n      dup2\n      mstore\n      0x20\n      add\n      0x00\n      keccak256\n      0x00\n        /* \"DePay.sol\":1352:1384  balance[msg.sender] += msg.value */\n      dup3\n      dup3\n      sload\n      tag_238\n      swap2\n      swap1\n      tag_218\n      jump\t// in\n    tag_238:\n      swap3\n      pop\n      pop\n      dup2\n      swap1\n      sstore\n      pop\n        /* \"DePay.sol\":1432:1441  msg.value */\n      callvalue\n        /* \"DePay.sol\":1394:1416  totalBalanceIHaveAdded */\n      0x0c\n        /* \"DePay.sol\":1394:1428  totalBalanceIHaveAdded[msg.sender] */\n      0x00\n        /* \"DePay.sol\":1417:1427  msg.sender */\n      caller\n        /* \"DePay.sol\":1394:1428  totalBalanceIHaveAdded[msg.sender] */\n      0xffffffffffffffffffffffffffffffffffffffff\n      and\n      0xffffffffffffffffffffffffffffffffffffffff\n      and\n      dup2\n      mstore\n      0x20\n      add\n      swap1\n      dup2\n      mstore\n      0x20\n      add\n      0x00\n      keccak256\n      0x00\n        /* \"DePay.sol\":1394:1441  totalBalanceIHaveAdded[msg.sender] += msg.value */\n      dup3\n      dup3\n      sload\n      tag_239\n      swap2\n      swap1\n      tag_218\n      jump\t// in\n    tag_239:\n      swap3\n      pop\n      pop\n      dup2\n      swap1\n      sstore\n      pop\n        /* \"DePay.sol\":1235:1448  function addFund() public payable {... */\n      jump\t// out\n        /* \"DePay.sol\":5467:5596  function numberOfPeopleWhoPaidMe(address find) external view returns (uint256) {... */\n    tag_125:\n        /* \"DePay.sol\":5537:5544  uint256 */\n      0x00\n        /* \"DePay.sol\":5564:5575  receivedArr */\n      0x09\n        /* \"DePay.sol\":5564:5581  receivedArr[find] */\n      0x00\n        /* \"DePay.sol\":5576:5580  find */\n      dup4\n        /* \"DePay.sol\":5564:5581  receivedArr[find] */\n      0xffffffffffffffffffffffffffffffffffffffff\n      and\n      0xffffffffffffffffffffffffffffffffffffffff\n      and\n      dup2\n      mstore\n      0x20\n      add\n      swap1\n      dup2\n      mstore\n      0x20\n      add\n      0x00\n      keccak256\n        /* \"DePay.sol\":5564:5588  receivedArr[find].length */\n      dup1\n      sload\n      swap1\n      pop\n        /* \"DePay.sol\":5556:5589  return (receivedArr[find].length) */\n      swap1\n      pop\n        /* \"DePay.sol\":5467:5596  function numberOfPeopleWhoPaidMe(address find) external view returns (uint256) {... */\n      swap2\n      swap1\n      pop\n      jump\t// out\n        /* \"DePay.sol\":500:563  mapping(address => mapping(address => uint256)) public borrowed */\n    tag_130:\n      mstore(0x20, 0x04)\n      dup2\n      0x00\n      mstore\n      mstore(0x20, keccak256(0x00, 0x40))\n      dup1\n      0x00\n      mstore\n      keccak256(0x00, 0x40)\n      0x00\n      swap2\n      pop\n      swap2\n      pop\n      pop\n      sload\n      dup2\n      jump\t// out\n        /* \"DePay.sol\":2509:3128  function lend(uint256 amount, address payable _to) public payable {... */\n    tag_134:\n        /* \"DePay.sol\":2603:2610  balance */\n      0x01\n        /* \"DePay.sol\":2603:2622  balance[msg.sender] */\n      0x00\n        /* \"DePay.sol\":2611:2621  msg.sender */\n      caller\n        /* \"DePay.sol\":2603:2622  balance[msg.sender] */\n      0xffffffffffffffffffffffffffffffffffffffff\n      and\n      0xffffffffffffffffffffffffffffffffffffffff\n      and\n      dup2\n      mstore\n      0x20\n      add\n      swap1\n      dup2\n      mstore\n      0x20\n      add\n      0x00\n      keccak256\n      sload\n        /* \"DePay.sol\":2593:2599  amount */\n      dup3\n        /* \"DePay.sol\":2593:2622  amount <= balance[msg.sender] */\n      gt\n      iszero\n        /* \"DePay.sol\":2585:2645  require(amount <= balance[msg.sender], \"Insufficient funds\") */\n      tag_242\n      jumpi\n      mload(0x40)\n      0x08c379a000000000000000000000000000000000000000000000000000000000\n      dup2\n      mstore\n      0x04\n      add\n      tag_243\n      swap1\n      tag_185\n      jump\t// in\n    tag_243:\n      mload(0x40)\n      dup1\n      swap2\n      sub\n      swap1\n      revert\n    tag_242:\n        /* \"DePay.sol\":2672:2673  0 */\n      0x00\n        /* \"DePay.sol\":2663:2669  amount */\n      dup3\n        /* \"DePay.sol\":2663:2673  amount > 0 */\n      gt\n        /* \"DePay.sol\":2655:2715  require(amount > 0, \"transaction with 0 eth is not allowed\") */\n      tag_244\n      jumpi\n      mload(0x40)\n      0x08c379a000000000000000000000000000000000000000000000000000000000\n      dup2\n      mstore\n      0x04\n      add\n      tag_245\n      swap1\n      tag_188\n      jump\t// in\n    tag_245:\n      mload(0x40)\n      dup1\n      swap2\n      sub\n      swap1\n      revert\n    tag_244:\n        /* \"DePay.sol\":2740:2750  msg.sender */\n      caller\n        /* \"DePay.sol\":2733:2750  _to != msg.sender */\n      0xffffffffffffffffffffffffffffffffffffffff\n      and\n        /* \"DePay.sol\":2733:2736  _to */\n      dup2\n        /* \"DePay.sol\":2733:2750  _to != msg.sender */\n      0xffffffffffffffffffffffffffffffffffffffff\n      and\n      sub\n        /* \"DePay.sol\":2725:2788  require(_to != msg.sender, \"You cannot lend money to yourself\") */\n      tag_246\n      jumpi\n      mload(0x40)\n      0x08c379a000000000000000000000000000000000000000000000000000000000\n      dup2\n      mstore\n      0x04\n      add\n      tag_247\n      swap1\n      tag_248\n      jump\t// in\n    tag_247:\n      mload(0x40)\n      dup1\n      swap2\n      sub\n      swap1\n      revert\n    tag_246:\n        /* \"DePay.sol\":2828:2829  0 */\n      0x00\n        /* \"DePay.sol\":2801:2809  borrowed */\n      0x04\n        /* \"DePay.sol\":2801:2814  borrowed[_to] */\n      0x00\n        /* \"DePay.sol\":2810:2813  _to */\n      dup4\n        /* \"DePay.sol\":2801:2814  borrowed[_to] */\n      0xffffffffffffffffffffffffffffffffffffffff\n      and\n      0xffffffffffffffffffffffffffffffffffffffff\n      and\n      dup2\n      mstore\n      0x20\n      add\n      swap1\n      dup2\n      mstore\n      0x20\n      add\n      0x00\n      keccak256\n        /* \"DePay.sol\":2801:2826  borrowed[_to][msg.sender] */\n      0x00\n        /* \"DePay.sol\":2815:2825  msg.sender */\n      caller\n        /* \"DePay.sol\":2801:2826  borrowed[_to][msg.sender] */\n      0xffffffffffffffffffffffffffffffffffffffff\n      and\n      0xffffffffffffffffffffffffffffffffffffffff\n      and\n      dup2\n      mstore\n      0x20\n      add\n      swap1\n      dup2\n      mstore\n      0x20\n      add\n      0x00\n      keccak256\n      sload\n        /* \"DePay.sol\":2801:2829  borrowed[_to][msg.sender]==0 */\n      sub\n        /* \"DePay.sol\":2798:2894  if(borrowed[_to][msg.sender]==0)... */\n      tag_249\n      jumpi\n        /* \"DePay.sol\":2849:2861  loanGivenArr */\n      0x0a\n        /* \"DePay.sol\":2849:2873  loanGivenArr[msg.sender] */\n      0x00\n        /* \"DePay.sol\":2862:2872  msg.sender */\n      caller\n        /* \"DePay.sol\":2849:2873  loanGivenArr[msg.sender] */\n      0xffffffffffffffffffffffffffffffffffffffff\n      and\n      0xffffffffffffffffffffffffffffffffffffffff\n      and\n      dup2\n      mstore\n      0x20\n      add\n      swap1\n      dup2\n      mstore\n      0x20\n      add\n      0x00\n      keccak256\n        /* \"DePay.sol\":2879:2882  _to */\n      dup2\n        /* \"DePay.sol\":2849:2883  loanGivenArr[msg.sender].push(_to) */\n      swap1\n      dup1\n      0x01\n      dup2\n      sload\n      add\n      dup1\n      dup3\n      sstore\n      dup1\n      swap2\n      pop\n      pop\n      0x01\n      swap1\n      sub\n      swap1\n      0x00\n      mstore\n      keccak256(0x00, 0x20)\n      add\n      0x00\n      swap1\n      swap2\n      swap1\n      swap2\n      swap1\n      swap2\n      0x0100\n      exp\n      dup2\n      sload\n      dup2\n      0xffffffffffffffffffffffffffffffffffffffff\n      mul\n      not\n      and\n      swap1\n      dup4\n      0xffffffffffffffffffffffffffffffffffffffff\n      and\n      mul\n      or\n      swap1\n      sstore\n      pop\n        /* \"DePay.sol\":2798:2894  if(borrowed[_to][msg.sender]==0)... */\n    tag_249:\n        /* \"DePay.sol\":2930:2931  0 */\n      0x00\n        /* \"DePay.sol\":2906:2911  given */\n      0x02\n        /* \"DePay.sol\":2906:2923  given[msg.sender] */\n      0x00\n        /* \"DePay.sol\":2912:2922  msg.sender */\n      caller\n        /* \"DePay.sol\":2906:2923  given[msg.sender] */\n      0xffffffffffffffffffffffffffffffffffffffff\n      and\n      0xffffffffffffffffffffffffffffffffffffffff\n      and\n      dup2\n      mstore\n      0x20\n      add\n      swap1\n      dup2\n      mstore\n      0x20\n      add\n      0x00\n      keccak256\n        /* \"DePay.sol\":2906:2928  given[msg.sender][_to] */\n      0x00\n        /* \"DePay.sol\":2924:2927  _to */\n      dup4\n        /* \"DePay.sol\":2906:2928  given[msg.sender][_to] */\n      0xffffffffffffffffffffffffffffffffffffffff\n      and\n      0xffffffffffffffffffffffffffffffffffffffff\n      and\n      dup2\n      mstore\n      0x20\n      add\n      swap1\n      dup2\n      mstore\n      0x20\n      add\n      0x00\n      keccak256\n      sload\n        /* \"DePay.sol\":2906:2931  given[msg.sender][_to]==0 */\n      sub\n        /* \"DePay.sol\":2903:2996  if(given[msg.sender][_to]==0)... */\n      tag_251\n      jumpi\n        /* \"DePay.sol\":2951:2963  loanTakenArr */\n      0x0b\n        /* \"DePay.sol\":2951:2968  loanTakenArr[_to] */\n      0x00\n        /* \"DePay.sol\":2964:2967  _to */\n      dup3\n        /* \"DePay.sol\":2951:2968  loanTakenArr[_to] */\n      0xffffffffffffffffffffffffffffffffffffffff\n      and\n      0xffffffffffffffffffffffffffffffffffffffff\n      and\n      dup2\n      mstore\n      0x20\n      add\n      swap1\n      dup2\n      mstore\n      0x20\n      add\n      0x00\n      keccak256\n        /* \"DePay.sol\":2974:2984  msg.sender */\n      caller\n        /* \"DePay.sol\":2951:2985  loanTakenArr[_to].push(msg.sender) */\n      swap1\n      dup1\n      0x01\n      dup2\n      sload\n      add\n      dup1\n      dup3\n      sstore\n      dup1\n      swap2\n      pop\n      pop\n      0x01\n      swap1\n      sub\n      swap1\n      0x00\n      mstore\n      keccak256(0x00, 0x20)\n      add\n      0x00\n      swap1\n      swap2\n      swap1\n      swap2\n      swap1\n      swap2\n      0x0100\n      exp\n      dup2\n      sload\n      dup2\n      0xffffffffffffffffffffffffffffffffffffffff\n      mul\n      not\n      and\n      swap1\n      dup4\n      0xffffffffffffffffffffffffffffffffffffffff\n      and\n      mul\n      or\n      swap1\n      sstore\n      pop\n        /* \"DePay.sol\":2903:2996  if(given[msg.sender][_to]==0)... */\n    tag_251:\n        /* \"DePay.sol\":3028:3034  amount */\n      dup2\n        /* \"DePay.sol\":3005:3012  balance */\n      0x01\n        /* \"DePay.sol\":3005:3024  balance[msg.sender] */\n      0x00\n        /* \"DePay.sol\":3013:3023  msg.sender */\n      caller\n        /* \"DePay.sol\":3005:3024  balance[msg.sender] */\n      0xffffffffffffffffffffffffffffffffffffffff\n      and\n      0xffffffffffffffffffffffffffffffffffffffff\n      and\n      dup2\n      mstore\n      0x20\n      add\n      swap1\n      dup2\n      mstore\n      0x20\n      add\n      0x00\n      keccak256\n      0x00\n        /* \"DePay.sol\":3005:3034  balance[msg.sender] -= amount */\n      dup3\n      dup3\n      sload\n      tag_253\n      swap2\n      swap1\n      tag_192\n      jump\t// in\n    tag_253:\n      swap3\n      pop\n      pop\n      dup2\n      swap1\n      sstore\n      pop\n        /* \"DePay.sol\":3070:3076  amount */\n      dup2\n        /* \"DePay.sol\":3044:3049  given */\n      0x02\n        /* \"DePay.sol\":3044:3061  given[msg.sender] */\n      0x00\n        /* \"DePay.sol\":3050:3060  msg.sender */\n      caller\n        /* \"DePay.sol\":3044:3061  given[msg.sender] */\n      0xffffffffffffffffffffffffffffffffffffffff\n      and\n      0xffffffffffffffffffffffffffffffffffffffff\n      and\n      dup2\n      mstore\n      0x20\n      add\n      swap1\n      dup2\n      mstore\n      0x20\n      add\n      0x00\n      keccak256\n        /* \"DePay.sol\":3044:3066  given[msg.sender][_to] */\n      0x00\n        /* \"DePay.sol\":3062:3065  _to */\n      dup4\n        /* \"DePay.sol\":3044:3066  given[msg.sender][_to] */\n      0xffffffffffffffffffffffffffffffffffffffff\n      and\n      0xffffffffffffffffffffffffffffffffffffffff\n      and\n      dup2\n      mstore\n      0x20\n      add\n      swap1\n      dup2\n      mstore\n      0x20\n      add\n      0x00\n      keccak256\n      0x00\n        /* \"DePay.sol\":3044:3076  given[msg.sender][_to] += amount */\n      dup3\n      dup3\n      sload\n      tag_254\n      swap2\n      swap1\n      tag_218\n      jump\t// in\n    tag_254:\n      swap3\n      pop\n      pop\n      dup2\n      swap1\n      sstore\n      pop\n        /* \"DePay.sol\":3115:3121  amount */\n      dup2\n        /* \"DePay.sol\":3086:3094  borrowed */\n      0x04\n        /* \"DePay.sol\":3086:3099  borrowed[_to] */\n      0x00\n        /* \"DePay.sol\":3095:3098  _to */\n      dup4\n        /* \"DePay.sol\":3086:3099  borrowed[_to] */\n      0xffffffffffffffffffffffffffffffffffffffff\n      and\n      0xffffffffffffffffffffffffffffffffffffffff\n      and\n      dup2\n      mstore\n      0x20\n      add\n      swap1\n      dup2\n      mstore\n      0x20\n      add\n      0x00\n      keccak256\n        /* \"DePay.sol\":3086:3111  borrowed[_to][msg.sender] */\n      0x00\n        /* \"DePay.sol\":3100:3110  msg.sender */\n      caller\n        /* \"DePay.sol\":3086:3111  borrowed[_to][msg.sender] */\n      0xffffffffffffffffffffffffffffffffffffffff\n      and\n      0xffffffffffffffffffffffffffffffffffffffff\n      and\n      dup2\n      mstore\n      0x20\n      add\n      swap1\n      dup2\n      mstore\n      0x20\n      add\n      0x00\n      keccak256\n      0x00\n        /* \"DePay.sol\":3086:3121  borrowed[_to][msg.sender] += amount */\n      dup3\n      dup3\n      sload\n      tag_255\n      swap2\n      swap1\n      tag_218\n      jump\t// in\n    tag_255:\n      swap3\n      pop\n      pop\n      dup2\n      swap1\n      sstore\n      pop\n        /* \"DePay.sol\":2509:3128  function lend(uint256 amount, address payable _to) public payable {... */\n      pop\n      pop\n      jump\t// out\n        /* \"DePay.sol\":369:429  mapping(address => mapping(address => uint256)) public given */\n    tag_138:\n      mstore(0x20, 0x02)\n      dup2\n      0x00\n      mstore\n      mstore(0x20, keccak256(0x00, 0x40))\n      dup1\n      0x00\n      mstore\n      keccak256(0x00, 0x40)\n      0x00\n      swap2\n      pop\n      swap2\n      pop\n      pop\n      sload\n      dup2\n      jump\t// out\n        /* \"DePay.sol\":1454:2215  function pay(... */\n    tag_143:\n        /* \"DePay.sol\":1643:1650  balance */\n      0x01\n        /* \"DePay.sol\":1643:1662  balance[msg.sender] */\n      0x00\n        /* \"DePay.sol\":1651:1661  msg.sender */\n      caller\n        /* \"DePay.sol\":1643:1662  balance[msg.sender] */\n      0xffffffffffffffffffffffffffffffffffffffff\n      and\n      0xffffffffffffffffffffffffffffffffffffffff\n      and\n      dup2\n      mstore\n      0x20\n      add\n      swap1\n      dup2\n      mstore\n      0x20\n      add\n      0x00\n      keccak256\n      sload\n        /* \"DePay.sol\":1634:1640  amount */\n      dup5\n        /* \"DePay.sol\":1634:1662  amount < balance[msg.sender] */\n      lt\n        /* \"DePay.sol\":1626:1685  require(amount < balance[msg.sender], \"Insufficient funds\") */\n      tag_257\n      jumpi\n      mload(0x40)\n      0x08c379a000000000000000000000000000000000000000000000000000000000\n      dup2\n      mstore\n      0x04\n      add\n      tag_258\n      swap1\n      tag_185\n      jump\t// in\n    tag_258:\n      mload(0x40)\n      dup1\n      swap2\n      sub\n      swap1\n      revert\n    tag_257:\n        /* \"DePay.sol\":1712:1713  0 */\n      0x00\n        /* \"DePay.sol\":1703:1709  amount */\n      dup5\n        /* \"DePay.sol\":1703:1713  amount > 0 */\n      gt\n        /* \"DePay.sol\":1695:1755  require(amount > 0, \"transaction with 0 eth is not allowed\") */\n      tag_259\n      jumpi\n      mload(0x40)\n      0x08c379a000000000000000000000000000000000000000000000000000000000\n      dup2\n      mstore\n      0x04\n      add\n      tag_260\n      swap1\n      tag_188\n      jump\t// in\n    tag_260:\n      mload(0x40)\n      dup1\n      swap2\n      sub\n      swap1\n      revert\n    tag_259:\n        /* \"DePay.sol\":1780:1790  msg.sender */\n      caller\n        /* \"DePay.sol\":1773:1790  _to != msg.sender */\n      0xffffffffffffffffffffffffffffffffffffffff\n      and\n        /* \"DePay.sol\":1773:1776  _to */\n      dup6\n        /* \"DePay.sol\":1773:1790  _to != msg.sender */\n      0xffffffffffffffffffffffffffffffffffffffff\n      and\n      sub\n        /* \"DePay.sol\":1765:1827  require(_to != msg.sender, \"You cannot pay money to yourself\") */\n      tag_261\n      jumpi\n      mload(0x40)\n      0x08c379a000000000000000000000000000000000000000000000000000000000\n      dup2\n      mstore\n      0x04\n      add\n      tag_262\n      swap1\n      tag_263\n      jump\t// in\n    tag_262:\n      mload(0x40)\n      dup1\n      swap2\n      sub\n      swap1\n      revert\n    tag_261:\n        /* \"DePay.sol\":1837:1840  _to */\n      dup5\n        /* \"DePay.sol\":1837:1849  _to.transfer */\n      0xffffffffffffffffffffffffffffffffffffffff\n      and\n        /* \"DePay.sol\":1837:1857  _to.transfer(amount) */\n      0x08fc\n        /* \"DePay.sol\":1850:1856  amount */\n      dup6\n        /* \"DePay.sol\":1837:1857  _to.transfer(amount) */\n      swap1\n      dup2\n      iszero\n      mul\n      swap1\n      mload(0x40)\n      0x00\n      mload(0x40)\n      dup1\n      dup4\n      sub\n      dup2\n      dup6\n      dup9\n      dup9\n      call\n      swap4\n      pop\n      pop\n      pop\n      pop\n      iszero\n      dup1\n      iszero\n      tag_265\n      jumpi\n      returndatasize\n      0x00\n      dup1\n      returndatacopy\n      revert(0x00, returndatasize)\n    tag_265:\n      pop\n        /* \"DePay.sol\":1890:1896  amount */\n      dup4\n        /* \"DePay.sol\":1867:1874  balance */\n      0x01\n        /* \"DePay.sol\":1867:1886  balance[msg.sender] */\n      0x00\n        /* \"DePay.sol\":1875:1885  msg.sender */\n      caller\n        /* \"DePay.sol\":1867:1886  balance[msg.sender] */\n      0xffffffffffffffffffffffffffffffffffffffff\n      and\n      0xffffffffffffffffffffffffffffffffffffffff\n      and\n      dup2\n      mstore\n      0x20\n      add\n      swap1\n      dup2\n      mstore\n      0x20\n      add\n      0x00\n      keccak256\n      0x00\n        /* \"DePay.sol\":1867:1896  balance[msg.sender] -= amount */\n      dup3\n      dup3\n      sload\n      tag_266\n      swap2\n      swap1\n      tag_192\n      jump\t// in\n    tag_266:\n      swap3\n      pop\n      pop\n      dup2\n      swap1\n      sstore\n      pop\n        /* \"DePay.sol\":1937:1938  0 */\n      0x00\n        /* \"DePay.sol\":1910:1916  paidTo */\n      0x05\n        /* \"DePay.sol\":1910:1928  paidTo[msg.sender] */\n      0x00\n        /* \"DePay.sol\":1917:1927  msg.sender */\n      caller\n        /* \"DePay.sol\":1910:1928  paidTo[msg.sender] */\n      0xffffffffffffffffffffffffffffffffffffffff\n      and\n      0xffffffffffffffffffffffffffffffffffffffff\n      and\n      dup2\n      mstore\n      0x20\n      add\n      swap1\n      dup2\n      mstore\n      0x20\n      add\n      0x00\n      keccak256\n        /* \"DePay.sol\":1910:1933  paidTo[msg.sender][_to] */\n      0x00\n        /* \"DePay.sol\":1929:1932  _to */\n      dup8\n        /* \"DePay.sol\":1910:1933  paidTo[msg.sender][_to] */\n      0xffffffffffffffffffffffffffffffffffffffff\n      and\n      0xffffffffffffffffffffffffffffffffffffffff\n      and\n      dup2\n      mstore\n      0x20\n      add\n      swap1\n      dup2\n      mstore\n      0x20\n      add\n      0x00\n      keccak256\n      sload\n        /* \"DePay.sol\":1910:1938  paidTo[msg.sender][_to] == 0 */\n      sub\n        /* \"DePay.sol\":1906:2041  if (paidTo[msg.sender][_to] == 0) {... */\n      tag_267\n      jumpi\n        /* \"DePay.sol\":1954:1961  paidArr */\n      0x08\n        /* \"DePay.sol\":1954:1973  paidArr[msg.sender] */\n      0x00\n        /* \"DePay.sol\":1962:1972  msg.sender */\n      caller\n        /* \"DePay.sol\":1954:1973  paidArr[msg.sender] */\n      0xffffffffffffffffffffffffffffffffffffffff\n      and\n      0xffffffffffffffffffffffffffffffffffffffff\n      and\n      dup2\n      mstore\n      0x20\n      add\n      swap1\n      dup2\n      mstore\n      0x20\n      add\n      0x00\n      keccak256\n        /* \"DePay.sol\":1979:1982  _to */\n      dup6\n        /* \"DePay.sol\":1954:1983  paidArr[msg.sender].push(_to) */\n      swap1\n      dup1\n      0x01\n      dup2\n      sload\n      add\n      dup1\n      dup3\n      sstore\n      dup1\n      swap2\n      pop\n      pop\n      0x01\n      swap1\n      sub\n      swap1\n      0x00\n      mstore\n      keccak256(0x00, 0x20)\n      add\n      0x00\n      swap1\n      swap2\n      swap1\n      swap2\n      swap1\n      swap2\n      0x0100\n      exp\n      dup2\n      sload\n      dup2\n      0xffffffffffffffffffffffffffffffffffffffff\n      mul\n      not\n      and\n      swap1\n      dup4\n      0xffffffffffffffffffffffffffffffffffffffff\n      and\n      mul\n      or\n      swap1\n      sstore\n      pop\n        /* \"DePay.sol\":1997:2008  receivedArr */\n      0x09\n        /* \"DePay.sol\":1997:2013  receivedArr[_to] */\n      0x00\n        /* \"DePay.sol\":2009:2012  _to */\n      dup7\n        /* \"DePay.sol\":1997:2013  receivedArr[_to] */\n      0xffffffffffffffffffffffffffffffffffffffff\n      and\n      0xffffffffffffffffffffffffffffffffffffffff\n      and\n      dup2\n      mstore\n      0x20\n      add\n      swap1\n      dup2\n      mstore\n      0x20\n      add\n      0x00\n      keccak256\n        /* \"DePay.sol\":2019:2029  msg.sender */\n      caller\n        /* \"DePay.sol\":1997:2030  receivedArr[_to].push(msg.sender) */\n      swap1\n      dup1\n      0x01\n      dup2\n      sload\n      add\n      dup1\n      dup3\n      sstore\n      dup1\n      swap2\n      pop\n      pop\n      0x01\n      swap1\n      sub\n      swap1\n      0x00\n      mstore\n      keccak256(0x00, 0x20)\n      add\n      0x00\n      swap1\n      swap2\n      swap1\n      swap2\n      swap1\n      swap2\n      0x0100\n      exp\n      dup2\n      sload\n      dup2\n      0xffffffffffffffffffffffffffffffffffffffff\n      mul\n      not\n      and\n      swap1\n      dup4\n      0xffffffffffffffffffffffffffffffffffffffff\n      and\n      mul\n      or\n      swap1\n      sstore\n      pop\n        /* \"DePay.sol\":1906:2041  if (paidTo[msg.sender][_to] == 0) {... */\n    tag_267:\n        /* \"DePay.sol\":2077:2083  amount */\n      dup4\n        /* \"DePay.sol\":2050:2056  paidTo */\n      0x05\n        /* \"DePay.sol\":2050:2068  paidTo[msg.sender] */\n      0x00\n        /* \"DePay.sol\":2057:2067  msg.sender */\n      caller\n        /* \"DePay.sol\":2050:2068  paidTo[msg.sender] */\n      0xffffffffffffffffffffffffffffffffffffffff\n      and\n      0xffffffffffffffffffffffffffffffffffffffff\n      and\n      dup2\n      mstore\n      0x20\n      add\n      swap1\n      dup2\n      mstore\n      0x20\n      add\n      0x00\n      keccak256\n        /* \"DePay.sol\":2050:2073  paidTo[msg.sender][_to] */\n      0x00\n        /* \"DePay.sol\":2069:2072  _to */\n      dup8\n        /* \"DePay.sol\":2050:2073  paidTo[msg.sender][_to] */\n      0xffffffffffffffffffffffffffffffffffffffff\n      and\n      0xffffffffffffffffffffffffffffffffffffffff\n      and\n      dup2\n      mstore\n      0x20\n      add\n      swap1\n      dup2\n      mstore\n      0x20\n      add\n      0x00\n      keccak256\n      0x00\n        /* \"DePay.sol\":2050:2083  paidTo[msg.sender][_to] += amount */\n      dup3\n      dup3\n      sload\n      tag_270\n      swap2\n      swap1\n      tag_218\n      jump\t// in\n    tag_270:\n      swap3\n      pop\n      pop\n      dup2\n      swap1\n      sstore\n      pop\n        /* \"DePay.sol\":2126:2132  amount */\n      dup4\n        /* \"DePay.sol\":2093:2105  ReceivedFrom */\n      0x06\n        /* \"DePay.sol\":2093:2110  ReceivedFrom[_to] */\n      0x00\n        /* \"DePay.sol\":2106:2109  _to */\n      dup8\n        /* \"DePay.sol\":2093:2110  ReceivedFrom[_to] */\n      0xffffffffffffffffffffffffffffffffffffffff\n      and\n      0xffffffffffffffffffffffffffffffffffffffff\n      and\n      dup2\n      mstore\n      0x20\n      add\n      swap1\n      dup2\n      mstore\n      0x20\n      add\n      0x00\n      keccak256\n        /* \"DePay.sol\":2093:2122  ReceivedFrom[_to][msg.sender] */\n      0x00\n        /* \"DePay.sol\":2111:2121  msg.sender */\n      caller\n        /* \"DePay.sol\":2093:2122  ReceivedFrom[_to][msg.sender] */\n      0xffffffffffffffffffffffffffffffffffffffff\n      and\n      0xffffffffffffffffffffffffffffffffffffffff\n      and\n      dup2\n      mstore\n      0x20\n      add\n      swap1\n      dup2\n      mstore\n      0x20\n      add\n      0x00\n      keccak256\n      0x00\n        /* \"DePay.sol\":2093:2132  ReceivedFrom[_to][msg.sender] += amount */\n      dup3\n      dup3\n      sload\n      tag_271\n      swap2\n      swap1\n      tag_218\n      jump\t// in\n    tag_271:\n      swap3\n      pop\n      pop\n      dup2\n      swap1\n      sstore\n      pop\n        /* \"DePay.sol\":2183:2186  _to */\n      dup5\n        /* \"DePay.sol\":2147:2208  transactionData(msg.sender, amount, _to, date, time, purpose) */\n      0xffffffffffffffffffffffffffffffffffffffff\n      and\n        /* \"DePay.sol\":2163:2173  msg.sender */\n      caller\n        /* \"DePay.sol\":2147:2208  transactionData(msg.sender, amount, _to, date, time, purpose) */\n      0xffffffffffffffffffffffffffffffffffffffff\n      and\n      0xa32c156f4b3b8a11a69a7ce04d9290f328629e9ba578b036df29793cceed6ec9\n        /* \"DePay.sol\":2175:2181  amount */\n      dup7\n        /* \"DePay.sol\":2188:2192  date */\n      dup7\n        /* \"DePay.sol\":2194:2198  time */\n      dup7\n        /* \"DePay.sol\":2200:2207  purpose */\n      dup7\n        /* \"DePay.sol\":2147:2208  transactionData(msg.sender, amount, _to, date, time, purpose) */\n      mload(0x40)\n      tag_272\n      swap5\n      swap4\n      swap3\n      swap2\n      swap1\n      tag_273\n      jump\t// in\n    tag_272:\n      mload(0x40)\n      dup1\n      swap2\n      sub\n      swap1\n      log3\n        /* \"DePay.sol\":1454:2215  function pay(... */\n      pop\n      pop\n      pop\n      pop\n      pop\n      jump\t// out\n        /* \"DePay.sol\":636:703  mapping(address => mapping(address => uint256)) public ReceivedFrom */\n    tag_147:\n      mstore(0x20, 0x06)\n      dup2\n      0x00\n      mstore\n      mstore(0x20, keccak256(0x00, 0x40))\n      dup1\n      0x00\n      mstore\n      keccak256(0x00, 0x40)\n      0x00\n      swap2\n      pop\n      swap2\n      pop\n      pop\n      sload\n      dup2\n      jump\t// out\n        /* \"DePay.sol\":5340:5461  function numberOfPeopleIPaid(address find) external view returns (uint256) {... */\n    tag_152:\n        /* \"DePay.sol\":5406:5413  uint256 */\n      0x00\n        /* \"DePay.sol\":5433:5440  paidArr */\n      0x08\n        /* \"DePay.sol\":5433:5446  paidArr[find] */\n      0x00\n        /* \"DePay.sol\":5441:5445  find */\n      dup4\n        /* \"DePay.sol\":5433:5446  paidArr[find] */\n      0xffffffffffffffffffffffffffffffffffffffff\n      and\n      0xffffffffffffffffffffffffffffffffffffffff\n      and\n      dup2\n      mstore\n      0x20\n      add\n      swap1\n      dup2\n      mstore\n      0x20\n      add\n      0x00\n      keccak256\n        /* \"DePay.sol\":5433:5453  paidArr[find].length */\n      dup1\n      sload\n      swap1\n      pop\n        /* \"DePay.sol\":5425:5454  return (paidArr[find].length) */\n      swap1\n      pop\n        /* \"DePay.sol\":5340:5461  function numberOfPeopleIPaid(address find) external view returns (uint256) {... */\n      swap2\n      swap1\n      pop\n      jump\t// out\n        /* \"DePay.sol\":822:870  mapping(address => address[]) public receivedArr */\n    tag_157:\n      mstore(0x20, 0x09)\n      dup2\n      0x00\n      mstore\n      keccak256(0x00, 0x40)\n      dup2\n      dup2\n      sload\n      dup2\n      lt\n      tag_275\n      jumpi\n      0x00\n      dup1\n      revert\n    tag_275:\n      swap1\n      0x00\n      mstore\n      keccak256(0x00, 0x20)\n      add\n      0x00\n      swap2\n      pop\n      swap2\n      pop\n      swap1\n      sload\n      swap1\n      0x0100\n      exp\n      swap1\n      div\n      0xffffffffffffffffffffffffffffffffffffffff\n      and\n      dup2\n      jump\t// out\n        /* \"DePay.sol\":4212:4780  function approveRequest(uint256 index) public payable {... */\n    tag_161:\n        /* \"DePay.sol\":4276:4299  Request storage request */\n      0x00\n        /* \"DePay.sol\":4302:4310  requests */\n      dup1\n        /* \"DePay.sol\":4302:4322  requests[msg.sender] */\n      0x00\n        /* \"DePay.sol\":4311:4321  msg.sender */\n      caller\n        /* \"DePay.sol\":4302:4322  requests[msg.sender] */\n      0xffffffffffffffffffffffffffffffffffffffff\n      and\n      0xffffffffffffffffffffffffffffffffffffffff\n      and\n      dup2\n      mstore\n      0x20\n      add\n      swap1\n      dup2\n      mstore\n      0x20\n      add\n      0x00\n      keccak256\n        /* \"DePay.sol\":4323:4328  index */\n      dup3\n        /* \"DePay.sol\":4302:4329  requests[msg.sender][index] */\n      dup2\n      sload\n      dup2\n      lt\n      tag_278\n      jumpi\n      tag_279\n      tag_177\n      jump\t// in\n    tag_279:\n    tag_278:\n      swap1\n      0x00\n      mstore\n      keccak256(0x00, 0x20)\n      swap1\n      0x03\n      mul\n      add\n        /* \"DePay.sol\":4276:4329  Request storage request = requests[msg.sender][index] */\n      swap1\n      pop\n        /* \"DePay.sol\":4380:4385  false */\n      0x00\n        /* \"DePay.sol\":4360:4385  request.complete == false */\n      iszero\n      iszero\n        /* \"DePay.sol\":4360:4367  request */\n      dup2\n        /* \"DePay.sol\":4360:4376  request.complete */\n      0x02\n      add\n      0x00\n      swap1\n      sload\n      swap1\n      0x0100\n      exp\n      swap1\n      div\n      0xff\n      and\n        /* \"DePay.sol\":4360:4385  request.complete == false */\n      iszero\n      iszero\n      eq\n        /* \"DePay.sol\":4339:4445  require(... */\n      tag_281\n      jumpi\n      mload(0x40)\n      0x08c379a000000000000000000000000000000000000000000000000000000000\n      dup2\n      mstore\n      0x04\n      add\n      tag_282\n      swap1\n      tag_181\n      jump\t// in\n    tag_282:\n      mload(0x40)\n      dup1\n      swap2\n      sub\n      swap1\n      revert\n    tag_281:\n        /* \"DePay.sol\":4539:4540  0 */\n      0x00\n        /* \"DePay.sol\":4506:4510  used */\n      0x03\n        /* \"DePay.sol\":4506:4522  used[msg.sender] */\n      0x00\n        /* \"DePay.sol\":4511:4521  msg.sender */\n      caller\n        /* \"DePay.sol\":4506:4522  used[msg.sender] */\n      0xffffffffffffffffffffffffffffffffffffffff\n      and\n      0xffffffffffffffffffffffffffffffffffffffff\n      and\n      dup2\n      mstore\n      0x20\n      add\n      swap1\n      dup2\n      mstore\n      0x20\n      add\n      0x00\n      keccak256\n        /* \"DePay.sol\":4506:4536  used[msg.sender][request.from] */\n      0x00\n        /* \"DePay.sol\":4523:4530  request */\n      dup4\n        /* \"DePay.sol\":4523:4535  request.from */\n      0x02\n      add\n      0x01\n      swap1\n      sload\n      swap1\n      0x0100\n      exp\n      swap1\n      div\n      0xffffffffffffffffffffffffffffffffffffffff\n      and\n        /* \"DePay.sol\":4506:4536  used[msg.sender][request.from] */\n      0xffffffffffffffffffffffffffffffffffffffff\n      and\n      0xffffffffffffffffffffffffffffffffffffffff\n      and\n      dup2\n      mstore\n      0x20\n      add\n      swap1\n      dup2\n      mstore\n      0x20\n      add\n      0x00\n      keccak256\n      sload\n        /* \"DePay.sol\":4472:4477  given */\n      0x02\n        /* \"DePay.sol\":4472:4489  given[msg.sender] */\n      0x00\n        /* \"DePay.sol\":4478:4488  msg.sender */\n      caller\n        /* \"DePay.sol\":4472:4489  given[msg.sender] */\n      0xffffffffffffffffffffffffffffffffffffffff\n      and\n      0xffffffffffffffffffffffffffffffffffffffff\n      and\n      dup2\n      mstore\n      0x20\n      add\n      swap1\n      dup2\n      mstore\n      0x20\n      add\n      0x00\n      keccak256\n        /* \"DePay.sol\":4472:4503  given[msg.sender][request.from] */\n      0x00\n        /* \"DePay.sol\":4490:4497  request */\n      dup5\n        /* \"DePay.sol\":4490:4502  request.from */\n      0x02\n      add\n      0x01\n      swap1\n      sload\n      swap1\n      0x0100\n      exp\n      swap1\n      div\n      0xffffffffffffffffffffffffffffffffffffffff\n      and\n        /* \"DePay.sol\":4472:4503  given[msg.sender][request.from] */\n      0xffffffffffffffffffffffffffffffffffffffff\n      and\n      0xffffffffffffffffffffffffffffffffffffffff\n      and\n      dup2\n      mstore\n      0x20\n      add\n      swap1\n      dup2\n      mstore\n      0x20\n      add\n      0x00\n      keccak256\n      sload\n        /* \"DePay.sol\":4472:4536  given[msg.sender][request.from] - used[msg.sender][request.from] */\n      tag_283\n      swap2\n      swap1\n      tag_192\n      jump\t// in\n    tag_283:\n        /* \"DePay.sol\":4472:4540  given[msg.sender][request.from] - used[msg.sender][request.from] > 0 */\n      gt\n        /* \"DePay.sol\":4455:4774  if (... */\n      iszero\n      tag_284\n      jumpi\n        /* \"DePay.sol\":4574:4581  request */\n      dup1\n        /* \"DePay.sol\":4574:4586  request.from */\n      0x02\n      add\n      0x01\n      swap1\n      sload\n      swap1\n      0x0100\n      exp\n      swap1\n      div\n      0xffffffffffffffffffffffffffffffffffffffff\n      and\n        /* \"DePay.sol\":4565:4597  (payable(request.from)).transfer */\n      0xffffffffffffffffffffffffffffffffffffffff\n      and\n        /* \"DePay.sol\":4565:4614  (payable(request.from)).transfer((request.value)) */\n      0x08fc\n        /* \"DePay.sol\":4599:4606  request */\n      dup3\n        /* \"DePay.sol\":4599:4612  request.value */\n      0x01\n      add\n      sload\n        /* \"DePay.sol\":4565:4614  (payable(request.from)).transfer((request.value)) */\n      swap1\n      dup2\n      iszero\n      mul\n      swap1\n      mload(0x40)\n      0x00\n      mload(0x40)\n      dup1\n      dup4\n      sub\n      dup2\n      dup6\n      dup9\n      dup9\n      call\n      swap4\n      pop\n      pop\n      pop\n      pop\n      iszero\n      dup1\n      iszero\n      tag_286\n      jumpi\n      returndatasize\n      0x00\n      dup1\n      returndatacopy\n      revert(0x00, returndatasize)\n    tag_286:\n      pop\n        /* \"DePay.sol\":4647:4651  true */\n      0x01\n        /* \"DePay.sol\":4628:4635  request */\n      dup2\n        /* \"DePay.sol\":4628:4644  request.complete */\n      0x02\n      add\n      0x00\n        /* \"DePay.sol\":4628:4651  request.complete = true */\n      0x0100\n      exp\n      dup2\n      sload\n      dup2\n      0xff\n      mul\n      not\n      and\n      swap1\n      dup4\n      iszero\n      iszero\n      mul\n      or\n      swap1\n      sstore\n      pop\n        /* \"DePay.sol\":4699:4706  request */\n      dup1\n        /* \"DePay.sol\":4699:4712  request.value */\n      0x01\n      add\n      sload\n        /* \"DePay.sol\":4665:4669  used */\n      0x03\n        /* \"DePay.sol\":4665:4681  used[msg.sender] */\n      0x00\n        /* \"DePay.sol\":4670:4680  msg.sender */\n      caller\n        /* \"DePay.sol\":4665:4681  used[msg.sender] */\n      0xffffffffffffffffffffffffffffffffffffffff\n      and\n      0xffffffffffffffffffffffffffffffffffffffff\n      and\n      dup2\n      mstore\n      0x20\n      add\n      swap1\n      dup2\n      mstore\n      0x20\n      add\n      0x00\n      keccak256\n        /* \"DePay.sol\":4665:4695  used[msg.sender][request.from] */\n      0x00\n        /* \"DePay.sol\":4682:4689  request */\n      dup4\n        /* \"DePay.sol\":4682:4694  request.from */\n      0x02\n      add\n      0x01\n      swap1\n      sload\n      swap1\n      0x0100\n      exp\n      swap1\n      div\n      0xffffffffffffffffffffffffffffffffffffffff\n      and\n        /* \"DePay.sol\":4665:4695  used[msg.sender][request.from] */\n      0xffffffffffffffffffffffffffffffffffffffff\n      and\n      0xffffffffffffffffffffffffffffffffffffffff\n      and\n      dup2\n      mstore\n      0x20\n      add\n      swap1\n      dup2\n      mstore\n      0x20\n      add\n      0x00\n      keccak256\n      0x00\n        /* \"DePay.sol\":4665:4712  used[msg.sender][request.from] += request.value */\n      dup3\n      dup3\n      sload\n      tag_287\n      swap2\n      swap1\n      tag_218\n      jump\t// in\n    tag_287:\n      swap3\n      pop\n      pop\n      dup2\n      swap1\n      sstore\n      pop\n        /* \"DePay.sol\":4455:4774  if (... */\n      jump(tag_288)\n    tag_284:\n        /* \"DePay.sol\":4743:4763  rejectRequest(index) */\n      tag_289\n        /* \"DePay.sol\":4757:4762  index */\n      dup3\n        /* \"DePay.sol\":4743:4756  rejectRequest */\n      tag_48\n        /* \"DePay.sol\":4743:4763  rejectRequest(index) */\n      jump\t// in\n    tag_289:\n        /* \"DePay.sol\":4455:4774  if (... */\n    tag_288:\n        /* \"DePay.sol\":4266:4780  {... */\n      pop\n        /* \"DePay.sol\":4212:4780  function approveRequest(uint256 index) public payable {... */\n      pop\n      jump\t// out\n        /* \"DePay.sol\":321:363  mapping(address => uint256) public balance */\n    tag_165:\n      mstore(0x20, 0x01)\n      dup1\n      0x00\n      mstore\n      keccak256(0x00, 0x40)\n      0x00\n      swap2\n      pop\n      swap1\n      pop\n      sload\n      dup2\n      jump\t// out\n        /* \"DePay.sol\":5602:5769  function numberOfPeopleWhomIHaveGivenLoan(address find)... */\n    tag_170:\n        /* \"DePay.sol\":5705:5712  uint256 */\n      0x00\n        /* \"DePay.sol\":5736:5748  loanGivenArr */\n      0x0a\n        /* \"DePay.sol\":5736:5754  loanGivenArr[find] */\n      0x00\n        /* \"DePay.sol\":5749:5753  find */\n      dup4\n        /* \"DePay.sol\":5736:5754  loanGivenArr[find] */\n      0xffffffffffffffffffffffffffffffffffffffff\n      and\n      0xffffffffffffffffffffffffffffffffffffffff\n      and\n      dup2\n      mstore\n      0x20\n      add\n      swap1\n      dup2\n      mstore\n      0x20\n      add\n      0x00\n      keccak256\n        /* \"DePay.sol\":5736:5761  loanGivenArr[find].length */\n      dup1\n      sload\n      swap1\n      pop\n        /* \"DePay.sol\":5728:5762  return (loanGivenArr[find].length) */\n      swap1\n      pop\n        /* \"DePay.sol\":5602:5769  function numberOfPeopleWhomIHaveGivenLoan(address find)... */\n      swap2\n      swap1\n      pop\n      jump\t// out\n        /* \"#utility.yul\":7:82   */\n    tag_291:\n        /* \"#utility.yul\":40:46   */\n      0x00\n        /* \"#utility.yul\":73:75   */\n      0x40\n        /* \"#utility.yul\":67:76   */\n      mload\n        /* \"#utility.yul\":57:76   */\n      swap1\n      pop\n        /* \"#utility.yul\":7:82   */\n      swap1\n      jump\t// out\n        /* \"#utility.yul\":88:205   */\n    tag_292:\n        /* \"#utility.yul\":197:198   */\n      0x00\n        /* \"#utility.yul\":194:195   */\n      dup1\n        /* \"#utility.yul\":187:199   */\n      revert\n        /* \"#utility.yul\":211:328   */\n    tag_293:\n        /* \"#utility.yul\":320:321   */\n      0x00\n        /* \"#utility.yul\":317:318   */\n      dup1\n        /* \"#utility.yul\":310:322   */\n      revert\n        /* \"#utility.yul\":334:460   */\n    tag_294:\n        /* \"#utility.yul\":371:378   */\n      0x00\n        /* \"#utility.yul\":411:453   */\n      0xffffffffffffffffffffffffffffffffffffffff\n        /* \"#utility.yul\":404:409   */\n      dup3\n        /* \"#utility.yul\":400:454   */\n      and\n        /* \"#utility.yul\":389:454   */\n      swap1\n      pop\n        /* \"#utility.yul\":334:460   */\n      swap2\n      swap1\n      pop\n      jump\t// out\n        /* \"#utility.yul\":466:562   */\n    tag_295:\n        /* \"#utility.yul\":503:510   */\n      0x00\n        /* \"#utility.yul\":532:556   */\n      tag_367\n        /* \"#utility.yul\":550:555   */\n      dup3\n        /* \"#utility.yul\":532:556   */\n      tag_294\n      jump\t// in\n    tag_367:\n        /* \"#utility.yul\":521:556   */\n      swap1\n      pop\n        /* \"#utility.yul\":466:562   */\n      swap2\n      swap1\n      pop\n      jump\t// out\n        /* \"#utility.yul\":568:690   */\n    tag_296:\n        /* \"#utility.yul\":641:665   */\n      tag_369\n        /* \"#utility.yul\":659:664   */\n      dup2\n        /* \"#utility.yul\":641:665   */\n      tag_295\n      jump\t// in\n    tag_369:\n        /* \"#utility.yul\":634:639   */\n      dup2\n        /* \"#utility.yul\":631:666   */\n      eq\n        /* \"#utility.yul\":621:684   */\n      tag_370\n      jumpi\n        /* \"#utility.yul\":680:681   */\n      0x00\n        /* \"#utility.yul\":677:678   */\n      dup1\n        /* \"#utility.yul\":670:682   */\n      revert\n        /* \"#utility.yul\":621:684   */\n    tag_370:\n        /* \"#utility.yul\":568:690   */\n      pop\n      jump\t// out\n        /* \"#utility.yul\":696:835   */\n    tag_297:\n        /* \"#utility.yul\":742:747   */\n      0x00\n        /* \"#utility.yul\":780:786   */\n      dup2\n        /* \"#utility.yul\":767:787   */\n      calldataload\n        /* \"#utility.yul\":758:787   */\n      swap1\n      pop\n        /* \"#utility.yul\":796:829   */\n      tag_372\n        /* \"#utility.yul\":823:828   */\n      dup2\n        /* \"#utility.yul\":796:829   */\n      tag_296\n      jump\t// in\n    tag_372:\n        /* \"#utility.yul\":696:835   */\n      swap3\n      swap2\n      pop\n      pop\n      jump\t// out\n        /* \"#utility.yul\":841:918   */\n    tag_298:\n        /* \"#utility.yul\":878:885   */\n      0x00\n        /* \"#utility.yul\":907:912   */\n      dup2\n        /* \"#utility.yul\":896:912   */\n      swap1\n      pop\n        /* \"#utility.yul\":841:918   */\n      swap2\n      swap1\n      pop\n      jump\t// out\n        /* \"#utility.yul\":924:1046   */\n    tag_299:\n        /* \"#utility.yul\":997:1021   */\n      tag_375\n        /* \"#utility.yul\":1015:1020   */\n      dup2\n        /* \"#utility.yul\":997:1021   */\n      tag_298\n      jump\t// in\n    tag_375:\n        /* \"#utility.yul\":990:995   */\n      dup2\n        /* \"#utility.yul\":987:1022   */\n      eq\n        /* \"#utility.yul\":977:1040   */\n      tag_376\n      jumpi\n        /* \"#utility.yul\":1036:1037   */\n      0x00\n        /* \"#utility.yul\":1033:1034   */\n      dup1\n        /* \"#utility.yul\":1026:1038   */\n      revert\n        /* \"#utility.yul\":977:1040   */\n    tag_376:\n        /* \"#utility.yul\":924:1046   */\n      pop\n      jump\t// out\n        /* \"#utility.yul\":1052:1191   */\n    tag_300:\n        /* \"#utility.yul\":1098:1103   */\n      0x00\n        /* \"#utility.yul\":1136:1142   */\n      dup2\n        /* \"#utility.yul\":1123:1143   */\n      calldataload\n        /* \"#utility.yul\":1114:1143   */\n      swap1\n      pop\n        /* \"#utility.yul\":1152:1185   */\n      tag_378\n        /* \"#utility.yul\":1179:1184   */\n      dup2\n        /* \"#utility.yul\":1152:1185   */\n      tag_299\n      jump\t// in\n    tag_378:\n        /* \"#utility.yul\":1052:1191   */\n      swap3\n      swap2\n      pop\n      pop\n      jump\t// out\n        /* \"#utility.yul\":1197:1671   */\n    tag_40:\n        /* \"#utility.yul\":1265:1271   */\n      0x00\n        /* \"#utility.yul\":1273:1279   */\n      dup1\n        /* \"#utility.yul\":1322:1324   */\n      0x40\n        /* \"#utility.yul\":1310:1319   */\n      dup4\n        /* \"#utility.yul\":1301:1308   */\n      dup6\n        /* \"#utility.yul\":1297:1320   */\n      sub\n        /* \"#utility.yul\":1293:1325   */\n      slt\n        /* \"#utility.yul\":1290:1409   */\n      iszero\n      tag_380\n      jumpi\n        /* \"#utility.yul\":1328:1407   */\n      tag_381\n      tag_292\n      jump\t// in\n    tag_381:\n        /* \"#utility.yul\":1290:1409   */\n    tag_380:\n        /* \"#utility.yul\":1448:1449   */\n      0x00\n        /* \"#utility.yul\":1473:1526   */\n      tag_382\n        /* \"#utility.yul\":1518:1525   */\n      dup6\n        /* \"#utility.yul\":1509:1515   */\n      dup3\n        /* \"#utility.yul\":1498:1507   */\n      dup7\n        /* \"#utility.yul\":1494:1516   */\n      add\n        /* \"#utility.yul\":1473:1526   */\n      tag_297\n      jump\t// in\n    tag_382:\n        /* \"#utility.yul\":1463:1526   */\n      swap3\n      pop\n        /* \"#utility.yul\":1419:1536   */\n      pop\n        /* \"#utility.yul\":1575:1577   */\n      0x20\n        /* \"#utility.yul\":1601:1654   */\n      tag_383\n        /* \"#utility.yul\":1646:1653   */\n      dup6\n        /* \"#utility.yul\":1637:1643   */\n      dup3\n        /* \"#utility.yul\":1626:1635   */\n      dup7\n        /* \"#utility.yul\":1622:1644   */\n      add\n        /* \"#utility.yul\":1601:1654   */\n      tag_300\n      jump\t// in\n    tag_383:\n        /* \"#utility.yul\":1591:1654   */\n      swap2\n      pop\n        /* \"#utility.yul\":1546:1664   */\n      pop\n        /* \"#utility.yul\":1197:1671   */\n      swap3\n      pop\n      swap3\n      swap1\n      pop\n      jump\t// out\n        /* \"#utility.yul\":1677:1795   */\n    tag_301:\n        /* \"#utility.yul\":1764:1788   */\n      tag_385\n        /* \"#utility.yul\":1782:1787   */\n      dup2\n        /* \"#utility.yul\":1764:1788   */\n      tag_295\n      jump\t// in\n    tag_385:\n        /* \"#utility.yul\":1759:1762   */\n      dup3\n        /* \"#utility.yul\":1752:1789   */\n      mstore\n        /* \"#utility.yul\":1677:1795   */\n      pop\n      pop\n      jump\t// out\n        /* \"#utility.yul\":1801:2023   */\n    tag_43:\n        /* \"#utility.yul\":1894:1898   */\n      0x00\n        /* \"#utility.yul\":1932:1934   */\n      0x20\n        /* \"#utility.yul\":1921:1930   */\n      dup3\n        /* \"#utility.yul\":1917:1935   */\n      add\n        /* \"#utility.yul\":1909:1935   */\n      swap1\n      pop\n        /* \"#utility.yul\":1945:2016   */\n      tag_387\n        /* \"#utility.yul\":2013:2014   */\n      0x00\n        /* \"#utility.yul\":2002:2011   */\n      dup4\n        /* \"#utility.yul\":1998:2015   */\n      add\n        /* \"#utility.yul\":1989:1995   */\n      dup5\n        /* \"#utility.yul\":1945:2016   */\n      tag_301\n      jump\t// in\n    tag_387:\n        /* \"#utility.yul\":1801:2023   */\n      swap3\n      swap2\n      pop\n      pop\n      jump\t// out\n        /* \"#utility.yul\":2029:2358   */\n    tag_47:\n        /* \"#utility.yul\":2088:2094   */\n      0x00\n        /* \"#utility.yul\":2137:2139   */\n      0x20\n        /* \"#utility.yul\":2125:2134   */\n      dup3\n        /* \"#utility.yul\":2116:2123   */\n      dup5\n        /* \"#utility.yul\":2112:2135   */\n      sub\n        /* \"#utility.yul\":2108:2140   */\n      slt\n        /* \"#utility.yul\":2105:2224   */\n      iszero\n      tag_389\n      jumpi\n        /* \"#utility.yul\":2143:2222   */\n      tag_390\n      tag_292\n      jump\t// in\n    tag_390:\n        /* \"#utility.yul\":2105:2224   */\n    tag_389:\n        /* \"#utility.yul\":2263:2264   */\n      0x00\n        /* \"#utility.yul\":2288:2341   */\n      tag_391\n        /* \"#utility.yul\":2333:2340   */\n      dup5\n        /* \"#utility.yul\":2324:2330   */\n      dup3\n        /* \"#utility.yul\":2313:2322   */\n      dup6\n        /* \"#utility.yul\":2309:2331   */\n      add\n        /* \"#utility.yul\":2288:2341   */\n      tag_300\n      jump\t// in\n    tag_391:\n        /* \"#utility.yul\":2278:2341   */\n      swap2\n      pop\n        /* \"#utility.yul\":2234:2351   */\n      pop\n        /* \"#utility.yul\":2029:2358   */\n      swap3\n      swap2\n      pop\n      pop\n      jump\t// out\n        /* \"#utility.yul\":2364:2693   */\n    tag_60:\n        /* \"#utility.yul\":2423:2429   */\n      0x00\n        /* \"#utility.yul\":2472:2474   */\n      0x20\n        /* \"#utility.yul\":2460:2469   */\n      dup3\n        /* \"#utility.yul\":2451:2458   */\n      dup5\n        /* \"#utility.yul\":2447:2470   */\n      sub\n        /* \"#utility.yul\":2443:2475   */\n      slt\n        /* \"#utility.yul\":2440:2559   */\n      iszero\n      tag_393\n      jumpi\n        /* \"#utility.yul\":2478:2557   */\n      tag_394\n      tag_292\n      jump\t// in\n    tag_394:\n        /* \"#utility.yul\":2440:2559   */\n    tag_393:\n        /* \"#utility.yul\":2598:2599   */\n      0x00\n        /* \"#utility.yul\":2623:2676   */\n      tag_395\n        /* \"#utility.yul\":2668:2675   */\n      dup5\n        /* \"#utility.yul\":2659:2665   */\n      dup3\n        /* \"#utility.yul\":2648:2657   */\n      dup6\n        /* \"#utility.yul\":2644:2666   */\n      add\n        /* \"#utility.yul\":2623:2676   */\n      tag_297\n      jump\t// in\n    tag_395:\n        /* \"#utility.yul\":2613:2676   */\n      swap2\n      pop\n        /* \"#utility.yul\":2569:2686   */\n      pop\n        /* \"#utility.yul\":2364:2693   */\n      swap3\n      swap2\n      pop\n      pop\n      jump\t// out\n        /* \"#utility.yul\":2699:2817   */\n    tag_302:\n        /* \"#utility.yul\":2786:2810   */\n      tag_397\n        /* \"#utility.yul\":2804:2809   */\n      dup2\n        /* \"#utility.yul\":2786:2810   */\n      tag_298\n      jump\t// in\n    tag_397:\n        /* \"#utility.yul\":2781:2784   */\n      dup3\n        /* \"#utility.yul\":2774:2811   */\n      mstore\n        /* \"#utility.yul\":2699:2817   */\n      pop\n      pop\n      jump\t// out\n        /* \"#utility.yul\":2823:3045   */\n    tag_63:\n        /* \"#utility.yul\":2916:2920   */\n      0x00\n        /* \"#utility.yul\":2954:2956   */\n      0x20\n        /* \"#utility.yul\":2943:2952   */\n      dup3\n        /* \"#utility.yul\":2939:2957   */\n      add\n        /* \"#utility.yul\":2931:2957   */\n      swap1\n      pop\n        /* \"#utility.yul\":2967:3038   */\n      tag_399\n        /* \"#utility.yul\":3035:3036   */\n      0x00\n        /* \"#utility.yul\":3024:3033   */\n      dup4\n        /* \"#utility.yul\":3020:3037   */\n      add\n        /* \"#utility.yul\":3011:3017   */\n      dup5\n        /* \"#utility.yul\":2967:3038   */\n      tag_302\n      jump\t// in\n    tag_399:\n        /* \"#utility.yul\":2823:3045   */\n      swap3\n      swap2\n      pop\n      pop\n      jump\t// out\n        /* \"#utility.yul\":3051:3525   */\n    tag_76:\n        /* \"#utility.yul\":3119:3125   */\n      0x00\n        /* \"#utility.yul\":3127:3133   */\n      dup1\n        /* \"#utility.yul\":3176:3178   */\n      0x40\n        /* \"#utility.yul\":3164:3173   */\n      dup4\n        /* \"#utility.yul\":3155:3162   */\n      dup6\n        /* \"#utility.yul\":3151:3174   */\n      sub\n        /* \"#utility.yul\":3147:3179   */\n      slt\n        /* \"#utility.yul\":3144:3263   */\n      iszero\n      tag_401\n      jumpi\n        /* \"#utility.yul\":3182:3261   */\n      tag_402\n      tag_292\n      jump\t// in\n    tag_402:\n        /* \"#utility.yul\":3144:3263   */\n    tag_401:\n        /* \"#utility.yul\":3302:3303   */\n      0x00\n        /* \"#utility.yul\":3327:3380   */\n      tag_403\n        /* \"#utility.yul\":3372:3379   */\n      dup6\n        /* \"#utility.yul\":3363:3369   */\n      dup3\n        /* \"#utility.yul\":3352:3361   */\n      dup7\n        /* \"#utility.yul\":3348:3370   */\n      add\n        /* \"#utility.yul\":3327:3380   */\n      tag_297\n      jump\t// in\n    tag_403:\n        /* \"#utility.yul\":3317:3380   */\n      swap3\n      pop\n        /* \"#utility.yul\":3273:3390   */\n      pop\n        /* \"#utility.yul\":3429:3431   */\n      0x20\n        /* \"#utility.yul\":3455:3508   */\n      tag_404\n        /* \"#utility.yul\":3500:3507   */\n      dup6\n        /* \"#utility.yul\":3491:3497   */\n      dup3\n        /* \"#utility.yul\":3480:3489   */\n      dup7\n        /* \"#utility.yul\":3476:3498   */\n      add\n        /* \"#utility.yul\":3455:3508   */\n      tag_297\n      jump\t// in\n    tag_404:\n        /* \"#utility.yul\":3445:3508   */\n      swap2\n      pop\n        /* \"#utility.yul\":3400:3518   */\n      pop\n        /* \"#utility.yul\":3051:3525   */\n      swap3\n      pop\n      swap3\n      swap1\n      pop\n      jump\t// out\n        /* \"#utility.yul\":3531:3617   */\n    tag_303:\n        /* \"#utility.yul\":3566:3573   */\n      0x00\n        /* \"#utility.yul\":3606:3610   */\n      0xff\n        /* \"#utility.yul\":3599:3604   */\n      dup3\n        /* \"#utility.yul\":3595:3611   */\n      and\n        /* \"#utility.yul\":3584:3611   */\n      swap1\n      pop\n        /* \"#utility.yul\":3531:3617   */\n      swap2\n      swap1\n      pop\n      jump\t// out\n        /* \"#utility.yul\":3623:3735   */\n    tag_304:\n        /* \"#utility.yul\":3706:3728   */\n      tag_407\n        /* \"#utility.yul\":3722:3727   */\n      dup2\n        /* \"#utility.yul\":3706:3728   */\n      tag_303\n      jump\t// in\n    tag_407:\n        /* \"#utility.yul\":3701:3704   */\n      dup3\n        /* \"#utility.yul\":3694:3729   */\n      mstore\n        /* \"#utility.yul\":3623:3735   */\n      pop\n      pop\n      jump\t// out\n        /* \"#utility.yul\":3741:3955   */\n    tag_79:\n        /* \"#utility.yul\":3830:3834   */\n      0x00\n        /* \"#utility.yul\":3868:3870   */\n      0x20\n        /* \"#utility.yul\":3857:3866   */\n      dup3\n        /* \"#utility.yul\":3853:3871   */\n      add\n        /* \"#utility.yul\":3845:3871   */\n      swap1\n      pop\n        /* \"#utility.yul\":3881:3948   */\n      tag_409\n        /* \"#utility.yul\":3945:3946   */\n      0x00\n        /* \"#utility.yul\":3934:3943   */\n      dup4\n        /* \"#utility.yul\":3930:3947   */\n      add\n        /* \"#utility.yul\":3921:3927   */\n      dup5\n        /* \"#utility.yul\":3881:3948   */\n      tag_304\n      jump\t// in\n    tag_409:\n        /* \"#utility.yul\":3741:3955   */\n      swap3\n      swap2\n      pop\n      pop\n      jump\t// out\n        /* \"#utility.yul\":3961:4078   */\n    tag_305:\n        /* \"#utility.yul\":4070:4071   */\n      0x00\n        /* \"#utility.yul\":4067:4068   */\n      dup1\n        /* \"#utility.yul\":4060:4072   */\n      revert\n        /* \"#utility.yul\":4084:4201   */\n    tag_306:\n        /* \"#utility.yul\":4193:4194   */\n      0x00\n        /* \"#utility.yul\":4190:4191   */\n      dup1\n        /* \"#utility.yul\":4183:4195   */\n      revert\n        /* \"#utility.yul\":4207:4309   */\n    tag_307:\n        /* \"#utility.yul\":4248:4254   */\n      0x00\n        /* \"#utility.yul\":4299:4301   */\n      0x1f\n        /* \"#utility.yul\":4295:4302   */\n      not\n        /* \"#utility.yul\":4290:4292   */\n      0x1f\n        /* \"#utility.yul\":4283:4288   */\n      dup4\n        /* \"#utility.yul\":4279:4293   */\n      add\n        /* \"#utility.yul\":4275:4303   */\n      and\n        /* \"#utility.yul\":4265:4303   */\n      swap1\n      pop\n        /* \"#utility.yul\":4207:4309   */\n      swap2\n      swap1\n      pop\n      jump\t// out\n        /* \"#utility.yul\":4315:4495   */\n    tag_308:\n        /* \"#utility.yul\":4363:4440   */\n      0x4e487b7100000000000000000000000000000000000000000000000000000000\n        /* \"#utility.yul\":4360:4361   */\n      0x00\n        /* \"#utility.yul\":4353:4441   */\n      mstore\n        /* \"#utility.yul\":4460:4464   */\n      0x41\n        /* \"#utility.yul\":4457:4458   */\n      0x04\n        /* \"#utility.yul\":4450:4465   */\n      mstore\n        /* \"#utility.yul\":4484:4488   */\n      0x24\n        /* \"#utility.yul\":4481:4482   */\n      0x00\n        /* \"#utility.yul\":4474:4489   */\n      revert\n        /* \"#utility.yul\":4501:4782   */\n    tag_309:\n        /* \"#utility.yul\":4584:4611   */\n      tag_415\n        /* \"#utility.yul\":4606:4610   */\n      dup3\n        /* \"#utility.yul\":4584:4611   */\n      tag_307\n      jump\t// in\n    tag_415:\n        /* \"#utility.yul\":4576:4582   */\n      dup2\n        /* \"#utility.yul\":4572:4612   */\n      add\n        /* \"#utility.yul\":4714:4720   */\n      dup2\n        /* \"#utility.yul\":4702:4712   */\n      dup2\n        /* \"#utility.yul\":4699:4721   */\n      lt\n        /* \"#utility.yul\":4678:4696   */\n      0xffffffffffffffff\n        /* \"#utility.yul\":4666:4676   */\n      dup3\n        /* \"#utility.yul\":4663:4697   */\n      gt\n        /* \"#utility.yul\":4660:4722   */\n      or\n        /* \"#utility.yul\":4657:4745   */\n      iszero\n      tag_416\n      jumpi\n        /* \"#utility.yul\":4725:4743   */\n      tag_417\n      tag_308\n      jump\t// in\n    tag_417:\n        /* \"#utility.yul\":4657:4745   */\n    tag_416:\n        /* \"#utility.yul\":4765:4775   */\n      dup1\n        /* \"#utility.yul\":4761:4763   */\n      0x40\n        /* \"#utility.yul\":4754:4776   */\n      mstore\n        /* \"#utility.yul\":4544:4782   */\n      pop\n        /* \"#utility.yul\":4501:4782   */\n      pop\n      pop\n      jump\t// out\n        /* \"#utility.yul\":4788:4917   */\n    tag_310:\n        /* \"#utility.yul\":4822:4828   */\n      0x00\n        /* \"#utility.yul\":4849:4869   */\n      tag_419\n      tag_291\n      jump\t// in\n    tag_419:\n        /* \"#utility.yul\":4839:4869   */\n      swap1\n      pop\n        /* \"#utility.yul\":4878:4911   */\n      tag_420\n        /* \"#utility.yul\":4906:4910   */\n      dup3\n        /* \"#utility.yul\":4898:4904   */\n      dup3\n        /* \"#utility.yul\":4878:4911   */\n      tag_309\n      jump\t// in\n    tag_420:\n        /* \"#utility.yul\":4788:4917   */\n      swap2\n      swap1\n      pop\n      jump\t// out\n        /* \"#utility.yul\":4923:5231   */\n    tag_311:\n        /* \"#utility.yul\":4985:4989   */\n      0x00\n        /* \"#utility.yul\":5075:5093   */\n      0xffffffffffffffff\n        /* \"#utility.yul\":5067:5073   */\n      dup3\n        /* \"#utility.yul\":5064:5094   */\n      gt\n        /* \"#utility.yul\":5061:5117   */\n      iszero\n      tag_422\n      jumpi\n        /* \"#utility.yul\":5097:5115   */\n      tag_423\n      tag_308\n      jump\t// in\n    tag_423:\n        /* \"#utility.yul\":5061:5117   */\n    tag_422:\n        /* \"#utility.yul\":5135:5164   */\n      tag_424\n        /* \"#utility.yul\":5157:5163   */\n      dup3\n        /* \"#utility.yul\":5135:5164   */\n      tag_307\n      jump\t// in\n    tag_424:\n        /* \"#utility.yul\":5127:5164   */\n      swap1\n      pop\n        /* \"#utility.yul\":5219:5223   */\n      0x20\n        /* \"#utility.yul\":5213:5217   */\n      dup2\n        /* \"#utility.yul\":5209:5224   */\n      add\n        /* \"#utility.yul\":5201:5224   */\n      swap1\n      pop\n        /* \"#utility.yul\":4923:5231   */\n      swap2\n      swap1\n      pop\n      jump\t// out\n        /* \"#utility.yul\":5237:5383   */\n    tag_312:\n        /* \"#utility.yul\":5334:5340   */\n      dup3\n        /* \"#utility.yul\":5329:5332   */\n      dup2\n        /* \"#utility.yul\":5324:5327   */\n      dup4\n        /* \"#utility.yul\":5311:5341   */\n      calldatacopy\n        /* \"#utility.yul\":5375:5376   */\n      0x00\n        /* \"#utility.yul\":5366:5372   */\n      dup4\n        /* \"#utility.yul\":5361:5364   */\n      dup4\n        /* \"#utility.yul\":5357:5373   */\n      add\n        /* \"#utility.yul\":5350:5377   */\n      mstore\n        /* \"#utility.yul\":5237:5383   */\n      pop\n      pop\n      pop\n      jump\t// out\n        /* \"#utility.yul\":5389:5814   */\n    tag_313:\n        /* \"#utility.yul\":5467:5472   */\n      0x00\n        /* \"#utility.yul\":5492:5558   */\n      tag_427\n        /* \"#utility.yul\":5508:5557   */\n      tag_428\n        /* \"#utility.yul\":5550:5556   */\n      dup5\n        /* \"#utility.yul\":5508:5557   */\n      tag_311\n      jump\t// in\n    tag_428:\n        /* \"#utility.yul\":5492:5558   */\n      tag_310\n      jump\t// in\n    tag_427:\n        /* \"#utility.yul\":5483:5558   */\n      swap1\n      pop\n        /* \"#utility.yul\":5581:5587   */\n      dup3\n        /* \"#utility.yul\":5574:5579   */\n      dup2\n        /* \"#utility.yul\":5567:5588   */\n      mstore\n        /* \"#utility.yul\":5619:5623   */\n      0x20\n        /* \"#utility.yul\":5612:5617   */\n      dup2\n        /* \"#utility.yul\":5608:5624   */\n      add\n        /* \"#utility.yul\":5657:5660   */\n      dup5\n        /* \"#utility.yul\":5648:5654   */\n      dup5\n        /* \"#utility.yul\":5643:5646   */\n      dup5\n        /* \"#utility.yul\":5639:5655   */\n      add\n        /* \"#utility.yul\":5636:5661   */\n      gt\n        /* \"#utility.yul\":5633:5745   */\n      iszero\n      tag_429\n      jumpi\n        /* \"#utility.yul\":5664:5743   */\n      tag_430\n      tag_306\n      jump\t// in\n    tag_430:\n        /* \"#utility.yul\":5633:5745   */\n    tag_429:\n        /* \"#utility.yul\":5754:5808   */\n      tag_431\n        /* \"#utility.yul\":5801:5807   */\n      dup5\n        /* \"#utility.yul\":5796:5799   */\n      dup3\n        /* \"#utility.yul\":5791:5794   */\n      dup6\n        /* \"#utility.yul\":5754:5808   */\n      tag_312\n      jump\t// in\n    tag_431:\n        /* \"#utility.yul\":5473:5814   */\n      pop\n        /* \"#utility.yul\":5389:5814   */\n      swap4\n      swap3\n      pop\n      pop\n      pop\n      jump\t// out\n        /* \"#utility.yul\":5834:6174   */\n    tag_314:\n        /* \"#utility.yul\":5890:5895   */\n      0x00\n        /* \"#utility.yul\":5939:5942   */\n      dup3\n        /* \"#utility.yul\":5932:5936   */\n      0x1f\n        /* \"#utility.yul\":5924:5930   */\n      dup4\n        /* \"#utility.yul\":5920:5937   */\n      add\n        /* \"#utility.yul\":5916:5943   */\n      slt\n        /* \"#utility.yul\":5906:6028   */\n      tag_433\n      jumpi\n        /* \"#utility.yul\":5947:6026   */\n      tag_434\n      tag_305\n      jump\t// in\n    tag_434:\n        /* \"#utility.yul\":5906:6028   */\n    tag_433:\n        /* \"#utility.yul\":6064:6070   */\n      dup2\n        /* \"#utility.yul\":6051:6071   */\n      calldataload\n        /* \"#utility.yul\":6089:6168   */\n      tag_435\n        /* \"#utility.yul\":6164:6167   */\n      dup5\n        /* \"#utility.yul\":6156:6162   */\n      dup3\n        /* \"#utility.yul\":6149:6153   */\n      0x20\n        /* \"#utility.yul\":6141:6147   */\n      dup7\n        /* \"#utility.yul\":6137:6154   */\n      add\n        /* \"#utility.yul\":6089:6168   */\n      tag_313\n      jump\t// in\n    tag_435:\n        /* \"#utility.yul\":6080:6168   */\n      swap2\n      pop\n        /* \"#utility.yul\":5896:6174   */\n      pop\n        /* \"#utility.yul\":5834:6174   */\n      swap3\n      swap2\n      pop\n      pop\n      jump\t// out\n        /* \"#utility.yul\":6180:6979   */\n    tag_98:\n        /* \"#utility.yul\":6267:6273   */\n      0x00\n        /* \"#utility.yul\":6275:6281   */\n      dup1\n        /* \"#utility.yul\":6283:6289   */\n      0x00\n        /* \"#utility.yul\":6332:6334   */\n      0x60\n        /* \"#utility.yul\":6320:6329   */\n      dup5\n        /* \"#utility.yul\":6311:6318   */\n      dup7\n        /* \"#utility.yul\":6307:6330   */\n      sub\n        /* \"#utility.yul\":6303:6335   */\n      slt\n        /* \"#utility.yul\":6300:6419   */\n      iszero\n      tag_437\n      jumpi\n        /* \"#utility.yul\":6338:6417   */\n      tag_438\n      tag_292\n      jump\t// in\n    tag_438:\n        /* \"#utility.yul\":6300:6419   */\n    tag_437:\n        /* \"#utility.yul\":6486:6487   */\n      0x00\n        /* \"#utility.yul\":6475:6484   */\n      dup5\n        /* \"#utility.yul\":6471:6488   */\n      add\n        /* \"#utility.yul\":6458:6489   */\n      calldataload\n        /* \"#utility.yul\":6516:6534   */\n      0xffffffffffffffff\n        /* \"#utility.yul\":6508:6514   */\n      dup2\n        /* \"#utility.yul\":6505:6535   */\n      gt\n        /* \"#utility.yul\":6502:6619   */\n      iszero\n      tag_439\n      jumpi\n        /* \"#utility.yul\":6538:6617   */\n      tag_440\n      tag_293\n      jump\t// in\n    tag_440:\n        /* \"#utility.yul\":6502:6619   */\n    tag_439:\n        /* \"#utility.yul\":6643:6706   */\n      tag_441\n        /* \"#utility.yul\":6698:6705   */\n      dup7\n        /* \"#utility.yul\":6689:6695   */\n      dup3\n        /* \"#utility.yul\":6678:6687   */\n      dup8\n        /* \"#utility.yul\":6674:6696   */\n      add\n        /* \"#utility.yul\":6643:6706   */\n      tag_314\n      jump\t// in\n    tag_441:\n        /* \"#utility.yul\":6633:6706   */\n      swap4\n      pop\n        /* \"#utility.yul\":6429:6716   */\n      pop\n        /* \"#utility.yul\":6755:6757   */\n      0x20\n        /* \"#utility.yul\":6781:6834   */\n      tag_442\n        /* \"#utility.yul\":6826:6833   */\n      dup7\n        /* \"#utility.yul\":6817:6823   */\n      dup3\n        /* \"#utility.yul\":6806:6815   */\n      dup8\n        /* \"#utility.yul\":6802:6824   */\n      add\n        /* \"#utility.yul\":6781:6834   */\n      tag_300\n      jump\t// in\n    tag_442:\n        /* \"#utility.yul\":6771:6834   */\n      swap3\n      pop\n        /* \"#utility.yul\":6726:6844   */\n      pop\n        /* \"#utility.yul\":6883:6885   */\n      0x40\n        /* \"#utility.yul\":6909:6962   */\n      tag_443\n        /* \"#utility.yul\":6954:6961   */\n      dup7\n        /* \"#utility.yul\":6945:6951   */\n      dup3\n        /* \"#utility.yul\":6934:6943   */\n      dup8\n        /* \"#utility.yul\":6930:6952   */\n      add\n        /* \"#utility.yul\":6909:6962   */\n      tag_297\n      jump\t// in\n    tag_443:\n        /* \"#utility.yul\":6899:6962   */\n      swap2\n      pop\n        /* \"#utility.yul\":6854:6972   */\n      pop\n        /* \"#utility.yul\":6180:6979   */\n      swap3\n      pop\n      swap3\n      pop\n      swap3\n      jump\t// out\n        /* \"#utility.yul\":6985:7089   */\n    tag_315:\n        /* \"#utility.yul\":7030:7037   */\n      0x00\n        /* \"#utility.yul\":7059:7083   */\n      tag_445\n        /* \"#utility.yul\":7077:7082   */\n      dup3\n        /* \"#utility.yul\":7059:7083   */\n      tag_294\n      jump\t// in\n    tag_445:\n        /* \"#utility.yul\":7048:7083   */\n      swap1\n      pop\n        /* \"#utility.yul\":6985:7089   */\n      swap2\n      swap1\n      pop\n      jump\t// out\n        /* \"#utility.yul\":7095:7233   */\n    tag_316:\n        /* \"#utility.yul\":7176:7208   */\n      tag_447\n        /* \"#utility.yul\":7202:7207   */\n      dup2\n        /* \"#utility.yul\":7176:7208   */\n      tag_315\n      jump\t// in\n    tag_447:\n        /* \"#utility.yul\":7169:7174   */\n      dup2\n        /* \"#utility.yul\":7166:7209   */\n      eq\n        /* \"#utility.yul\":7156:7227   */\n      tag_448\n      jumpi\n        /* \"#utility.yul\":7223:7224   */\n      0x00\n        /* \"#utility.yul\":7220:7221   */\n      dup1\n        /* \"#utility.yul\":7213:7225   */\n      revert\n        /* \"#utility.yul\":7156:7227   */\n    tag_448:\n        /* \"#utility.yul\":7095:7233   */\n      pop\n      jump\t// out\n        /* \"#utility.yul\":7239:7394   */\n    tag_317:\n        /* \"#utility.yul\":7293:7298   */\n      0x00\n        /* \"#utility.yul\":7331:7337   */\n      dup2\n        /* \"#utility.yul\":7318:7338   */\n      calldataload\n        /* \"#utility.yul\":7309:7338   */\n      swap1\n      pop\n        /* \"#utility.yul\":7347:7388   */\n      tag_450\n        /* \"#utility.yul\":7382:7387   */\n      dup2\n        /* \"#utility.yul\":7347:7388   */\n      tag_316\n      jump\t// in\n    tag_450:\n        /* \"#utility.yul\":7239:7394   */\n      swap3\n      swap2\n      pop\n      pop\n      jump\t// out\n        /* \"#utility.yul\":7400:7890   */\n    tag_107:\n        /* \"#utility.yul\":7476:7482   */\n      0x00\n        /* \"#utility.yul\":7484:7490   */\n      dup1\n        /* \"#utility.yul\":7533:7535   */\n      0x40\n        /* \"#utility.yul\":7521:7530   */\n      dup4\n        /* \"#utility.yul\":7512:7519   */\n      dup6\n        /* \"#utility.yul\":7508:7531   */\n      sub\n        /* \"#utility.yul\":7504:7536   */\n      slt\n        /* \"#utility.yul\":7501:7620   */\n      iszero\n      tag_452\n      jumpi\n        /* \"#utility.yul\":7539:7618   */\n      tag_453\n      tag_292\n      jump\t// in\n    tag_453:\n        /* \"#utility.yul\":7501:7620   */\n    tag_452:\n        /* \"#utility.yul\":7659:7660   */\n      0x00\n        /* \"#utility.yul\":7684:7737   */\n      tag_454\n        /* \"#utility.yul\":7729:7736   */\n      dup6\n        /* \"#utility.yul\":7720:7726   */\n      dup3\n        /* \"#utility.yul\":7709:7718   */\n      dup7\n        /* \"#utility.yul\":7705:7727   */\n      add\n        /* \"#utility.yul\":7684:7737   */\n      tag_300\n      jump\t// in\n    tag_454:\n        /* \"#utility.yul\":7674:7737   */\n      swap3\n      pop\n        /* \"#utility.yul\":7630:7747   */\n      pop\n        /* \"#utility.yul\":7786:7788   */\n      0x20\n        /* \"#utility.yul\":7812:7873   */\n      tag_455\n        /* \"#utility.yul\":7865:7872   */\n      dup6\n        /* \"#utility.yul\":7856:7862   */\n      dup3\n        /* \"#utility.yul\":7845:7854   */\n      dup7\n        /* \"#utility.yul\":7841:7863   */\n      add\n        /* \"#utility.yul\":7812:7873   */\n      tag_317\n      jump\t// in\n    tag_455:\n        /* \"#utility.yul\":7802:7873   */\n      swap2\n      pop\n        /* \"#utility.yul\":7757:7883   */\n      pop\n        /* \"#utility.yul\":7400:7890   */\n      swap3\n      pop\n      swap3\n      swap1\n      pop\n      jump\t// out\n        /* \"#utility.yul\":7896:8014   */\n    tag_318:\n        /* \"#utility.yul\":7967:7989   */\n      tag_457\n        /* \"#utility.yul\":7983:7988   */\n      dup2\n        /* \"#utility.yul\":7967:7989   */\n      tag_303\n      jump\t// in\n    tag_457:\n        /* \"#utility.yul\":7960:7965   */\n      dup2\n        /* \"#utility.yul\":7957:7990   */\n      eq\n        /* \"#utility.yul\":7947:8008   */\n      tag_458\n      jumpi\n        /* \"#utility.yul\":8004:8005   */\n      0x00\n        /* \"#utility.yul\":8001:8002   */\n      dup1\n        /* \"#utility.yul\":7994:8006   */\n      revert\n        /* \"#utility.yul\":7947:8008   */\n    tag_458:\n        /* \"#utility.yul\":7896:8014   */\n      pop\n      jump\t// out\n        /* \"#utility.yul\":8020:8155   */\n    tag_319:\n        /* \"#utility.yul\":8064:8069   */\n      0x00\n        /* \"#utility.yul\":8102:8108   */\n      dup2\n        /* \"#utility.yul\":8089:8109   */\n      calldataload\n        /* \"#utility.yul\":8080:8109   */\n      swap1\n      pop\n        /* \"#utility.yul\":8118:8149   */\n      tag_460\n        /* \"#utility.yul\":8143:8148   */\n      dup2\n        /* \"#utility.yul\":8118:8149   */\n      tag_318\n      jump\t// in\n    tag_460:\n        /* \"#utility.yul\":8020:8155   */\n      swap3\n      swap2\n      pop\n      pop\n      jump\t// out\n        /* \"#utility.yul\":8161:8631   */\n    tag_112:\n        /* \"#utility.yul\":8227:8233   */\n      0x00\n        /* \"#utility.yul\":8235:8241   */\n      dup1\n        /* \"#utility.yul\":8284:8286   */\n      0x40\n        /* \"#utility.yul\":8272:8281   */\n      dup4\n        /* \"#utility.yul\":8263:8270   */\n      dup6\n        /* \"#utility.yul\":8259:8282   */\n      sub\n        /* \"#utility.yul\":8255:8287   */\n      slt\n        /* \"#utility.yul\":8252:8371   */\n      iszero\n      tag_462\n      jumpi\n        /* \"#utility.yul\":8290:8369   */\n      tag_463\n      tag_292\n      jump\t// in\n    tag_463:\n        /* \"#utility.yul\":8252:8371   */\n    tag_462:\n        /* \"#utility.yul\":8410:8411   */\n      0x00\n        /* \"#utility.yul\":8435:8488   */\n      tag_464\n        /* \"#utility.yul\":8480:8487   */\n      dup6\n        /* \"#utility.yul\":8471:8477   */\n      dup3\n        /* \"#utility.yul\":8460:8469   */\n      dup7\n        /* \"#utility.yul\":8456:8478   */\n      add\n        /* \"#utility.yul\":8435:8488   */\n      tag_297\n      jump\t// in\n    tag_464:\n        /* \"#utility.yul\":8425:8488   */\n      swap3\n      pop\n        /* \"#utility.yul\":8381:8498   */\n      pop\n        /* \"#utility.yul\":8537:8539   */\n      0x20\n        /* \"#utility.yul\":8563:8614   */\n      tag_465\n        /* \"#utility.yul\":8606:8613   */\n      dup6\n        /* \"#utility.yul\":8597:8603   */\n      dup3\n        /* \"#utility.yul\":8586:8595   */\n      dup7\n        /* \"#utility.yul\":8582:8604   */\n      add\n        /* \"#utility.yul\":8563:8614   */\n      tag_319\n      jump\t// in\n    tag_465:\n        /* \"#utility.yul\":8553:8614   */\n      swap2\n      pop\n        /* \"#utility.yul\":8508:8624   */\n      pop\n        /* \"#utility.yul\":8161:8631   */\n      swap3\n      pop\n      swap3\n      swap1\n      pop\n      jump\t// out\n        /* \"#utility.yul\":8637:8736   */\n    tag_320:\n        /* \"#utility.yul\":8689:8695   */\n      0x00\n        /* \"#utility.yul\":8723:8728   */\n      dup2\n        /* \"#utility.yul\":8717:8729   */\n      mload\n        /* \"#utility.yul\":8707:8729   */\n      swap1\n      pop\n        /* \"#utility.yul\":8637:8736   */\n      swap2\n      swap1\n      pop\n      jump\t// out\n        /* \"#utility.yul\":8742:8911   */\n    tag_321:\n        /* \"#utility.yul\":8826:8837   */\n      0x00\n        /* \"#utility.yul\":8860:8866   */\n      dup3\n        /* \"#utility.yul\":8855:8858   */\n      dup3\n        /* \"#utility.yul\":8848:8867   */\n      mstore\n        /* \"#utility.yul\":8900:8904   */\n      0x20\n        /* \"#utility.yul\":8895:8898   */\n      dup3\n        /* \"#utility.yul\":8891:8905   */\n      add\n        /* \"#utility.yul\":8876:8905   */\n      swap1\n      pop\n        /* \"#utility.yul\":8742:8911   */\n      swap3\n      swap2\n      pop\n      pop\n      jump\t// out\n        /* \"#utility.yul\":8917:9163   */\n    tag_322:\n        /* \"#utility.yul\":8998:8999   */\n      0x00\n        /* \"#utility.yul\":9008:9121   */\n    tag_469:\n        /* \"#utility.yul\":9022:9028   */\n      dup4\n        /* \"#utility.yul\":9019:9020   */\n      dup2\n        /* \"#utility.yul\":9016:9029   */\n      lt\n        /* \"#utility.yul\":9008:9121   */\n      iszero\n      tag_471\n      jumpi\n        /* \"#utility.yul\":9107:9108   */\n      dup1\n        /* \"#utility.yul\":9102:9105   */\n      dup3\n        /* \"#utility.yul\":9098:9109   */\n      add\n        /* \"#utility.yul\":9092:9110   */\n      mload\n        /* \"#utility.yul\":9088:9089   */\n      dup2\n        /* \"#utility.yul\":9083:9086   */\n      dup5\n        /* \"#utility.yul\":9079:9090   */\n      add\n        /* \"#utility.yul\":9072:9111   */\n      mstore\n        /* \"#utility.yul\":9044:9046   */\n      0x20\n        /* \"#utility.yul\":9041:9042   */\n      dup2\n        /* \"#utility.yul\":9037:9047   */\n      add\n        /* \"#utility.yul\":9032:9047   */\n      swap1\n      pop\n        /* \"#utility.yul\":9008:9121   */\n      jump(tag_469)\n    tag_471:\n        /* \"#utility.yul\":9155:9156   */\n      0x00\n        /* \"#utility.yul\":9146:9152   */\n      dup5\n        /* \"#utility.yul\":9141:9144   */\n      dup5\n        /* \"#utility.yul\":9137:9153   */\n      add\n        /* \"#utility.yul\":9130:9157   */\n      mstore\n        /* \"#utility.yul\":8979:9163   */\n      pop\n        /* \"#utility.yul\":8917:9163   */\n      pop\n      pop\n      pop\n      jump\t// out\n        /* \"#utility.yul\":9169:9546   */\n    tag_323:\n        /* \"#utility.yul\":9257:9260   */\n      0x00\n        /* \"#utility.yul\":9285:9324   */\n      tag_473\n        /* \"#utility.yul\":9318:9323   */\n      dup3\n        /* \"#utility.yul\":9285:9324   */\n      tag_320\n      jump\t// in\n    tag_473:\n        /* \"#utility.yul\":9340:9411   */\n      tag_474\n        /* \"#utility.yul\":9404:9410   */\n      dup2\n        /* \"#utility.yul\":9399:9402   */\n      dup6\n        /* \"#utility.yul\":9340:9411   */\n      tag_321\n      jump\t// in\n    tag_474:\n        /* \"#utility.yul\":9333:9411   */\n      swap4\n      pop\n        /* \"#utility.yul\":9420:9485   */\n      tag_475\n        /* \"#utility.yul\":9478:9484   */\n      dup2\n        /* \"#utility.yul\":9473:9476   */\n      dup6\n        /* \"#utility.yul\":9466:9470   */\n      0x20\n        /* \"#utility.yul\":9459:9464   */\n      dup7\n        /* \"#utility.yul\":9455:9471   */\n      add\n        /* \"#utility.yul\":9420:9485   */\n      tag_322\n      jump\t// in\n    tag_475:\n        /* \"#utility.yul\":9510:9539   */\n      tag_476\n        /* \"#utility.yul\":9532:9538   */\n      dup2\n        /* \"#utility.yul\":9510:9539   */\n      tag_307\n      jump\t// in\n    tag_476:\n        /* \"#utility.yul\":9505:9508   */\n      dup5\n        /* \"#utility.yul\":9501:9540   */\n      add\n        /* \"#utility.yul\":9494:9540   */\n      swap2\n      pop\n        /* \"#utility.yul\":9261:9546   */\n      pop\n        /* \"#utility.yul\":9169:9546   */\n      swap3\n      swap2\n      pop\n      pop\n      jump\t// out\n        /* \"#utility.yul\":9552:9642   */\n    tag_324:\n        /* \"#utility.yul\":9586:9593   */\n      0x00\n        /* \"#utility.yul\":9629:9634   */\n      dup2\n        /* \"#utility.yul\":9622:9635   */\n      iszero\n        /* \"#utility.yul\":9615:9636   */\n      iszero\n        /* \"#utility.yul\":9604:9636   */\n      swap1\n      pop\n        /* \"#utility.yul\":9552:9642   */\n      swap2\n      swap1\n      pop\n      jump\t// out\n        /* \"#utility.yul\":9648:9757   */\n    tag_325:\n        /* \"#utility.yul\":9729:9750   */\n      tag_479\n        /* \"#utility.yul\":9744:9749   */\n      dup2\n        /* \"#utility.yul\":9729:9750   */\n      tag_324\n      jump\t// in\n    tag_479:\n        /* \"#utility.yul\":9724:9727   */\n      dup3\n        /* \"#utility.yul\":9717:9751   */\n      mstore\n        /* \"#utility.yul\":9648:9757   */\n      pop\n      pop\n      jump\t// out\n        /* \"#utility.yul\":9763:10395   */\n    tag_119:\n        /* \"#utility.yul\":9954:9958   */\n      0x00\n        /* \"#utility.yul\":9992:9995   */\n      0x80\n        /* \"#utility.yul\":9981:9990   */\n      dup3\n        /* \"#utility.yul\":9977:9996   */\n      add\n        /* \"#utility.yul\":9969:9996   */\n      swap1\n      pop\n        /* \"#utility.yul\":10042:10051   */\n      dup2\n        /* \"#utility.yul\":10036:10040   */\n      dup2\n        /* \"#utility.yul\":10032:10052   */\n      sub\n        /* \"#utility.yul\":10028:10029   */\n      0x00\n        /* \"#utility.yul\":10017:10026   */\n      dup4\n        /* \"#utility.yul\":10013:10030   */\n      add\n        /* \"#utility.yul\":10006:10053   */\n      mstore\n        /* \"#utility.yul\":10070:10148   */\n      tag_481\n        /* \"#utility.yul\":10143:10147   */\n      dup2\n        /* \"#utility.yul\":10134:10140   */\n      dup8\n        /* \"#utility.yul\":10070:10148   */\n      tag_323\n      jump\t// in\n    tag_481:\n        /* \"#utility.yul\":10062:10148   */\n      swap1\n      pop\n        /* \"#utility.yul\":10158:10230   */\n      tag_482\n        /* \"#utility.yul\":10226:10228   */\n      0x20\n        /* \"#utility.yul\":10215:10224   */\n      dup4\n        /* \"#utility.yul\":10211:10229   */\n      add\n        /* \"#utility.yul\":10202:10208   */\n      dup7\n        /* \"#utility.yul\":10158:10230   */\n      tag_302\n      jump\t// in\n    tag_482:\n        /* \"#utility.yul\":10240:10306   */\n      tag_483\n        /* \"#utility.yul\":10302:10304   */\n      0x40\n        /* \"#utility.yul\":10291:10300   */\n      dup4\n        /* \"#utility.yul\":10287:10305   */\n      add\n        /* \"#utility.yul\":10278:10284   */\n      dup6\n        /* \"#utility.yul\":10240:10306   */\n      tag_325\n      jump\t// in\n    tag_483:\n        /* \"#utility.yul\":10316:10388   */\n      tag_484\n        /* \"#utility.yul\":10384:10386   */\n      0x60\n        /* \"#utility.yul\":10373:10382   */\n      dup4\n        /* \"#utility.yul\":10369:10387   */\n      add\n        /* \"#utility.yul\":10360:10366   */\n      dup5\n        /* \"#utility.yul\":10316:10388   */\n      tag_301\n      jump\t// in\n    tag_484:\n        /* \"#utility.yul\":9763:10395   */\n      swap6\n      swap5\n      pop\n      pop\n      pop\n      pop\n      pop\n      jump\t// out\n        /* \"#utility.yul\":10401:11508   */\n    tag_142:\n        /* \"#utility.yul\":10514:10520   */\n      0x00\n        /* \"#utility.yul\":10522:10528   */\n      dup1\n        /* \"#utility.yul\":10530:10536   */\n      0x00\n        /* \"#utility.yul\":10538:10544   */\n      dup1\n        /* \"#utility.yul\":10546:10552   */\n      0x00\n        /* \"#utility.yul\":10595:10598   */\n      0xa0\n        /* \"#utility.yul\":10583:10592   */\n      dup7\n        /* \"#utility.yul\":10574:10581   */\n      dup9\n        /* \"#utility.yul\":10570:10593   */\n      sub\n        /* \"#utility.yul\":10566:10599   */\n      slt\n        /* \"#utility.yul\":10563:10683   */\n      iszero\n      tag_486\n      jumpi\n        /* \"#utility.yul\":10602:10681   */\n      tag_487\n      tag_292\n      jump\t// in\n    tag_487:\n        /* \"#utility.yul\":10563:10683   */\n    tag_486:\n        /* \"#utility.yul\":10722:10723   */\n      0x00\n        /* \"#utility.yul\":10747:10808   */\n      tag_488\n        /* \"#utility.yul\":10800:10807   */\n      dup9\n        /* \"#utility.yul\":10791:10797   */\n      dup3\n        /* \"#utility.yul\":10780:10789   */\n      dup10\n        /* \"#utility.yul\":10776:10798   */\n      add\n        /* \"#utility.yul\":10747:10808   */\n      tag_317\n      jump\t// in\n    tag_488:\n        /* \"#utility.yul\":10737:10808   */\n      swap6\n      pop\n        /* \"#utility.yul\":10693:10818   */\n      pop\n        /* \"#utility.yul\":10857:10859   */\n      0x20\n        /* \"#utility.yul\":10883:10936   */\n      tag_489\n        /* \"#utility.yul\":10928:10935   */\n      dup9\n        /* \"#utility.yul\":10919:10925   */\n      dup3\n        /* \"#utility.yul\":10908:10917   */\n      dup10\n        /* \"#utility.yul\":10904:10926   */\n      add\n        /* \"#utility.yul\":10883:10936   */\n      tag_300\n      jump\t// in\n    tag_489:\n        /* \"#utility.yul\":10873:10936   */\n      swap5\n      pop\n        /* \"#utility.yul\":10828:10946   */\n      pop\n        /* \"#utility.yul\":10985:10987   */\n      0x40\n        /* \"#utility.yul\":11011:11064   */\n      tag_490\n        /* \"#utility.yul\":11056:11063   */\n      dup9\n        /* \"#utility.yul\":11047:11053   */\n      dup3\n        /* \"#utility.yul\":11036:11045   */\n      dup10\n        /* \"#utility.yul\":11032:11054   */\n      add\n        /* \"#utility.yul\":11011:11064   */\n      tag_300\n      jump\t// in\n    tag_490:\n        /* \"#utility.yul\":11001:11064   */\n      swap4\n      pop\n        /* \"#utility.yul\":10956:11074   */\n      pop\n        /* \"#utility.yul\":11113:11115   */\n      0x60\n        /* \"#utility.yul\":11139:11192   */\n      tag_491\n        /* \"#utility.yul\":11184:11191   */\n      dup9\n        /* \"#utility.yul\":11175:11181   */\n      dup3\n        /* \"#utility.yul\":11164:11173   */\n      dup10\n        /* \"#utility.yul\":11160:11182   */\n      add\n        /* \"#utility.yul\":11139:11192   */\n      tag_300\n      jump\t// in\n    tag_491:\n        /* \"#utility.yul\":11129:11192   */\n      swap3\n      pop\n        /* \"#utility.yul\":11084:11202   */\n      pop\n        /* \"#utility.yul\":11269:11272   */\n      0x80\n        /* \"#utility.yul\":11258:11267   */\n      dup7\n        /* \"#utility.yul\":11254:11273   */\n      add\n        /* \"#utility.yul\":11241:11274   */\n      calldataload\n        /* \"#utility.yul\":11301:11319   */\n      0xffffffffffffffff\n        /* \"#utility.yul\":11293:11299   */\n      dup2\n        /* \"#utility.yul\":11290:11320   */\n      gt\n        /* \"#utility.yul\":11287:11404   */\n      iszero\n      tag_492\n      jumpi\n        /* \"#utility.yul\":11323:11402   */\n      tag_493\n      tag_293\n      jump\t// in\n    tag_493:\n        /* \"#utility.yul\":11287:11404   */\n    tag_492:\n        /* \"#utility.yul\":11428:11491   */\n      tag_494\n        /* \"#utility.yul\":11483:11490   */\n      dup9\n        /* \"#utility.yul\":11474:11480   */\n      dup3\n        /* \"#utility.yul\":11463:11472   */\n      dup10\n        /* \"#utility.yul\":11459:11481   */\n      add\n        /* \"#utility.yul\":11428:11491   */\n      tag_314\n      jump\t// in\n    tag_494:\n        /* \"#utility.yul\":11418:11491   */\n      swap2\n      pop\n        /* \"#utility.yul\":11212:11501   */\n      pop\n        /* \"#utility.yul\":10401:11508   */\n      swap3\n      swap6\n      pop\n      swap3\n      swap6\n      swap1\n      swap4\n      pop\n      jump\t// out\n        /* \"#utility.yul\":11514:11694   */\n    tag_177:\n        /* \"#utility.yul\":11562:11639   */\n      0x4e487b7100000000000000000000000000000000000000000000000000000000\n        /* \"#utility.yul\":11559:11560   */\n      0x00\n        /* \"#utility.yul\":11552:11640   */\n      mstore\n        /* \"#utility.yul\":11659:11663   */\n      0x32\n        /* \"#utility.yul\":11656:11657   */\n      0x04\n        /* \"#utility.yul\":11649:11664   */\n      mstore\n        /* \"#utility.yul\":11683:11687   */\n      0x24\n        /* \"#utility.yul\":11680:11681   */\n      0x00\n        /* \"#utility.yul\":11673:11688   */\n      revert\n        /* \"#utility.yul\":11700:11921   */\n    tag_326:\n        /* \"#utility.yul\":11840:11874   */\n      0x726571756573742068617320616c7265616479206265656e2066696e616c6973\n        /* \"#utility.yul\":11836:11837   */\n      0x00\n        /* \"#utility.yul\":11828:11834   */\n      dup3\n        /* \"#utility.yul\":11824:11838   */\n      add\n        /* \"#utility.yul\":11817:11875   */\n      mstore\n        /* \"#utility.yul\":11909:11913   */\n      0x6564000000000000000000000000000000000000000000000000000000000000\n        /* \"#utility.yul\":11904:11906   */\n      0x20\n        /* \"#utility.yul\":11896:11902   */\n      dup3\n        /* \"#utility.yul\":11892:11907   */\n      add\n        /* \"#utility.yul\":11885:11914   */\n      mstore\n        /* \"#utility.yul\":11700:11921   */\n      pop\n      jump\t// out\n        /* \"#utility.yul\":11927:12293   */\n    tag_327:\n        /* \"#utility.yul\":12069:12072   */\n      0x00\n        /* \"#utility.yul\":12090:12157   */\n      tag_498\n        /* \"#utility.yul\":12154:12156   */\n      0x22\n        /* \"#utility.yul\":12149:12152   */\n      dup4\n        /* \"#utility.yul\":12090:12157   */\n      tag_321\n      jump\t// in\n    tag_498:\n        /* \"#utility.yul\":12083:12157   */\n      swap2\n      pop\n        /* \"#utility.yul\":12166:12259   */\n      tag_499\n        /* \"#utility.yul\":12255:12258   */\n      dup3\n        /* \"#utility.yul\":12166:12259   */\n      tag_326\n      jump\t// in\n    tag_499:\n        /* \"#utility.yul\":12284:12286   */\n      0x40\n        /* \"#utility.yul\":12279:12282   */\n      dup3\n        /* \"#utility.yul\":12275:12287   */\n      add\n        /* \"#utility.yul\":12268:12287   */\n      swap1\n      pop\n        /* \"#utility.yul\":11927:12293   */\n      swap2\n      swap1\n      pop\n      jump\t// out\n        /* \"#utility.yul\":12299:12718   */\n    tag_181:\n        /* \"#utility.yul\":12465:12469   */\n      0x00\n        /* \"#utility.yul\":12503:12505   */\n      0x20\n        /* \"#utility.yul\":12492:12501   */\n      dup3\n        /* \"#utility.yul\":12488:12506   */\n      add\n        /* \"#utility.yul\":12480:12506   */\n      swap1\n      pop\n        /* \"#utility.yul\":12552:12561   */\n      dup2\n        /* \"#utility.yul\":12546:12550   */\n      dup2\n        /* \"#utility.yul\":12542:12562   */\n      sub\n        /* \"#utility.yul\":12538:12539   */\n      0x00\n        /* \"#utility.yul\":12527:12536   */\n      dup4\n        /* \"#utility.yul\":12523:12540   */\n      add\n        /* \"#utility.yul\":12516:12563   */\n      mstore\n        /* \"#utility.yul\":12580:12711   */\n      tag_501\n        /* \"#utility.yul\":12706:12710   */\n      dup2\n        /* \"#utility.yul\":12580:12711   */\n      tag_327\n      jump\t// in\n    tag_501:\n        /* \"#utility.yul\":12572:12711   */\n      swap1\n      pop\n        /* \"#utility.yul\":12299:12718   */\n      swap2\n      swap1\n      pop\n      jump\t// out\n        /* \"#utility.yul\":12724:12892   */\n    tag_328:\n        /* \"#utility.yul\":12864:12884   */\n      0x496e73756666696369656e742066756e64730000000000000000000000000000\n        /* \"#utility.yul\":12860:12861   */\n      0x00\n        /* \"#utility.yul\":12852:12858   */\n      dup3\n        /* \"#utility.yul\":12848:12862   */\n      add\n        /* \"#utility.yul\":12841:12885   */\n      mstore\n        /* \"#utility.yul\":12724:12892   */\n      pop\n      jump\t// out\n        /* \"#utility.yul\":12898:13264   */\n    tag_329:\n        /* \"#utility.yul\":13040:13043   */\n      0x00\n        /* \"#utility.yul\":13061:13128   */\n      tag_504\n        /* \"#utility.yul\":13125:13127   */\n      0x12\n        /* \"#utility.yul\":13120:13123   */\n      dup4\n        /* \"#utility.yul\":13061:13128   */\n      tag_321\n      jump\t// in\n    tag_504:\n        /* \"#utility.yul\":13054:13128   */\n      swap2\n      pop\n        /* \"#utility.yul\":13137:13230   */\n      tag_505\n        /* \"#utility.yul\":13226:13229   */\n      dup3\n        /* \"#utility.yul\":13137:13230   */\n      tag_328\n      jump\t// in\n    tag_505:\n        /* \"#utility.yul\":13255:13257   */\n      0x20\n        /* \"#utility.yul\":13250:13253   */\n      dup3\n        /* \"#utility.yul\":13246:13258   */\n      add\n        /* \"#utility.yul\":13239:13258   */\n      swap1\n      pop\n        /* \"#utility.yul\":12898:13264   */\n      swap2\n      swap1\n      pop\n      jump\t// out\n        /* \"#utility.yul\":13270:13689   */\n    tag_185:\n        /* \"#utility.yul\":13436:13440   */\n      0x00\n        /* \"#utility.yul\":13474:13476   */\n      0x20\n        /* \"#utility.yul\":13463:13472   */\n      dup3\n        /* \"#utility.yul\":13459:13477   */\n      add\n        /* \"#utility.yul\":13451:13477   */\n      swap1\n      pop\n        /* \"#utility.yul\":13523:13532   */\n      dup2\n        /* \"#utility.yul\":13517:13521   */\n      dup2\n        /* \"#utility.yul\":13513:13533   */\n      sub\n        /* \"#utility.yul\":13509:13510   */\n      0x00\n        /* \"#utility.yul\":13498:13507   */\n      dup4\n        /* \"#utility.yul\":13494:13511   */\n      add\n        /* \"#utility.yul\":13487:13534   */\n      mstore\n        /* \"#utility.yul\":13551:13682   */\n      tag_507\n        /* \"#utility.yul\":13677:13681   */\n      dup2\n        /* \"#utility.yul\":13551:13682   */\n      tag_329\n      jump\t// in\n    tag_507:\n        /* \"#utility.yul\":13543:13682   */\n      swap1\n      pop\n        /* \"#utility.yul\":13270:13689   */\n      swap2\n      swap1\n      pop\n      jump\t// out\n        /* \"#utility.yul\":13695:13919   */\n    tag_330:\n        /* \"#utility.yul\":13835:13869   */\n      0x7472616e73616374696f6e2077697468203020657468206973206e6f7420616c\n        /* \"#utility.yul\":13831:13832   */\n      0x00\n        /* \"#utility.yul\":13823:13829   */\n      dup3\n        /* \"#utility.yul\":13819:13833   */\n      add\n        /* \"#utility.yul\":13812:13870   */\n      mstore\n        /* \"#utility.yul\":13904:13911   */\n      0x6c6f776564000000000000000000000000000000000000000000000000000000\n        /* \"#utility.yul\":13899:13901   */\n      0x20\n        /* \"#utility.yul\":13891:13897   */\n      dup3\n        /* \"#utility.yul\":13887:13902   */\n      add\n        /* \"#utility.yul\":13880:13912   */\n      mstore\n        /* \"#utility.yul\":13695:13919   */\n      pop\n      jump\t// out\n        /* \"#utility.yul\":13925:14291   */\n    tag_331:\n        /* \"#utility.yul\":14067:14070   */\n      0x00\n        /* \"#utility.yul\":14088:14155   */\n      tag_510\n        /* \"#utility.yul\":14152:14154   */\n      0x25\n        /* \"#utility.yul\":14147:14150   */\n      dup4\n        /* \"#utility.yul\":14088:14155   */\n      tag_321\n      jump\t// in\n    tag_510:\n        /* \"#utility.yul\":14081:14155   */\n      swap2\n      pop\n        /* \"#utility.yul\":14164:14257   */\n      tag_511\n        /* \"#utility.yul\":14253:14256   */\n      dup3\n        /* \"#utility.yul\":14164:14257   */\n      tag_330\n      jump\t// in\n    tag_511:\n        /* \"#utility.yul\":14282:14284   */\n      0x40\n        /* \"#utility.yul\":14277:14280   */\n      dup3\n        /* \"#utility.yul\":14273:14285   */\n      add\n        /* \"#utility.yul\":14266:14285   */\n      swap1\n      pop\n        /* \"#utility.yul\":13925:14291   */\n      swap2\n      swap1\n      pop\n      jump\t// out\n        /* \"#utility.yul\":14297:14716   */\n    tag_188:\n        /* \"#utility.yul\":14463:14467   */\n      0x00\n        /* \"#utility.yul\":14501:14503   */\n      0x20\n        /* \"#utility.yul\":14490:14499   */\n      dup3\n        /* \"#utility.yul\":14486:14504   */\n      add\n        /* \"#utility.yul\":14478:14504   */\n      swap1\n      pop\n        /* \"#utility.yul\":14550:14559   */\n      dup2\n        /* \"#utility.yul\":14544:14548   */\n      dup2\n        /* \"#utility.yul\":14540:14560   */\n      sub\n        /* \"#utility.yul\":14536:14537   */\n      0x00\n        /* \"#utility.yul\":14525:14534   */\n      dup4\n        /* \"#utility.yul\":14521:14538   */\n      add\n        /* \"#utility.yul\":14514:14561   */\n      mstore\n        /* \"#utility.yul\":14578:14709   */\n      tag_513\n        /* \"#utility.yul\":14704:14708   */\n      dup2\n        /* \"#utility.yul\":14578:14709   */\n      tag_331\n      jump\t// in\n    tag_513:\n        /* \"#utility.yul\":14570:14709   */\n      swap1\n      pop\n        /* \"#utility.yul\":14297:14716   */\n      swap2\n      swap1\n      pop\n      jump\t// out\n        /* \"#utility.yul\":14722:14902   */\n    tag_332:\n        /* \"#utility.yul\":14770:14847   */\n      0x4e487b7100000000000000000000000000000000000000000000000000000000\n        /* \"#utility.yul\":14767:14768   */\n      0x00\n        /* \"#utility.yul\":14760:14848   */\n      mstore\n        /* \"#utility.yul\":14867:14871   */\n      0x11\n        /* \"#utility.yul\":14864:14865   */\n      0x04\n        /* \"#utility.yul\":14857:14872   */\n      mstore\n        /* \"#utility.yul\":14891:14895   */\n      0x24\n        /* \"#utility.yul\":14888:14889   */\n      0x00\n        /* \"#utility.yul\":14881:14896   */\n      revert\n        /* \"#utility.yul\":14908:15102   */\n    tag_192:\n        /* \"#utility.yul\":14948:14952   */\n      0x00\n        /* \"#utility.yul\":14968:14988   */\n      tag_516\n        /* \"#utility.yul\":14986:14987   */\n      dup3\n        /* \"#utility.yul\":14968:14988   */\n      tag_298\n      jump\t// in\n    tag_516:\n        /* \"#utility.yul\":14963:14988   */\n      swap2\n      pop\n        /* \"#utility.yul\":15002:15022   */\n      tag_517\n        /* \"#utility.yul\":15020:15021   */\n      dup4\n        /* \"#utility.yul\":15002:15022   */\n      tag_298\n      jump\t// in\n    tag_517:\n        /* \"#utility.yul\":14997:15022   */\n      swap3\n      pop\n        /* \"#utility.yul\":15046:15047   */\n      dup3\n        /* \"#utility.yul\":15043:15044   */\n      dup3\n        /* \"#utility.yul\":15039:15048   */\n      sub\n        /* \"#utility.yul\":15031:15048   */\n      swap1\n      pop\n        /* \"#utility.yul\":15070:15071   */\n      dup2\n        /* \"#utility.yul\":15064:15068   */\n      dup2\n        /* \"#utility.yul\":15061:15072   */\n      gt\n        /* \"#utility.yul\":15058:15095   */\n      iszero\n      tag_518\n      jumpi\n        /* \"#utility.yul\":15075:15093   */\n      tag_519\n      tag_332\n      jump\t// in\n    tag_519:\n        /* \"#utility.yul\":15058:15095   */\n    tag_518:\n        /* \"#utility.yul\":14908:15102   */\n      swap3\n      swap2\n      pop\n      pop\n      jump\t// out\n        /* \"#utility.yul\":15108:15343   */\n    tag_333:\n        /* \"#utility.yul\":15248:15282   */\n      0x596f752068617665207573656420616c6c20746865206d6f6e65792074686174\n        /* \"#utility.yul\":15244:15245   */\n      0x00\n        /* \"#utility.yul\":15236:15242   */\n      dup3\n        /* \"#utility.yul\":15232:15246   */\n      add\n        /* \"#utility.yul\":15225:15283   */\n      mstore\n        /* \"#utility.yul\":15317:15335   */\n      0x20776173206c656e7420746f20796f7500000000000000000000000000000000\n        /* \"#utility.yul\":15312:15314   */\n      0x20\n        /* \"#utility.yul\":15304:15310   */\n      dup3\n        /* \"#utility.yul\":15300:15315   */\n      add\n        /* \"#utility.yul\":15293:15336   */\n      mstore\n        /* \"#utility.yul\":15108:15343   */\n      pop\n      jump\t// out\n        /* \"#utility.yul\":15349:15715   */\n    tag_334:\n        /* \"#utility.yul\":15491:15494   */\n      0x00\n        /* \"#utility.yul\":15512:15579   */\n      tag_522\n        /* \"#utility.yul\":15576:15578   */\n      0x30\n        /* \"#utility.yul\":15571:15574   */\n      dup4\n        /* \"#utility.yul\":15512:15579   */\n      tag_321\n      jump\t// in\n    tag_522:\n        /* \"#utility.yul\":15505:15579   */\n      swap2\n      pop\n        /* \"#utility.yul\":15588:15681   */\n      tag_523\n        /* \"#utility.yul\":15677:15680   */\n      dup3\n        /* \"#utility.yul\":15588:15681   */\n      tag_333\n      jump\t// in\n    tag_523:\n        /* \"#utility.yul\":15706:15708   */\n      0x40\n        /* \"#utility.yul\":15701:15704   */\n      dup3\n        /* \"#utility.yul\":15697:15709   */\n      add\n        /* \"#utility.yul\":15690:15709   */\n      swap1\n      pop\n        /* \"#utility.yul\":15349:15715   */\n      swap2\n      swap1\n      pop\n      jump\t// out\n        /* \"#utility.yul\":15721:16140   */\n    tag_203:\n        /* \"#utility.yul\":15887:15891   */\n      0x00\n        /* \"#utility.yul\":15925:15927   */\n      0x20\n        /* \"#utility.yul\":15914:15923   */\n      dup3\n        /* \"#utility.yul\":15910:15928   */\n      add\n        /* \"#utility.yul\":15902:15928   */\n      swap1\n      pop\n        /* \"#utility.yul\":15974:15983   */\n      dup2\n        /* \"#utility.yul\":15968:15972   */\n      dup2\n        /* \"#utility.yul\":15964:15984   */\n      sub\n        /* \"#utility.yul\":15960:15961   */\n      0x00\n        /* \"#utility.yul\":15949:15958   */\n      dup4\n        /* \"#utility.yul\":15945:15962   */\n      add\n        /* \"#utility.yul\":15938:15985   */\n      mstore\n        /* \"#utility.yul\":16002:16133   */\n      tag_525\n        /* \"#utility.yul\":16128:16132   */\n      dup2\n        /* \"#utility.yul\":16002:16133   */\n      tag_334\n      jump\t// in\n    tag_525:\n        /* \"#utility.yul\":15994:16133   */\n      swap1\n      pop\n        /* \"#utility.yul\":15721:16140   */\n      swap2\n      swap1\n      pop\n      jump\t// out\n        /* \"#utility.yul\":16146:16393   */\n    tag_335:\n        /* \"#utility.yul\":16286:16320   */\n      0x796f75206172652061736b696e6720666f72206d6f7265206d6f6e6579207468\n        /* \"#utility.yul\":16282:16283   */\n      0x00\n        /* \"#utility.yul\":16274:16280   */\n      dup3\n        /* \"#utility.yul\":16270:16284   */\n      add\n        /* \"#utility.yul\":16263:16321   */\n      mstore\n        /* \"#utility.yul\":16355:16385   */\n      0x616e207768617420686173206265656e206c656e7420746f20796f7500000000\n        /* \"#utility.yul\":16350:16352   */\n      0x20\n        /* \"#utility.yul\":16342:16348   */\n      dup3\n        /* \"#utility.yul\":16338:16353   */\n      add\n        /* \"#utility.yul\":16331:16386   */\n      mstore\n        /* \"#utility.yul\":16146:16393   */\n      pop\n      jump\t// out\n        /* \"#utility.yul\":16399:16765   */\n    tag_336:\n        /* \"#utility.yul\":16541:16544   */\n      0x00\n        /* \"#utility.yul\":16562:16629   */\n      tag_528\n        /* \"#utility.yul\":16626:16628   */\n      0x3c\n        /* \"#utility.yul\":16621:16624   */\n      dup4\n        /* \"#utility.yul\":16562:16629   */\n      tag_321\n      jump\t// in\n    tag_528:\n        /* \"#utility.yul\":16555:16629   */\n      swap2\n      pop\n        /* \"#utility.yul\":16638:16731   */\n      tag_529\n        /* \"#utility.yul\":16727:16730   */\n      dup3\n        /* \"#utility.yul\":16638:16731   */\n      tag_335\n      jump\t// in\n    tag_529:\n        /* \"#utility.yul\":16756:16758   */\n      0x40\n        /* \"#utility.yul\":16751:16754   */\n      dup3\n        /* \"#utility.yul\":16747:16759   */\n      add\n        /* \"#utility.yul\":16740:16759   */\n      swap1\n      pop\n        /* \"#utility.yul\":16399:16765   */\n      swap2\n      swap1\n      pop\n      jump\t// out\n        /* \"#utility.yul\":16771:17190   */\n    tag_207:\n        /* \"#utility.yul\":16937:16941   */\n      0x00\n        /* \"#utility.yul\":16975:16977   */\n      0x20\n        /* \"#utility.yul\":16964:16973   */\n      dup3\n        /* \"#utility.yul\":16960:16978   */\n      add\n        /* \"#utility.yul\":16952:16978   */\n      swap1\n      pop\n        /* \"#utility.yul\":17024:17033   */\n      dup2\n        /* \"#utility.yul\":17018:17022   */\n      dup2\n        /* \"#utility.yul\":17014:17034   */\n      sub\n        /* \"#utility.yul\":17010:17011   */\n      0x00\n        /* \"#utility.yul\":16999:17008   */\n      dup4\n        /* \"#utility.yul\":16995:17012   */\n      add\n        /* \"#utility.yul\":16988:17035   */\n      mstore\n        /* \"#utility.yul\":17052:17183   */\n      tag_531\n        /* \"#utility.yul\":17178:17182   */\n      dup2\n        /* \"#utility.yul\":17052:17183   */\n      tag_336\n      jump\t// in\n    tag_531:\n        /* \"#utility.yul\":17044:17183   */\n      swap1\n      pop\n        /* \"#utility.yul\":16771:17190   */\n      swap2\n      swap1\n      pop\n      jump\t// out\n        /* \"#utility.yul\":17196:17376   */\n    tag_337:\n        /* \"#utility.yul\":17244:17321   */\n      0x4e487b7100000000000000000000000000000000000000000000000000000000\n        /* \"#utility.yul\":17241:17242   */\n      0x00\n        /* \"#utility.yul\":17234:17322   */\n      mstore\n        /* \"#utility.yul\":17341:17345   */\n      0x22\n        /* \"#utility.yul\":17338:17339   */\n      0x04\n        /* \"#utility.yul\":17331:17346   */\n      mstore\n        /* \"#utility.yul\":17365:17369   */\n      0x24\n        /* \"#utility.yul\":17362:17363   */\n      0x00\n        /* \"#utility.yul\":17355:17370   */\n      revert\n        /* \"#utility.yul\":17382:17702   */\n    tag_230:\n        /* \"#utility.yul\":17426:17432   */\n      0x00\n        /* \"#utility.yul\":17463:17464   */\n      0x02\n        /* \"#utility.yul\":17457:17461   */\n      dup3\n        /* \"#utility.yul\":17453:17465   */\n      div\n        /* \"#utility.yul\":17443:17465   */\n      swap1\n      pop\n        /* \"#utility.yul\":17510:17511   */\n      0x01\n        /* \"#utility.yul\":17504:17508   */\n      dup3\n        /* \"#utility.yul\":17500:17512   */\n      and\n        /* \"#utility.yul\":17531:17549   */\n      dup1\n        /* \"#utility.yul\":17521:17602   */\n      tag_534\n      jumpi\n        /* \"#utility.yul\":17587:17591   */\n      0x7f\n        /* \"#utility.yul\":17579:17585   */\n      dup3\n        /* \"#utility.yul\":17575:17592   */\n      and\n        /* \"#utility.yul\":17565:17592   */\n      swap2\n      pop\n        /* \"#utility.yul\":17521:17602   */\n    tag_534:\n        /* \"#utility.yul\":17649:17651   */\n      0x20\n        /* \"#utility.yul\":17641:17647   */\n      dup3\n        /* \"#utility.yul\":17638:17652   */\n      lt\n        /* \"#utility.yul\":17618:17636   */\n      dup2\n        /* \"#utility.yul\":17615:17653   */\n      sub\n        /* \"#utility.yul\":17612:17696   */\n      tag_535\n      jumpi\n        /* \"#utility.yul\":17668:17686   */\n      tag_536\n      tag_337\n      jump\t// in\n    tag_536:\n        /* \"#utility.yul\":17612:17696   */\n    tag_535:\n        /* \"#utility.yul\":17433:17702   */\n      pop\n        /* \"#utility.yul\":17382:17702   */\n      swap2\n      swap1\n      pop\n      jump\t// out\n        /* \"#utility.yul\":17708:17849   */\n    tag_338:\n        /* \"#utility.yul\":17757:17761   */\n      0x00\n        /* \"#utility.yul\":17780:17783   */\n      dup2\n        /* \"#utility.yul\":17772:17783   */\n      swap1\n      pop\n        /* \"#utility.yul\":17803:17806   */\n      dup2\n        /* \"#utility.yul\":17800:17801   */\n      0x00\n        /* \"#utility.yul\":17793:17807   */\n      mstore\n        /* \"#utility.yul\":17837:17841   */\n      0x20\n        /* \"#utility.yul\":17834:17835   */\n      0x00\n        /* \"#utility.yul\":17824:17842   */\n      keccak256\n        /* \"#utility.yul\":17816:17842   */\n      swap1\n      pop\n        /* \"#utility.yul\":17708:17849   */\n      swap2\n      swap1\n      pop\n      jump\t// out\n        /* \"#utility.yul\":17855:17948   */\n    tag_339:\n        /* \"#utility.yul\":17892:17898   */\n      0x00\n        /* \"#utility.yul\":17939:17941   */\n      0x20\n        /* \"#utility.yul\":17934:17936   */\n      0x1f\n        /* \"#utility.yul\":17927:17932   */\n      dup4\n        /* \"#utility.yul\":17923:17937   */\n      add\n        /* \"#utility.yul\":17919:17942   */\n      div\n        /* \"#utility.yul\":17909:17942   */\n      swap1\n      pop\n        /* \"#utility.yul\":17855:17948   */\n      swap2\n      swap1\n      pop\n      jump\t// out\n        /* \"#utility.yul\":17954:18061   */\n    tag_340:\n        /* \"#utility.yul\":17998:18006   */\n      0x00\n        /* \"#utility.yul\":18048:18053   */\n      dup3\n        /* \"#utility.yul\":18042:18046   */\n      dup3\n        /* \"#utility.yul\":18038:18054   */\n      shl\n        /* \"#utility.yul\":18017:18054   */\n      swap1\n      pop\n        /* \"#utility.yul\":17954:18061   */\n      swap3\n      swap2\n      pop\n      pop\n      jump\t// out\n        /* \"#utility.yul\":18067:18460   */\n    tag_341:\n        /* \"#utility.yul\":18136:18142   */\n      0x00\n        /* \"#utility.yul\":18186:18187   */\n      0x08\n        /* \"#utility.yul\":18174:18184   */\n      dup4\n        /* \"#utility.yul\":18170:18188   */\n      mul\n        /* \"#utility.yul\":18209:18306   */\n      tag_541\n        /* \"#utility.yul\":18239:18305   */\n      0xffffffffffffffffffffffffffffffffffffffffffffffffffffffffffffffff\n        /* \"#utility.yul\":18228:18237   */\n      dup3\n        /* \"#utility.yul\":18209:18306   */\n      tag_340\n      jump\t// in\n    tag_541:\n        /* \"#utility.yul\":18327:18366   */\n      tag_542\n        /* \"#utility.yul\":18357:18365   */\n      dup7\n        /* \"#utility.yul\":18346:18355   */\n      dup4\n        /* \"#utility.yul\":18327:18366   */\n      tag_340\n      jump\t// in\n    tag_542:\n        /* \"#utility.yul\":18315:18366   */\n      swap6\n      pop\n        /* \"#utility.yul\":18399:18403   */\n      dup1\n        /* \"#utility.yul\":18395:18404   */\n      not\n        /* \"#utility.yul\":18388:18393   */\n      dup5\n        /* \"#utility.yul\":18384:18405   */\n      and\n        /* \"#utility.yul\":18375:18405   */\n      swap4\n      pop\n        /* \"#utility.yul\":18448:18452   */\n      dup1\n        /* \"#utility.yul\":18438:18446   */\n      dup7\n        /* \"#utility.yul\":18434:18453   */\n      and\n        /* \"#utility.yul\":18427:18432   */\n      dup5\n        /* \"#utility.yul\":18424:18454   */\n      or\n        /* \"#utility.yul\":18414:18454   */\n      swap3\n      pop\n        /* \"#utility.yul\":18143:18460   */\n      pop\n      pop\n        /* \"#utility.yul\":18067:18460   */\n      swap4\n      swap3\n      pop\n      pop\n      pop\n      jump\t// out\n        /* \"#utility.yul\":18466:18526   */\n    tag_342:\n        /* \"#utility.yul\":18494:18497   */\n      0x00\n        /* \"#utility.yul\":18515:18520   */\n      dup2\n        /* \"#utility.yul\":18508:18520   */\n      swap1\n      pop\n        /* \"#utility.yul\":18466:18526   */\n      swap2\n      swap1\n      pop\n      jump\t// out\n        /* \"#utility.yul\":18532:18674   */\n    tag_343:\n        /* \"#utility.yul\":18582:18591   */\n      0x00\n        /* \"#utility.yul\":18615:18668   */\n      tag_545\n        /* \"#utility.yul\":18633:18667   */\n      tag_546\n        /* \"#utility.yul\":18642:18666   */\n      tag_547\n        /* \"#utility.yul\":18660:18665   */\n      dup5\n        /* \"#utility.yul\":18642:18666   */\n      tag_298\n      jump\t// in\n    tag_547:\n        /* \"#utility.yul\":18633:18667   */\n      tag_342\n      jump\t// in\n    tag_546:\n        /* \"#utility.yul\":18615:18668   */\n      tag_298\n      jump\t// in\n    tag_545:\n        /* \"#utility.yul\":18602:18668   */\n      swap1\n      pop\n        /* \"#utility.yul\":18532:18674   */\n      swap2\n      swap1\n      pop\n      jump\t// out\n        /* \"#utility.yul\":18680:18755   */\n    tag_344:\n        /* \"#utility.yul\":18723:18726   */\n      0x00\n        /* \"#utility.yul\":18744:18749   */\n      dup2\n        /* \"#utility.yul\":18737:18749   */\n      swap1\n      pop\n        /* \"#utility.yul\":18680:18755   */\n      swap2\n      swap1\n      pop\n      jump\t// out\n        /* \"#utility.yul\":18761:19030   */\n    tag_345:\n        /* \"#utility.yul\":18871:18910   */\n      tag_550\n        /* \"#utility.yul\":18902:18909   */\n      dup4\n        /* \"#utility.yul\":18871:18910   */\n      tag_343\n      jump\t// in\n    tag_550:\n        /* \"#utility.yul\":18932:19023   */\n      tag_551\n        /* \"#utility.yul\":18981:19022   */\n      tag_552\n        /* \"#utility.yul\":19005:19021   */\n      dup3\n        /* \"#utility.yul\":18981:19022   */\n      tag_344\n      jump\t// in\n    tag_552:\n        /* \"#utility.yul\":18973:18979   */\n      dup5\n        /* \"#utility.yul\":18966:18970   */\n      dup5\n        /* \"#utility.yul\":18960:18971   */\n      sload\n        /* \"#utility.yul\":18932:19023   */\n      tag_341\n      jump\t// in\n    tag_551:\n        /* \"#utility.yul\":18926:18930   */\n      dup3\n        /* \"#utility.yul\":18919:19024   */\n      sstore\n        /* \"#utility.yul\":18837:19030   */\n      pop\n        /* \"#utility.yul\":18761:19030   */\n      pop\n      pop\n      pop\n      jump\t// out\n        /* \"#utility.yul\":19036:19109   */\n    tag_346:\n        /* \"#utility.yul\":19081:19084   */\n      0x00\n        /* \"#utility.yul\":19036:19109   */\n      swap1\n      jump\t// out\n        /* \"#utility.yul\":19115:19304   */\n    tag_347:\n        /* \"#utility.yul\":19192:19224   */\n      tag_555\n      tag_346\n      jump\t// in\n    tag_555:\n        /* \"#utility.yul\":19233:19298   */\n      tag_556\n        /* \"#utility.yul\":19291:19297   */\n      dup2\n        /* \"#utility.yul\":19283:19289   */\n      dup5\n        /* \"#utility.yul\":19277:19281   */\n      dup5\n        /* \"#utility.yul\":19233:19298   */\n      tag_345\n      jump\t// in\n    tag_556:\n        /* \"#utility.yul\":19168:19304   */\n      pop\n        /* \"#utility.yul\":19115:19304   */\n      pop\n      pop\n      jump\t// out\n        /* \"#utility.yul\":19310:19496   */\n    tag_348:\n        /* \"#utility.yul\":19370:19490   */\n    tag_558:\n        /* \"#utility.yul\":19387:19390   */\n      dup2\n        /* \"#utility.yul\":19380:19385   */\n      dup2\n        /* \"#utility.yul\":19377:19391   */\n      lt\n        /* \"#utility.yul\":19370:19490   */\n      iszero\n      tag_560\n      jumpi\n        /* \"#utility.yul\":19441:19480   */\n      tag_561\n        /* \"#utility.yul\":19478:19479   */\n      0x00\n        /* \"#utility.yul\":19471:19476   */\n      dup3\n        /* \"#utility.yul\":19441:19480   */\n      tag_347\n      jump\t// in\n    tag_561:\n        /* \"#utility.yul\":19414:19415   */\n      0x01\n        /* \"#utility.yul\":19407:19412   */\n      dup2\n        /* \"#utility.yul\":19403:19416   */\n      add\n        /* \"#utility.yul\":19394:19416   */\n      swap1\n      pop\n        /* \"#utility.yul\":19370:19490   */\n      jump(tag_558)\n    tag_560:\n        /* \"#utility.yul\":19310:19496   */\n      pop\n      pop\n      jump\t// out\n        /* \"#utility.yul\":19502:20045   */\n    tag_349:\n        /* \"#utility.yul\":19603:19605   */\n      0x1f\n        /* \"#utility.yul\":19598:19601   */\n      dup3\n        /* \"#utility.yul\":19595:19606   */\n      gt\n        /* \"#utility.yul\":19592:20038   */\n      iszero\n      tag_563\n      jumpi\n        /* \"#utility.yul\":19637:19675   */\n      tag_564\n        /* \"#utility.yul\":19669:19674   */\n      dup2\n        /* \"#utility.yul\":19637:19675   */\n      tag_338\n      jump\t// in\n    tag_564:\n        /* \"#utility.yul\":19721:19750   */\n      tag_565\n        /* \"#utility.yul\":19739:19749   */\n      dup5\n        /* \"#utility.yul\":19721:19750   */\n      tag_339\n      jump\t// in\n    tag_565:\n        /* \"#utility.yul\":19711:19719   */\n      dup2\n        /* \"#utility.yul\":19707:19751   */\n      add\n        /* \"#utility.yul\":19904:19906   */\n      0x20\n        /* \"#utility.yul\":19892:19902   */\n      dup6\n        /* \"#utility.yul\":19889:19907   */\n      lt\n        /* \"#utility.yul\":19886:19935   */\n      iszero\n      tag_566\n      jumpi\n        /* \"#utility.yul\":19925:19933   */\n      dup2\n        /* \"#utility.yul\":19910:19933   */\n      swap1\n      pop\n        /* \"#utility.yul\":19886:19935   */\n    tag_566:\n        /* \"#utility.yul\":19948:20028   */\n      tag_567\n        /* \"#utility.yul\":20004:20026   */\n      tag_568\n        /* \"#utility.yul\":20022:20025   */\n      dup6\n        /* \"#utility.yul\":20004:20026   */\n      tag_339\n      jump\t// in\n    tag_568:\n        /* \"#utility.yul\":19994:20002   */\n      dup4\n        /* \"#utility.yul\":19990:20027   */\n      add\n        /* \"#utility.yul\":19977:19988   */\n      dup3\n        /* \"#utility.yul\":19948:20028   */\n      tag_348\n      jump\t// in\n    tag_567:\n        /* \"#utility.yul\":19607:20038   */\n      pop\n      pop\n        /* \"#utility.yul\":19592:20038   */\n    tag_563:\n        /* \"#utility.yul\":19502:20045   */\n      pop\n      pop\n      pop\n      jump\t// out\n        /* \"#utility.yul\":20051:20168   */\n    tag_350:\n        /* \"#utility.yul\":20105:20113   */\n      0x00\n        /* \"#utility.yul\":20155:20160   */\n      dup3\n        /* \"#utility.yul\":20149:20153   */\n      dup3\n        /* \"#utility.yul\":20145:20161   */\n      shr\n        /* \"#utility.yul\":20124:20161   */\n      swap1\n      pop\n        /* \"#utility.yul\":20051:20168   */\n      swap3\n      swap2\n      pop\n      pop\n      jump\t// out\n        /* \"#utility.yul\":20174:20343   */\n    tag_351:\n        /* \"#utility.yul\":20218:20224   */\n      0x00\n        /* \"#utility.yul\":20251:20302   */\n      tag_571\n        /* \"#utility.yul\":20299:20300   */\n      0x00\n        /* \"#utility.yul\":20295:20301   */\n      not\n        /* \"#utility.yul\":20287:20292   */\n      dup5\n        /* \"#utility.yul\":20284:20285   */\n      0x08\n        /* \"#utility.yul\":20280:20293   */\n      mul\n        /* \"#utility.yul\":20251:20302   */\n      tag_350\n      jump\t// in\n    tag_571:\n        /* \"#utility.yul\":20247:20303   */\n      not\n        /* \"#utility.yul\":20332:20336   */\n      dup1\n        /* \"#utility.yul\":20326:20330   */\n      dup4\n        /* \"#utility.yul\":20322:20337   */\n      and\n        /* \"#utility.yul\":20312:20337   */\n      swap2\n      pop\n        /* \"#utility.yul\":20225:20343   */\n      pop\n        /* \"#utility.yul\":20174:20343   */\n      swap3\n      swap2\n      pop\n      pop\n      jump\t// out\n        /* \"#utility.yul\":20348:20643   */\n    tag_352:\n        /* \"#utility.yul\":20424:20428   */\n      0x00\n        /* \"#utility.yul\":20570:20599   */\n      tag_573\n        /* \"#utility.yul\":20595:20598   */\n      dup4\n        /* \"#utility.yul\":20589:20593   */\n      dup4\n        /* \"#utility.yul\":20570:20599   */\n      tag_351\n      jump\t// in\n    tag_573:\n        /* \"#utility.yul\":20562:20599   */\n      swap2\n      pop\n        /* \"#utility.yul\":20632:20635   */\n      dup3\n        /* \"#utility.yul\":20629:20630   */\n      0x02\n        /* \"#utility.yul\":20625:20636   */\n      mul\n        /* \"#utility.yul\":20619:20623   */\n      dup3\n        /* \"#utility.yul\":20616:20637   */\n      or\n        /* \"#utility.yul\":20608:20637   */\n      swap1\n      pop\n        /* \"#utility.yul\":20348:20643   */\n      swap3\n      swap2\n      pop\n      pop\n      jump\t// out\n        /* \"#utility.yul\":20648:22043   */\n    tag_210:\n        /* \"#utility.yul\":20765:20802   */\n      tag_575\n        /* \"#utility.yul\":20798:20801   */\n      dup3\n        /* \"#utility.yul\":20765:20802   */\n      tag_320\n      jump\t// in\n    tag_575:\n        /* \"#utility.yul\":20867:20885   */\n      0xffffffffffffffff\n        /* \"#utility.yul\":20859:20865   */\n      dup2\n        /* \"#utility.yul\":20856:20886   */\n      gt\n        /* \"#utility.yul\":20853:20909   */\n      iszero\n      tag_576\n      jumpi\n        /* \"#utility.yul\":20889:20907   */\n      tag_577\n      tag_308\n      jump\t// in\n    tag_577:\n        /* \"#utility.yul\":20853:20909   */\n    tag_576:\n        /* \"#utility.yul\":20933:20971   */\n      tag_578\n        /* \"#utility.yul\":20965:20969   */\n      dup3\n        /* \"#utility.yul\":20959:20970   */\n      sload\n        /* \"#utility.yul\":20933:20971   */\n      tag_230\n      jump\t// in\n    tag_578:\n        /* \"#utility.yul\":21018:21085   */\n      tag_579\n        /* \"#utility.yul\":21078:21084   */\n      dup3\n        /* \"#utility.yul\":21070:21076   */\n      dup3\n        /* \"#utility.yul\":21064:21068   */\n      dup6\n        /* \"#utility.yul\":21018:21085   */\n      tag_349\n      jump\t// in\n    tag_579:\n        /* \"#utility.yul\":21112:21113   */\n      0x00\n        /* \"#utility.yul\":21136:21140   */\n      0x20\n        /* \"#utility.yul\":21123:21140   */\n      swap1\n      pop\n        /* \"#utility.yul\":21168:21170   */\n      0x1f\n        /* \"#utility.yul\":21160:21166   */\n      dup4\n        /* \"#utility.yul\":21157:21171   */\n      gt\n        /* \"#utility.yul\":21185:21186   */\n      0x01\n        /* \"#utility.yul\":21180:21798   */\n      dup2\n      eq\n      tag_581\n      jumpi\n        /* \"#utility.yul\":21842:21843   */\n      0x00\n        /* \"#utility.yul\":21859:21865   */\n      dup5\n        /* \"#utility.yul\":21856:21933   */\n      iszero\n      tag_582\n      jumpi\n        /* \"#utility.yul\":21908:21917   */\n      dup3\n        /* \"#utility.yul\":21903:21906   */\n      dup8\n        /* \"#utility.yul\":21899:21918   */\n      add\n        /* \"#utility.yul\":21893:21919   */\n      mload\n        /* \"#utility.yul\":21884:21919   */\n      swap1\n      pop\n        /* \"#utility.yul\":21856:21933   */\n    tag_582:\n        /* \"#utility.yul\":21959:22026   */\n      tag_583\n        /* \"#utility.yul\":22019:22025   */\n      dup6\n        /* \"#utility.yul\":22012:22017   */\n      dup3\n        /* \"#utility.yul\":21959:22026   */\n      tag_352\n      jump\t// in\n    tag_583:\n        /* \"#utility.yul\":21953:21957   */\n      dup7\n        /* \"#utility.yul\":21946:22027   */\n      sstore\n        /* \"#utility.yul\":21815:22037   */\n      pop\n        /* \"#utility.yul\":21150:22037   */\n      jump(tag_580)\n        /* \"#utility.yul\":21180:21798   */\n    tag_581:\n        /* \"#utility.yul\":21232:21236   */\n      0x1f\n        /* \"#utility.yul\":21228:21237   */\n      not\n        /* \"#utility.yul\":21220:21226   */\n      dup5\n        /* \"#utility.yul\":21216:21238   */\n      and\n        /* \"#utility.yul\":21266:21303   */\n      tag_584\n        /* \"#utility.yul\":21298:21302   */\n      dup7\n        /* \"#utility.yul\":21266:21303   */\n      tag_338\n      jump\t// in\n    tag_584:\n        /* \"#utility.yul\":21325:21326   */\n      0x00\n        /* \"#utility.yul\":21339:21547   */\n    tag_585:\n        /* \"#utility.yul\":21353:21360   */\n      dup3\n        /* \"#utility.yul\":21350:21351   */\n      dup2\n        /* \"#utility.yul\":21347:21361   */\n      lt\n        /* \"#utility.yul\":21339:21547   */\n      iszero\n      tag_587\n      jumpi\n        /* \"#utility.yul\":21432:21441   */\n      dup5\n        /* \"#utility.yul\":21427:21430   */\n      dup10\n        /* \"#utility.yul\":21423:21442   */\n      add\n        /* \"#utility.yul\":21417:21443   */\n      mload\n        /* \"#utility.yul\":21409:21415   */\n      dup3\n        /* \"#utility.yul\":21402:21444   */\n      sstore\n        /* \"#utility.yul\":21483:21484   */\n      0x01\n        /* \"#utility.yul\":21475:21481   */\n      dup3\n        /* \"#utility.yul\":21471:21485   */\n      add\n        /* \"#utility.yul\":21461:21485   */\n      swap2\n      pop\n        /* \"#utility.yul\":21530:21532   */\n      0x20\n        /* \"#utility.yul\":21519:21528   */\n      dup6\n        /* \"#utility.yul\":21515:21533   */\n      add\n        /* \"#utility.yul\":21502:21533   */\n      swap5\n      pop\n        /* \"#utility.yul\":21376:21380   */\n      0x20\n        /* \"#utility.yul\":21373:21374   */\n      dup2\n        /* \"#utility.yul\":21369:21381   */\n      add\n        /* \"#utility.yul\":21364:21381   */\n      swap1\n      pop\n        /* \"#utility.yul\":21339:21547   */\n      jump(tag_585)\n    tag_587:\n        /* \"#utility.yul\":21575:21581   */\n      dup7\n        /* \"#utility.yul\":21566:21573   */\n      dup4\n        /* \"#utility.yul\":21563:21582   */\n      lt\n        /* \"#utility.yul\":21560:21739   */\n      iszero\n      tag_588\n      jumpi\n        /* \"#utility.yul\":21633:21642   */\n      dup5\n        /* \"#utility.yul\":21628:21631   */\n      dup10\n        /* \"#utility.yul\":21624:21643   */\n      add\n        /* \"#utility.yul\":21618:21644   */\n      mload\n        /* \"#utility.yul\":21676:21724   */\n      tag_589\n        /* \"#utility.yul\":21718:21722   */\n      0x1f\n        /* \"#utility.yul\":21710:21716   */\n      dup10\n        /* \"#utility.yul\":21706:21723   */\n      and\n        /* \"#utility.yul\":21695:21704   */\n      dup3\n        /* \"#utility.yul\":21676:21724   */\n      tag_351\n      jump\t// in\n    tag_589:\n        /* \"#utility.yul\":21668:21674   */\n      dup4\n        /* \"#utility.yul\":21661:21725   */\n      sstore\n        /* \"#utility.yul\":21583:21739   */\n      pop\n        /* \"#utility.yul\":21560:21739   */\n    tag_588:\n        /* \"#utility.yul\":21785:21786   */\n      0x01\n        /* \"#utility.yul\":21781:21782   */\n      0x02\n        /* \"#utility.yul\":21773:21779   */\n      dup9\n        /* \"#utility.yul\":21769:21783   */\n      mul\n        /* \"#utility.yul\":21765:21787   */\n      add\n        /* \"#utility.yul\":21759:21763   */\n      dup9\n        /* \"#utility.yul\":21752:21788   */\n      sstore\n        /* \"#utility.yul\":21187:21798   */\n      pop\n      pop\n      pop\n        /* \"#utility.yul\":21150:22037   */\n    tag_580:\n      pop\n        /* \"#utility.yul\":20740:22043   */\n      pop\n      pop\n      pop\n        /* \"#utility.yul\":20648:22043   */\n      pop\n      pop\n      jump\t// out\n        /* \"#utility.yul\":22049:22275   */\n    tag_353:\n        /* \"#utility.yul\":22189:22223   */\n      0x546865206164647265737320646f65736e7420686176652074686174206d7563\n        /* \"#utility.yul\":22185:22186   */\n      0x00\n        /* \"#utility.yul\":22177:22183   */\n      dup3\n        /* \"#utility.yul\":22173:22187   */\n      add\n        /* \"#utility.yul\":22166:22224   */\n      mstore\n        /* \"#utility.yul\":22258:22267   */\n      0x682066756e647300000000000000000000000000000000000000000000000000\n        /* \"#utility.yul\":22253:22255   */\n      0x20\n        /* \"#utility.yul\":22245:22251   */\n      dup3\n        /* \"#utility.yul\":22241:22256   */\n      add\n        /* \"#utility.yul\":22234:22268   */\n      mstore\n        /* \"#utility.yul\":22049:22275   */\n      pop\n      jump\t// out\n        /* \"#utility.yul\":22281:22647   */\n    tag_354:\n        /* \"#utility.yul\":22423:22426   */\n      0x00\n        /* \"#utility.yul\":22444:22511   */\n      tag_592\n        /* \"#utility.yul\":22508:22510   */\n      0x27\n        /* \"#utility.yul\":22503:22506   */\n      dup4\n        /* \"#utility.yul\":22444:22511   */\n      tag_321\n      jump\t// in\n    tag_592:\n        /* \"#utility.yul\":22437:22511   */\n      swap2\n      pop\n        /* \"#utility.yul\":22520:22613   */\n      tag_593\n        /* \"#utility.yul\":22609:22612   */\n      dup3\n        /* \"#utility.yul\":22520:22613   */\n      tag_353\n      jump\t// in\n    tag_593:\n        /* \"#utility.yul\":22638:22640   */\n      0x40\n        /* \"#utility.yul\":22633:22636   */\n      dup3\n        /* \"#utility.yul\":22629:22641   */\n      add\n        /* \"#utility.yul\":22622:22641   */\n      swap1\n      pop\n        /* \"#utility.yul\":22281:22647   */\n      swap2\n      swap1\n      pop\n      jump\t// out\n        /* \"#utility.yul\":22653:23072   */\n    tag_216:\n        /* \"#utility.yul\":22819:22823   */\n      0x00\n        /* \"#utility.yul\":22857:22859   */\n      0x20\n        /* \"#utility.yul\":22846:22855   */\n      dup3\n        /* \"#utility.yul\":22842:22860   */\n      add\n        /* \"#utility.yul\":22834:22860   */\n      swap1\n      pop\n        /* \"#utility.yul\":22906:22915   */\n      dup2\n        /* \"#utility.yul\":22900:22904   */\n      dup2\n        /* \"#utility.yul\":22896:22916   */\n      sub\n        /* \"#utility.yul\":22892:22893   */\n      0x00\n        /* \"#utility.yul\":22881:22890   */\n      dup4\n        /* \"#utility.yul\":22877:22894   */\n      add\n        /* \"#utility.yul\":22870:22917   */\n      mstore\n        /* \"#utility.yul\":22934:23065   */\n      tag_595\n        /* \"#utility.yul\":23060:23064   */\n      dup2\n        /* \"#utility.yul\":22934:23065   */\n      tag_354\n      jump\t// in\n    tag_595:\n        /* \"#utility.yul\":22926:23065   */\n      swap1\n      pop\n        /* \"#utility.yul\":22653:23072   */\n      swap2\n      swap1\n      pop\n      jump\t// out\n        /* \"#utility.yul\":23078:23269   */\n    tag_218:\n        /* \"#utility.yul\":23118:23121   */\n      0x00\n        /* \"#utility.yul\":23137:23157   */\n      tag_597\n        /* \"#utility.yul\":23155:23156   */\n      dup3\n        /* \"#utility.yul\":23137:23157   */\n      tag_298\n      jump\t// in\n    tag_597:\n        /* \"#utility.yul\":23132:23157   */\n      swap2\n      pop\n        /* \"#utility.yul\":23171:23191   */\n      tag_598\n        /* \"#utility.yul\":23189:23190   */\n      dup4\n        /* \"#utility.yul\":23171:23191   */\n      tag_298\n      jump\t// in\n    tag_598:\n        /* \"#utility.yul\":23166:23191   */\n      swap3\n      pop\n        /* \"#utility.yul\":23214:23215   */\n      dup3\n        /* \"#utility.yul\":23211:23212   */\n      dup3\n        /* \"#utility.yul\":23207:23216   */\n      add\n        /* \"#utility.yul\":23200:23216   */\n      swap1\n      pop\n        /* \"#utility.yul\":23235:23238   */\n      dup1\n        /* \"#utility.yul\":23232:23233   */\n      dup3\n        /* \"#utility.yul\":23229:23239   */\n      gt\n        /* \"#utility.yul\":23226:23262   */\n      iszero\n      tag_599\n      jumpi\n        /* \"#utility.yul\":23242:23260   */\n      tag_600\n      tag_332\n      jump\t// in\n    tag_600:\n        /* \"#utility.yul\":23226:23262   */\n    tag_599:\n        /* \"#utility.yul\":23078:23269   */\n      swap3\n      swap2\n      pop\n      pop\n      jump\t// out\n        /* \"#utility.yul\":23275:23438   */\n    tag_355:\n        /* \"#utility.yul\":23415:23430   */\n      0x4e6f206c6f616e20676976656e00000000000000000000000000000000000000\n        /* \"#utility.yul\":23411:23412   */\n      0x00\n        /* \"#utility.yul\":23403:23409   */\n      dup3\n        /* \"#utility.yul\":23399:23413   */\n      add\n        /* \"#utility.yul\":23392:23431   */\n      mstore\n        /* \"#utility.yul\":23275:23438   */\n      pop\n      jump\t// out\n        /* \"#utility.yul\":23444:23810   */\n    tag_356:\n        /* \"#utility.yul\":23586:23589   */\n      0x00\n        /* \"#utility.yul\":23607:23674   */\n      tag_603\n        /* \"#utility.yul\":23671:23673   */\n      0x0d\n        /* \"#utility.yul\":23666:23669   */\n      dup4\n        /* \"#utility.yul\":23607:23674   */\n      tag_321\n      jump\t// in\n    tag_603:\n        /* \"#utility.yul\":23600:23674   */\n      swap2\n      pop\n        /* \"#utility.yul\":23683:23776   */\n      tag_604\n        /* \"#utility.yul\":23772:23775   */\n      dup3\n        /* \"#utility.yul\":23683:23776   */\n      tag_355\n      jump\t// in\n    tag_604:\n        /* \"#utility.yul\":23801:23803   */\n      0x20\n        /* \"#utility.yul\":23796:23799   */\n      dup3\n        /* \"#utility.yul\":23792:23804   */\n      add\n        /* \"#utility.yul\":23785:23804   */\n      swap1\n      pop\n        /* \"#utility.yul\":23444:23810   */\n      swap2\n      swap1\n      pop\n      jump\t// out\n        /* \"#utility.yul\":23816:24235   */\n    tag_226:\n        /* \"#utility.yul\":23982:23986   */\n      0x00\n        /* \"#utility.yul\":24020:24022   */\n      0x20\n        /* \"#utility.yul\":24009:24018   */\n      dup3\n        /* \"#utility.yul\":24005:24023   */\n      add\n        /* \"#utility.yul\":23997:24023   */\n      swap1\n      pop\n        /* \"#utility.yul\":24069:24078   */\n      dup2\n        /* \"#utility.yul\":24063:24067   */\n      dup2\n        /* \"#utility.yul\":24059:24079   */\n      sub\n        /* \"#utility.yul\":24055:24056   */\n      0x00\n        /* \"#utility.yul\":24044:24053   */\n      dup4\n        /* \"#utility.yul\":24040:24057   */\n      add\n        /* \"#utility.yul\":24033:24080   */\n      mstore\n        /* \"#utility.yul\":24097:24228   */\n      tag_606\n        /* \"#utility.yul\":24223:24227   */\n      dup2\n        /* \"#utility.yul\":24097:24228   */\n      tag_356\n      jump\t// in\n    tag_606:\n        /* \"#utility.yul\":24089:24228   */\n      swap1\n      pop\n        /* \"#utility.yul\":23816:24235   */\n      swap2\n      swap1\n      pop\n      jump\t// out\n        /* \"#utility.yul\":24241:24461   */\n    tag_357:\n        /* \"#utility.yul\":24381:24415   */\n      0x596f752063616e6e6f74206c656e64206d6f6e657920746f20796f757273656c\n        /* \"#utility.yul\":24377:24378   */\n      0x00\n        /* \"#utility.yul\":24369:24375   */\n      dup3\n        /* \"#utility.yul\":24365:24379   */\n      add\n        /* \"#utility.yul\":24358:24416   */\n      mstore\n        /* \"#utility.yul\":24450:24453   */\n      0x6600000000000000000000000000000000000000000000000000000000000000\n        /* \"#utility.yul\":24445:24447   */\n      0x20\n        /* \"#utility.yul\":24437:24443   */\n      dup3\n        /* \"#utility.yul\":24433:24448   */\n      add\n        /* \"#utility.yul\":24426:24454   */\n      mstore\n        /* \"#utility.yul\":24241:24461   */\n      pop\n      jump\t// out\n        /* \"#utility.yul\":24467:24833   */\n    tag_358:\n        /* \"#utility.yul\":24609:24612   */\n      0x00\n        /* \"#utility.yul\":24630:24697   */\n      tag_609\n        /* \"#utility.yul\":24694:24696   */\n      0x21\n        /* \"#utility.yul\":24689:24692   */\n      dup4\n        /* \"#utility.yul\":24630:24697   */\n      tag_321\n      jump\t// in\n    tag_609:\n        /* \"#utility.yul\":24623:24697   */\n      swap2\n      pop\n        /* \"#utility.yul\":24706:24799   */\n      tag_610\n        /* \"#utility.yul\":24795:24798   */\n      dup3\n        /* \"#utility.yul\":24706:24799   */\n      tag_357\n      jump\t// in\n    tag_610:\n        /* \"#utility.yul\":24824:24826   */\n      0x40\n        /* \"#utility.yul\":24819:24822   */\n      dup3\n        /* \"#utility.yul\":24815:24827   */\n      add\n        /* \"#utility.yul\":24808:24827   */\n      swap1\n      pop\n        /* \"#utility.yul\":24467:24833   */\n      swap2\n      swap1\n      pop\n      jump\t// out\n        /* \"#utility.yul\":24839:25258   */\n    tag_248:\n        /* \"#utility.yul\":25005:25009   */\n      0x00\n        /* \"#utility.yul\":25043:25045   */\n      0x20\n        /* \"#utility.yul\":25032:25041   */\n      dup3\n        /* \"#utility.yul\":25028:25046   */\n      add\n        /* \"#utility.yul\":25020:25046   */\n      swap1\n      pop\n        /* \"#utility.yul\":25092:25101   */\n      dup2\n        /* \"#utility.yul\":25086:25090   */\n      dup2\n        /* \"#utility.yul\":25082:25102   */\n      sub\n        /* \"#utility.yul\":25078:25079   */\n      0x00\n        /* \"#utility.yul\":25067:25076   */\n      dup4\n        /* \"#utility.yul\":25063:25080   */\n      add\n        /* \"#utility.yul\":25056:25103   */\n      mstore\n        /* \"#utility.yul\":25120:25251   */\n      tag_612\n        /* \"#utility.yul\":25246:25250   */\n      dup2\n        /* \"#utility.yul\":25120:25251   */\n      tag_358\n      jump\t// in\n    tag_612:\n        /* \"#utility.yul\":25112:25251   */\n      swap1\n      pop\n        /* \"#utility.yul\":24839:25258   */\n      swap2\n      swap1\n      pop\n      jump\t// out\n        /* \"#utility.yul\":25264:25446   */\n    tag_359:\n        /* \"#utility.yul\":25404:25438   */\n      0x596f752063616e6e6f7420706179206d6f6e657920746f20796f757273656c66\n        /* \"#utility.yul\":25400:25401   */\n      0x00\n        /* \"#utility.yul\":25392:25398   */\n      dup3\n        /* \"#utility.yul\":25388:25402   */\n      add\n        /* \"#utility.yul\":25381:25439   */\n      mstore\n        /* \"#utility.yul\":25264:25446   */\n      pop\n      jump\t// out\n        /* \"#utility.yul\":25452:25818   */\n    tag_360:\n        /* \"#utility.yul\":25594:25597   */\n      0x00\n        /* \"#utility.yul\":25615:25682   */\n      tag_615\n        /* \"#utility.yul\":25679:25681   */\n      0x20\n        /* \"#utility.yul\":25674:25677   */\n      dup4\n        /* \"#utility.yul\":25615:25682   */\n      tag_321\n      jump\t// in\n    tag_615:\n        /* \"#utility.yul\":25608:25682   */\n      swap2\n      pop\n        /* \"#utility.yul\":25691:25784   */\n      tag_616\n        /* \"#utility.yul\":25780:25783   */\n      dup3\n        /* \"#utility.yul\":25691:25784   */\n      tag_359\n      jump\t// in\n    tag_616:\n        /* \"#utility.yul\":25809:25811   */\n      0x20\n        /* \"#utility.yul\":25804:25807   */\n      dup3\n        /* \"#utility.yul\":25800:25812   */\n      add\n        /* \"#utility.yul\":25793:25812   */\n      swap1\n      pop\n        /* \"#utility.yul\":25452:25818   */\n      swap2\n      swap1\n      pop\n      jump\t// out\n        /* \"#utility.yul\":25824:26243   */\n    tag_263:\n        /* \"#utility.yul\":25990:25994   */\n      0x00\n        /* \"#utility.yul\":26028:26030   */\n      0x20\n        /* \"#utility.yul\":26017:26026   */\n      dup3\n        /* \"#utility.yul\":26013:26031   */\n      add\n        /* \"#utility.yul\":26005:26031   */\n      swap1\n      pop\n        /* \"#utility.yul\":26077:26086   */\n      dup2\n        /* \"#utility.yul\":26071:26075   */\n      dup2\n        /* \"#utility.yul\":26067:26087   */\n      sub\n        /* \"#utility.yul\":26063:26064   */\n      0x00\n        /* \"#utility.yul\":26052:26061   */\n      dup4\n        /* \"#utility.yul\":26048:26065   */\n      add\n        /* \"#utility.yul\":26041:26088   */\n      mstore\n        /* \"#utility.yul\":26105:26236   */\n      tag_618\n        /* \"#utility.yul\":26231:26235   */\n      dup2\n        /* \"#utility.yul\":26105:26236   */\n      tag_360\n      jump\t// in\n    tag_618:\n        /* \"#utility.yul\":26097:26236   */\n      swap1\n      pop\n        /* \"#utility.yul\":25824:26243   */\n      swap2\n      swap1\n      pop\n      jump\t// out\n        /* \"#utility.yul\":26249:26893   */\n    tag_273:\n        /* \"#utility.yul\":26446:26450   */\n      0x00\n        /* \"#utility.yul\":26484:26487   */\n      0x80\n        /* \"#utility.yul\":26473:26482   */\n      dup3\n        /* \"#utility.yul\":26469:26488   */\n      add\n        /* \"#utility.yul\":26461:26488   */\n      swap1\n      pop\n        /* \"#utility.yul\":26498:26569   */\n      tag_620\n        /* \"#utility.yul\":26566:26567   */\n      0x00\n        /* \"#utility.yul\":26555:26564   */\n      dup4\n        /* \"#utility.yul\":26551:26568   */\n      add\n        /* \"#utility.yul\":26542:26548   */\n      dup8\n        /* \"#utility.yul\":26498:26569   */\n      tag_302\n      jump\t// in\n    tag_620:\n        /* \"#utility.yul\":26579:26651   */\n      tag_621\n        /* \"#utility.yul\":26647:26649   */\n      0x20\n        /* \"#utility.yul\":26636:26645   */\n      dup4\n        /* \"#utility.yul\":26632:26650   */\n      add\n        /* \"#utility.yul\":26623:26629   */\n      dup7\n        /* \"#utility.yul\":26579:26651   */\n      tag_302\n      jump\t// in\n    tag_621:\n        /* \"#utility.yul\":26661:26733   */\n      tag_622\n        /* \"#utility.yul\":26729:26731   */\n      0x40\n        /* \"#utility.yul\":26718:26727   */\n      dup4\n        /* \"#utility.yul\":26714:26732   */\n      add\n        /* \"#utility.yul\":26705:26711   */\n      dup6\n        /* \"#utility.yul\":26661:26733   */\n      tag_302\n      jump\t// in\n    tag_622:\n        /* \"#utility.yul\":26780:26789   */\n      dup2\n        /* \"#utility.yul\":26774:26778   */\n      dup2\n        /* \"#utility.yul\":26770:26790   */\n      sub\n        /* \"#utility.yul\":26765:26767   */\n      0x60\n        /* \"#utility.yul\":26754:26763   */\n      dup4\n        /* \"#utility.yul\":26750:26768   */\n      add\n        /* \"#utility.yul\":26743:26791   */\n      mstore\n        /* \"#utility.yul\":26808:26886   */\n      tag_623\n        /* \"#utility.yul\":26881:26885   */\n      dup2\n        /* \"#utility.yul\":26872:26878   */\n      dup5\n        /* \"#utility.yul\":26808:26886   */\n      tag_323\n      jump\t// in\n    tag_623:\n        /* \"#utility.yul\":26800:26886   */\n      swap1\n      pop\n        /* \"#utility.yul\":26249:26893   */\n      swap6\n      swap5\n      pop\n      pop\n      pop\n      pop\n      pop\n      jump\t// out\n\n    auxdata: 0xa2646970667358221220517c2f3d14b4e9e447d785af52cb6503ddd466f2e00ac83d721b340ccd5121a164736f6c63430008130033\n}\n","bytecode":{"linkReferences":{},"object":"608060405234801561001057600080fd5b50613427806100206000396000f3fe6080604052600436106101b75760003560e01c80639e6b84c4116100ec578063d14d7ae81161008a578063d7b6e15e11610064578063d7b6e15e14610670578063d7d1bbdb146106ad578063e3d670d7146106c9578063f061029714610706576101b7565b8063d14d7ae8146105da578063d2713bcf146105f6578063d522ac8f14610633576101b7565b8063ad1ac14c116100c6578063ad1ac14c14610507578063b0a02abe14610544578063b188474414610581578063b331ea631461059d576101b7565b80639e6b84c4146104945780639ecebe2a146104bd578063a2f09dfa146104fd576101b7565b806350e300421161015957806388811f8d1161013357806388811f8d146103d55780638a9cfd55146104125780638ead837b1461043b57806395f4513a14610478576101b7565b806350e300421461031e5780635195afa51461035b57806371929c5114610398576101b7565b806331287c311161019557806331287c311461023e578063334e3de21461027b57806343999ac2146102b85780634fd49044146102e1576101b7565b8063092a0a8a146101bc5780632d7788db146101f95780632e1a7d4d14610222575b600080fd5b3480156101c857600080fd5b506101e360048036038101906101de91906125d0565b610743565b6040516101f0919061261f565b60405180910390f35b34801561020557600080fd5b50610220600480360381019061021b919061263a565b610791565b005b61023c6004803603810190610237919061263a565b61086c565b005b34801561024a57600080fd5b50610265600480360381019061026091906125d0565b6109d0565b604051610272919061261f565b60405180910390f35b34801561028757600080fd5b506102a2600480360381019061029d9190612667565b610a1e565b6040516102af91906126a3565b60405180910390f35b3480156102c457600080fd5b506102df60048036038101906102da9190612667565b610a6a565b005b3480156102ed57600080fd5b50610308600480360381019061030391906125d0565b610aef565b604051610315919061261f565b60405180910390f35b34801561032a57600080fd5b50610345600480360381019061034091906126be565b610b3d565b604051610352919061271a565b60405180910390f35b34801561036757600080fd5b50610382600480360381019061037d91906126be565b610b6c565b60405161038f91906126a3565b60405180910390f35b3480156103a457600080fd5b506103bf60048036038101906103ba9190612667565b610b91565b6040516103cc91906126a3565b60405180910390f35b3480156103e157600080fd5b506103fc60048036038101906103f791906126be565b610ba9565b60405161040991906126a3565b60405180910390f35b34801561041e57600080fd5b506104396004803603810190610434919061287b565b610bce565b005b34801561044757600080fd5b50610462600480360381019061045d9190612667565b610f3b565b60405161046f91906126a3565b60405180910390f35b610492600480360381019061048d9190612928565b610f86565b005b3480156104a057600080fd5b506104bb60048036038101906104b69190612994565b611293565b005b3480156104c957600080fd5b506104e460048036038101906104df91906125d0565b6113eb565b6040516104f49493929190612a6e565b60405180910390f35b6105056114ed565b005b34801561051357600080fd5b5061052e60048036038101906105299190612667565b6115de565b60405161053b91906126a3565b60405180910390f35b34801561055057600080fd5b5061056b600480360381019061056691906126be565b61162a565b60405161057891906126a3565b60405180910390f35b61059b60048036038101906105969190612928565b61164f565b005b3480156105a957600080fd5b506105c460048036038101906105bf91906126be565b611b4c565b6040516105d191906126a3565b60405180910390f35b6105f460048036038101906105ef9190612aba565b611b71565b005b34801561060257600080fd5b5061061d600480360381019061061891906126be565b61209d565b60405161062a91906126a3565b60405180910390f35b34801561063f57600080fd5b5061065a60048036038101906106559190612667565b6120c2565b60405161066791906126a3565b60405180910390f35b34801561067c57600080fd5b50610697600480360381019061069291906125d0565b61210e565b6040516106a4919061261f565b60405180910390f35b6106c760048036038101906106c2919061263a565b61215c565b005b3480156106d557600080fd5b506106f060048036038101906106eb9190612667565b6124c4565b6040516106fd91906126a3565b60405180910390f35b34801561071257600080fd5b5061072d60048036038101906107289190612667565b6124dc565b60405161073a91906126a3565b60405180910390f35b600a602052816000526040600020818154811061075f57600080fd5b906000526020600020016000915091509054906101000a900473ffffffffffffffffffffffffffffffffffffffff1681565b60008060003373ffffffffffffffffffffffffffffffffffffffff1673ffffffffffffffffffffffffffffffffffffffff16815260200190815260200160002082815481106107e3576107e2612b51565b5b90600052602060002090600302019050600015158160020160009054906101000a900460ff1615151461084b576040517f08c379a000000000000000000000000000000000000000000000000000000000815260040161084290612bf2565b60405180910390fd5b60018160020160006101000a81548160ff0219169083151502179055505050565b600160003373ffffffffffffffffffffffffffffffffffffffff1673ffffffffffffffffffffffffffffffffffffffff1681526020019081526020016000205481106108ed576040517f08c379a00000000000000000000000000000000000000000000000000000000081526004016108e490612c5e565b60405180910390fd5b60008111610930576040517f08c379a000000000000000000000000000000000000000000000000000000000815260040161092790612cf0565b60405180910390fd5b3373ffffffffffffffffffffffffffffffffffffffff166108fc829081150290604051600060405180830381858888f19350505050158015610976573d6000803e3d6000fd5b5080600160003373ffffffffffffffffffffffffffffffffffffffff1673ffffffffffffffffffffffffffffffffffffffff16815260200190815260200160002060008282546109c69190612d3f565b9250508190555050565b600b60205281600052604060002081815481106109ec57600080fd5b906000526020600020016000915091509054906101000a900473ffffffffffffffffffffffffffffffffffffffff1681565b6000600b60008373ffffffffffffffffffffffffffffffffffffffff1673ffffffffffffffffffffffffffffffffffffffff168152602001908152602001600020805490509050919050565b6000600360003373ffffffffffffffffffffffffffffffffffffffff1673ffffffffffffffffffffffffffffffffffffffff16815260200190815260200160002060008373ffffffffffffffffffffffffffffffffffffffff1673ffffffffffffffffffffffffffffffffffffffff1681526020019081526020016000208190555050565b60086020528160005260406000208181548110610b0b57600080fd5b906000526020600020016000915091509054906101000a900473ffffffffffffffffffffffffffffffffffffffff1681565b60076020528160005260406000206020528060005260406000206000915091509054906101000a900460ff1681565b6003602052816000526040600020602052806000526040600020600091509150505481565b600c6020528060005260406000206000915090505481565b6005602052816000526040600020602052806000526040600020600091509150505481565b6000600360003373ffffffffffffffffffffffffffffffffffffffff1673ffffffffffffffffffffffffffffffffffffffff16815260200190815260200160002060008373ffffffffffffffffffffffffffffffffffffffff1673ffffffffffffffffffffffffffffffffffffffff16815260200190815260200160002054600260008473ffffffffffffffffffffffffffffffffffffffff1673ffffffffffffffffffffffffffffffffffffffff16815260200190815260200160002060003373ffffffffffffffffffffffffffffffffffffffff1673ffffffffffffffffffffffffffffffffffffffff16815260200190815260200160002054610cd49190612d3f565b11610d14576040517f08c379a0000000000000000000000000000000000000000000000000000000008152600401610d0b90612de5565b60405180910390fd5b81600360003373ffffffffffffffffffffffffffffffffffffffff1673ffffffffffffffffffffffffffffffffffffffff16815260200190815260200160002060008373ffffffffffffffffffffffffffffffffffffffff1673ffffffffffffffffffffffffffffffffffffffff16815260200190815260200160002054600260008473ffffffffffffffffffffffffffffffffffffffff1673ffffffffffffffffffffffffffffffffffffffff16815260200190815260200160002060003373ffffffffffffffffffffffffffffffffffffffff1673ffffffffffffffffffffffffffffffffffffffff16815260200190815260200160002054610e199190612d3f565b1015610e5a576040517f08c379a0000000000000000000000000000000000000000000000000000000008152600401610e5190612e77565b60405180910390fd5b60008060008373ffffffffffffffffffffffffffffffffffffffff1673ffffffffffffffffffffffffffffffffffffffff168152602001908152602001600020600181600181540180825580915050039060005260206000209060030201905083816000019081610ecb91906130a3565b5082816001018190555060008160020160006101000a81548160ff021916908315150217905550338160020160016101000a81548173ffffffffffffffffffffffffffffffffffffffff021916908373ffffffffffffffffffffffffffffffffffffffff16021790555050505050565b60008060008373ffffffffffffffffffffffffffffffffffffffff1673ffffffffffffffffffffffffffffffffffffffff168152602001908152602001600020805490509050919050565b81600360003373ffffffffffffffffffffffffffffffffffffffff1673ffffffffffffffffffffffffffffffffffffffff16815260200190815260200160002060008373ffffffffffffffffffffffffffffffffffffffff1673ffffffffffffffffffffffffffffffffffffffff16815260200190815260200160002054600260003373ffffffffffffffffffffffffffffffffffffffff1673ffffffffffffffffffffffffffffffffffffffff16815260200190815260200160002060008473ffffffffffffffffffffffffffffffffffffffff1673ffffffffffffffffffffffffffffffffffffffff1681526020019081526020016000205461108b9190612d3f565b10156110cc576040517f08c379a00000000000000000000000000000000000000000000000000000000081526004016110c3906131e7565b60405180910390fd5b81600160003373ffffffffffffffffffffffffffffffffffffffff1673ffffffffffffffffffffffffffffffffffffffff168152602001908152602001600020600082825461111b9190613207565b9250508190555081600260003373ffffffffffffffffffffffffffffffffffffffff1673ffffffffffffffffffffffffffffffffffffffff16815260200190815260200160002060008373ffffffffffffffffffffffffffffffffffffffff1673ffffffffffffffffffffffffffffffffffffffff16815260200190815260200160002060008282546111ae9190612d3f565b9250508190555081600460008373ffffffffffffffffffffffffffffffffffffffff1673ffffffffffffffffffffffffffffffffffffffff16815260200190815260200160002060003373ffffffffffffffffffffffffffffffffffffffff1673ffffffffffffffffffffffffffffffffffffffff16815260200190815260200160002060008282546112419190612d3f565b925050819055503373ffffffffffffffffffffffffffffffffffffffff166108fc839081150290604051600060405180830381858888f1935050505015801561128e573d6000803e3d6000fd5b505050565b6000600460008473ffffffffffffffffffffffffffffffffffffffff1673ffffffffffffffffffffffffffffffffffffffff16815260200190815260200160002060003373ffffffffffffffffffffffffffffffffffffffff1673ffffffffffffffffffffffffffffffffffffffff1681526020019081526020016000205411611352576040517f08c379a000000000000000000000000000000000000000000000000000000000815260040161134990613287565b60405180910390fd5b80600760008473ffffffffffffffffffffffffffffffffffffffff1673ffffffffffffffffffffffffffffffffffffffff16815260200190815260200160002060003373ffffffffffffffffffffffffffffffffffffffff1673ffffffffffffffffffffffffffffffffffffffff16815260200190815260200160002060006101000a81548160ff021916908360ff1602179055505050565b6000602052816000526040600020818154811061140757600080fd5b90600052602060002090600302016000915091505080600001805461142b90612ec6565b80601f016020809104026020016040519081016040528092919081815260200182805461145790612ec6565b80156114a45780601f10611479576101008083540402835291602001916114a4565b820191906000526020600020905b81548152906001019060200180831161148757829003601f168201915b5050505050908060010154908060020160009054906101000a900460ff16908060020160019054906101000a900473ffffffffffffffffffffffffffffffffffffffff16905084565b60003411611530576040517f08c379a000000000000000000000000000000000000000000000000000000000815260040161152790612cf0565b60405180910390fd5b34600160003373ffffffffffffffffffffffffffffffffffffffff1673ffffffffffffffffffffffffffffffffffffffff168152602001908152602001600020600082825461157f9190613207565b9250508190555034600c60003373ffffffffffffffffffffffffffffffffffffffff1673ffffffffffffffffffffffffffffffffffffffff16815260200190815260200160002060008282546115d59190613207565b92505081905550565b6000600960008373ffffffffffffffffffffffffffffffffffffffff1673ffffffffffffffffffffffffffffffffffffffff168152602001908152602001600020805490509050919050565b6004602052816000526040600020602052806000526040600020600091509150505481565b600160003373ffffffffffffffffffffffffffffffffffffffff1673ffffffffffffffffffffffffffffffffffffffff168152602001908152602001600020548211156116d1576040517f08c379a00000000000000000000000000000000000000000000000000000000081526004016116c890612c5e565b60405180910390fd5b60008211611714576040517f08c379a000000000000000000000000000000000000000000000000000000000815260040161170b90612cf0565b60405180910390fd5b3373ffffffffffffffffffffffffffffffffffffffff168173ffffffffffffffffffffffffffffffffffffffff1603611782576040517f08c379a000000000000000000000000000000000000000000000000000000000815260040161177990613319565b60405180910390fd5b6000600460008373ffffffffffffffffffffffffffffffffffffffff1673ffffffffffffffffffffffffffffffffffffffff16815260200190815260200160002060003373ffffffffffffffffffffffffffffffffffffffff1673ffffffffffffffffffffffffffffffffffffffff16815260200190815260200160002054036118a757600a60003373ffffffffffffffffffffffffffffffffffffffff1673ffffffffffffffffffffffffffffffffffffffff168152602001908152602001600020819080600181540180825580915050600190039060005260206000200160009091909190916101000a81548173ffffffffffffffffffffffffffffffffffffffff021916908373ffffffffffffffffffffffffffffffffffffffff1602179055505b6000600260003373ffffffffffffffffffffffffffffffffffffffff1673ffffffffffffffffffffffffffffffffffffffff16815260200190815260200160002060008373ffffffffffffffffffffffffffffffffffffffff1673ffffffffffffffffffffffffffffffffffffffff16815260200190815260200160002054036119cc57600b60008273ffffffffffffffffffffffffffffffffffffffff1673ffffffffffffffffffffffffffffffffffffffff168152602001908152602001600020339080600181540180825580915050600190039060005260206000200160009091909190916101000a81548173ffffffffffffffffffffffffffffffffffffffff021916908373ffffffffffffffffffffffffffffffffffffffff1602179055505b81600160003373ffffffffffffffffffffffffffffffffffffffff1673ffffffffffffffffffffffffffffffffffffffff1681526020019081526020016000206000828254611a1b9190612d3f565b9250508190555081600260003373ffffffffffffffffffffffffffffffffffffffff1673ffffffffffffffffffffffffffffffffffffffff16815260200190815260200160002060008373ffffffffffffffffffffffffffffffffffffffff1673ffffffffffffffffffffffffffffffffffffffff1681526020019081526020016000206000828254611aae9190613207565b9250508190555081600460008373ffffffffffffffffffffffffffffffffffffffff1673ffffffffffffffffffffffffffffffffffffffff16815260200190815260200160002060003373ffffffffffffffffffffffffffffffffffffffff1673ffffffffffffffffffffffffffffffffffffffff1681526020019081526020016000206000828254611b419190613207565b925050819055505050565b6002602052816000526040600020602052806000526040600020600091509150505481565b600160003373ffffffffffffffffffffffffffffffffffffffff1673ffffffffffffffffffffffffffffffffffffffff168152602001908152602001600020548410611bf2576040517f08c379a0000000000000000000000000000000000000000000000000000000008152600401611be990612c5e565b60405180910390fd5b60008411611c35576040517f08c379a0000000000000000000000000000000000000000000000000000000008152600401611c2c90612cf0565b60405180910390fd5b3373ffffffffffffffffffffffffffffffffffffffff168573ffffffffffffffffffffffffffffffffffffffff1603611ca3576040517f08c379a0000000000000000000000000000000000000000000000000000000008152600401611c9a90613385565b60405180910390fd5b8473ffffffffffffffffffffffffffffffffffffffff166108fc859081150290604051600060405180830381858888f19350505050158015611ce9573d6000803e3d6000fd5b5083600160003373ffffffffffffffffffffffffffffffffffffffff1673ffffffffffffffffffffffffffffffffffffffff1681526020019081526020016000206000828254611d399190612d3f565b925050819055506000600560003373ffffffffffffffffffffffffffffffffffffffff1673ffffffffffffffffffffffffffffffffffffffff16815260200190815260200160002060008773ffffffffffffffffffffffffffffffffffffffff1673ffffffffffffffffffffffffffffffffffffffff1681526020019081526020016000205403611f0557600860003373ffffffffffffffffffffffffffffffffffffffff1673ffffffffffffffffffffffffffffffffffffffff168152602001908152602001600020859080600181540180825580915050600190039060005260206000200160009091909190916101000a81548173ffffffffffffffffffffffffffffffffffffffff021916908373ffffffffffffffffffffffffffffffffffffffff160217905550600960008673ffffffffffffffffffffffffffffffffffffffff1673ffffffffffffffffffffffffffffffffffffffff168152602001908152602001600020339080600181540180825580915050600190039060005260206000200160009091909190916101000a81548173ffffffffffffffffffffffffffffffffffffffff021916908373ffffffffffffffffffffffffffffffffffffffff1602179055505b83600560003373ffffffffffffffffffffffffffffffffffffffff1673ffffffffffffffffffffffffffffffffffffffff16815260200190815260200160002060008773ffffffffffffffffffffffffffffffffffffffff1673ffffffffffffffffffffffffffffffffffffffff1681526020019081526020016000206000828254611f919190613207565b9250508190555083600660008773ffffffffffffffffffffffffffffffffffffffff1673ffffffffffffffffffffffffffffffffffffffff16815260200190815260200160002060003373ffffffffffffffffffffffffffffffffffffffff1673ffffffffffffffffffffffffffffffffffffffff16815260200190815260200160002060008282546120249190613207565b925050819055508473ffffffffffffffffffffffffffffffffffffffff163373ffffffffffffffffffffffffffffffffffffffff167fa32c156f4b3b8a11a69a7ce04d9290f328629e9ba578b036df29793cceed6ec98686868660405161208e94939291906133a5565b60405180910390a35050505050565b6006602052816000526040600020602052806000526040600020600091509150505481565b6000600860008373ffffffffffffffffffffffffffffffffffffffff1673ffffffffffffffffffffffffffffffffffffffff168152602001908152602001600020805490509050919050565b6009602052816000526040600020818154811061212a57600080fd5b906000526020600020016000915091509054906101000a900473ffffffffffffffffffffffffffffffffffffffff1681565b60008060003373ffffffffffffffffffffffffffffffffffffffff1673ffffffffffffffffffffffffffffffffffffffff16815260200190815260200160002082815481106121ae576121ad612b51565b5b90600052602060002090600302019050600015158160020160009054906101000a900460ff16151514612216576040517f08c379a000000000000000000000000000000000000000000000000000000000815260040161220d90612bf2565b60405180910390fd5b6000600360003373ffffffffffffffffffffffffffffffffffffffff1673ffffffffffffffffffffffffffffffffffffffff16815260200190815260200160002060008360020160019054906101000a900473ffffffffffffffffffffffffffffffffffffffff1673ffffffffffffffffffffffffffffffffffffffff1673ffffffffffffffffffffffffffffffffffffffff16815260200190815260200160002054600260003373ffffffffffffffffffffffffffffffffffffffff1673ffffffffffffffffffffffffffffffffffffffff16815260200190815260200160002060008460020160019054906101000a900473ffffffffffffffffffffffffffffffffffffffff1673ffffffffffffffffffffffffffffffffffffffff1673ffffffffffffffffffffffffffffffffffffffff168152602001908152602001600020546123649190612d3f565b11156124b6578060020160019054906101000a900473ffffffffffffffffffffffffffffffffffffffff1673ffffffffffffffffffffffffffffffffffffffff166108fc82600101549081150290604051600060405180830381858888f193505050501580156123d8573d6000803e3d6000fd5b5060018160020160006101000a81548160ff0219169083151502179055508060010154600360003373ffffffffffffffffffffffffffffffffffffffff1673ffffffffffffffffffffffffffffffffffffffff16815260200190815260200160002060008360020160019054906101000a900473ffffffffffffffffffffffffffffffffffffffff1673ffffffffffffffffffffffffffffffffffffffff1673ffffffffffffffffffffffffffffffffffffffff16815260200190815260200160002060008282546124aa9190613207565b925050819055506124c0565b6124bf82610791565b5b5050565b60016020528060005260406000206000915090505481565b6000600a60008373ffffffffffffffffffffffffffffffffffffffff1673ffffffffffffffffffffffffffffffffffffffff168152602001908152602001600020805490509050919050565b6000604051905090565b600080fd5b600080fd5b600073ffffffffffffffffffffffffffffffffffffffff82169050919050565b60006125678261253c565b9050919050565b6125778161255c565b811461258257600080fd5b50565b6000813590506125948161256e565b92915050565b6000819050919050565b6125ad8161259a565b81146125b857600080fd5b50565b6000813590506125ca816125a4565b92915050565b600080604083850312156125e7576125e6612532565b5b60006125f585828601612585565b9250506020612606858286016125bb565b9150509250929050565b6126198161255c565b82525050565b60006020820190506126346000830184612610565b92915050565b6000602082840312156126505761264f612532565b5b600061265e848285016125bb565b91505092915050565b60006020828403121561267d5761267c612532565b5b600061268b84828501612585565b91505092915050565b61269d8161259a565b82525050565b60006020820190506126b86000830184612694565b92915050565b600080604083850312156126d5576126d4612532565b5b60006126e385828601612585565b92505060206126f485828601612585565b9150509250929050565b600060ff82169050919050565b612714816126fe565b82525050565b600060208201905061272f600083018461270b565b92915050565b600080fd5b600080fd5b6000601f19601f8301169050919050565b7f4e487b7100000000000000000000000000000000000000000000000000000000600052604160045260246000fd5b6127888261273f565b810181811067ffffffffffffffff821117156127a7576127a6612750565b5b80604052505050565b60006127ba612528565b90506127c6828261277f565b919050565b600067ffffffffffffffff8211156127e6576127e5612750565b5b6127ef8261273f565b9050602081019050919050565b82818337600083830152505050565b600061281e612819846127cb565b6127b0565b90508281526020810184848401111561283a5761283961273a565b5b6128458482856127fc565b509392505050565b600082601f83011261286257612861612735565b5b813561287284826020860161280b565b91505092915050565b60008060006060848603121561289457612893612532565b5b600084013567ffffffffffffffff8111156128b2576128b1612537565b5b6128be8682870161284d565b93505060206128cf868287016125bb565b92505060406128e086828701612585565b9150509250925092565b60006128f58261253c565b9050919050565b612905816128ea565b811461291057600080fd5b50565b600081359050612922816128fc565b92915050565b6000806040838503121561293f5761293e612532565b5b600061294d858286016125bb565b925050602061295e85828601612913565b9150509250929050565b612971816126fe565b811461297c57600080fd5b50565b60008135905061298e81612968565b92915050565b600080604083850312156129ab576129aa612532565b5b60006129b985828601612585565b92505060206129ca8582860161297f565b9150509250929050565b600081519050919050565b600082825260208201905092915050565b60005b83811015612a0e5780820151818401526020810190506129f3565b60008484015250505050565b6000612a25826129d4565b612a2f81856129df565b9350612a3f8185602086016129f0565b612a488161273f565b840191505092915050565b60008115159050919050565b612a6881612a53565b82525050565b60006080820190508181036000830152612a888187612a1a565b9050612a976020830186612694565b612aa46040830185612a5f565b612ab16060830184612610565b95945050505050565b600080600080600060a08688031215612ad657612ad5612532565b5b6000612ae488828901612913565b9550506020612af5888289016125bb565b9450506040612b06888289016125bb565b9350506060612b17888289016125bb565b925050608086013567ffffffffffffffff811115612b3857612b37612537565b5b612b448882890161284d565b9150509295509295909350565b7f4e487b7100000000000000000000000000000000000000000000000000000000600052603260045260246000fd5b7f726571756573742068617320616c7265616479206265656e2066696e616c697360008201527f6564000000000000000000000000000000000000000000000000000000000000602082015250565b6000612bdc6022836129df565b9150612be782612b80565b604082019050919050565b60006020820190508181036000830152612c0b81612bcf565b9050919050565b7f496e73756666696369656e742066756e64730000000000000000000000000000600082015250565b6000612c486012836129df565b9150612c5382612c12565b602082019050919050565b60006020820190508181036000830152612c7781612c3b565b9050919050565b7f7472616e73616374696f6e2077697468203020657468206973206e6f7420616c60008201527f6c6f776564000000000000000000000000000000000000000000000000000000602082015250565b6000612cda6025836129df565b9150612ce582612c7e565b604082019050919050565b60006020820190508181036000830152612d0981612ccd565b9050919050565b7f4e487b7100000000000000000000000000000000000000000000000000000000600052601160045260246000fd5b6000612d4a8261259a565b9150612d558361259a565b9250828203905081811115612d6d57612d6c612d10565b5b92915050565b7f596f752068617665207573656420616c6c20746865206d6f6e6579207468617460008201527f20776173206c656e7420746f20796f7500000000000000000000000000000000602082015250565b6000612dcf6030836129df565b9150612dda82612d73565b604082019050919050565b60006020820190508181036000830152612dfe81612dc2565b9050919050565b7f796f75206172652061736b696e6720666f72206d6f7265206d6f6e657920746860008201527f616e207768617420686173206265656e206c656e7420746f20796f7500000000602082015250565b6000612e61603c836129df565b9150612e6c82612e05565b604082019050919050565b60006020820190508181036000830152612e9081612e54565b9050919050565b7f4e487b7100000000000000000000000000000000000000000000000000000000600052602260045260246000fd5b60006002820490506001821680612ede57607f821691505b602082108103612ef157612ef0612e97565b5b50919050565b60008190508160005260206000209050919050565b60006020601f8301049050919050565b600082821b905092915050565b600060088302612f597fffffffffffffffffffffffffffffffffffffffffffffffffffffffffffffffff82612f1c565b612f638683612f1c565b95508019841693508086168417925050509392505050565b6000819050919050565b6000612fa0612f9b612f968461259a565b612f7b565b61259a565b9050919050565b6000819050919050565b612fba83612f85565b612fce612fc682612fa7565b848454612f29565b825550505050565b600090565b612fe3612fd6565b612fee818484612fb1565b505050565b5b8181101561301257613007600082612fdb565b600181019050612ff4565b5050565b601f8211156130575761302881612ef7565b61303184612f0c565b81016020851015613040578190505b61305461304c85612f0c565b830182612ff3565b50505b505050565b600082821c905092915050565b600061307a6000198460080261305c565b1980831691505092915050565b60006130938383613069565b9150826002028217905092915050565b6130ac826129d4565b67ffffffffffffffff8111156130c5576130c4612750565b5b6130cf8254612ec6565b6130da828285613016565b600060209050601f83116001811461310d57600084156130fb578287015190505b6131058582613087565b86555061316d565b601f19841661311b86612ef7565b60005b828110156131435784890151825560018201915060208501945060208101905061311e565b86831015613160578489015161315c601f891682613069565b8355505b6001600288020188555050505b505050505050565b7f546865206164647265737320646f65736e7420686176652074686174206d756360008201527f682066756e647300000000000000000000000000000000000000000000000000602082015250565b60006131d16027836129df565b91506131dc82613175565b604082019050919050565b60006020820190508181036000830152613200816131c4565b9050919050565b60006132128261259a565b915061321d8361259a565b925082820190508082111561323557613234612d10565b5b92915050565b7f4e6f206c6f616e20676976656e00000000000000000000000000000000000000600082015250565b6000613271600d836129df565b915061327c8261323b565b602082019050919050565b600060208201905081810360008301526132a081613264565b9050919050565b7f596f752063616e6e6f74206c656e64206d6f6e657920746f20796f757273656c60008201527f6600000000000000000000000000000000000000000000000000000000000000602082015250565b60006133036021836129df565b915061330e826132a7565b604082019050919050565b60006020820190508181036000830152613332816132f6565b9050919050565b7f596f752063616e6e6f7420706179206d6f6e657920746f20796f757273656c66600082015250565b600061336f6020836129df565b915061337a82613339565b602082019050919050565b6000602082019050818103600083015261339e81613362565b9050919050565b60006080820190506133ba6000830187612694565b6133c76020830186612694565b6133d46040830185612694565b81810360608301526133e68184612a1a565b90509594505050505056fea2646970667358221220517c2f3d14b4e9e447d785af52cb6503ddd466f2e00ac83d721b340ccd5121a164736f6c63430008130033","opcodes":"PUSH1 0x80 PUSH1 0x40 MSTORE CALLVALUE DUP1 ISZERO PUSH2 0x10 JUMPI PUSH1 0x0 DUP1 REVERT JUMPDEST POP PUSH2 0x3427 DUP1 PUSH2 0x20 PUSH1 0x0 CODECOPY PUSH1 0x0 RETURN INVALID PUSH1 0x80 PUSH1 0x40 MSTORE PUSH1 0x4 CALLDATASIZE LT PUSH2 0x1B7 JUMPI PUSH1 0x0 CALLDATALOAD PUSH1 0xE0 SHR DUP1 PUSH4 0x9E6B84C4 GT PUSH2 0xEC JUMPI DUP1 PUSH4 0xD14D7AE8 GT PUSH2 0x8A JUMPI DUP1 PUSH4 0xD7B6E15E GT PUSH2 0x64 JUMPI DUP1 PUSH4 0xD7B6E15E EQ PUSH2 0x670 JUMPI DUP1 PUSH4 0xD7D1BBDB EQ PUSH2 0x6AD JUMPI DUP1 PUSH4 0xE3D670D7 EQ PUSH2 0x6C9 JUMPI DUP1 PUSH4 0xF0610297 EQ PUSH2 0x706 JUMPI PUSH2 0x1B7 JUMP JUMPDEST DUP1 PUSH4 0xD14D7AE8 EQ PUSH2 0x5DA JUMPI DUP1 PUSH4 0xD2713BCF EQ PUSH2 0x5F6 JUMPI DUP1 PUSH4 0xD522AC8F EQ PUSH2 0x633 JUMPI PUSH2 0x1B7 JUMP JUMPDEST DUP1 PUSH4 0xAD1AC14C GT PUSH2 0xC6 JUMPI DUP1 PUSH4 0xAD1AC14C EQ PUSH2 0x507 JUMPI DUP1 PUSH4 0xB0A02ABE EQ PUSH2 0x544 JUMPI DUP1 PUSH4 0xB1884744 EQ PUSH2 0x581 JUMPI DUP1 PUSH4 0xB331EA63 EQ PUSH2 0x59D JUMPI PUSH2 0x1B7 JUMP JUMPDEST DUP1 PUSH4 0x9E6B84C4 EQ PUSH2 0x494 JUMPI DUP1 PUSH4 0x9ECEBE2A EQ PUSH2 0x4BD JUMPI DUP1 PUSH4 0xA2F09DFA EQ PUSH2 0x4FD JUMPI PUSH2 0x1B7 JUMP JUMPDEST DUP1 PUSH4 0x50E30042 GT PUSH2 0x159 JUMPI DUP1 PUSH4 0x88811F8D GT PUSH2 0x133 JUMPI DUP1 PUSH4 0x88811F8D EQ PUSH2 0x3D5 JUMPI DUP1 PUSH4 0x8A9CFD55 EQ PUSH2 0x412 JUMPI DUP1 PUSH4 0x8EAD837B EQ PUSH2 0x43B JUMPI DUP1 PUSH4 0x95F4513A EQ PUSH2 0x478 JUMPI PUSH2 0x1B7 JUMP JUMPDEST DUP1 PUSH4 0x50E30042 EQ PUSH2 0x31E JUMPI DUP1 PUSH4 0x5195AFA5 EQ PUSH2 0x35B JUMPI DUP1 PUSH4 0x71929C51 EQ PUSH2 0x398 JUMPI PUSH2 0x1B7 JUMP JUMPDEST DUP1 PUSH4 0x31287C31 GT PUSH2 0x195 JUMPI DUP1 PUSH4 0x31287C31 EQ PUSH2 0x23E JUMPI DUP1 PUSH4 0x334E3DE2 EQ PUSH2 0x27B JUMPI DUP1 PUSH4 0x43999AC2 EQ PUSH2 0x2B8 JUMPI DUP1 PUSH4 0x4FD49044 EQ PUSH2 0x2E1 JUMPI PUSH2 0x1B7 JUMP JUMPDEST DUP1 PUSH4 0x92A0A8A EQ PUSH2 0x1BC JUMPI DUP1 PUSH4 0x2D7788DB EQ PUSH2 0x1F9 JUMPI DUP1 PUSH4 0x2E1A7D4D EQ PUSH2 0x222 JUMPI JUMPDEST PUSH1 0x0 DUP1 REVERT JUMPDEST CALLVALUE DUP1 ISZERO PUSH2 0x1C8 JUMPI PUSH1 0x0 DUP1 REVERT JUMPDEST POP PUSH2 0x1E3 PUSH1 0x4 DUP1 CALLDATASIZE SUB DUP2 ADD SWAP1 PUSH2 0x1DE SWAP2 SWAP1 PUSH2 0x25D0 JUMP JUMPDEST PUSH2 0x743 JUMP JUMPDEST PUSH1 0x40 MLOAD PUSH2 0x1F0 SWAP2 SWAP1 PUSH2 0x261F JUMP JUMPDEST PUSH1 0x40 MLOAD DUP1 SWAP2 SUB SWAP1 RETURN JUMPDEST CALLVALUE DUP1 ISZERO PUSH2 0x205 JUMPI PUSH1 0x0 DUP1 REVERT JUMPDEST POP PUSH2 0x220 PUSH1 0x4 DUP1 CALLDATASIZE SUB DUP2 ADD SWAP1 PUSH2 0x21B SWAP2 SWAP1 PUSH2 0x263A JUMP JUMPDEST PUSH2 0x791 JUMP JUMPDEST STOP JUMPDEST PUSH2 0x23C PUSH1 0x4 DUP1 CALLDATASIZE SUB DUP2 ADD SWAP1 PUSH2 0x237 SWAP2 SWAP1 PUSH2 0x263A JUMP JUMPDEST PUSH2 0x86C JUMP JUMPDEST STOP JUMPDEST CALLVALUE DUP1 ISZERO PUSH2 0x24A JUMPI PUSH1 0x0 DUP1 REVERT JUMPDEST POP PUSH2 0x265 PUSH1 0x4 DUP1 CALLDATASIZE SUB DUP2 ADD SWAP1 PUSH2 0x260 SWAP2 SWAP1 PUSH2 0x25D0 JUMP JUMPDEST PUSH2 0x9D0 JUMP JUMPDEST PUSH1 0x40 MLOAD PUSH2 0x272 SWAP2 SWAP1 PUSH2 0x261F JUMP JUMPDEST PUSH1 0x40 MLOAD DUP1 SWAP2 SUB SWAP1 RETURN JUMPDEST CALLVALUE DUP1 ISZERO PUSH2 0x287 JUMPI PUSH1 0x0 DUP1 REVERT JUMPDEST POP PUSH2 0x2A2 PUSH1 0x4 DUP1 CALLDATASIZE SUB DUP2 ADD SWAP1 PUSH2 0x29D SWAP2 SWAP1 PUSH2 0x2667 JUMP JUMPDEST PUSH2 0xA1E JUMP JUMPDEST PUSH1 0x40 MLOAD PUSH2 0x2AF SWAP2 SWAP1 PUSH2 0x26A3 JUMP JUMPDEST PUSH1 0x40 MLOAD DUP1 SWAP2 SUB SWAP1 RETURN JUMPDEST CALLVALUE DUP1 ISZERO PUSH2 0x2C4 JUMPI PUSH1 0x0 DUP1 REVERT JUMPDEST POP PUSH2 0x2DF PUSH1 0x4 DUP1 CALLDATASIZE SUB DUP2 ADD SWAP1 PUSH2 0x2DA SWAP2 SWAP1 PUSH2 0x2667 JUMP JUMPDEST PUSH2 0xA6A JUMP JUMPDEST STOP JUMPDEST CALLVALUE DUP1 ISZERO PUSH2 0x2ED JUMPI PUSH1 0x0 DUP1 REVERT JUMPDEST POP PUSH2 0x308 PUSH1 0x4 DUP1 CALLDATASIZE SUB DUP2 ADD SWAP1 PUSH2 0x303 SWAP2 SWAP1 PUSH2 0x25D0 JUMP JUMPDEST PUSH2 0xAEF JUMP JUMPDEST PUSH1 0x40 MLOAD PUSH2 0x315 SWAP2 SWAP1 PUSH2 0x261F JUMP JUMPDEST PUSH1 0x40 MLOAD DUP1 SWAP2 SUB SWAP1 RETURN JUMPDEST CALLVALUE DUP1 ISZERO PUSH2 0x32A JUMPI PUSH1 0x0 DUP1 REVERT JUMPDEST POP PUSH2 0x345 PUSH1 0x4 DUP1 CALLDATASIZE SUB DUP2 ADD SWAP1 PUSH2 0x340 SWAP2 SWAP1 PUSH2 0x26BE JUMP JUMPDEST PUSH2 0xB3D JUMP JUMPDEST PUSH1 0x40 MLOAD PUSH2 0x352 SWAP2 SWAP1 PUSH2 0x271A JUMP JUMPDEST PUSH1 0x40 MLOAD DUP1 SWAP2 SUB SWAP1 RETURN JUMPDEST CALLVALUE DUP1 ISZERO PUSH2 0x367 JUMPI PUSH1 0x0 DUP1 REVERT JUMPDEST POP PUSH2 0x382 PUSH1 0x4 DUP1 CALLDATASIZE SUB DUP2 ADD SWAP1 PUSH2 0x37D SWAP2 SWAP1 PUSH2 0x26BE JUMP JUMPDEST PUSH2 0xB6C JUMP JUMPDEST PUSH1 0x40 MLOAD PUSH2 0x38F SWAP2 SWAP1 PUSH2 0x26A3 JUMP JUMPDEST PUSH1 0x40 MLOAD DUP1 SWAP2 SUB SWAP1 RETURN JUMPDEST CALLVALUE DUP1 ISZERO PUSH2 0x3A4 JUMPI PUSH1 0x0 DUP1 REVERT JUMPDEST POP PUSH2 0x3BF PUSH1 0x4 DUP1 CALLDATASIZE SUB DUP2 ADD SWAP1 PUSH2 0x3BA SWAP2 SWAP1 PUSH2 0x2667 JUMP JUMPDEST PUSH2 0xB91 JUMP JUMPDEST PUSH1 0x40 MLOAD PUSH2 0x3CC SWAP2 SWAP1 PUSH2 0x26A3 JUMP JUMPDEST PUSH1 0x40 MLOAD DUP1 SWAP2 SUB SWAP1 RETURN JUMPDEST CALLVALUE DUP1 ISZERO PUSH2 0x3E1 JUMPI PUSH1 0x0 DUP1 REVERT JUMPDEST POP PUSH2 0x3FC PUSH1 0x4 DUP1 CALLDATASIZE SUB DUP2 ADD SWAP1 PUSH2 0x3F7 SWAP2 SWAP1 PUSH2 0x26BE JUMP JUMPDEST PUSH2 0xBA9 JUMP JUMPDEST PUSH1 0x40 MLOAD PUSH2 0x409 SWAP2 SWAP1 PUSH2 0x26A3 JUMP JUMPDEST PUSH1 0x40 MLOAD DUP1 SWAP2 SUB SWAP1 RETURN JUMPDEST CALLVALUE DUP1 ISZERO PUSH2 0x41E JUMPI PUSH1 0x0 DUP1 REVERT JUMPDEST POP PUSH2 0x439 PUSH1 0x4 DUP1 CALLDATASIZE SUB DUP2 ADD SWAP1 PUSH2 0x434 SWAP2 SWAP1 PUSH2 0x287B JUMP JUMPDEST PUSH2 0xBCE JUMP JUMPDEST STOP JUMPDEST CALLVALUE DUP1 ISZERO PUSH2 0x447 JUMPI PUSH1 0x0 DUP1 REVERT JUMPDEST POP PUSH2 0x462 PUSH1 0x4 DUP1 CALLDATASIZE SUB DUP2 ADD SWAP1 PUSH2 0x45D SWAP2 SWAP1 PUSH2 0x2667 JUMP JUMPDEST PUSH2 0xF3B JUMP JUMPDEST PUSH1 0x40 MLOAD PUSH2 0x46F SWAP2 SWAP1 PUSH2 0x26A3 JUMP JUMPDEST PUSH1 0x40 MLOAD DUP1 SWAP2 SUB SWAP1 RETURN JUMPDEST PUSH2 0x492 PUSH1 0x4 DUP1 CALLDATASIZE SUB DUP2 ADD SWAP1 PUSH2 0x48D SWAP2 SWAP1 PUSH2 0x2928 JUMP JUMPDEST PUSH2 0xF86 JUMP JUMPDEST STOP JUMPDEST CALLVALUE DUP1 ISZERO PUSH2 0x4A0 JUMPI PUSH1 0x0 DUP1 REVERT JUMPDEST POP PUSH2 0x4BB PUSH1 0x4 DUP1 CALLDATASIZE SUB DUP2 ADD SWAP1 PUSH2 0x4B6 SWAP2 SWAP1 PUSH2 0x2994 JUMP JUMPDEST PUSH2 0x1293 JUMP JUMPDEST STOP JUMPDEST CALLVALUE DUP1 ISZERO PUSH2 0x4C9 JUMPI PUSH1 0x0 DUP1 REVERT JUMPDEST POP PUSH2 0x4E4 PUSH1 0x4 DUP1 CALLDATASIZE SUB DUP2 ADD SWAP1 PUSH2 0x4DF SWAP2 SWAP1 PUSH2 0x25D0 JUMP JUMPDEST PUSH2 0x13EB JUMP JUMPDEST PUSH1 0x40 MLOAD PUSH2 0x4F4 SWAP5 SWAP4 SWAP3 SWAP2 SWAP1 PUSH2 0x2A6E JUMP JUMPDEST PUSH1 0x40 MLOAD DUP1 SWAP2 SUB SWAP1 RETURN JUMPDEST PUSH2 0x505 PUSH2 0x14ED JUMP JUMPDEST STOP JUMPDEST CALLVALUE DUP1 ISZERO PUSH2 0x513 JUMPI PUSH1 0x0 DUP1 REVERT JUMPDEST POP PUSH2 0x52E PUSH1 0x4 DUP1 CALLDATASIZE SUB DUP2 ADD SWAP1 PUSH2 0x529 SWAP2 SWAP1 PUSH2 0x2667 JUMP JUMPDEST PUSH2 0x15DE JUMP JUMPDEST PUSH1 0x40 MLOAD PUSH2 0x53B SWAP2 SWAP1 PUSH2 0x26A3 JUMP JUMPDEST PUSH1 0x40 MLOAD DUP1 SWAP2 SUB SWAP1 RETURN JUMPDEST CALLVALUE DUP1 ISZERO PUSH2 0x550 JUMPI PUSH1 0x0 DUP1 REVERT JUMPDEST POP PUSH2 0x56B PUSH1 0x4 DUP1 CALLDATASIZE SUB DUP2 ADD SWAP1 PUSH2 0x566 SWAP2 SWAP1 PUSH2 0x26BE JUMP JUMPDEST PUSH2 0x162A JUMP JUMPDEST PUSH1 0x40 MLOAD PUSH2 0x578 SWAP2 SWAP1 PUSH2 0x26A3 JUMP JUMPDEST PUSH1 0x40 MLOAD DUP1 SWAP2 SUB SWAP1 RETURN JUMPDEST PUSH2 0x59B PUSH1 0x4 DUP1 CALLDATASIZE SUB DUP2 ADD SWAP1 PUSH2 0x596 SWAP2 SWAP1 PUSH2 0x2928 JUMP JUMPDEST PUSH2 0x164F JUMP JUMPDEST STOP JUMPDEST CALLVALUE DUP1 ISZERO PUSH2 0x5A9 JUMPI PUSH1 0x0 DUP1 REVERT JUMPDEST POP PUSH2 0x5C4 PUSH1 0x4 DUP1 CALLDATASIZE SUB DUP2 ADD SWAP1 PUSH2 0x5BF SWAP2 SWAP1 PUSH2 0x26BE JUMP JUMPDEST PUSH2 0x1B4C JUMP JUMPDEST PUSH1 0x40 MLOAD PUSH2 0x5D1 SWAP2 SWAP1 PUSH2 0x26A3 JUMP JUMPDEST PUSH1 0x40 MLOAD DUP1 SWAP2 SUB SWAP1 RETURN JUMPDEST PUSH2 0x5F4 PUSH1 0x4 DUP1 CALLDATASIZE SUB DUP2 ADD SWAP1 PUSH2 0x5EF SWAP2 SWAP1 PUSH2 0x2ABA JUMP JUMPDEST PUSH2 0x1B71 JUMP JUMPDEST STOP JUMPDEST CALLVALUE DUP1 ISZERO PUSH2 0x602 JUMPI PUSH1 0x0 DUP1 REVERT JUMPDEST POP PUSH2 0x61D PUSH1 0x4 DUP1 CALLDATASIZE SUB DUP2 ADD SWAP1 PUSH2 0x618 SWAP2 SWAP1 PUSH2 0x26BE JUMP JUMPDEST PUSH2 0x209D JUMP JUMPDEST PUSH1 0x40 MLOAD PUSH2 0x62A SWAP2 SWAP1 PUSH2 0x26A3 JUMP JUMPDEST PUSH1 0x40 MLOAD DUP1 SWAP2 SUB SWAP1 RETURN JUMPDEST CALLVALUE DUP1 ISZERO PUSH2 0x63F JUMPI PUSH1 0x0 DUP1 REVERT JUMPDEST POP PUSH2 0x65A PUSH1 0x4 DUP1 CALLDATASIZE SUB DUP2 ADD SWAP1 PUSH2 0x655 SWAP2 SWAP1 PUSH2 0x2667 JUMP JUMPDEST PUSH2 0x20C2 JUMP JUMPDEST PUSH1 0x40 MLOAD PUSH2 0x667 SWAP2 SWAP1 PUSH2 0x26A3 JUMP JUMPDEST PUSH1 0x40 MLOAD DUP1 SWAP2 SUB SWAP1 RETURN JUMPDEST CALLVALUE DUP1 ISZERO PUSH2 0x67C JUMPI PUSH1 0x0 DUP1 REVERT JUMPDEST POP PUSH2 0x697 PUSH1 0x4 DUP1 CALLDATASIZE SUB DUP2 ADD SWAP1 PUSH2 0x692 SWAP2 SWAP1 PUSH2 0x25D0 JUMP JUMPDEST PUSH2 0x210E JUMP JUMPDEST PUSH1 0x40 MLOAD PUSH2 0x6A4 SWAP2 SWAP1 PUSH2 0x261F JUMP JUMPDEST PUSH1 0x40 MLOAD DUP1 SWAP2 SUB SWAP1 RETURN JUMPDEST PUSH2 0x6C7 PUSH1 0x4 DUP1 CALLDATASIZE SUB DUP2 ADD SWAP1 PUSH2 0x6C2 SWAP2 SWAP1 PUSH2 0x263A JUMP JUMPDEST PUSH2 0x215C JUMP JUMPDEST STOP JUMPDEST CALLVALUE DUP1 ISZERO PUSH2 0x6D5 JUMPI PUSH1 0x0 DUP1 REVERT JUMPDEST POP PUSH2 0x6F0 PUSH1 0x4 DUP1 CALLDATASIZE SUB DUP2 ADD SWAP1 PUSH2 0x6EB SWAP2 SWAP1 PUSH2 0x2667 JUMP JUMPDEST PUSH2 0x24C4 JUMP JUMPDEST PUSH1 0x40 MLOAD PUSH2 0x6FD SWAP2 SWAP1 PUSH2 0x26A3 JUMP JUMPDEST PUSH1 0x40 MLOAD DUP1 SWAP2 SUB SWAP1 RETURN JUMPDEST CALLVALUE DUP1 ISZERO PUSH2 0x712 JUMPI PUSH1 0x0 DUP1 REVERT JUMPDEST POP PUSH2 0x72D PUSH1 0x4 DUP1 CALLDATASIZE SUB DUP2 ADD SWAP1 PUSH2 0x728 SWAP2 SWAP1 PUSH2 0x2667 JUMP JUMPDEST PUSH2 0x24DC JUMP JUMPDEST PUSH1 0x40 MLOAD PUSH2 0x73A SWAP2 SWAP1 PUSH2 0x26A3 JUMP JUMPDEST PUSH1 0x40 MLOAD DUP1 SWAP2 SUB SWAP1 RETURN JUMPDEST PUSH1 0xA PUSH1 0x20 MSTORE DUP2 PUSH1 0x0 MSTORE PUSH1 0x40 PUSH1 0x0 KECCAK256 DUP2 DUP2 SLOAD DUP2 LT PUSH2 0x75F JUMPI PUSH1 0x0 DUP1 REVERT JUMPDEST SWAP1 PUSH1 0x0 MSTORE PUSH1 0x20 PUSH1 0x0 KECCAK256 ADD PUSH1 0x0 SWAP2 POP SWAP2 POP SWAP1 SLOAD SWAP1 PUSH2 0x100 EXP SWAP1 DIV PUSH20 0xFFFFFFFFFFFFFFFFFFFFFFFFFFFFFFFFFFFFFFFF AND DUP2 JUMP JUMPDEST PUSH1 0x0 DUP1 PUSH1 0x0 CALLER PUSH20 0xFFFFFFFFFFFFFFFFFFFFFFFFFFFFFFFFFFFFFFFF AND PUSH20 0xFFFFFFFFFFFFFFFFFFFFFFFFFFFFFFFFFFFFFFFF AND DUP2 MSTORE PUSH1 0x20 ADD SWAP1 DUP2 MSTORE PUSH1 0x20 ADD PUSH1 0x0 KECCAK256 DUP3 DUP2 SLOAD DUP2 LT PUSH2 0x7E3 JUMPI PUSH2 0x7E2 PUSH2 0x2B51 JUMP JUMPDEST JUMPDEST SWAP1 PUSH1 0x0 MSTORE PUSH1 0x20 PUSH1 0x0 KECCAK256 SWAP1 PUSH1 0x3 MUL ADD SWAP1 POP PUSH1 0x0 ISZERO ISZERO DUP2 PUSH1 0x2 ADD PUSH1 0x0 SWAP1 SLOAD SWAP1 PUSH2 0x100 EXP SWAP1 DIV PUSH1 0xFF AND ISZERO ISZERO EQ PUSH2 0x84B JUMPI PUSH1 0x40 MLOAD PUSH32 0x8C379A000000000000000000000000000000000000000000000000000000000 DUP2 MSTORE PUSH1 0x4 ADD PUSH2 0x842 SWAP1 PUSH2 0x2BF2 JUMP JUMPDEST PUSH1 0x40 MLOAD DUP1 SWAP2 SUB SWAP1 REVERT JUMPDEST PUSH1 0x1 DUP2 PUSH1 0x2 ADD PUSH1 0x0 PUSH2 0x100 EXP DUP2 SLOAD DUP2 PUSH1 0xFF MUL NOT AND SWAP1 DUP4 ISZERO ISZERO MUL OR SWAP1 SSTORE POP POP POP JUMP JUMPDEST PUSH1 0x1 PUSH1 0x0 CALLER PUSH20 0xFFFFFFFFFFFFFFFFFFFFFFFFFFFFFFFFFFFFFFFF AND PUSH20 0xFFFFFFFFFFFFFFFFFFFFFFFFFFFFFFFFFFFFFFFF AND DUP2 MSTORE PUSH1 0x20 ADD SWAP1 DUP2 MSTORE PUSH1 0x20 ADD PUSH1 0x0 KECCAK256 SLOAD DUP2 LT PUSH2 0x8ED JUMPI PUSH1 0x40 MLOAD PUSH32 0x8C379A000000000000000000000000000000000000000000000000000000000 DUP2 MSTORE PUSH1 0x4 ADD PUSH2 0x8E4 SWAP1 PUSH2 0x2C5E JUMP JUMPDEST PUSH1 0x40 MLOAD DUP1 SWAP2 SUB SWAP1 REVERT JUMPDEST PUSH1 0x0 DUP2 GT PUSH2 0x930 JUMPI PUSH1 0x40 MLOAD PUSH32 0x8C379A000000000000000000000000000000000000000000000000000000000 DUP2 MSTORE PUSH1 0x4 ADD PUSH2 0x927 SWAP1 PUSH2 0x2CF0 JUMP JUMPDEST PUSH1 0x40 MLOAD DUP1 SWAP2 SUB SWAP1 REVERT JUMPDEST CALLER PUSH20 0xFFFFFFFFFFFFFFFFFFFFFFFFFFFFFFFFFFFFFFFF AND PUSH2 0x8FC DUP3 SWAP1 DUP2 ISZERO MUL SWAP1 PUSH1 0x40 MLOAD PUSH1 0x0 PUSH1 0x40 MLOAD DUP1 DUP4 SUB DUP2 DUP6 DUP9 DUP9 CALL SWAP4 POP POP POP POP ISZERO DUP1 ISZERO PUSH2 0x976 JUMPI RETURNDATASIZE PUSH1 0x0 DUP1 RETURNDATACOPY RETURNDATASIZE PUSH1 0x0 REVERT JUMPDEST POP DUP1 PUSH1 0x1 PUSH1 0x0 CALLER PUSH20 0xFFFFFFFFFFFFFFFFFFFFFFFFFFFFFFFFFFFFFFFF AND PUSH20 0xFFFFFFFFFFFFFFFFFFFFFFFFFFFFFFFFFFFFFFFF AND DUP2 MSTORE PUSH1 0x20 ADD SWAP1 DUP2 MSTORE PUSH1 0x20 ADD PUSH1 0x0 KECCAK256 PUSH1 0x0 DUP3 DUP3 SLOAD PUSH2 0x9C6 SWAP2 SWAP1 PUSH2 0x2D3F JUMP JUMPDEST SWAP3 POP POP DUP2 SWAP1 SSTORE POP POP JUMP JUMPDEST PUSH1 0xB PUSH1 0x20 MSTORE DUP2 PUSH1 0x0 MSTORE PUSH1 0x40 PUSH1 0x0 KECCAK256 DUP2 DUP2 SLOAD DUP2 LT PUSH2 0x9EC JUMPI PUSH1 0x0 DUP1 REVERT JUMPDEST SWAP1 PUSH1 0x0 MSTORE PUSH1 0x20 PUSH1 0x0 KECCAK256 ADD PUSH1 0x0 SWAP2 POP SWAP2 POP SWAP1 SLOAD SWAP1 PUSH2 0x100 EXP SWAP1 DIV PUSH20 0xFFFFFFFFFFFFFFFFFFFFFFFFFFFFFFFFFFFFFFFF AND DUP2 JUMP JUMPDEST PUSH1 0x0 PUSH1 0xB PUSH1 0x0 DUP4 PUSH20 0xFFFFFFFFFFFFFFFFFFFFFFFFFFFFFFFFFFFFFFFF AND PUSH20 0xFFFFFFFFFFFFFFFFFFFFFFFFFFFFFFFFFFFFFFFF AND DUP2 MSTORE PUSH1 0x20 ADD SWAP1 DUP2 MSTORE PUSH1 0x20 ADD PUSH1 0x0 KECCAK256 DUP1 SLOAD SWAP1 POP SWAP1 POP SWAP2 SWAP1 POP JUMP JUMPDEST PUSH1 0x0 PUSH1 0x3 PUSH1 0x0 CALLER PUSH20 0xFFFFFFFFFFFFFFFFFFFFFFFFFFFFFFFFFFFFFFFF AND PUSH20 0xFFFFFFFFFFFFFFFFFFFFFFFFFFFFFFFFFFFFFFFF AND DUP2 MSTORE PUSH1 0x20 ADD SWAP1 DUP2 MSTORE PUSH1 0x20 ADD PUSH1 0x0 KECCAK256 PUSH1 0x0 DUP4 PUSH20 0xFFFFFFFFFFFFFFFFFFFFFFFFFFFFFFFFFFFFFFFF AND PUSH20 0xFFFFFFFFFFFFFFFFFFFFFFFFFFFFFFFFFFFFFFFF AND DUP2 MSTORE PUSH1 0x20 ADD SWAP1 DUP2 MSTORE PUSH1 0x20 ADD PUSH1 0x0 KECCAK256 DUP2 SWAP1 SSTORE POP POP JUMP JUMPDEST PUSH1 0x8 PUSH1 0x20 MSTORE DUP2 PUSH1 0x0 MSTORE PUSH1 0x40 PUSH1 0x0 KECCAK256 DUP2 DUP2 SLOAD DUP2 LT PUSH2 0xB0B JUMPI PUSH1 0x0 DUP1 REVERT JUMPDEST SWAP1 PUSH1 0x0 MSTORE PUSH1 0x20 PUSH1 0x0 KECCAK256 ADD PUSH1 0x0 SWAP2 POP SWAP2 POP SWAP1 SLOAD SWAP1 PUSH2 0x100 EXP SWAP1 DIV PUSH20 0xFFFFFFFFFFFFFFFFFFFFFFFFFFFFFFFFFFFFFFFF AND DUP2 JUMP JUMPDEST PUSH1 0x7 PUSH1 0x20 MSTORE DUP2 PUSH1 0x0 MSTORE PUSH1 0x40 PUSH1 0x0 KECCAK256 PUSH1 0x20 MSTORE DUP1 PUSH1 0x0 MSTORE PUSH1 0x40 PUSH1 0x0 KECCAK256 PUSH1 0x0 SWAP2 POP SWAP2 POP SWAP1 SLOAD SWAP1 PUSH2 0x100 EXP SWAP1 DIV PUSH1 0xFF AND DUP2 JUMP JUMPDEST PUSH1 0x3 PUSH1 0x20 MSTORE DUP2 PUSH1 0x0 MSTORE PUSH1 0x40 PUSH1 0x0 KECCAK256 PUSH1 0x20 MSTORE DUP1 PUSH1 0x0 MSTORE PUSH1 0x40 PUSH1 0x0 KECCAK256 PUSH1 0x0 SWAP2 POP SWAP2 POP POP SLOAD DUP2 JUMP JUMPDEST PUSH1 0xC PUSH1 0x20 MSTORE DUP1 PUSH1 0x0 MSTORE PUSH1 0x40 PUSH1 0x0 KECCAK256 PUSH1 0x0 SWAP2 POP SWAP1 POP SLOAD DUP2 JUMP JUMPDEST PUSH1 0x5 PUSH1 0x20 MSTORE DUP2 PUSH1 0x0 MSTORE PUSH1 0x40 PUSH1 0x0 KECCAK256 PUSH1 0x20 MSTORE DUP1 PUSH1 0x0 MSTORE PUSH1 0x40 PUSH1 0x0 KECCAK256 PUSH1 0x0 SWAP2 POP SWAP2 POP POP SLOAD DUP2 JUMP JUMPDEST PUSH1 0x0 PUSH1 0x3 PUSH1 0x0 CALLER PUSH20 0xFFFFFFFFFFFFFFFFFFFFFFFFFFFFFFFFFFFFFFFF AND PUSH20 0xFFFFFFFFFFFFFFFFFFFFFFFFFFFFFFFFFFFFFFFF AND DUP2 MSTORE PUSH1 0x20 ADD SWAP1 DUP2 MSTORE PUSH1 0x20 ADD PUSH1 0x0 KECCAK256 PUSH1 0x0 DUP4 PUSH20 0xFFFFFFFFFFFFFFFFFFFFFFFFFFFFFFFFFFFFFFFF AND PUSH20 0xFFFFFFFFFFFFFFFFFFFFFFFFFFFFFFFFFFFFFFFF AND DUP2 MSTORE PUSH1 0x20 ADD SWAP1 DUP2 MSTORE PUSH1 0x20 ADD PUSH1 0x0 KECCAK256 SLOAD PUSH1 0x2 PUSH1 0x0 DUP5 PUSH20 0xFFFFFFFFFFFFFFFFFFFFFFFFFFFFFFFFFFFFFFFF AND PUSH20 0xFFFFFFFFFFFFFFFFFFFFFFFFFFFFFFFFFFFFFFFF AND DUP2 MSTORE PUSH1 0x20 ADD SWAP1 DUP2 MSTORE PUSH1 0x20 ADD PUSH1 0x0 KECCAK256 PUSH1 0x0 CALLER PUSH20 0xFFFFFFFFFFFFFFFFFFFFFFFFFFFFFFFFFFFFFFFF AND PUSH20 0xFFFFFFFFFFFFFFFFFFFFFFFFFFFFFFFFFFFFFFFF AND DUP2 MSTORE PUSH1 0x20 ADD SWAP1 DUP2 MSTORE PUSH1 0x20 ADD PUSH1 0x0 KECCAK256 SLOAD PUSH2 0xCD4 SWAP2 SWAP1 PUSH2 0x2D3F JUMP JUMPDEST GT PUSH2 0xD14 JUMPI PUSH1 0x40 MLOAD PUSH32 0x8C379A000000000000000000000000000000000000000000000000000000000 DUP2 MSTORE PUSH1 0x4 ADD PUSH2 0xD0B SWAP1 PUSH2 0x2DE5 JUMP JUMPDEST PUSH1 0x40 MLOAD DUP1 SWAP2 SUB SWAP1 REVERT JUMPDEST DUP2 PUSH1 0x3 PUSH1 0x0 CALLER PUSH20 0xFFFFFFFFFFFFFFFFFFFFFFFFFFFFFFFFFFFFFFFF AND PUSH20 0xFFFFFFFFFFFFFFFFFFFFFFFFFFFFFFFFFFFFFFFF AND DUP2 MSTORE PUSH1 0x20 ADD SWAP1 DUP2 MSTORE PUSH1 0x20 ADD PUSH1 0x0 KECCAK256 PUSH1 0x0 DUP4 PUSH20 0xFFFFFFFFFFFFFFFFFFFFFFFFFFFFFFFFFFFFFFFF AND PUSH20 0xFFFFFFFFFFFFFFFFFFFFFFFFFFFFFFFFFFFFFFFF AND DUP2 MSTORE PUSH1 0x20 ADD SWAP1 DUP2 MSTORE PUSH1 0x20 ADD PUSH1 0x0 KECCAK256 SLOAD PUSH1 0x2 PUSH1 0x0 DUP5 PUSH20 0xFFFFFFFFFFFFFFFFFFFFFFFFFFFFFFFFFFFFFFFF AND PUSH20 0xFFFFFFFFFFFFFFFFFFFFFFFFFFFFFFFFFFFFFFFF AND DUP2 MSTORE PUSH1 0x20 ADD SWAP1 DUP2 MSTORE PUSH1 0x20 ADD PUSH1 0x0 KECCAK256 PUSH1 0x0 CALLER PUSH20 0xFFFFFFFFFFFFFFFFFFFFFFFFFFFFFFFFFFFFFFFF AND PUSH20 0xFFFFFFFFFFFFFFFFFFFFFFFFFFFFFFFFFFFFFFFF AND DUP2 MSTORE PUSH1 0x20 ADD SWAP1 DUP2 MSTORE PUSH1 0x20 ADD PUSH1 0x0 KECCAK256 SLOAD PUSH2 0xE19 SWAP2 SWAP1 PUSH2 0x2D3F JUMP JUMPDEST LT ISZERO PUSH2 0xE5A JUMPI PUSH1 0x40 MLOAD PUSH32 0x8C379A000000000000000000000000000000000000000000000000000000000 DUP2 MSTORE PUSH1 0x4 ADD PUSH2 0xE51 SWAP1 PUSH2 0x2E77 JUMP JUMPDEST PUSH1 0x40 MLOAD DUP1 SWAP2 SUB SWAP1 REVERT JUMPDEST PUSH1 0x0 DUP1 PUSH1 0x0 DUP4 PUSH20 0xFFFFFFFFFFFFFFFFFFFFFFFFFFFFFFFFFFFFFFFF AND PUSH20 0xFFFFFFFFFFFFFFFFFFFFFFFFFFFFFFFFFFFFFFFF AND DUP2 MSTORE PUSH1 0x20 ADD SWAP1 DUP2 MSTORE PUSH1 0x20 ADD PUSH1 0x0 KECCAK256 PUSH1 0x1 DUP2 PUSH1 0x1 DUP2 SLOAD ADD DUP1 DUP3 SSTORE DUP1 SWAP2 POP POP SUB SWAP1 PUSH1 0x0 MSTORE PUSH1 0x20 PUSH1 0x0 KECCAK256 SWAP1 PUSH1 0x3 MUL ADD SWAP1 POP DUP4 DUP2 PUSH1 0x0 ADD SWAP1 DUP2 PUSH2 0xECB SWAP2 SWAP1 PUSH2 0x30A3 JUMP JUMPDEST POP DUP3 DUP2 PUSH1 0x1 ADD DUP2 SWAP1 SSTORE POP PUSH1 0x0 DUP2 PUSH1 0x2 ADD PUSH1 0x0 PUSH2 0x100 EXP DUP2 SLOAD DUP2 PUSH1 0xFF MUL NOT AND SWAP1 DUP4 ISZERO ISZERO MUL OR SWAP1 SSTORE POP CALLER DUP2 PUSH1 0x2 ADD PUSH1 0x1 PUSH2 0x100 EXP DUP2 SLOAD DUP2 PUSH20 0xFFFFFFFFFFFFFFFFFFFFFFFFFFFFFFFFFFFFFFFF MUL NOT AND SWAP1 DUP4 PUSH20 0xFFFFFFFFFFFFFFFFFFFFFFFFFFFFFFFFFFFFFFFF AND MUL OR SWAP1 SSTORE POP POP POP POP POP JUMP JUMPDEST PUSH1 0x0 DUP1 PUSH1 0x0 DUP4 PUSH20 0xFFFFFFFFFFFFFFFFFFFFFFFFFFFFFFFFFFFFFFFF AND PUSH20 0xFFFFFFFFFFFFFFFFFFFFFFFFFFFFFFFFFFFFFFFF AND DUP2 MSTORE PUSH1 0x20 ADD SWAP1 DUP2 MSTORE PUSH1 0x20 ADD PUSH1 0x0 KECCAK256 DUP1 SLOAD SWAP1 POP SWAP1 POP SWAP2 SWAP1 POP JUMP JUMPDEST DUP2 PUSH1 0x3 PUSH1 0x0 CALLER PUSH20 0xFFFFFFFFFFFFFFFFFFFFFFFFFFFFFFFFFFFFFFFF AND PUSH20 0xFFFFFFFFFFFFFFFFFFFFFFFFFFFFFFFFFFFFFFFF AND DUP2 MSTORE PUSH1 0x20 ADD SWAP1 DUP2 MSTORE PUSH1 0x20 ADD PUSH1 0x0 KECCAK256 PUSH1 0x0 DUP4 PUSH20 0xFFFFFFFFFFFFFFFFFFFFFFFFFFFFFFFFFFFFFFFF AND PUSH20 0xFFFFFFFFFFFFFFFFFFFFFFFFFFFFFFFFFFFFFFFF AND DUP2 MSTORE PUSH1 0x20 ADD SWAP1 DUP2 MSTORE PUSH1 0x20 ADD PUSH1 0x0 KECCAK256 SLOAD PUSH1 0x2 PUSH1 0x0 CALLER PUSH20 0xFFFFFFFFFFFFFFFFFFFFFFFFFFFFFFFFFFFFFFFF AND PUSH20 0xFFFFFFFFFFFFFFFFFFFFFFFFFFFFFFFFFFFFFFFF AND DUP2 MSTORE PUSH1 0x20 ADD SWAP1 DUP2 MSTORE PUSH1 0x20 ADD PUSH1 0x0 KECCAK256 PUSH1 0x0 DUP5 PUSH20 0xFFFFFFFFFFFFFFFFFFFFFFFFFFFFFFFFFFFFFFFF AND PUSH20 0xFFFFFFFFFFFFFFFFFFFFFFFFFFFFFFFFFFFFFFFF AND DUP2 MSTORE PUSH1 0x20 ADD SWAP1 DUP2 MSTORE PUSH1 0x20 ADD PUSH1 0x0 KECCAK256 SLOAD PUSH2 0x108B SWAP2 SWAP1 PUSH2 0x2D3F JUMP JUMPDEST LT ISZERO PUSH2 0x10CC JUMPI PUSH1 0x40 MLOAD PUSH32 0x8C379A000000000000000000000000000000000000000000000000000000000 DUP2 MSTORE PUSH1 0x4 ADD PUSH2 0x10C3 SWAP1 PUSH2 0x31E7 JUMP JUMPDEST PUSH1 0x40 MLOAD DUP1 SWAP2 SUB SWAP1 REVERT JUMPDEST DUP2 PUSH1 0x1 PUSH1 0x0 CALLER PUSH20 0xFFFFFFFFFFFFFFFFFFFFFFFFFFFFFFFFFFFFFFFF AND PUSH20 0xFFFFFFFFFFFFFFFFFFFFFFFFFFFFFFFFFFFFFFFF AND DUP2 MSTORE PUSH1 0x20 ADD SWAP1 DUP2 MSTORE PUSH1 0x20 ADD PUSH1 0x0 KECCAK256 PUSH1 0x0 DUP3 DUP3 SLOAD PUSH2 0x111B SWAP2 SWAP1 PUSH2 0x3207 JUMP JUMPDEST SWAP3 POP POP DUP2 SWAP1 SSTORE POP DUP2 PUSH1 0x2 PUSH1 0x0 CALLER PUSH20 0xFFFFFFFFFFFFFFFFFFFFFFFFFFFFFFFFFFFFFFFF AND PUSH20 0xFFFFFFFFFFFFFFFFFFFFFFFFFFFFFFFFFFFFFFFF AND DUP2 MSTORE PUSH1 0x20 ADD SWAP1 DUP2 MSTORE PUSH1 0x20 ADD PUSH1 0x0 KECCAK256 PUSH1 0x0 DUP4 PUSH20 0xFFFFFFFFFFFFFFFFFFFFFFFFFFFFFFFFFFFFFFFF AND PUSH20 0xFFFFFFFFFFFFFFFFFFFFFFFFFFFFFFFFFFFFFFFF AND DUP2 MSTORE PUSH1 0x20 ADD SWAP1 DUP2 MSTORE PUSH1 0x20 ADD PUSH1 0x0 KECCAK256 PUSH1 0x0 DUP3 DUP3 SLOAD PUSH2 0x11AE SWAP2 SWAP1 PUSH2 0x2D3F JUMP JUMPDEST SWAP3 POP POP DUP2 SWAP1 SSTORE POP DUP2 PUSH1 0x4 PUSH1 0x0 DUP4 PUSH20 0xFFFFFFFFFFFFFFFFFFFFFFFFFFFFFFFFFFFFFFFF AND PUSH20 0xFFFFFFFFFFFFFFFFFFFFFFFFFFFFFFFFFFFFFFFF AND DUP2 MSTORE PUSH1 0x20 ADD SWAP1 DUP2 MSTORE PUSH1 0x20 ADD PUSH1 0x0 KECCAK256 PUSH1 0x0 CALLER PUSH20 0xFFFFFFFFFFFFFFFFFFFFFFFFFFFFFFFFFFFFFFFF AND PUSH20 0xFFFFFFFFFFFFFFFFFFFFFFFFFFFFFFFFFFFFFFFF AND DUP2 MSTORE PUSH1 0x20 ADD SWAP1 DUP2 MSTORE PUSH1 0x20 ADD PUSH1 0x0 KECCAK256 PUSH1 0x0 DUP3 DUP3 SLOAD PUSH2 0x1241 SWAP2 SWAP1 PUSH2 0x2D3F JUMP JUMPDEST SWAP3 POP POP DUP2 SWAP1 SSTORE POP CALLER PUSH20 0xFFFFFFFFFFFFFFFFFFFFFFFFFFFFFFFFFFFFFFFF AND PUSH2 0x8FC DUP4 SWAP1 DUP2 ISZERO MUL SWAP1 PUSH1 0x40 MLOAD PUSH1 0x0 PUSH1 0x40 MLOAD DUP1 DUP4 SUB DUP2 DUP6 DUP9 DUP9 CALL SWAP4 POP POP POP POP ISZERO DUP1 ISZERO PUSH2 0x128E JUMPI RETURNDATASIZE PUSH1 0x0 DUP1 RETURNDATACOPY RETURNDATASIZE PUSH1 0x0 REVERT JUMPDEST POP POP POP JUMP JUMPDEST PUSH1 0x0 PUSH1 0x4 PUSH1 0x0 DUP5 PUSH20 0xFFFFFFFFFFFFFFFFFFFFFFFFFFFFFFFFFFFFFFFF AND PUSH20 0xFFFFFFFFFFFFFFFFFFFFFFFFFFFFFFFFFFFFFFFF AND DUP2 MSTORE PUSH1 0x20 ADD SWAP1 DUP2 MSTORE PUSH1 0x20 ADD PUSH1 0x0 KECCAK256 PUSH1 0x0 CALLER PUSH20 0xFFFFFFFFFFFFFFFFFFFFFFFFFFFFFFFFFFFFFFFF AND PUSH20 0xFFFFFFFFFFFFFFFFFFFFFFFFFFFFFFFFFFFFFFFF AND DUP2 MSTORE PUSH1 0x20 ADD SWAP1 DUP2 MSTORE PUSH1 0x20 ADD PUSH1 0x0 KECCAK256 SLOAD GT PUSH2 0x1352 JUMPI PUSH1 0x40 MLOAD PUSH32 0x8C379A000000000000000000000000000000000000000000000000000000000 DUP2 MSTORE PUSH1 0x4 ADD PUSH2 0x1349 SWAP1 PUSH2 0x3287 JUMP JUMPDEST PUSH1 0x40 MLOAD DUP1 SWAP2 SUB SWAP1 REVERT JUMPDEST DUP1 PUSH1 0x7 PUSH1 0x0 DUP5 PUSH20 0xFFFFFFFFFFFFFFFFFFFFFFFFFFFFFFFFFFFFFFFF AND PUSH20 0xFFFFFFFFFFFFFFFFFFFFFFFFFFFFFFFFFFFFFFFF AND DUP2 MSTORE PUSH1 0x20 ADD SWAP1 DUP2 MSTORE PUSH1 0x20 ADD PUSH1 0x0 KECCAK256 PUSH1 0x0 CALLER PUSH20 0xFFFFFFFFFFFFFFFFFFFFFFFFFFFFFFFFFFFFFFFF AND PUSH20 0xFFFFFFFFFFFFFFFFFFFFFFFFFFFFFFFFFFFFFFFF AND DUP2 MSTORE PUSH1 0x20 ADD SWAP1 DUP2 MSTORE PUSH1 0x20 ADD PUSH1 0x0 KECCAK256 PUSH1 0x0 PUSH2 0x100 EXP DUP2 SLOAD DUP2 PUSH1 0xFF MUL NOT AND SWAP1 DUP4 PUSH1 0xFF AND MUL OR SWAP1 SSTORE POP POP POP JUMP JUMPDEST PUSH1 0x0 PUSH1 0x20 MSTORE DUP2 PUSH1 0x0 MSTORE PUSH1 0x40 PUSH1 0x0 KECCAK256 DUP2 DUP2 SLOAD DUP2 LT PUSH2 0x1407 JUMPI PUSH1 0x0 DUP1 REVERT JUMPDEST SWAP1 PUSH1 0x0 MSTORE PUSH1 0x20 PUSH1 0x0 KECCAK256 SWAP1 PUSH1 0x3 MUL ADD PUSH1 0x0 SWAP2 POP SWAP2 POP POP DUP1 PUSH1 0x0 ADD DUP1 SLOAD PUSH2 0x142B SWAP1 PUSH2 0x2EC6 JUMP JUMPDEST DUP1 PUSH1 0x1F ADD PUSH1 0x20 DUP1 SWAP2 DIV MUL PUSH1 0x20 ADD PUSH1 0x40 MLOAD SWAP1 DUP2 ADD PUSH1 0x40 MSTORE DUP1 SWAP3 SWAP2 SWAP1 DUP2 DUP2 MSTORE PUSH1 0x20 ADD DUP3 DUP1 SLOAD PUSH2 0x1457 SWAP1 PUSH2 0x2EC6 JUMP JUMPDEST DUP1 ISZERO PUSH2 0x14A4 JUMPI DUP1 PUSH1 0x1F LT PUSH2 0x1479 JUMPI PUSH2 0x100 DUP1 DUP4 SLOAD DIV MUL DUP4 MSTORE SWAP2 PUSH1 0x20 ADD SWAP2 PUSH2 0x14A4 JUMP JUMPDEST DUP3 ADD SWAP2 SWAP1 PUSH1 0x0 MSTORE PUSH1 0x20 PUSH1 0x0 KECCAK256 SWAP1 JUMPDEST DUP2 SLOAD DUP2 MSTORE SWAP1 PUSH1 0x1 ADD SWAP1 PUSH1 0x20 ADD DUP1 DUP4 GT PUSH2 0x1487 JUMPI DUP3 SWAP1 SUB PUSH1 0x1F AND DUP3 ADD SWAP2 JUMPDEST POP POP POP POP POP SWAP1 DUP1 PUSH1 0x1 ADD SLOAD SWAP1 DUP1 PUSH1 0x2 ADD PUSH1 0x0 SWAP1 SLOAD SWAP1 PUSH2 0x100 EXP SWAP1 DIV PUSH1 0xFF AND SWAP1 DUP1 PUSH1 0x2 ADD PUSH1 0x1 SWAP1 SLOAD SWAP1 PUSH2 0x100 EXP SWAP1 DIV PUSH20 0xFFFFFFFFFFFFFFFFFFFFFFFFFFFFFFFFFFFFFFFF AND SWAP1 POP DUP5 JUMP JUMPDEST PUSH1 0x0 CALLVALUE GT PUSH2 0x1530 JUMPI PUSH1 0x40 MLOAD PUSH32 0x8C379A000000000000000000000000000000000000000000000000000000000 DUP2 MSTORE PUSH1 0x4 ADD PUSH2 0x1527 SWAP1 PUSH2 0x2CF0 JUMP JUMPDEST PUSH1 0x40 MLOAD DUP1 SWAP2 SUB SWAP1 REVERT JUMPDEST CALLVALUE PUSH1 0x1 PUSH1 0x0 CALLER PUSH20 0xFFFFFFFFFFFFFFFFFFFFFFFFFFFFFFFFFFFFFFFF AND PUSH20 0xFFFFFFFFFFFFFFFFFFFFFFFFFFFFFFFFFFFFFFFF AND DUP2 MSTORE PUSH1 0x20 ADD SWAP1 DUP2 MSTORE PUSH1 0x20 ADD PUSH1 0x0 KECCAK256 PUSH1 0x0 DUP3 DUP3 SLOAD PUSH2 0x157F SWAP2 SWAP1 PUSH2 0x3207 JUMP JUMPDEST SWAP3 POP POP DUP2 SWAP1 SSTORE POP CALLVALUE PUSH1 0xC PUSH1 0x0 CALLER PUSH20 0xFFFFFFFFFFFFFFFFFFFFFFFFFFFFFFFFFFFFFFFF AND PUSH20 0xFFFFFFFFFFFFFFFFFFFFFFFFFFFFFFFFFFFFFFFF AND DUP2 MSTORE PUSH1 0x20 ADD SWAP1 DUP2 MSTORE PUSH1 0x20 ADD PUSH1 0x0 KECCAK256 PUSH1 0x0 DUP3 DUP3 SLOAD PUSH2 0x15D5 SWAP2 SWAP1 PUSH2 0x3207 JUMP JUMPDEST SWAP3 POP POP DUP2 SWAP1 SSTORE POP JUMP JUMPDEST PUSH1 0x0 PUSH1 0x9 PUSH1 0x0 DUP4 PUSH20 0xFFFFFFFFFFFFFFFFFFFFFFFFFFFFFFFFFFFFFFFF AND PUSH20 0xFFFFFFFFFFFFFFFFFFFFFFFFFFFFFFFFFFFFFFFF AND DUP2 MSTORE PUSH1 0x20 ADD SWAP1 DUP2 MSTORE PUSH1 0x20 ADD PUSH1 0x0 KECCAK256 DUP1 SLOAD SWAP1 POP SWAP1 POP SWAP2 SWAP1 POP JUMP JUMPDEST PUSH1 0x4 PUSH1 0x20 MSTORE DUP2 PUSH1 0x0 MSTORE PUSH1 0x40 PUSH1 0x0 KECCAK256 PUSH1 0x20 MSTORE DUP1 PUSH1 0x0 MSTORE PUSH1 0x40 PUSH1 0x0 KECCAK256 PUSH1 0x0 SWAP2 POP SWAP2 POP POP SLOAD DUP2 JUMP JUMPDEST PUSH1 0x1 PUSH1 0x0 CALLER PUSH20 0xFFFFFFFFFFFFFFFFFFFFFFFFFFFFFFFFFFFFFFFF AND PUSH20 0xFFFFFFFFFFFFFFFFFFFFFFFFFFFFFFFFFFFFFFFF AND DUP2 MSTORE PUSH1 0x20 ADD SWAP1 DUP2 MSTORE PUSH1 0x20 ADD PUSH1 0x0 KECCAK256 SLOAD DUP3 GT ISZERO PUSH2 0x16D1 JUMPI PUSH1 0x40 MLOAD PUSH32 0x8C379A000000000000000000000000000000000000000000000000000000000 DUP2 MSTORE PUSH1 0x4 ADD PUSH2 0x16C8 SWAP1 PUSH2 0x2C5E JUMP JUMPDEST PUSH1 0x40 MLOAD DUP1 SWAP2 SUB SWAP1 REVERT JUMPDEST PUSH1 0x0 DUP3 GT PUSH2 0x1714 JUMPI PUSH1 0x40 MLOAD PUSH32 0x8C379A000000000000000000000000000000000000000000000000000000000 DUP2 MSTORE PUSH1 0x4 ADD PUSH2 0x170B SWAP1 PUSH2 0x2CF0 JUMP JUMPDEST PUSH1 0x40 MLOAD DUP1 SWAP2 SUB SWAP1 REVERT JUMPDEST CALLER PUSH20 0xFFFFFFFFFFFFFFFFFFFFFFFFFFFFFFFFFFFFFFFF AND DUP2 PUSH20 0xFFFFFFFFFFFFFFFFFFFFFFFFFFFFFFFFFFFFFFFF AND SUB PUSH2 0x1782 JUMPI PUSH1 0x40 MLOAD PUSH32 0x8C379A000000000000000000000000000000000000000000000000000000000 DUP2 MSTORE PUSH1 0x4 ADD PUSH2 0x1779 SWAP1 PUSH2 0x3319 JUMP JUMPDEST PUSH1 0x40 MLOAD DUP1 SWAP2 SUB SWAP1 REVERT JUMPDEST PUSH1 0x0 PUSH1 0x4 PUSH1 0x0 DUP4 PUSH20 0xFFFFFFFFFFFFFFFFFFFFFFFFFFFFFFFFFFFFFFFF AND PUSH20 0xFFFFFFFFFFFFFFFFFFFFFFFFFFFFFFFFFFFFFFFF AND DUP2 MSTORE PUSH1 0x20 ADD SWAP1 DUP2 MSTORE PUSH1 0x20 ADD PUSH1 0x0 KECCAK256 PUSH1 0x0 CALLER PUSH20 0xFFFFFFFFFFFFFFFFFFFFFFFFFFFFFFFFFFFFFFFF AND PUSH20 0xFFFFFFFFFFFFFFFFFFFFFFFFFFFFFFFFFFFFFFFF AND DUP2 MSTORE PUSH1 0x20 ADD SWAP1 DUP2 MSTORE PUSH1 0x20 ADD PUSH1 0x0 KECCAK256 SLOAD SUB PUSH2 0x18A7 JUMPI PUSH1 0xA PUSH1 0x0 CALLER PUSH20 0xFFFFFFFFFFFFFFFFFFFFFFFFFFFFFFFFFFFFFFFF AND PUSH20 0xFFFFFFFFFFFFFFFFFFFFFFFFFFFFFFFFFFFFFFFF AND DUP2 MSTORE PUSH1 0x20 ADD SWAP1 DUP2 MSTORE PUSH1 0x20 ADD PUSH1 0x0 KECCAK256 DUP2 SWAP1 DUP1 PUSH1 0x1 DUP2 SLOAD ADD DUP1 DUP3 SSTORE DUP1 SWAP2 POP POP PUSH1 0x1 SWAP1 SUB SWAP1 PUSH1 0x0 MSTORE PUSH1 0x20 PUSH1 0x0 KECCAK256 ADD PUSH1 0x0 SWAP1 SWAP2 SWAP1 SWAP2 SWAP1 SWAP2 PUSH2 0x100 EXP DUP2 SLOAD DUP2 PUSH20 0xFFFFFFFFFFFFFFFFFFFFFFFFFFFFFFFFFFFFFFFF MUL NOT AND SWAP1 DUP4 PUSH20 0xFFFFFFFFFFFFFFFFFFFFFFFFFFFFFFFFFFFFFFFF AND MUL OR SWAP1 SSTORE POP JUMPDEST PUSH1 0x0 PUSH1 0x2 PUSH1 0x0 CALLER PUSH20 0xFFFFFFFFFFFFFFFFFFFFFFFFFFFFFFFFFFFFFFFF AND PUSH20 0xFFFFFFFFFFFFFFFFFFFFFFFFFFFFFFFFFFFFFFFF AND DUP2 MSTORE PUSH1 0x20 ADD SWAP1 DUP2 MSTORE PUSH1 0x20 ADD PUSH1 0x0 KECCAK256 PUSH1 0x0 DUP4 PUSH20 0xFFFFFFFFFFFFFFFFFFFFFFFFFFFFFFFFFFFFFFFF AND PUSH20 0xFFFFFFFFFFFFFFFFFFFFFFFFFFFFFFFFFFFFFFFF AND DUP2 MSTORE PUSH1 0x20 ADD SWAP1 DUP2 MSTORE PUSH1 0x20 ADD PUSH1 0x0 KECCAK256 SLOAD SUB PUSH2 0x19CC JUMPI PUSH1 0xB PUSH1 0x0 DUP3 PUSH20 0xFFFFFFFFFFFFFFFFFFFFFFFFFFFFFFFFFFFFFFFF AND PUSH20 0xFFFFFFFFFFFFFFFFFFFFFFFFFFFFFFFFFFFFFFFF AND DUP2 MSTORE PUSH1 0x20 ADD SWAP1 DUP2 MSTORE PUSH1 0x20 ADD PUSH1 0x0 KECCAK256 CALLER SWAP1 DUP1 PUSH1 0x1 DUP2 SLOAD ADD DUP1 DUP3 SSTORE DUP1 SWAP2 POP POP PUSH1 0x1 SWAP1 SUB SWAP1 PUSH1 0x0 MSTORE PUSH1 0x20 PUSH1 0x0 KECCAK256 ADD PUSH1 0x0 SWAP1 SWAP2 SWAP1 SWAP2 SWAP1 SWAP2 PUSH2 0x100 EXP DUP2 SLOAD DUP2 PUSH20 0xFFFFFFFFFFFFFFFFFFFFFFFFFFFFFFFFFFFFFFFF MUL NOT AND SWAP1 DUP4 PUSH20 0xFFFFFFFFFFFFFFFFFFFFFFFFFFFFFFFFFFFFFFFF AND MUL OR SWAP1 SSTORE POP JUMPDEST DUP2 PUSH1 0x1 PUSH1 0x0 CALLER PUSH20 0xFFFFFFFFFFFFFFFFFFFFFFFFFFFFFFFFFFFFFFFF AND PUSH20 0xFFFFFFFFFFFFFFFFFFFFFFFFFFFFFFFFFFFFFFFF AND DUP2 MSTORE PUSH1 0x20 ADD SWAP1 DUP2 MSTORE PUSH1 0x20 ADD PUSH1 0x0 KECCAK256 PUSH1 0x0 DUP3 DUP3 SLOAD PUSH2 0x1A1B SWAP2 SWAP1 PUSH2 0x2D3F JUMP JUMPDEST SWAP3 POP POP DUP2 SWAP1 SSTORE POP DUP2 PUSH1 0x2 PUSH1 0x0 CALLER PUSH20 0xFFFFFFFFFFFFFFFFFFFFFFFFFFFFFFFFFFFFFFFF AND PUSH20 0xFFFFFFFFFFFFFFFFFFFFFFFFFFFFFFFFFFFFFFFF AND DUP2 MSTORE PUSH1 0x20 ADD SWAP1 DUP2 MSTORE PUSH1 0x20 ADD PUSH1 0x0 KECCAK256 PUSH1 0x0 DUP4 PUSH20 0xFFFFFFFFFFFFFFFFFFFFFFFFFFFFFFFFFFFFFFFF AND PUSH20 0xFFFFFFFFFFFFFFFFFFFFFFFFFFFFFFFFFFFFFFFF AND DUP2 MSTORE PUSH1 0x20 ADD SWAP1 DUP2 MSTORE PUSH1 0x20 ADD PUSH1 0x0 KECCAK256 PUSH1 0x0 DUP3 DUP3 SLOAD PUSH2 0x1AAE SWAP2 SWAP1 PUSH2 0x3207 JUMP JUMPDEST SWAP3 POP POP DUP2 SWAP1 SSTORE POP DUP2 PUSH1 0x4 PUSH1 0x0 DUP4 PUSH20 0xFFFFFFFFFFFFFFFFFFFFFFFFFFFFFFFFFFFFFFFF AND PUSH20 0xFFFFFFFFFFFFFFFFFFFFFFFFFFFFFFFFFFFFFFFF AND DUP2 MSTORE PUSH1 0x20 ADD SWAP1 DUP2 MSTORE PUSH1 0x20 ADD PUSH1 0x0 KECCAK256 PUSH1 0x0 CALLER PUSH20 0xFFFFFFFFFFFFFFFFFFFFFFFFFFFFFFFFFFFFFFFF AND PUSH20 0xFFFFFFFFFFFFFFFFFFFFFFFFFFFFFFFFFFFFFFFF AND DUP2 MSTORE PUSH1 0x20 ADD SWAP1 DUP2 MSTORE PUSH1 0x20 ADD PUSH1 0x0 KECCAK256 PUSH1 0x0 DUP3 DUP3 SLOAD PUSH2 0x1B41 SWAP2 SWAP1 PUSH2 0x3207 JUMP JUMPDEST SWAP3 POP POP DUP2 SWAP1 SSTORE POP POP POP JUMP JUMPDEST PUSH1 0x2 PUSH1 0x20 MSTORE DUP2 PUSH1 0x0 MSTORE PUSH1 0x40 PUSH1 0x0 KECCAK256 PUSH1 0x20 MSTORE DUP1 PUSH1 0x0 MSTORE PUSH1 0x40 PUSH1 0x0 KECCAK256 PUSH1 0x0 SWAP2 POP SWAP2 POP POP SLOAD DUP2 JUMP JUMPDEST PUSH1 0x1 PUSH1 0x0 CALLER PUSH20 0xFFFFFFFFFFFFFFFFFFFFFFFFFFFFFFFFFFFFFFFF AND PUSH20 0xFFFFFFFFFFFFFFFFFFFFFFFFFFFFFFFFFFFFFFFF AND DUP2 MSTORE PUSH1 0x20 ADD SWAP1 DUP2 MSTORE PUSH1 0x20 ADD PUSH1 0x0 KECCAK256 SLOAD DUP5 LT PUSH2 0x1BF2 JUMPI PUSH1 0x40 MLOAD PUSH32 0x8C379A000000000000000000000000000000000000000000000000000000000 DUP2 MSTORE PUSH1 0x4 ADD PUSH2 0x1BE9 SWAP1 PUSH2 0x2C5E JUMP JUMPDEST PUSH1 0x40 MLOAD DUP1 SWAP2 SUB SWAP1 REVERT JUMPDEST PUSH1 0x0 DUP5 GT PUSH2 0x1C35 JUMPI PUSH1 0x40 MLOAD PUSH32 0x8C379A000000000000000000000000000000000000000000000000000000000 DUP2 MSTORE PUSH1 0x4 ADD PUSH2 0x1C2C SWAP1 PUSH2 0x2CF0 JUMP JUMPDEST PUSH1 0x40 MLOAD DUP1 SWAP2 SUB SWAP1 REVERT JUMPDEST CALLER PUSH20 0xFFFFFFFFFFFFFFFFFFFFFFFFFFFFFFFFFFFFFFFF AND DUP6 PUSH20 0xFFFFFFFFFFFFFFFFFFFFFFFFFFFFFFFFFFFFFFFF AND SUB PUSH2 0x1CA3 JUMPI PUSH1 0x40 MLOAD PUSH32 0x8C379A000000000000000000000000000000000000000000000000000000000 DUP2 MSTORE PUSH1 0x4 ADD PUSH2 0x1C9A SWAP1 PUSH2 0x3385 JUMP JUMPDEST PUSH1 0x40 MLOAD DUP1 SWAP2 SUB SWAP1 REVERT JUMPDEST DUP5 PUSH20 0xFFFFFFFFFFFFFFFFFFFFFFFFFFFFFFFFFFFFFFFF AND PUSH2 0x8FC DUP6 SWAP1 DUP2 ISZERO MUL SWAP1 PUSH1 0x40 MLOAD PUSH1 0x0 PUSH1 0x40 MLOAD DUP1 DUP4 SUB DUP2 DUP6 DUP9 DUP9 CALL SWAP4 POP POP POP POP ISZERO DUP1 ISZERO PUSH2 0x1CE9 JUMPI RETURNDATASIZE PUSH1 0x0 DUP1 RETURNDATACOPY RETURNDATASIZE PUSH1 0x0 REVERT JUMPDEST POP DUP4 PUSH1 0x1 PUSH1 0x0 CALLER PUSH20 0xFFFFFFFFFFFFFFFFFFFFFFFFFFFFFFFFFFFFFFFF AND PUSH20 0xFFFFFFFFFFFFFFFFFFFFFFFFFFFFFFFFFFFFFFFF AND DUP2 MSTORE PUSH1 0x20 ADD SWAP1 DUP2 MSTORE PUSH1 0x20 ADD PUSH1 0x0 KECCAK256 PUSH1 0x0 DUP3 DUP3 SLOAD PUSH2 0x1D39 SWAP2 SWAP1 PUSH2 0x2D3F JUMP JUMPDEST SWAP3 POP POP DUP2 SWAP1 SSTORE POP PUSH1 0x0 PUSH1 0x5 PUSH1 0x0 CALLER PUSH20 0xFFFFFFFFFFFFFFFFFFFFFFFFFFFFFFFFFFFFFFFF AND PUSH20 0xFFFFFFFFFFFFFFFFFFFFFFFFFFFFFFFFFFFFFFFF AND DUP2 MSTORE PUSH1 0x20 ADD SWAP1 DUP2 MSTORE PUSH1 0x20 ADD PUSH1 0x0 KECCAK256 PUSH1 0x0 DUP8 PUSH20 0xFFFFFFFFFFFFFFFFFFFFFFFFFFFFFFFFFFFFFFFF AND PUSH20 0xFFFFFFFFFFFFFFFFFFFFFFFFFFFFFFFFFFFFFFFF AND DUP2 MSTORE PUSH1 0x20 ADD SWAP1 DUP2 MSTORE PUSH1 0x20 ADD PUSH1 0x0 KECCAK256 SLOAD SUB PUSH2 0x1F05 JUMPI PUSH1 0x8 PUSH1 0x0 CALLER PUSH20 0xFFFFFFFFFFFFFFFFFFFFFFFFFFFFFFFFFFFFFFFF AND PUSH20 0xFFFFFFFFFFFFFFFFFFFFFFFFFFFFFFFFFFFFFFFF AND DUP2 MSTORE PUSH1 0x20 ADD SWAP1 DUP2 MSTORE PUSH1 0x20 ADD PUSH1 0x0 KECCAK256 DUP6 SWAP1 DUP1 PUSH1 0x1 DUP2 SLOAD ADD DUP1 DUP3 SSTORE DUP1 SWAP2 POP POP PUSH1 0x1 SWAP1 SUB SWAP1 PUSH1 0x0 MSTORE PUSH1 0x20 PUSH1 0x0 KECCAK256 ADD PUSH1 0x0 SWAP1 SWAP2 SWAP1 SWAP2 SWAP1 SWAP2 PUSH2 0x100 EXP DUP2 SLOAD DUP2 PUSH20 0xFFFFFFFFFFFFFFFFFFFFFFFFFFFFFFFFFFFFFFFF MUL NOT AND SWAP1 DUP4 PUSH20 0xFFFFFFFFFFFFFFFFFFFFFFFFFFFFFFFFFFFFFFFF AND MUL OR SWAP1 SSTORE POP PUSH1 0x9 PUSH1 0x0 DUP7 PUSH20 0xFFFFFFFFFFFFFFFFFFFFFFFFFFFFFFFFFFFFFFFF AND PUSH20 0xFFFFFFFFFFFFFFFFFFFFFFFFFFFFFFFFFFFFFFFF AND DUP2 MSTORE PUSH1 0x20 ADD SWAP1 DUP2 MSTORE PUSH1 0x20 ADD PUSH1 0x0 KECCAK256 CALLER SWAP1 DUP1 PUSH1 0x1 DUP2 SLOAD ADD DUP1 DUP3 SSTORE DUP1 SWAP2 POP POP PUSH1 0x1 SWAP1 SUB SWAP1 PUSH1 0x0 MSTORE PUSH1 0x20 PUSH1 0x0 KECCAK256 ADD PUSH1 0x0 SWAP1 SWAP2 SWAP1 SWAP2 SWAP1 SWAP2 PUSH2 0x100 EXP DUP2 SLOAD DUP2 PUSH20 0xFFFFFFFFFFFFFFFFFFFFFFFFFFFFFFFFFFFFFFFF MUL NOT AND SWAP1 DUP4 PUSH20 0xFFFFFFFFFFFFFFFFFFFFFFFFFFFFFFFFFFFFFFFF AND MUL OR SWAP1 SSTORE POP JUMPDEST DUP4 PUSH1 0x5 PUSH1 0x0 CALLER PUSH20 0xFFFFFFFFFFFFFFFFFFFFFFFFFFFFFFFFFFFFFFFF AND PUSH20 0xFFFFFFFFFFFFFFFFFFFFFFFFFFFFFFFFFFFFFFFF AND DUP2 MSTORE PUSH1 0x20 ADD SWAP1 DUP2 MSTORE PUSH1 0x20 ADD PUSH1 0x0 KECCAK256 PUSH1 0x0 DUP8 PUSH20 0xFFFFFFFFFFFFFFFFFFFFFFFFFFFFFFFFFFFFFFFF AND PUSH20 0xFFFFFFFFFFFFFFFFFFFFFFFFFFFFFFFFFFFFFFFF AND DUP2 MSTORE PUSH1 0x20 ADD SWAP1 DUP2 MSTORE PUSH1 0x20 ADD PUSH1 0x0 KECCAK256 PUSH1 0x0 DUP3 DUP3 SLOAD PUSH2 0x1F91 SWAP2 SWAP1 PUSH2 0x3207 JUMP JUMPDEST SWAP3 POP POP DUP2 SWAP1 SSTORE POP DUP4 PUSH1 0x6 PUSH1 0x0 DUP8 PUSH20 0xFFFFFFFFFFFFFFFFFFFFFFFFFFFFFFFFFFFFFFFF AND PUSH20 0xFFFFFFFFFFFFFFFFFFFFFFFFFFFFFFFFFFFFFFFF AND DUP2 MSTORE PUSH1 0x20 ADD SWAP1 DUP2 MSTORE PUSH1 0x20 ADD PUSH1 0x0 KECCAK256 PUSH1 0x0 CALLER PUSH20 0xFFFFFFFFFFFFFFFFFFFFFFFFFFFFFFFFFFFFFFFF AND PUSH20 0xFFFFFFFFFFFFFFFFFFFFFFFFFFFFFFFFFFFFFFFF AND DUP2 MSTORE PUSH1 0x20 ADD SWAP1 DUP2 MSTORE PUSH1 0x20 ADD PUSH1 0x0 KECCAK256 PUSH1 0x0 DUP3 DUP3 SLOAD PUSH2 0x2024 SWAP2 SWAP1 PUSH2 0x3207 JUMP JUMPDEST SWAP3 POP POP DUP2 SWAP1 SSTORE POP DUP5 PUSH20 0xFFFFFFFFFFFFFFFFFFFFFFFFFFFFFFFFFFFFFFFF AND CALLER PUSH20 0xFFFFFFFFFFFFFFFFFFFFFFFFFFFFFFFFFFFFFFFF AND PUSH32 0xA32C156F4B3B8A11A69A7CE04D9290F328629E9BA578B036DF29793CCEED6EC9 DUP7 DUP7 DUP7 DUP7 PUSH1 0x40 MLOAD PUSH2 0x208E SWAP5 SWAP4 SWAP3 SWAP2 SWAP1 PUSH2 0x33A5 JUMP JUMPDEST PUSH1 0x40 MLOAD DUP1 SWAP2 SUB SWAP1 LOG3 POP POP POP POP POP JUMP JUMPDEST PUSH1 0x6 PUSH1 0x20 MSTORE DUP2 PUSH1 0x0 MSTORE PUSH1 0x40 PUSH1 0x0 KECCAK256 PUSH1 0x20 MSTORE DUP1 PUSH1 0x0 MSTORE PUSH1 0x40 PUSH1 0x0 KECCAK256 PUSH1 0x0 SWAP2 POP SWAP2 POP POP SLOAD DUP2 JUMP JUMPDEST PUSH1 0x0 PUSH1 0x8 PUSH1 0x0 DUP4 PUSH20 0xFFFFFFFFFFFFFFFFFFFFFFFFFFFFFFFFFFFFFFFF AND PUSH20 0xFFFFFFFFFFFFFFFFFFFFFFFFFFFFFFFFFFFFFFFF AND DUP2 MSTORE PUSH1 0x20 ADD SWAP1 DUP2 MSTORE PUSH1 0x20 ADD PUSH1 0x0 KECCAK256 DUP1 SLOAD SWAP1 POP SWAP1 POP SWAP2 SWAP1 POP JUMP JUMPDEST PUSH1 0x9 PUSH1 0x20 MSTORE DUP2 PUSH1 0x0 MSTORE PUSH1 0x40 PUSH1 0x0 KECCAK256 DUP2 DUP2 SLOAD DUP2 LT PUSH2 0x212A JUMPI PUSH1 0x0 DUP1 REVERT JUMPDEST SWAP1 PUSH1 0x0 MSTORE PUSH1 0x20 PUSH1 0x0 KECCAK256 ADD PUSH1 0x0 SWAP2 POP SWAP2 POP SWAP1 SLOAD SWAP1 PUSH2 0x100 EXP SWAP1 DIV PUSH20 0xFFFFFFFFFFFFFFFFFFFFFFFFFFFFFFFFFFFFFFFF AND DUP2 JUMP JUMPDEST PUSH1 0x0 DUP1 PUSH1 0x0 CALLER PUSH20 0xFFFFFFFFFFFFFFFFFFFFFFFFFFFFFFFFFFFFFFFF AND PUSH20 0xFFFFFFFFFFFFFFFFFFFFFFFFFFFFFFFFFFFFFFFF AND DUP2 MSTORE PUSH1 0x20 ADD SWAP1 DUP2 MSTORE PUSH1 0x20 ADD PUSH1 0x0 KECCAK256 DUP3 DUP2 SLOAD DUP2 LT PUSH2 0x21AE JUMPI PUSH2 0x21AD PUSH2 0x2B51 JUMP JUMPDEST JUMPDEST SWAP1 PUSH1 0x0 MSTORE PUSH1 0x20 PUSH1 0x0 KECCAK256 SWAP1 PUSH1 0x3 MUL ADD SWAP1 POP PUSH1 0x0 ISZERO ISZERO DUP2 PUSH1 0x2 ADD PUSH1 0x0 SWAP1 SLOAD SWAP1 PUSH2 0x100 EXP SWAP1 DIV PUSH1 0xFF AND ISZERO ISZERO EQ PUSH2 0x2216 JUMPI PUSH1 0x40 MLOAD PUSH32 0x8C379A000000000000000000000000000000000000000000000000000000000 DUP2 MSTORE PUSH1 0x4 ADD PUSH2 0x220D SWAP1 PUSH2 0x2BF2 JUMP JUMPDEST PUSH1 0x40 MLOAD DUP1 SWAP2 SUB SWAP1 REVERT JUMPDEST PUSH1 0x0 PUSH1 0x3 PUSH1 0x0 CALLER PUSH20 0xFFFFFFFFFFFFFFFFFFFFFFFFFFFFFFFFFFFFFFFF AND PUSH20 0xFFFFFFFFFFFFFFFFFFFFFFFFFFFFFFFFFFFFFFFF AND DUP2 MSTORE PUSH1 0x20 ADD SWAP1 DUP2 MSTORE PUSH1 0x20 ADD PUSH1 0x0 KECCAK256 PUSH1 0x0 DUP4 PUSH1 0x2 ADD PUSH1 0x1 SWAP1 SLOAD SWAP1 PUSH2 0x100 EXP SWAP1 DIV PUSH20 0xFFFFFFFFFFFFFFFFFFFFFFFFFFFFFFFFFFFFFFFF AND PUSH20 0xFFFFFFFFFFFFFFFFFFFFFFFFFFFFFFFFFFFFFFFF AND PUSH20 0xFFFFFFFFFFFFFFFFFFFFFFFFFFFFFFFFFFFFFFFF AND DUP2 MSTORE PUSH1 0x20 ADD SWAP1 DUP2 MSTORE PUSH1 0x20 ADD PUSH1 0x0 KECCAK256 SLOAD PUSH1 0x2 PUSH1 0x0 CALLER PUSH20 0xFFFFFFFFFFFFFFFFFFFFFFFFFFFFFFFFFFFFFFFF AND PUSH20 0xFFFFFFFFFFFFFFFFFFFFFFFFFFFFFFFFFFFFFFFF AND DUP2 MSTORE PUSH1 0x20 ADD SWAP1 DUP2 MSTORE PUSH1 0x20 ADD PUSH1 0x0 KECCAK256 PUSH1 0x0 DUP5 PUSH1 0x2 ADD PUSH1 0x1 SWAP1 SLOAD SWAP1 PUSH2 0x100 EXP SWAP1 DIV PUSH20 0xFFFFFFFFFFFFFFFFFFFFFFFFFFFFFFFFFFFFFFFF AND PUSH20 0xFFFFFFFFFFFFFFFFFFFFFFFFFFFFFFFFFFFFFFFF AND PUSH20 0xFFFFFFFFFFFFFFFFFFFFFFFFFFFFFFFFFFFFFFFF AND DUP2 MSTORE PUSH1 0x20 ADD SWAP1 DUP2 MSTORE PUSH1 0x20 ADD PUSH1 0x0 KECCAK256 SLOAD PUSH2 0x2364 SWAP2 SWAP1 PUSH2 0x2D3F JUMP JUMPDEST GT ISZERO PUSH2 0x24B6 JUMPI DUP1 PUSH1 0x2 ADD PUSH1 0x1 SWAP1 SLOAD SWAP1 PUSH2 0x100 EXP SWAP1 DIV PUSH20 0xFFFFFFFFFFFFFFFFFFFFFFFFFFFFFFFFFFFFFFFF AND PUSH20 0xFFFFFFFFFFFFFFFFFFFFFFFFFFFFFFFFFFFFFFFF AND PUSH2 0x8FC DUP3 PUSH1 0x1 ADD SLOAD SWAP1 DUP2 ISZERO MUL SWAP1 PUSH1 0x40 MLOAD PUSH1 0x0 PUSH1 0x40 MLOAD DUP1 DUP4 SUB DUP2 DUP6 DUP9 DUP9 CALL SWAP4 POP POP POP POP ISZERO DUP1 ISZERO PUSH2 0x23D8 JUMPI RETURNDATASIZE PUSH1 0x0 DUP1 RETURNDATACOPY RETURNDATASIZE PUSH1 0x0 REVERT JUMPDEST POP PUSH1 0x1 DUP2 PUSH1 0x2 ADD PUSH1 0x0 PUSH2 0x100 EXP DUP2 SLOAD DUP2 PUSH1 0xFF MUL NOT AND SWAP1 DUP4 ISZERO ISZERO MUL OR SWAP1 SSTORE POP DUP1 PUSH1 0x1 ADD SLOAD PUSH1 0x3 PUSH1 0x0 CALLER PUSH20 0xFFFFFFFFFFFFFFFFFFFFFFFFFFFFFFFFFFFFFFFF AND PUSH20 0xFFFFFFFFFFFFFFFFFFFFFFFFFFFFFFFFFFFFFFFF AND DUP2 MSTORE PUSH1 0x20 ADD SWAP1 DUP2 MSTORE PUSH1 0x20 ADD PUSH1 0x0 KECCAK256 PUSH1 0x0 DUP4 PUSH1 0x2 ADD PUSH1 0x1 SWAP1 SLOAD SWAP1 PUSH2 0x100 EXP SWAP1 DIV PUSH20 0xFFFFFFFFFFFFFFFFFFFFFFFFFFFFFFFFFFFFFFFF AND PUSH20 0xFFFFFFFFFFFFFFFFFFFFFFFFFFFFFFFFFFFFFFFF AND PUSH20 0xFFFFFFFFFFFFFFFFFFFFFFFFFFFFFFFFFFFFFFFF AND DUP2 MSTORE PUSH1 0x20 ADD SWAP1 DUP2 MSTORE PUSH1 0x20 ADD PUSH1 0x0 KECCAK256 PUSH1 0x0 DUP3 DUP3 SLOAD PUSH2 0x24AA SWAP2 SWAP1 PUSH2 0x3207 JUMP JUMPDEST SWAP3 POP POP DUP2 SWAP1 SSTORE POP PUSH2 0x24C0 JUMP JUMPDEST PUSH2 0x24BF DUP3 PUSH2 0x791 JUMP JUMPDEST JUMPDEST POP POP JUMP JUMPDEST PUSH1 0x1 PUSH1 0x20 MSTORE DUP1 PUSH1 0x0 MSTORE PUSH1 0x40 PUSH1 0x0 KECCAK256 PUSH1 0x0 SWAP2 POP SWAP1 POP SLOAD DUP2 JUMP JUMPDEST PUSH1 0x0 PUSH1 0xA PUSH1 0x0 DUP4 PUSH20 0xFFFFFFFFFFFFFFFFFFFFFFFFFFFFFFFFFFFFFFFF AND PUSH20 0xFFFFFFFFFFFFFFFFFFFFFFFFFFFFFFFFFFFFFFFF AND DUP2 MSTORE PUSH1 0x20 ADD SWAP1 DUP2 MSTORE PUSH1 0x20 ADD PUSH1 0x0 KECCAK256 DUP1 SLOAD SWAP1 POP SWAP1 POP SWAP2 SWAP1 POP JUMP JUMPDEST PUSH1 0x0 PUSH1 0x40 MLOAD SWAP1 POP SWAP1 JUMP JUMPDEST PUSH1 0x0 DUP1 REVERT JUMPDEST PUSH1 0x0 DUP1 REVERT JUMPDEST PUSH1 0x0 PUSH20 0xFFFFFFFFFFFFFFFFFFFFFFFFFFFFFFFFFFFFFFFF DUP3 AND SWAP1 POP SWAP2 SWAP1 POP JUMP JUMPDEST PUSH1 0x0 PUSH2 0x2567 DUP3 PUSH2 0x253C JUMP JUMPDEST SWAP1 POP SWAP2 SWAP1 POP JUMP JUMPDEST PUSH2 0x2577 DUP2 PUSH2 0x255C JUMP JUMPDEST DUP2 EQ PUSH2 0x2582 JUMPI PUSH1 0x0 DUP1 REVERT JUMPDEST POP JUMP JUMPDEST PUSH1 0x0 DUP2 CALLDATALOAD SWAP1 POP PUSH2 0x2594 DUP2 PUSH2 0x256E JUMP JUMPDEST SWAP3 SWAP2 POP POP JUMP JUMPDEST PUSH1 0x0 DUP2 SWAP1 POP SWAP2 SWAP1 POP JUMP JUMPDEST PUSH2 0x25AD DUP2 PUSH2 0x259A JUMP JUMPDEST DUP2 EQ PUSH2 0x25B8 JUMPI PUSH1 0x0 DUP1 REVERT JUMPDEST POP JUMP JUMPDEST PUSH1 0x0 DUP2 CALLDATALOAD SWAP1 POP PUSH2 0x25CA DUP2 PUSH2 0x25A4 JUMP JUMPDEST SWAP3 SWAP2 POP POP JUMP JUMPDEST PUSH1 0x0 DUP1 PUSH1 0x40 DUP4 DUP6 SUB SLT ISZERO PUSH2 0x25E7 JUMPI PUSH2 0x25E6 PUSH2 0x2532 JUMP JUMPDEST JUMPDEST PUSH1 0x0 PUSH2 0x25F5 DUP6 DUP3 DUP7 ADD PUSH2 0x2585 JUMP JUMPDEST SWAP3 POP POP PUSH1 0x20 PUSH2 0x2606 DUP6 DUP3 DUP7 ADD PUSH2 0x25BB JUMP JUMPDEST SWAP2 POP POP SWAP3 POP SWAP3 SWAP1 POP JUMP JUMPDEST PUSH2 0x2619 DUP2 PUSH2 0x255C JUMP JUMPDEST DUP3 MSTORE POP POP JUMP JUMPDEST PUSH1 0x0 PUSH1 0x20 DUP3 ADD SWAP1 POP PUSH2 0x2634 PUSH1 0x0 DUP4 ADD DUP5 PUSH2 0x2610 JUMP JUMPDEST SWAP3 SWAP2 POP POP JUMP JUMPDEST PUSH1 0x0 PUSH1 0x20 DUP3 DUP5 SUB SLT ISZERO PUSH2 0x2650 JUMPI PUSH2 0x264F PUSH2 0x2532 JUMP JUMPDEST JUMPDEST PUSH1 0x0 PUSH2 0x265E DUP5 DUP3 DUP6 ADD PUSH2 0x25BB JUMP JUMPDEST SWAP2 POP POP SWAP3 SWAP2 POP POP JUMP JUMPDEST PUSH1 0x0 PUSH1 0x20 DUP3 DUP5 SUB SLT ISZERO PUSH2 0x267D JUMPI PUSH2 0x267C PUSH2 0x2532 JUMP JUMPDEST JUMPDEST PUSH1 0x0 PUSH2 0x268B DUP5 DUP3 DUP6 ADD PUSH2 0x2585 JUMP JUMPDEST SWAP2 POP POP SWAP3 SWAP2 POP POP JUMP JUMPDEST PUSH2 0x269D DUP2 PUSH2 0x259A JUMP JUMPDEST DUP3 MSTORE POP POP JUMP JUMPDEST PUSH1 0x0 PUSH1 0x20 DUP3 ADD SWAP1 POP PUSH2 0x26B8 PUSH1 0x0 DUP4 ADD DUP5 PUSH2 0x2694 JUMP JUMPDEST SWAP3 SWAP2 POP POP JUMP JUMPDEST PUSH1 0x0 DUP1 PUSH1 0x40 DUP4 DUP6 SUB SLT ISZERO PUSH2 0x26D5 JUMPI PUSH2 0x26D4 PUSH2 0x2532 JUMP JUMPDEST JUMPDEST PUSH1 0x0 PUSH2 0x26E3 DUP6 DUP3 DUP7 ADD PUSH2 0x2585 JUMP JUMPDEST SWAP3 POP POP PUSH1 0x20 PUSH2 0x26F4 DUP6 DUP3 DUP7 ADD PUSH2 0x2585 JUMP JUMPDEST SWAP2 POP POP SWAP3 POP SWAP3 SWAP1 POP JUMP JUMPDEST PUSH1 0x0 PUSH1 0xFF DUP3 AND SWAP1 POP SWAP2 SWAP1 POP JUMP JUMPDEST PUSH2 0x2714 DUP2 PUSH2 0x26FE JUMP JUMPDEST DUP3 MSTORE POP POP JUMP JUMPDEST PUSH1 0x0 PUSH1 0x20 DUP3 ADD SWAP1 POP PUSH2 0x272F PUSH1 0x0 DUP4 ADD DUP5 PUSH2 0x270B JUMP JUMPDEST SWAP3 SWAP2 POP POP JUMP JUMPDEST PUSH1 0x0 DUP1 REVERT JUMPDEST PUSH1 0x0 DUP1 REVERT JUMPDEST PUSH1 0x0 PUSH1 0x1F NOT PUSH1 0x1F DUP4 ADD AND SWAP1 POP SWAP2 SWAP1 POP JUMP JUMPDEST PUSH32 0x4E487B7100000000000000000000000000000000000000000000000000000000 PUSH1 0x0 MSTORE PUSH1 0x41 PUSH1 0x4 MSTORE PUSH1 0x24 PUSH1 0x0 REVERT JUMPDEST PUSH2 0x2788 DUP3 PUSH2 0x273F JUMP JUMPDEST DUP2 ADD DUP2 DUP2 LT PUSH8 0xFFFFFFFFFFFFFFFF DUP3 GT OR ISZERO PUSH2 0x27A7 JUMPI PUSH2 0x27A6 PUSH2 0x2750 JUMP JUMPDEST JUMPDEST DUP1 PUSH1 0x40 MSTORE POP POP POP JUMP JUMPDEST PUSH1 0x0 PUSH2 0x27BA PUSH2 0x2528 JUMP JUMPDEST SWAP1 POP PUSH2 0x27C6 DUP3 DUP3 PUSH2 0x277F JUMP JUMPDEST SWAP2 SWAP1 POP JUMP JUMPDEST PUSH1 0x0 PUSH8 0xFFFFFFFFFFFFFFFF DUP3 GT ISZERO PUSH2 0x27E6 JUMPI PUSH2 0x27E5 PUSH2 0x2750 JUMP JUMPDEST JUMPDEST PUSH2 0x27EF DUP3 PUSH2 0x273F JUMP JUMPDEST SWAP1 POP PUSH1 0x20 DUP2 ADD SWAP1 POP SWAP2 SWAP1 POP JUMP JUMPDEST DUP3 DUP2 DUP4 CALLDATACOPY PUSH1 0x0 DUP4 DUP4 ADD MSTORE POP POP POP JUMP JUMPDEST PUSH1 0x0 PUSH2 0x281E PUSH2 0x2819 DUP5 PUSH2 0x27CB JUMP JUMPDEST PUSH2 0x27B0 JUMP JUMPDEST SWAP1 POP DUP3 DUP2 MSTORE PUSH1 0x20 DUP2 ADD DUP5 DUP5 DUP5 ADD GT ISZERO PUSH2 0x283A JUMPI PUSH2 0x2839 PUSH2 0x273A JUMP JUMPDEST JUMPDEST PUSH2 0x2845 DUP5 DUP3 DUP6 PUSH2 0x27FC JUMP JUMPDEST POP SWAP4 SWAP3 POP POP POP JUMP JUMPDEST PUSH1 0x0 DUP3 PUSH1 0x1F DUP4 ADD SLT PUSH2 0x2862 JUMPI PUSH2 0x2861 PUSH2 0x2735 JUMP JUMPDEST JUMPDEST DUP2 CALLDATALOAD PUSH2 0x2872 DUP5 DUP3 PUSH1 0x20 DUP7 ADD PUSH2 0x280B JUMP JUMPDEST SWAP2 POP POP SWAP3 SWAP2 POP POP JUMP JUMPDEST PUSH1 0x0 DUP1 PUSH1 0x0 PUSH1 0x60 DUP5 DUP7 SUB SLT ISZERO PUSH2 0x2894 JUMPI PUSH2 0x2893 PUSH2 0x2532 JUMP JUMPDEST JUMPDEST PUSH1 0x0 DUP5 ADD CALLDATALOAD PUSH8 0xFFFFFFFFFFFFFFFF DUP2 GT ISZERO PUSH2 0x28B2 JUMPI PUSH2 0x28B1 PUSH2 0x2537 JUMP JUMPDEST JUMPDEST PUSH2 0x28BE DUP7 DUP3 DUP8 ADD PUSH2 0x284D JUMP JUMPDEST SWAP4 POP POP PUSH1 0x20 PUSH2 0x28CF DUP7 DUP3 DUP8 ADD PUSH2 0x25BB JUMP JUMPDEST SWAP3 POP POP PUSH1 0x40 PUSH2 0x28E0 DUP7 DUP3 DUP8 ADD PUSH2 0x2585 JUMP JUMPDEST SWAP2 POP POP SWAP3 POP SWAP3 POP SWAP3 JUMP JUMPDEST PUSH1 0x0 PUSH2 0x28F5 DUP3 PUSH2 0x253C JUMP JUMPDEST SWAP1 POP SWAP2 SWAP1 POP JUMP JUMPDEST PUSH2 0x2905 DUP2 PUSH2 0x28EA JUMP JUMPDEST DUP2 EQ PUSH2 0x2910 JUMPI PUSH1 0x0 DUP1 REVERT JUMPDEST POP JUMP JUMPDEST PUSH1 0x0 DUP2 CALLDATALOAD SWAP1 POP PUSH2 0x2922 DUP2 PUSH2 0x28FC JUMP JUMPDEST SWAP3 SWAP2 POP POP JUMP JUMPDEST PUSH1 0x0 DUP1 PUSH1 0x40 DUP4 DUP6 SUB SLT ISZERO PUSH2 0x293F JUMPI PUSH2 0x293E PUSH2 0x2532 JUMP JUMPDEST JUMPDEST PUSH1 0x0 PUSH2 0x294D DUP6 DUP3 DUP7 ADD PUSH2 0x25BB JUMP JUMPDEST SWAP3 POP POP PUSH1 0x20 PUSH2 0x295E DUP6 DUP3 DUP7 ADD PUSH2 0x2913 JUMP JUMPDEST SWAP2 POP POP SWAP3 POP SWAP3 SWAP1 POP JUMP JUMPDEST PUSH2 0x2971 DUP2 PUSH2 0x26FE JUMP JUMPDEST DUP2 EQ PUSH2 0x297C JUMPI PUSH1 0x0 DUP1 REVERT JUMPDEST POP JUMP JUMPDEST PUSH1 0x0 DUP2 CALLDATALOAD SWAP1 POP PUSH2 0x298E DUP2 PUSH2 0x2968 JUMP JUMPDEST SWAP3 SWAP2 POP POP JUMP JUMPDEST PUSH1 0x0 DUP1 PUSH1 0x40 DUP4 DUP6 SUB SLT ISZERO PUSH2 0x29AB JUMPI PUSH2 0x29AA PUSH2 0x2532 JUMP JUMPDEST JUMPDEST PUSH1 0x0 PUSH2 0x29B9 DUP6 DUP3 DUP7 ADD PUSH2 0x2585 JUMP JUMPDEST SWAP3 POP POP PUSH1 0x20 PUSH2 0x29CA DUP6 DUP3 DUP7 ADD PUSH2 0x297F JUMP JUMPDEST SWAP2 POP POP SWAP3 POP SWAP3 SWAP1 POP JUMP JUMPDEST PUSH1 0x0 DUP2 MLOAD SWAP1 POP SWAP2 SWAP1 POP JUMP JUMPDEST PUSH1 0x0 DUP3 DUP3 MSTORE PUSH1 0x20 DUP3 ADD SWAP1 POP SWAP3 SWAP2 POP POP JUMP JUMPDEST PUSH1 0x0 JUMPDEST DUP4 DUP2 LT ISZERO PUSH2 0x2A0E JUMPI DUP1 DUP3 ADD MLOAD DUP2 DUP5 ADD MSTORE PUSH1 0x20 DUP2 ADD SWAP1 POP PUSH2 0x29F3 JUMP JUMPDEST PUSH1 0x0 DUP5 DUP5 ADD MSTORE POP POP POP POP JUMP JUMPDEST PUSH1 0x0 PUSH2 0x2A25 DUP3 PUSH2 0x29D4 JUMP JUMPDEST PUSH2 0x2A2F DUP2 DUP6 PUSH2 0x29DF JUMP JUMPDEST SWAP4 POP PUSH2 0x2A3F DUP2 DUP6 PUSH1 0x20 DUP7 ADD PUSH2 0x29F0 JUMP JUMPDEST PUSH2 0x2A48 DUP2 PUSH2 0x273F JUMP JUMPDEST DUP5 ADD SWAP2 POP POP SWAP3 SWAP2 POP POP JUMP JUMPDEST PUSH1 0x0 DUP2 ISZERO ISZERO SWAP1 POP SWAP2 SWAP1 POP JUMP JUMPDEST PUSH2 0x2A68 DUP2 PUSH2 0x2A53 JUMP JUMPDEST DUP3 MSTORE POP POP JUMP JUMPDEST PUSH1 0x0 PUSH1 0x80 DUP3 ADD SWAP1 POP DUP2 DUP2 SUB PUSH1 0x0 DUP4 ADD MSTORE PUSH2 0x2A88 DUP2 DUP8 PUSH2 0x2A1A JUMP JUMPDEST SWAP1 POP PUSH2 0x2A97 PUSH1 0x20 DUP4 ADD DUP7 PUSH2 0x2694 JUMP JUMPDEST PUSH2 0x2AA4 PUSH1 0x40 DUP4 ADD DUP6 PUSH2 0x2A5F JUMP JUMPDEST PUSH2 0x2AB1 PUSH1 0x60 DUP4 ADD DUP5 PUSH2 0x2610 JUMP JUMPDEST SWAP6 SWAP5 POP POP POP POP POP JUMP JUMPDEST PUSH1 0x0 DUP1 PUSH1 0x0 DUP1 PUSH1 0x0 PUSH1 0xA0 DUP7 DUP9 SUB SLT ISZERO PUSH2 0x2AD6 JUMPI PUSH2 0x2AD5 PUSH2 0x2532 JUMP JUMPDEST JUMPDEST PUSH1 0x0 PUSH2 0x2AE4 DUP9 DUP3 DUP10 ADD PUSH2 0x2913 JUMP JUMPDEST SWAP6 POP POP PUSH1 0x20 PUSH2 0x2AF5 DUP9 DUP3 DUP10 ADD PUSH2 0x25BB JUMP JUMPDEST SWAP5 POP POP PUSH1 0x40 PUSH2 0x2B06 DUP9 DUP3 DUP10 ADD PUSH2 0x25BB JUMP JUMPDEST SWAP4 POP POP PUSH1 0x60 PUSH2 0x2B17 DUP9 DUP3 DUP10 ADD PUSH2 0x25BB JUMP JUMPDEST SWAP3 POP POP PUSH1 0x80 DUP7 ADD CALLDATALOAD PUSH8 0xFFFFFFFFFFFFFFFF DUP2 GT ISZERO PUSH2 0x2B38 JUMPI PUSH2 0x2B37 PUSH2 0x2537 JUMP JUMPDEST JUMPDEST PUSH2 0x2B44 DUP9 DUP3 DUP10 ADD PUSH2 0x284D JUMP JUMPDEST SWAP2 POP POP SWAP3 SWAP6 POP SWAP3 SWAP6 SWAP1 SWAP4 POP JUMP JUMPDEST PUSH32 0x4E487B7100000000000000000000000000000000000000000000000000000000 PUSH1 0x0 MSTORE PUSH1 0x32 PUSH1 0x4 MSTORE PUSH1 0x24 PUSH1 0x0 REVERT JUMPDEST PUSH32 0x726571756573742068617320616C7265616479206265656E2066696E616C6973 PUSH1 0x0 DUP3 ADD MSTORE PUSH32 0x6564000000000000000000000000000000000000000000000000000000000000 PUSH1 0x20 DUP3 ADD MSTORE POP JUMP JUMPDEST PUSH1 0x0 PUSH2 0x2BDC PUSH1 0x22 DUP4 PUSH2 0x29DF JUMP JUMPDEST SWAP2 POP PUSH2 0x2BE7 DUP3 PUSH2 0x2B80 JUMP JUMPDEST PUSH1 0x40 DUP3 ADD SWAP1 POP SWAP2 SWAP1 POP JUMP JUMPDEST PUSH1 0x0 PUSH1 0x20 DUP3 ADD SWAP1 POP DUP2 DUP2 SUB PUSH1 0x0 DUP4 ADD MSTORE PUSH2 0x2C0B DUP2 PUSH2 0x2BCF JUMP JUMPDEST SWAP1 POP SWAP2 SWAP1 POP JUMP JUMPDEST PUSH32 0x496E73756666696369656E742066756E64730000000000000000000000000000 PUSH1 0x0 DUP3 ADD MSTORE POP JUMP JUMPDEST PUSH1 0x0 PUSH2 0x2C48 PUSH1 0x12 DUP4 PUSH2 0x29DF JUMP JUMPDEST SWAP2 POP PUSH2 0x2C53 DUP3 PUSH2 0x2C12 JUMP JUMPDEST PUSH1 0x20 DUP3 ADD SWAP1 POP SWAP2 SWAP1 POP JUMP JUMPDEST PUSH1 0x0 PUSH1 0x20 DUP3 ADD SWAP1 POP DUP2 DUP2 SUB PUSH1 0x0 DUP4 ADD MSTORE PUSH2 0x2C77 DUP2 PUSH2 0x2C3B JUMP JUMPDEST SWAP1 POP SWAP2 SWAP1 POP JUMP JUMPDEST PUSH32 0x7472616E73616374696F6E2077697468203020657468206973206E6F7420616C PUSH1 0x0 DUP3 ADD MSTORE PUSH32 0x6C6F776564000000000000000000000000000000000000000000000000000000 PUSH1 0x20 DUP3 ADD MSTORE POP JUMP JUMPDEST PUSH1 0x0 PUSH2 0x2CDA PUSH1 0x25 DUP4 PUSH2 0x29DF JUMP JUMPDEST SWAP2 POP PUSH2 0x2CE5 DUP3 PUSH2 0x2C7E JUMP JUMPDEST PUSH1 0x40 DUP3 ADD SWAP1 POP SWAP2 SWAP1 POP JUMP JUMPDEST PUSH1 0x0 PUSH1 0x20 DUP3 ADD SWAP1 POP DUP2 DUP2 SUB PUSH1 0x0 DUP4 ADD MSTORE PUSH2 0x2D09 DUP2 PUSH2 0x2CCD JUMP JUMPDEST SWAP1 POP SWAP2 SWAP1 POP JUMP JUMPDEST PUSH32 0x4E487B7100000000000000000000000000000000000000000000000000000000 PUSH1 0x0 MSTORE PUSH1 0x11 PUSH1 0x4 MSTORE PUSH1 0x24 PUSH1 0x0 REVERT JUMPDEST PUSH1 0x0 PUSH2 0x2D4A DUP3 PUSH2 0x259A JUMP JUMPDEST SWAP2 POP PUSH2 0x2D55 DUP4 PUSH2 0x259A JUMP JUMPDEST SWAP3 POP DUP3 DUP3 SUB SWAP1 POP DUP2 DUP2 GT ISZERO PUSH2 0x2D6D JUMPI PUSH2 0x2D6C PUSH2 0x2D10 JUMP JUMPDEST JUMPDEST SWAP3 SWAP2 POP POP JUMP JUMPDEST PUSH32 0x596F752068617665207573656420616C6C20746865206D6F6E65792074686174 PUSH1 0x0 DUP3 ADD MSTORE PUSH32 0x20776173206C656E7420746F20796F7500000000000000000000000000000000 PUSH1 0x20 DUP3 ADD MSTORE POP JUMP JUMPDEST PUSH1 0x0 PUSH2 0x2DCF PUSH1 0x30 DUP4 PUSH2 0x29DF JUMP JUMPDEST SWAP2 POP PUSH2 0x2DDA DUP3 PUSH2 0x2D73 JUMP JUMPDEST PUSH1 0x40 DUP3 ADD SWAP1 POP SWAP2 SWAP1 POP JUMP JUMPDEST PUSH1 0x0 PUSH1 0x20 DUP3 ADD SWAP1 POP DUP2 DUP2 SUB PUSH1 0x0 DUP4 ADD MSTORE PUSH2 0x2DFE DUP2 PUSH2 0x2DC2 JUMP JUMPDEST SWAP1 POP SWAP2 SWAP1 POP JUMP JUMPDEST PUSH32 0x796F75206172652061736B696E6720666F72206D6F7265206D6F6E6579207468 PUSH1 0x0 DUP3 ADD MSTORE PUSH32 0x616E207768617420686173206265656E206C656E7420746F20796F7500000000 PUSH1 0x20 DUP3 ADD MSTORE POP JUMP JUMPDEST PUSH1 0x0 PUSH2 0x2E61 PUSH1 0x3C DUP4 PUSH2 0x29DF JUMP JUMPDEST SWAP2 POP PUSH2 0x2E6C DUP3 PUSH2 0x2E05 JUMP JUMPDEST PUSH1 0x40 DUP3 ADD SWAP1 POP SWAP2 SWAP1 POP JUMP JUMPDEST PUSH1 0x0 PUSH1 0x20 DUP3 ADD SWAP1 POP DUP2 DUP2 SUB PUSH1 0x0 DUP4 ADD MSTORE PUSH2 0x2E90 DUP2 PUSH2 0x2E54 JUMP JUMPDEST SWAP1 POP SWAP2 SWAP1 POP JUMP JUMPDEST PUSH32 0x4E487B7100000000000000000000000000000000000000000000000000000000 PUSH1 0x0 MSTORE PUSH1 0x22 PUSH1 0x4 MSTORE PUSH1 0x24 PUSH1 0x0 REVERT JUMPDEST PUSH1 0x0 PUSH1 0x2 DUP3 DIV SWAP1 POP PUSH1 0x1 DUP3 AND DUP1 PUSH2 0x2EDE JUMPI PUSH1 0x7F DUP3 AND SWAP2 POP JUMPDEST PUSH1 0x20 DUP3 LT DUP2 SUB PUSH2 0x2EF1 JUMPI PUSH2 0x2EF0 PUSH2 0x2E97 JUMP JUMPDEST JUMPDEST POP SWAP2 SWAP1 POP JUMP JUMPDEST PUSH1 0x0 DUP2 SWAP1 POP DUP2 PUSH1 0x0 MSTORE PUSH1 0x20 PUSH1 0x0 KECCAK256 SWAP1 POP SWAP2 SWAP1 POP JUMP JUMPDEST PUSH1 0x0 PUSH1 0x20 PUSH1 0x1F DUP4 ADD DIV SWAP1 POP SWAP2 SWAP1 POP JUMP JUMPDEST PUSH1 0x0 DUP3 DUP3 SHL SWAP1 POP SWAP3 SWAP2 POP POP JUMP JUMPDEST PUSH1 0x0 PUSH1 0x8 DUP4 MUL PUSH2 0x2F59 PUSH32 0xFFFFFFFFFFFFFFFFFFFFFFFFFFFFFFFFFFFFFFFFFFFFFFFFFFFFFFFFFFFFFFFF DUP3 PUSH2 0x2F1C JUMP JUMPDEST PUSH2 0x2F63 DUP7 DUP4 PUSH2 0x2F1C JUMP JUMPDEST SWAP6 POP DUP1 NOT DUP5 AND SWAP4 POP DUP1 DUP7 AND DUP5 OR SWAP3 POP POP POP SWAP4 SWAP3 POP POP POP JUMP JUMPDEST PUSH1 0x0 DUP2 SWAP1 POP SWAP2 SWAP1 POP JUMP JUMPDEST PUSH1 0x0 PUSH2 0x2FA0 PUSH2 0x2F9B PUSH2 0x2F96 DUP5 PUSH2 0x259A JUMP JUMPDEST PUSH2 0x2F7B JUMP JUMPDEST PUSH2 0x259A JUMP JUMPDEST SWAP1 POP SWAP2 SWAP1 POP JUMP JUMPDEST PUSH1 0x0 DUP2 SWAP1 POP SWAP2 SWAP1 POP JUMP JUMPDEST PUSH2 0x2FBA DUP4 PUSH2 0x2F85 JUMP JUMPDEST PUSH2 0x2FCE PUSH2 0x2FC6 DUP3 PUSH2 0x2FA7 JUMP JUMPDEST DUP5 DUP5 SLOAD PUSH2 0x2F29 JUMP JUMPDEST DUP3 SSTORE POP POP POP POP JUMP JUMPDEST PUSH1 0x0 SWAP1 JUMP JUMPDEST PUSH2 0x2FE3 PUSH2 0x2FD6 JUMP JUMPDEST PUSH2 0x2FEE DUP2 DUP5 DUP5 PUSH2 0x2FB1 JUMP JUMPDEST POP POP POP JUMP JUMPDEST JUMPDEST DUP2 DUP2 LT ISZERO PUSH2 0x3012 JUMPI PUSH2 0x3007 PUSH1 0x0 DUP3 PUSH2 0x2FDB JUMP JUMPDEST PUSH1 0x1 DUP2 ADD SWAP1 POP PUSH2 0x2FF4 JUMP JUMPDEST POP POP JUMP JUMPDEST PUSH1 0x1F DUP3 GT ISZERO PUSH2 0x3057 JUMPI PUSH2 0x3028 DUP2 PUSH2 0x2EF7 JUMP JUMPDEST PUSH2 0x3031 DUP5 PUSH2 0x2F0C JUMP JUMPDEST DUP2 ADD PUSH1 0x20 DUP6 LT ISZERO PUSH2 0x3040 JUMPI DUP2 SWAP1 POP JUMPDEST PUSH2 0x3054 PUSH2 0x304C DUP6 PUSH2 0x2F0C JUMP JUMPDEST DUP4 ADD DUP3 PUSH2 0x2FF3 JUMP JUMPDEST POP POP JUMPDEST POP POP POP JUMP JUMPDEST PUSH1 0x0 DUP3 DUP3 SHR SWAP1 POP SWAP3 SWAP2 POP POP JUMP JUMPDEST PUSH1 0x0 PUSH2 0x307A PUSH1 0x0 NOT DUP5 PUSH1 0x8 MUL PUSH2 0x305C JUMP JUMPDEST NOT DUP1 DUP4 AND SWAP2 POP POP SWAP3 SWAP2 POP POP JUMP JUMPDEST PUSH1 0x0 PUSH2 0x3093 DUP4 DUP4 PUSH2 0x3069 JUMP JUMPDEST SWAP2 POP DUP3 PUSH1 0x2 MUL DUP3 OR SWAP1 POP SWAP3 SWAP2 POP POP JUMP JUMPDEST PUSH2 0x30AC DUP3 PUSH2 0x29D4 JUMP JUMPDEST PUSH8 0xFFFFFFFFFFFFFFFF DUP2 GT ISZERO PUSH2 0x30C5 JUMPI PUSH2 0x30C4 PUSH2 0x2750 JUMP JUMPDEST JUMPDEST PUSH2 0x30CF DUP3 SLOAD PUSH2 0x2EC6 JUMP JUMPDEST PUSH2 0x30DA DUP3 DUP3 DUP6 PUSH2 0x3016 JUMP JUMPDEST PUSH1 0x0 PUSH1 0x20 SWAP1 POP PUSH1 0x1F DUP4 GT PUSH1 0x1 DUP2 EQ PUSH2 0x310D JUMPI PUSH1 0x0 DUP5 ISZERO PUSH2 0x30FB JUMPI DUP3 DUP8 ADD MLOAD SWAP1 POP JUMPDEST PUSH2 0x3105 DUP6 DUP3 PUSH2 0x3087 JUMP JUMPDEST DUP7 SSTORE POP PUSH2 0x316D JUMP JUMPDEST PUSH1 0x1F NOT DUP5 AND PUSH2 0x311B DUP7 PUSH2 0x2EF7 JUMP JUMPDEST PUSH1 0x0 JUMPDEST DUP3 DUP2 LT ISZERO PUSH2 0x3143 JUMPI DUP5 DUP10 ADD MLOAD DUP3 SSTORE PUSH1 0x1 DUP3 ADD SWAP2 POP PUSH1 0x20 DUP6 ADD SWAP5 POP PUSH1 0x20 DUP2 ADD SWAP1 POP PUSH2 0x311E JUMP JUMPDEST DUP7 DUP4 LT ISZERO PUSH2 0x3160 JUMPI DUP5 DUP10 ADD MLOAD PUSH2 0x315C PUSH1 0x1F DUP10 AND DUP3 PUSH2 0x3069 JUMP JUMPDEST DUP4 SSTORE POP JUMPDEST PUSH1 0x1 PUSH1 0x2 DUP9 MUL ADD DUP9 SSTORE POP POP POP JUMPDEST POP POP POP POP POP POP JUMP JUMPDEST PUSH32 0x546865206164647265737320646F65736E7420686176652074686174206D7563 PUSH1 0x0 DUP3 ADD MSTORE PUSH32 0x682066756E647300000000000000000000000000000000000000000000000000 PUSH1 0x20 DUP3 ADD MSTORE POP JUMP JUMPDEST PUSH1 0x0 PUSH2 0x31D1 PUSH1 0x27 DUP4 PUSH2 0x29DF JUMP JUMPDEST SWAP2 POP PUSH2 0x31DC DUP3 PUSH2 0x3175 JUMP JUMPDEST PUSH1 0x40 DUP3 ADD SWAP1 POP SWAP2 SWAP1 POP JUMP JUMPDEST PUSH1 0x0 PUSH1 0x20 DUP3 ADD SWAP1 POP DUP2 DUP2 SUB PUSH1 0x0 DUP4 ADD MSTORE PUSH2 0x3200 DUP2 PUSH2 0x31C4 JUMP JUMPDEST SWAP1 POP SWAP2 SWAP1 POP JUMP JUMPDEST PUSH1 0x0 PUSH2 0x3212 DUP3 PUSH2 0x259A JUMP JUMPDEST SWAP2 POP PUSH2 0x321D DUP4 PUSH2 0x259A JUMP JUMPDEST SWAP3 POP DUP3 DUP3 ADD SWAP1 POP DUP1 DUP3 GT ISZERO PUSH2 0x3235 JUMPI PUSH2 0x3234 PUSH2 0x2D10 JUMP JUMPDEST JUMPDEST SWAP3 SWAP2 POP POP JUMP JUMPDEST PUSH32 0x4E6F206C6F616E20676976656E00000000000000000000000000000000000000 PUSH1 0x0 DUP3 ADD MSTORE POP JUMP JUMPDEST PUSH1 0x0 PUSH2 0x3271 PUSH1 0xD DUP4 PUSH2 0x29DF JUMP JUMPDEST SWAP2 POP PUSH2 0x327C DUP3 PUSH2 0x323B JUMP JUMPDEST PUSH1 0x20 DUP3 ADD SWAP1 POP SWAP2 SWAP1 POP JUMP JUMPDEST PUSH1 0x0 PUSH1 0x20 DUP3 ADD SWAP1 POP DUP2 DUP2 SUB PUSH1 0x0 DUP4 ADD MSTORE PUSH2 0x32A0 DUP2 PUSH2 0x3264 JUMP JUMPDEST SWAP1 POP SWAP2 SWAP1 POP JUMP JUMPDEST PUSH32 0x596F752063616E6E6F74206C656E64206D6F6E657920746F20796F757273656C PUSH1 0x0 DUP3 ADD MSTORE PUSH32 0x6600000000000000000000000000000000000000000000000000000000000000 PUSH1 0x20 DUP3 ADD MSTORE POP JUMP JUMPDEST PUSH1 0x0 PUSH2 0x3303 PUSH1 0x21 DUP4 PUSH2 0x29DF JUMP JUMPDEST SWAP2 POP PUSH2 0x330E DUP3 PUSH2 0x32A7 JUMP JUMPDEST PUSH1 0x40 DUP3 ADD SWAP1 POP SWAP2 SWAP1 POP JUMP JUMPDEST PUSH1 0x0 PUSH1 0x20 DUP3 ADD SWAP1 POP DUP2 DUP2 SUB PUSH1 0x0 DUP4 ADD MSTORE PUSH2 0x3332 DUP2 PUSH2 0x32F6 JUMP JUMPDEST SWAP1 POP SWAP2 SWAP1 POP JUMP JUMPDEST PUSH32 0x596F752063616E6E6F7420706179206D6F6E657920746F20796F757273656C66 PUSH1 0x0 DUP3 ADD MSTORE POP JUMP JUMPDEST PUSH1 0x0 PUSH2 0x336F PUSH1 0x20 DUP4 PUSH2 0x29DF JUMP JUMPDEST SWAP2 POP PUSH2 0x337A DUP3 PUSH2 0x3339 JUMP JUMPDEST PUSH1 0x20 DUP3 ADD SWAP1 POP SWAP2 SWAP1 POP JUMP JUMPDEST PUSH1 0x0 PUSH1 0x20 DUP3 ADD SWAP1 POP DUP2 DUP2 SUB PUSH1 0x0 DUP4 ADD MSTORE PUSH2 0x339E DUP2 PUSH2 0x3362 JUMP JUMPDEST SWAP1 POP SWAP2 SWAP1 POP JUMP JUMPDEST PUSH1 0x0 PUSH1 0x80 DUP3 ADD SWAP1 POP PUSH2 0x33BA PUSH1 0x0 DUP4 ADD DUP8 PUSH2 0x2694 JUMP JUMPDEST PUSH2 0x33C7 PUSH1 0x20 DUP4 ADD DUP7 PUSH2 0x2694 JUMP JUMPDEST PUSH2 0x33D4 PUSH1 0x40 DUP4 ADD DUP6 PUSH2 0x2694 JUMP JUMPDEST DUP2 DUP2 SUB PUSH1 0x60 DUP4 ADD MSTORE PUSH2 0x33E6 DUP2 DUP5 PUSH2 0x2A1A JUMP JUMPDEST SWAP1 POP SWAP6 SWAP5 POP POP POP POP POP JUMP INVALID LOG2 PUSH5 0x6970667358 0x22 SLT KECCAK256 MLOAD PUSH29 0x2F3D14B4E9E447D785AF52CB6503DDD466F2E00AC83D721B340CCD5121 LOG1 PUSH5 0x736F6C6343 STOP ADDMOD SGT STOP CALLER "},"gasEstimates":{"creation":{"codeDepositCost":"2670200","executionCost":"2900","totalCost":"2673100"},"external":{"ReceivedFrom(address,address)":"infinite","addFund()":"infinite","approveRequest(uint256)":"infinite","balance(address)":"2902","borrowed(address,address)":"infinite","clearedMyDebt(address)":"5738","createRequest(string,uint256,address)":"infinite","given(address,address)":"infinite","lend(uint256,address)":"infinite","loanGivenArr(address,uint256)":"infinite","loanTakenArr(address,uint256)":"infinite","numberOfPeopleIPaid(address)":"2938","numberOfPeopleWhoHaveGivenLoanToMe(address)":"2917","numberOfPeopleWhoPaidMe(address)":"2894","numberOfPeopleWhomIHaveGivenLoan(address)":"2959","numberOfRequets(address)":"2938","paidArr(address,uint256)":"infinite","paidTo(address,address)":"infinite","pay(address,uint256,uint256,uint256,string)":"infinite","rate(address,address)":"infinite","receivedArr(address,uint256)":"infinite","rejectRequest(uint256)":"29218","requests(address,uint256)":"infinite","setRate(address,uint8)":"27428","takeBack(uint256,address)":"infinite","totalBalanceIHaveAdded(address)":"2904","used(address,address)":"infinite","withdraw(uint256)":"infinite"}},"methodIdentifiers":{"ReceivedFrom(address,address)":"d2713bcf","addFund()":"a2f09dfa","approveRequest(uint256)":"d7d1bbdb","balance(address)":"e3d670d7","borrowed(address,address)":"b0a02abe","clearedMyDebt(address)":"43999ac2","createRequest(string,uint256,address)":"8a9cfd55","given(address,address)":"b331ea63","lend(uint256,address)":"b1884744","loanGivenArr(address,uint256)":"092a0a8a","loanTakenArr(address,uint256)":"31287c31","numberOfPeopleIPaid(address)":"d522ac8f","numberOfPeopleWhoHaveGivenLoanToMe(address)":"334e3de2","numberOfPeopleWhoPaidMe(address)":"ad1ac14c","numberOfPeopleWhomIHaveGivenLoan(address)":"f0610297","numberOfRequets(address)":"8ead837b","paidArr(address,uint256)":"4fd49044","paidTo(address,address)":"88811f8d","pay(address,uint256,uint256,uint256,string)":"d14d7ae8","rate(address,address)":"50e30042","receivedArr(address,uint256)":"d7b6e15e","rejectRequest(uint256)":"2d7788db","requests(address,uint256)":"9ecebe2a","setRate(address,uint8)":"9e6b84c4","takeBack(uint256,address)":"95f4513a","totalBalanceIHaveAdded(address)":"71929c51","used(address,address)":"5195afa5","withdraw(uint256)":"2e1a7d4d"}},"storageLayout":{"storage":[{"astId":16,"contract":"DePay.sol:DePay","label":"requests","offset":0,"slot":"0","type":"t_mapping(t_address,t_array(t_struct(Request)10_storage)dyn_storage)"},{"astId":20,"contract":"DePay.sol:DePay","label":"balance","offset":0,"slot":"1","type":"t_mapping(t_address,t_uint256)"},{"astId":26,"contract":"DePay.sol:DePay","label":"given","offset":0,"slot":"2","type":"t_mapping(t_address,t_mapping(t_address,t_uint256))"},{"astId":32,"contract":"DePay.sol:DePay","label":"used","offset":0,"slot":"3","type":"t_mapping(t_address,t_mapping(t_address,t_uint256))"},{"astId":38,"contract":"DePay.sol:DePay","label":"borrowed","offset":0,"slot":"4","type":"t_mapping(t_address,t_mapping(t_address,t_uint256))"},{"astId":44,"contract":"DePay.sol:DePay","label":"paidTo","offset":0,"slot":"5","type":"t_mapping(t_address,t_mapping(t_address,t_uint256))"},{"astId":50,"contract":"DePay.sol:DePay","label":"ReceivedFrom","offset":0,"slot":"6","type":"t_mapping(t_address,t_mapping(t_address,t_uint256))"},{"astId":56,"contract":"DePay.sol:DePay","label":"rate","offset":0,"slot":"7","type":"t_mapping(t_address,t_mapping(t_address,t_uint8))"},{"astId":61,"contract":"DePay.sol:DePay","label":"paidArr","offset":0,"slot":"8","type":"t_mapping(t_address,t_array(t_address)dyn_storage)"},{"astId":66,"contract":"DePay.sol:DePay","label":"receivedArr","offset":0,"slot":"9","type":"t_mapping(t_address,t_array(t_address)dyn_storage)"},{"astId":71,"contract":"DePay.sol:DePay","label":"loanGivenArr","offset":0,"slot":"10","type":"t_mapping(t_address,t_array(t_address)dyn_storage)"},{"astId":76,"contract":"DePay.sol:DePay","label":"loanTakenArr","offset":0,"slot":"11","type":"t_mapping(t_address,t_array(t_address)dyn_storage)"},{"astId":80,"contract":"DePay.sol:DePay","label":"totalBalanceIHaveAdded","offset":0,"slot":"12","type":"t_mapping(t_address,t_uint256)"}],"types":{"t_address":{"encoding":"inplace","label":"address","numberOfBytes":"20"},"t_array(t_address)dyn_storage":{"base":"t_address","encoding":"dynamic_array","label":"address[]","numberOfBytes":"32"},"t_array(t_struct(Request)10_storage)dyn_storage":{"base":"t_struct(Request)10_storage","encoding":"dynamic_array","label":"struct DePay.Request[]","numberOfBytes":"32"},"t_bool":{"encoding":"inplace","label":"bool","numberOfBytes":"1"},"t_mapping(t_address,t_array(t_address)dyn_storage)":{"encoding":"mapping","key":"t_address","label":"mapping(address => address[])","numberOfBytes":"32","value":"t_array(t_address)dyn_storage"},"t_mapping(t_address,t_array(t_struct(Request)10_storage)dyn_storage)":{"encoding":"mapping","key":"t_address","label":"mapping(address => struct DePay.Request[])","numberOfBytes":"32","value":"t_array(t_struct(Request)10_storage)dyn_storage"},"t_mapping(t_address,t_mapping(t_address,t_uint256))":{"encoding":"mapping","key":"t_address","label":"mapping(address => mapping(address => uint256))","numberOfBytes":"32","value":"t_mapping(t_address,t_uint256)"},"t_mapping(t_address,t_mapping(t_address,t_uint8))":{"encoding":"mapping","key":"t_address","label":"mapping(address => mapping(address => uint8))","numberOfBytes":"32","value":"t_mapping(t_address,t_uint8)"},"t_mapping(t_address,t_uint256)":{"encoding":"mapping","key":"t_address","label":"mapping(address => uint256)","numberOfBytes":"32","value":"t_uint256"},"t_mapping(t_address,t_uint8)":{"encoding":"mapping","key":"t_address","label":"mapping(address => uint8)","numberOfBytes":"32","value":"t_uint8"},"t_string_storage":{"encoding":"bytes","label":"string","numberOfBytes":"32"},"t_struct(Request)10_storage":{"encoding":"inplace","label":"struct DePay.Request","members":[{"astId":3,"contract":"DePay.sol:DePay","label":"description","offset":0,"slot":"0","type":"t_string_storage"},{"astId":5,"contract":"DePay.sol:DePay","label":"value","offset":0,"slot":"1","type":"t_uint256"},{"astId":7,"contract":"DePay.sol:DePay","label":"complete","offset":0,"slot":"2","type":"t_bool"},{"astId":9,"contract":"DePay.sol:DePay","label":"from","offset":1,"slot":"2","type":"t_address"}],"numberOfBytes":"96"},"t_uint256":{"encoding":"inplace","label":"uint256","numberOfBytes":"32"},"t_uint8":{"encoding":"inplace","label":"uint8","numberOfBytes":"1"}}},"userdoc":{"kind":"user","methods":{},"version":1}}